:020000040800F2
:10000000C8080020A1010008BD230008072200083D
:10001000B9230008890E00088728000800000000A6
:100020000000000000000000000000000927000898
:100030008D0E000800000000C32500080B270008F3
:10004000BB010008BB010008BB010008BB010008A0
:10005000BB010008BB010008BB010008BB01000890
:10006000BB010008BB010008BB010008BB01000880
:10007000BB010008BB010008BB010008BB01000870
:10008000BB010008BB010008BB010008BB01000860
:10009000BB010008BB010008BB010008BB01000850
:1000A000BB010008BB010008BB010008BB01000840
:1000B0007D270008BB010008BB010008BB01000848
:1000C000BB010008BB010008BB010008BB01000820
:1000D000BB010008BB010008BB010008BB01000810
:1000E000BB010008BB010008BB01000800F002F8DA
:1000F00000F047F80AA090E8000C82448344AAF17B
:100100000107DA4501D100F03CF8AFF2090EBAE878
:100110000F0013F0010F18BFFB1A43F0010318473B
:10012000943F0000B43F0000103A24BF78C878C163
:10013000FAD8520724BF30C830C144BF04680C60ED
:10014000704700000023002400250026103A28BF35
:1001500078C1FBD8520728BF30C148BF0B60704739
:10016000642900F07D80002070471FB59DE80300E2
:1001700000F060FC00F066F91FBD10B500F0CBF98F
:1001800010BD00F033FA1146FFF7EFFF02F0FEFD5D
:1001900000F022FC03B4FFF7F0FF03BC00F0DCFD2D
:1001A0000948804709480047FEE7FEE7FEE7FEE70B
:1001B000FEE7FEE7FEE7FEE7FEE7FEE70448054947
:1001C000054A064B7047000079270008ED0000083B
:1001D000C8020020C8080020C8040020C80400206D
:1001E0000FB4044910B503AA029800F0F9F810BC46
:1001F0005DF814FBBC0100202DE9F0410E460446D9
:10020000002020622046E168884730B3252805D0C9
:10021000D4E901219047206A401CF2E7E1682046BA
:1002200000278847050018D0A5F14100192802D8F9
:1002300020354FF400673246294620462760FFF7F5
:100240008FFF40B1012804D0F61D26F007060836BE
:10025000D8E7361DD6E72846DAE7206ABDE8F08100
:100260002DE9F0410646002410687529314616A58F
:1002700010D0AFF30080002802DA404213A507E057
:1002800031688A0701D512A502E0490704D511A5F6
:10029000012401E0AFF3008000210A2206F12407C7
:1002A00009E0B0FBF2FCB0FBF2F302FB1C003030C3
:1002B00078541846491C0028F3D123462A46304674
:1002C000BDE8F04100F032B8000000002D00000051
:1002D0002B000000200000004FF0000200B5134684
:1002E00094469646203922BFA0E80C50A0E80C5056
:1002F000B1F12001BFF4F7AF090728BFA0E80C5007
:1003000048BF0CC05DF804EB890028BF40F8042BFF
:1003100008BF704748BF20F8022B11F0804F18BF6C
:1003200000F8012B70477047704770472DE9F04780
:100330000D4699469246044600F124080168880655
:1003400004D5E06921F01001216000E00120A842FD
:1003500001DD471B00E00027A1697A1902EB0900C3
:10036000081AA0612078C00602D42046AFF30080AE
:10037000002608E0D4E901211AF806009047206A17
:10038000401C761C20624E45F4DB2078C0060AD55E
:100390002046AFF3008006E0D4E9012130209047E9
:1003A000206A401C2062381EA7F10107F4DC07E038
:1003B000D4E9012118F805009047206A401C20620A
:1003C000281EA5F10105F3DC2046AFF3008020785C
:1003D000000602D50220BDE8F0870120FBE70000FF
:1003E000074B70B50D467B4400F015F804462846CF
:1003F00000F024F810B14FF0FF3070BD204670BD02
:10040000DF260000004870476402002001694A1C92
:1004100002610878704700B58FB0CDE90131002145
:10042000059105497944CDE9031011466846FFF767
:10043000E3FE0FB000BD0000E5FFFFFF007B00F012
:100440008000704710B542485421FFF745FF4148EE
:100450005421FFF741FF40485421FFF73DFF3F493A
:100460003B483C4A3F4B08603D490A603A491960A5
:10047000531C0365481C1065012008653B48344A3D
:1004800039A1784400F00CFA20B9384878440A3889
:1004900000F0ABFA37482F4A35A1784400F000FA53
:1004A00020B9344878440A3800F09FFA32482A4A82
:1004B0002FA1784400F0F4F920B92F4878440A3885
:1004C00000F093FA40232248DC000021224600F08D
:1004D000C4F920B125487844543800F086FA1D4804
:1004E00022464023002100F0B8F920B12148784489
:1004F000543800F07AFA184822461023002100F000
:10050000ACF9002806D01C487844BDE810405638A5
:1005100000F06BBA10BD104870B5006D20F00104FA
:100520000B4800F033FA0B4800F030FA0A4800F0AC
:100530002DFA09E0206D20F00105204600F026FA92
:10054000204600F078F82C46002CF3D170BD000056
:1005500068010020BC010020100200208000002063
:10056000840000208800002072000000223C00006F
:10057000770000000E3C0000FA3B00000EB5CDE90C
:10058000000100F0C9FB029069460120ABBE0EBD20
:1005900008B5694600900220ABBE08BD1FB58DE8C6
:1005A000070069460520ABBE04B010BD1FB58DE83D
:1005B0000F0069460620ABBEF6E708B56946009015
:1005C0000920ABBE08BD1CB5CDE9000169460A2073
:1005D000ABBE1CBD704708B5694600900C20ABBE91
:1005E00008BD000000487047640200207546FFF710
:1005F000F9FFAE4605006946534620F007008546E0
:1006000018B020B5FFF7DAFDBDE820404FF0000636
:100610004FF000074FF000084FF0000B21F00701EA
:10062000AC46ACE8C009ACE8C009ACE8C009ACE82D
:10063000C0098D46704770B50446051F00F0DEF90D
:100640000068002C14BF446870BD002C18BFAC4279
:100650003CBF20466468F8D301680A18AA4218BF54
:10066000456003D12A680546114401602868411994
:10067000A1421CBF6C6070BD61686960216808445C
:10068000286070BD2DE9F04705460C46C86820F487
:10069000201040F48000C860800602D5084600F0B3
:1006A000FAFAE06841F282014FF0FF390140022975
:1006B00003D0204600F098FAB5E000F42041B1F5EF
:1006C000004F0FD1C00306D56168E06A884200D8A8
:1006D0000846606006E02069E06260606069FFF7DC
:1006E0007AFFA061A0680022EEB200280DDAE1686E
:1006F0008B050AD4C043A06041F490302260E060D2
:100700006068411C61600670A5E0E0689046226068
:1007100040F40050E060206968BB6069FFF74DFF5E
:10072000012704F12405A0B1A08910F4407F08D06E
:10073000E06900F0AEF9206118B1E06840F40060B3
:1007400016E0E7612561E06820F4407040F48060C5
:100750000EE0E06900F09DF900282061F1D0E0682A
:1007600040F4006010F4407FE06002D140F48070FB
:10077000E06020696060E06825696FF0010AC105EA
:100780001FD56168E06A884200D80846411B04D042
:100790002246284600F032FAF0BBE068010203D599
:1007A000E562C4E9015854E0691CE1626160E169F5
:1007B00040F48030491EC4E9021030462E70BDE876
:1007C000F087010202D500F480320AE06068411C23
:1007D00061600670E0680A2E40F48030E06006D068
:1007E0000022E16A6068814203D90B4602E00122DF
:1007F000F7E70346A7895B1B7F0503D4E7699F42A0
:1008000000DDE2B1814200D80146E5620F1AC4E979
:100810000158002B09DD00E005E022461946284674
:1008200000F0ECF908B14846C9E747B1A069E562B4
:100830006560C01BA061E06840F01000E060E06807
:10084000000208D56168A069E562491B084465603B
:10085000A0615046B3E73046B1E770B5C468A5075C
:1008600013D0650211D4B2F5807F09D0B2F5007FB4
:1008700006D0B2F5806F08D1012300F1240106E013
:100880005D1E6FF07F46B54201D3012070BD01614E
:10089000C361416024F470611143C160002070BDE8
:1008A0002DE9F0410C4607461646104600F06EF85A
:1008B0002078611C61280AD0722802D077283CD1A8
:1008C00002E00125002405E00225042402E00824BA
:1008D00048F2020511F8010B2B2806D0622809D036
:1008E00011F8010C74280AD00BE045F0030544F020
:1008F0000204EFE745F0040544F00104EAE744F0A0
:10090000100438462146FFF739FE411C15D000215E
:10091000316171604FF40071F560F1617061200721
:1009200004D530460222002100F0E2F8306D40F09C
:10093000010030653046BDE8F0810020FBE72DE97D
:10094000F0410D460646104C206DC10704D0410809
:1009500004D020F00104F7E722460EE0542000F016
:1009600098F807000ED0206D47F00101084354218C
:1009700020653846FFF7B0FC3A4629463046BDE8C8
:10098000F0418DE70020D6E7680100202DE9F0470F
:1009900004464FF000094FF0FF37C568D4E90486DC
:1009A000A80707D0204600F053F93046FFF7F0FDC6
:1009B000002802DA3846BDE8F087280502D540460F
:1009C000FFF739FE4C212046FFF786FC206D20F012
:1009D000010020654846EEE710B50446AFF30080FD
:1009E0002046BDE81040FFF7D5BB10B500F07AF9FE
:1009F000BDE8104000F070B9704700000048704733
:100A00006C020020704770477047704738B5044645
:100A10000A4600206946AFF30080002808BF38BDB1
:100A200002460099204600F0A4F9012038BD0120BB
:100A300000F0F3B9F8B5AFF30080054600200C468E
:100A4000102000BF0646A819A0420DD932466946BB
:100A50000020AFF30080070008BF00F0DEF9009827
:100A6000A04218BF0546C419FFF7C8FF0560074636
:100A7000F01D20F007004619284600F073F9B44233
:100A800008BFF8BDA21B31463868BDE8F84000F049
:100A900070B970B50646FFF7B1FF056806F10B00A7
:100AA00020F00704B4429CBF002070BD2B466A684A
:100AB000BAB11068A04210D304F1080188423CBFCB
:100AC0005068586007D35168101941601168091BBC
:100AD000016058601460101D70BD13465268002AF2
:100AE000E7D121462846FFF791FF0028DED170BDEF
:100AF0002DE9F041044616460D464769007B800704
:100B00002ED03846FFF759FD50BB3EB3012E02D020
:100B1000022E25D104E0204600F045F905441DE0F1
:100B20003846FFF758FDE168002841F01001E16008
:100B300005DA204600F058F80120BDE8F081C9032D
:100B40000BD56268E16A914200D81146A26911444E
:100B50002269891A814200DD08460544002D01DA28
:100B60000220EAE7E16A6068E268814206D2910306
:100B7000E06203D522F4003141F01002A66900279B
:100B8000AE4213DCE16A814201D90B4600E0034624
:100B900003EB060C2369ACEB030CAC4506DD81428C
:100BA00001D98C4600E084469C4505D1A7602760AA
:100BB00042F02000A5620DE0AD1BE669AE1B81424C
:100BC000A66000D90846C01A281A2060581960602B
:100BD00022F0200003490840E060002084F84870BB
:100BE000ABE70000BFCFD7FFC16821F4001141F08F
:100BF0008001C16000218160016070472DE9F047EC
:100C0000814614460E464FF0FF383248D568576982
:100C1000054209D03846A169FFF7D5FC002811DB51
:100C20002C48C0430540E5602B46324649463846CD
:100C3000FFF7B4FCA16920F00042B21A1144002869
:100C4000A16103D02046FFF7CFFF4046BDE8F08703
:100C500070B504460569C06A6168884200D80846D4
:100C6000E16821F42011E160C90312D5A84208D03F
:100C70002246411B2846FFF7C1FF10B14FF0FF305D
:100C800070BD0020E562C4E90150E06820F48030C6
:100C9000E060002070BD10B50446C06820F0200060
:100CA000E060A16AA06988420DD02046FFF7D0FF1E
:100CB000E06820F4405040F01000E060A06AA061BD
:100CC0002069E062606044F24001E0688843E060CF
:100CD00010BD000010000200002801D000F03CB858
:100CE0007047000010B5014602A000F07DF8012019
:100CF00010BD000053494752545245443A205265B2
:100D00006469726563743A2063616E2774206F7042
:100D1000656E3A200000000010B5431C02E010F898
:100D2000011B71B18107FAD14FF0013202C88C1A50
:100D30008C4314EAC211F9D0C01A0A0603D0C01EAF
:100D400010BDC01A10BD0A0401D0801E10BD0902DA
:100D5000FCD0401E10BD000001491820ABBEFEE7CC
:100D60002600020000210160C0E901107047102038
:100D70007047034640688C46002818BF88423CBF35
:100D800003464068F8D318681844884207D00CF12D
:100D9000030020F00700001D411A521A0146081DE9
:100DA0000A60FFF748BC10B50146C268900703D03F
:100DB000900607D5886A0AE0FFF724FB012101604D
:100DC000881E10BD8B69486818440B69C01A91F8D9
:100DD00048301BB191F84910401A10BD1103FCD5E1
:100DE0000028FADD401E10BD70B505460C460A20ED
:100DF00000E06D1C00F018F835B128780028F8D113
:100E000002E0641C00F010F814B120780028F8D13A
:100E1000BDE870400A2000F007B810B500F00CF8EB
:100E2000BDE81040FFF758BF08B569468DF80000CF
:100E30000320ABBE08BD000010B5012805D000217D
:100E400003A0FFF7D1FF012010BD09A1F8E70000C2
:100E500053494752544D454D3A204F7574206F66A3
:100E60002068656170206D656D6F7279000000000B
:100E70003A2048656170206D656D6F727920636FEF
:100E8000727275707465640000BFFEE7704772B6D9
:100E900000BFFEE770B5044600F0A6F906462546F9
:100EA000681C10B104480078054400BF00F09CF9AC
:100EB000801BA842FAD370BD600000202DE9F847DE
:100EC0000346002294466EE14FF0010808FA02F44E
:100ED000D1F8008008EA0400A0427DD1DFF8DCA24E
:100EE000D1F80480A8EB0A09D0453AD014DCB8F157
:100EF000030F50D009DCB8F1000F31D0B8F1010F69
:100F00001CD0B8F1020F49D120E0B8F1110F18D070
:100F1000B8F1120F42D11EE0B9F5881F25D006DCCA
:100F2000B9F5803F20D0B9F5801F37D11AE0B9F567
:100F3000001F18D0B9F5041F30D117E0D1F80CC04C
:100F40002DE0D1F80C8008F1040C28E0D1F80C80D9
:100F500008F1080C23E0D1F80C8008F10C0C1EE01D
:100F600000BF00BF00BF00BF00BF00BFD1F80880B6
:100F7000B8F1000F02D14FF0040C0BE0D1F808805B
:100F8000B8F1010F03D14FF0080C1C6102E04FF0E3
:100F9000080C5C6103E04FF0000C00E000BF00BFF4
:100FA000FF2801D8984601E003F104084646FF28CF
:100FB00002D84FEA820803E0A2F108084FEA880845
:100FC0004746D6F800804FF00F0909FA07F928EADA
:100FD00009080CFA07F900E088E048EA0908C6F8B1
:100FE0000080D1F8048008F08058B8F1805F7DD18E
:100FF00000BFDFF8CC81D8F8188048F00108DFF88E
:10100000C091C9F81880C846D8F8188008F00108BF
:10101000CDF8008000BF00BF4FEAB9384FEA92090F
:1010200058F829504FEA82784FEA18794FF00F08A4
:1010300008FA09F825EA0805DFF88881434502D156
:101040004FF0000816E0DFF88081434502D14FF0F1
:1010500001080FE0DFF87481434502D14FF0020828
:1010600008E0DFF86C81434502D14FF0030801E04E
:101070004FF004084FEA82794FEA197908FA09F823
:1010800048EA0505DFF84C814FEA920948F82950F3
:10109000D1F8048008F48018B8F5801F0AD1DFF871
:1010A0003881D8F8008048EA0008DFF82C91C9F8A8
:1010B000008009E0DFF82081D8F8008028EA0008E5
:1010C000DFF81491C9F80080D1F8048008F4001802
:1010D000B8F5001F10D1DFF8008108F10408D8F836
:1010E000008048EA0008DFF8F09000E05AE009F1DB
:1010F0000409C9F800800DE0DFF8DC8008F104087D
:10110000D8F8008028EA0008DFF8CC9009F104093B
:10111000C9F80080D1F8048008F40038B8F5003F21
:101120000ED1DFF8B480A8F10408D8F8008048EAAE
:101130000008DFF8A490A9F10409C9F800800DE0C7
:10114000DFF89480A8F10408D8F8008028EA0008A5
:10115000DFF88490A9F10409C9F80080D1F804806F
:1011600008F48038B8F5803F0ED1DFF86C80A8F124
:101170000808D8F8008048EA0008DFF85C90A9F178
:101180000809C9F800800DE0DFF84C80A8F10808D4
:10119000D8F8008028EA0008DFF83C90A9F1080997
:1011A000C9F80080521CD1F8008028FA02F8B8F182
:1011B000000F7FF489AEBDE8F88700000000111031
:1011C0000010024000080140000C014000100140E6
:1011D0000014014008000140080401400AB1016107
:1011E00001E00B040361704701480068704700008C
:1011F0005800002003480068034909780844014961
:1012000008607047580000206000002010B50848B2
:10121000006840F0100006490860032000F0A8F8BC
:101220000F2000F007F800F02BF8002010BD0000A0
:101230000020024070B504460E4800784FF47A71E1
:10124000B1FBF0F00C490968B1FBF0F5284600F05D
:1012500099FD08B1012070BD102C07D20022214653
:10126000501E00F047F80548046001E00120F2E755
:101270000020F0E760000020640000205C000020F7
:1012800008B500BF1148806940F001000F4988612E
:101290000846806900F00100009000BF00BF00BF59
:1012A0000846C06940F08050C8610846C06900F037
:1012B0008050009000BF00BF00BF0549486820F083
:1012C000E06040F00070486000BF08BD00100240C0
:1012D0000000014001460846002809DB00F01F031A
:1012E00001229A4043099B0003F1E023C3F8002147
:1012F00000BF70472DE9F05F80460D461646002777
:1013000001F0C4FA074639462A46334601F0070081
:10131000C0F1070ABAF1040F02D94FF0040A01E044
:10132000C0F1070AD14600F1040ABAF1070F02D250
:101330004FF0000A01E0A0F1030AD4464FF0010A81
:101340000AFA09FAAAF1010A0AEA020A0AFA0CFAE6
:101350004FF0010B0BFA0CFBABF1010B0BEA030B8B
:101360004AEA0B042146404601F098FABDE8F09F96
:1013700000BF00F00702064B19684FF6FF03194043
:10138000044B0B4343EA0221014B196000BF704735
:101390000CED00E00000FA0570B504460D460CB9EE
:1013A000012070BD5A48006800F00700A8420ED224
:1013B0005748006820F00700284355490860084650
:1013C000006800F00700A84201D00120E9E720787A
:1013D00000F0020002281DD1207800F0040004284B
:1013E00005D14C48406840F4E0604A4948602078A4
:1013F00000F00800082805D14648406840F46050D5
:10140000444948604348406820F0F000A168084320
:1014100040494860207800F0010078B360680128F6
:1014200006D13C48006800F4003090B90120B8E7CC
:101430006068022806D13748006800F0007040B9A3
:101440000120AEE73348006800F0020008B901202F
:10145000A7E73048406820F00300616808432D4941
:101460004860FFF7C1FE064609E0FFF7BDFE801B9E
:1014700041F28831884202D9032092E707E02548EB
:10148000406800F00C006168B0EB810FEDD120489E
:10149000006800F00700A8420ED91D48006820F03F
:1014A000070028431A4908600846006800F0070052
:1014B000A84201D0012074E7207800F0040004283D
:1014C00007D11448406820F4E060E16808431149FE
:1014D0004860207800F00800082808D10D484068CE
:1014E00020F46050216940EAC1000A49486000F0D8
:1014F00019F808494968C1F30311074A515CC8400B
:101500000649086006480068FFF794FE002048E797
:101510000020024000100240A03A000864000020B1
:101520005C00002070B50021002200240023002070
:10153000134D696801F00C05F5B1042D02D0082D9A
:1015400019D101E00F4819E00F4DC1F38346AB5D9F
:1015500001F4803555B10A4D6D68C5F340450B4E19
:10156000725D084D5D43B5FBF2F402E0084D03FBEC
:1015700005F4204602E000BF024800BF00BF70BD76
:101580000010024000127A008E3A00089E3A0008CD
:1015900000093D00F8B504460CB90120F8BD2078DB
:1015A00000F00100002878D0F848406800F00C00F6
:1015B00004280CD0F548406800F00C00082811D130
:1015C000F248406800F48030B0F5803F0AD1EF481F
:1015D000006800F4003000285FD0606800285CD10B
:1015E0000120DBE700BF6068B0F5803F06D1E74827
:1015F000006840F48030E549086028E0606858B928
:10160000E248006820F48030E0490860084600683D
:1016100020F4802008601AE06068B0F5A02F0BD19C
:10162000DA48006840F48020D8490860084600681D
:1016300040F4803008600AE0D448006820F480302C
:10164000D24908600846006820F48020086000BF86
:10165000606888B1FFF7C8FD054606E0FFF7C4FDE6
:10166000401B642801D9032098E7C848006800F4AB
:1016700000300028F2D010E0FFF7B6FD054606E086
:10168000FFF7B2FD401B642801D9032086E7BF485D
:10169000006800F400300028F2D1207800F0020049
:1016A000022857D1B948406800F00C0050B1B74843
:1016B000406800F00C00082818D1B448406800F4D5
:1016C000803098B9B148006800F0020020B120696C
:1016D000012801D0012061E7AC48006820F0F80043
:1016E000616940EAC100A949086033E02069E8B1B6
:1016F0000120A7490860FFF777FD054606E0FFF7E0
:1017000073FD401B022801D9032047E79F4800686A
:1017100000F002000028F2D09C48006820F0F80099
:10172000616940EAC1009949086013E000209849C6
:101730000860FFF759FD054606E0FFF755FD401B21
:10174000022801D9032029E79048006800F0020030
:101750000028F2D1207800F0080008282DD1A069D7
:10176000B8B101208B490860FFF73EFD054606E051
:10177000FFF73AFD401B022801D903200EE78348FA
:10178000406A00F002000028F2D0012000F01AFFA9
:1017900013E000207F490860FFF726FD054606E0BC
:1017A000FFF722FD401B022801D90320F6E6774807
:1017B000406A00F002000028F2D1207800F0040016
:1017C000042873D100277148C06900F0805070B9B7
:1017D00000BF6E48C06940F080506C49C86108463F
:1017E000C06900F08050009000BF00BF01276A4828
:1017F000006800F48070B0B96748006840F48070F9
:1018000065490860FFF7F0FC054606E0FFF7ECFCD1
:10181000401B642801D90320C0E65F48006800F43B
:1018200080700028F2D000BFE068012806D1574838
:10183000006A40F001005549086227E0E06858B9A5
:101840005248006A20F00100504908620846006AC8
:1018500020F00400086219E0E06805280BD14B482D
:10186000006A40F00400494908620846006A40F0F6
:10187000010008620AE04548006A20F0010043497F
:1018800008620846006A20F00400086200BFE068B1
:10189000A0B1FFF7A9FC054609E0FFF7A5FC401B36
:1018A00041F28831884202D9032077E622E03748A6
:1018B000006A00F002000028EFD012E0FFF794FC6D
:1018C000054608E0FFF790FC401B41F28831884252
:1018D00001D9032062E62D48006A00F002000028CA
:1018E000F0D1012F05D12948C06920F08050274947
:1018F000C86100BFE069C8B32448406800F00C002C
:10190000082860D0E069022848D1002020490866F4
:10191000FFF76AFC054606E0FFF766FC401B02285D
:1019200001D903203AE61948006800F00070002849
:10193000F2D1206AB0F5803F07D11448406820F406
:101940000030A168084311494860D4E90801084300
:101950000E49496821F4741108430C49486001207C
:101960000B490866FFF740FC054607E03DE0FFF73E
:101970003BFC401B022801D903200FE60348006806
:1019800000F000700028F2D02FE0000000100240AC
:10199000000042428004424200700040002014498E
:1019A0000866FFF721FC054606E0FFF71DFC401B1B
:1019B000022801D90320F1E50E48006800F000700C
:1019C0000028F2D111E0E069012800D1E6E50948DC
:1019D000466806F48031206A814204D106F4701111
:1019E000606A814201D00120D8E50020D6E50000E0
:1019F000000042420010024010B504460CB901201C
:101A000010BD606A38B96068B0F5827F00D105E02A
:101A10000021E16102E00021216161610021A162F8
:101A200094F8510028B9002084F85000204600F0B6
:101A300043F8022084F851002068006820F040003C
:101A400021680860A08800F48270218901F40441B3
:101A50000843A18901F400610843217C01F00201DF
:101A60000843217D01F001010843218B01F400713D
:101A70000843217F01F0380108432021095D01F06E
:101A800080010843218D01F400510843216808605A
:101A90000421A06901EA1040216848602068C069FB
:101AA00020F400602168C86100206065012084F88E
:101AB00051000020A4E7000010B586B004460020C5
:101AC00002900390049005901949206888422DD116
:101AD00000BF1848806940F4805016498861084664
:101AE000806900F48050019000BF00BF00BF08462D
:101AF000806940F0040088610846806900F00400B5
:101B0000019000BF00BFA02002900220039003209C
:101B1000059002A90848FFF7D1F940200290002063
:101B20000390049002A90448FFF7C8F906B010BD5D
:101B30000030014000100240000801402DE9FE4F36
:101B400004460F4690461D460C9E01200190FFF76B
:101B50004BFB814694F851B060680290AA46BBF1F5
:101B6000010F0BD00298B0F5827F04D1A06810B9A4
:101B7000BBF1040F02D00220BDE8FE8F1FB1B8F107
:101B8000000F00D00DB90120F6E700BF94F8500017
:101B9000012801D10220EFE7012084F8500000BFA6
:101BA00094F85100042802D0052084F85100002048
:101BB0006065C4F83880E587A5872763E586A58634
:101BC000206460642068006800F04000402805D070
:101BD0002068006840F0400021680860E068B0F5C7
:101BE000006F52D1606810B1BAF1010F09D1206BBA
:101BF00000882168C860206B801C2063E08E401E36
:101C0000E0863BE02068806800F00200022810D1E6
:101C1000E08E70B1019801280BD1206B00882168FB
:101C2000C860206B801C2063E08E401EE086002090
:101C300001902068806800F0010068B1E08F58B121
:101C40002068C068A16B0880A06B801CA063E08F37
:101C5000401EE08701200190FFF7C6FAA0EB0900C3
:101C6000B0420BD3701C48B1012084F8510000BF72
:101C7000002084F8500000BF03207DE7E08E00289C
:101C8000C0D1E08F0028BDD152E0606810B1BAF138
:101C9000010F09D1206B007821680873206B401C6C
:101CA0002063E08E401EE0863CE02068806800F003
:101CB0000200022810D1E08E70B1019801280BD1EA
:101CC000206B007821680873206B401C2063E08E35
:101CD000401EE086002001902068806800F001002E
:101CE00068B1E08F58B12068C068A16B0870A06B24
:101CF000401CA063E08F401EE08701200190FFF7A9
:101D000073FAA0EB0900B04201D3701C00B94EB9C0
:101D1000012084F8510000BF002084F8500000BF6B
:101D2000032029E7E08E0028BFD1E08F0028BCD136
:101D30004A463146204600F059FC40B120206065FB
:101D400000BF002084F8500000BF012014E7A06805
:101D500050B900BF002000902068C0680090206843
:101D60008068009000BF00BF012084F8510000BFD0
:101D7000002084F8500000BF606D08B10120FBE630
:101D80000020F9E670B504462546681EB0F1807F54
:101D900001D301200FE0681E4FF0E02148610F21C0
:101DA0004FF0FF3000F07AFD00204FF0E021886115
:101DB00007200861002070BD7047704730B50246AB
:101DC0000B4600BF92F83C00012801D1022030BD33
:101DD000012082F83C0000BF022082F83D0010681C
:101DE00044681068816824F070041868044310681F
:101DF0004460104D1068A8420BD01068B0F1804FBD
:101E000007D00D4D1068A84203D00C4D1068A842B1
:101E100005D121F0800158680143106881600120DC
:101E200082F83D0000BF002082F83C0000BF00BFE8
:101E3000CDE70000002C01400004004000080040F5
:101E400010B504460CB9012010BD94F83D0028B926
:101E5000002084F83C00204600F026F8022084F898
:101E60003D00211D206800F091FC012084F846000F
:101E700000BF84F83E0001213F200155402001555C
:101E80004120015500BF00BF012084F842004320DB
:101E90000155442001554520015500BF012084F81B
:101EA0003D000020D0E7000038B504462068B0F1BE
:101EB000804F15D100BF0B48C06940F001000949AF
:101EC000C8610846C06900F00100009000BF00BF73
:101ED000002211461C20FFF70DFA1C20FFF7FAF92B
:101EE00038BD000000100240014691F83D00012875
:101EF00001D001207047022081F83D000868C068C9
:101F000040F001000B68D860124B086898420BD073
:101F10000868B0F1804F07D00F4B0868984203D093
:101F20000E4B086898420CD10868806800F00702E0
:101F3000062A0CD00868006840F001000B681860A1
:101F400005E00868006840F001000B681860002098
:101F5000D0E70000002C01400004004000080040D1
:101F60002DE9F04104460D46002700BF94F83C00DF
:101F7000012802D10220BDE8F081012084F83C0054
:101F800000BF022084F83D002068866826F07706AE
:101F900026F47F46206886602868502833D00CDC01
:101FA000202850D004DC00284BD0102851D149E023
:101FB000302849D040284CD139E060282DD07028F5
:101FC00007D0B0F5805F03D0B0F5005F41D10DE0E0
:101FD00041E0D5E902136A68206800F019FC206826
:101FE000866846F077062068866034E0D5E90213FB
:101FF0006A68206800F00CFC2068806840F480402B
:102000002168886027E0EA686968206800F014FCAD
:102010005021206800F007FC1DE0EA68696820682C
:1020200000F01DFC6021206800F0FDFB13E0EA6871
:102030006968206800F000FC4021206800F0F3FB94
:1020400009E000BF00BF00BF2968206800F0EBFB7B
:1020500001E0012700BF00BF012084F83D0000BF60
:10206000002084F83C0000BF384684E7704770B514
:1020700004462068C5682068066906F00200022848
:1020800019D105F00200022815D1401F216808610E
:10209000012020772068806900F0030018B12046F5
:1020A000FFF7E4FF05E0204600F097F8204600F037
:1020B00095F80020207706F00400042819D105F0D7
:1020C0000400042815D1C04321680861022020774C
:1020D0002068806900F4407018B12046FFF7C6FF01
:1020E00005E0204600F079F8204600F077F800205F
:1020F000207706F00800082819D105F00800082804
:1021000015D1C04321680861042020772068C06988
:1021100000F0030018B12046FFF7A8FF05E02046B5
:1021200000F05BF8204600F059F80020207706F018
:102130001000102819D105F01000102815D1C04347
:1021400021680861082020772068C06900F4407089
:1021500018B12046FFF78AFF05E0204600F03DF861
:10216000204600F03BF80020207706F0010048B13F
:1021700005F0010030B16FF00100216808612046D0
:1021800000F02EF806F08000802809D105F08000CC
:10219000802805D1C043216808612046FFF70CFE66
:1021A00006F04000402809D105F04000402805D144
:1021B000C04321680861204600F024F806F02000A2
:1021C000202809D105F02000202805D1C04321682E
:1021D00008612046FFF7F1FD70BD704770470000B1
:1021E00010B504460448844204D1044801680448F8
:1021F00000F094FC10BD0000F80000205400002006
:102200008C000020704700BFFEE770B504460D4605
:10221000002600BF06E0207800F050FD2070641C0E
:10222000701CC6B2AE42F6DB70BD000000B585B0D2
:102230000020019002900390049000BF2E48806916
:1022400040F020002C4988610846806900F0200099
:10225000009000BF00BF00BF0846806940F0040046
:1022600088610846806900F00400009000BF00BF4C
:1022700000BF0846806940F0080088610846806910
:1022800000F00800009000BF00BF012210211B4891
:10229000FEF7A4FF012211031948FEF79FFF002259
:1022A0004FF440711648FEF799FF1020019001206D
:1022B000029003900320049001A91048FEF7FEFD50
:1022C0004FF480500190012002900390032004906D
:1022D00001A90B48FEF7F2FD4FF440700190112068
:1022E0000290002003900220049001A90448FEF708
:1022F000E5FD05B000BD00000010024000080140EF
:10230000000C014010B50E480E4908604FF4827071
:10231000486000210B488160C160016141614FF458
:10232000007181610821C161002101624162816205
:102330000A21C162FFF760FB08B1FEF7A8FD10BDDE
:1023400000300140A000002000B587B000200390BD
:10235000049005900690019002904FF0804015493E
:10236000086040F2CF20486000211248816040F2AE
:10237000E731C1600021016180218161FFF760FDCB
:1023800008B1FEF784FD4FF48050039003A909487B
:10239000FFF7E6FD08B1FEF77AFD002001900290FC
:1023A00001A90448FFF70AFD08B1FEF770FD07B068
:1023B00000BD0000F800002000BFFEE700BFFEE700
:1023C00070B50546002415E08020204100EA050292
:1023D0004FF400710E48FEF701FF012211020C4874
:1023E000FEF7FCFE00224FF480710948FEF7F6FE6E
:1023F000601CC4B2082CE7DB012211020448FEF77E
:10240000EDFE00224FF480710148FEF7E7FE70BD3B
:10241000000C014010B5012251020A48FEF7DEFE11
:10242000012211020748FEF7D9FE00224FF4007185
:102430000448FEF7D3FE00224FF480710148FEF7F6
:10244000CDFE10BD000C014010B500224FF400710C
:102450000648FEF7C3FE012211020448FEF7BEFE45
:10246000012251020148FEF7B9FE10BD000C0140E7
:1024700010B50246012000E050430B1EA1F10101FE
:10248000FAD110BD70B505460C4645F0B00000F01D
:1024900078F8102141EA141000F073F804F00F00EE
:1024A00000F06FF870BD00002DE9F04105460E46C2
:1024B0001746721ED206110E6A1E5206100EFFF744
:1024C000E1FF002409E0A7F12001134A02EB01110A
:1024D000085D00F066F8601CC4B2082CF3DB721EC5
:1024E000D206110E6A1E012303EB4202D0B2FFF79F
:1024F000C9FF00240BE0A7F12001074A02EB0112FB
:1025000004F10801505C00F04CF8601CC4B2082CC7
:10251000F1DBBDE8F0810000B83A00082DE9F04792
:102520008146884615461E46002D06DB2B22414675
:102530004846FFF7B9FF2F4605E02D2241464846A1
:10254000FFF7B2FF6F42002417E0301B411E0A2044
:10255000FFF78EFFB7FBF0F00A21B0FBF1F201FBB1
:10256000120000F1300A08EB0400401CC1B25246D0
:102570004846FFF799FF601CC4B2B442E5DBBDE8F2
:10258000F08710B50446FFF745FF7820FFF718FFE6
:102590000020FFF715FF2046FFF712FFFFF754FF5B
:1025A00010BD10B50446FFF735FF7820FFF708FF90
:1025B0004020FFF705FF2046FFF702FFFFF744FF2B
:1025C00010BD704708B508490968C9084FF47A7208
:1025D000B1FBF2F14143009100BF00BF00994A1ED8
:1025E00000920029F9D108BD64000020F8B5044626
:1025F0000E4615463346012202212046009500F082
:1026000017F828B1606D40F0200060650320F8BD28
:102610003346002280212046009500F009F828B1B9
:10262000606D40F0200060650320F0E70020EEE7D9
:102630002DE9F84F04460D4690461E46DDF82890D9
:10264000FEF7D2FDA0EB0900371AFEF7CDFD82465A
:102650002C480068C0F3CB307843009045E0701CF4
:10266000002842D0FEF7C0FDA0EB0A00B84200D21D
:10267000A7BB2068406820F0E000216848606068DF
:10268000B0F5827F0DD1A068B0F5004F03D0A068EF
:10269000B0F5806F05D12068006820F04000216807
:1026A0000860A06AB0F5005F0DD100BF2068006827
:1026B00020F40050216808602068006840F4005051
:1026C0002168086000BF012084F8510000BF00208D
:1026D00084F8500000BF0320BDE8F88FFFE70098A2
:1026E00000B900270098401E0090206880682840AC
:1026F000A84201D1012000E000204045AFD10020D8
:10270000EAE7000064000020704710B5FEF772FD94
:1027100010BD00B58FB0282105A8FDF7DDFD1421FF
:102720006846FDF7D9FD01200590000406900020C1
:1027300007900120099002200C90C1030D914FF4E5
:10274000E0110E9105A8FEF725FF08B1FEF79FFBEB
:102750000F20009002200190002002904FF4806032
:1027600003900020049002216846FEF715FE08B190
:10277000FEF78DFB0FB000BD7047000010B502489A
:10278000FFF775FC10BD0000F800002010B50268CE
:102790001C4B984208D0B0F1804F05D01A4B98429C
:1027A00002D01A4B984203D122F070024B681A43B0
:1027B000144B984208D0B0F1804F05D0124B98428C
:1027C00002D0124B984203D122F44072CB681A43D4
:1027D00022F080034C6943EA040202608B68C36202
:1027E0000B688362074B984201D10B690363012395
:1027F0004361036903F001031BB1036923F0010383
:10280000036110BD002C014000040040000800409E
:1028100030B50C46816821F47F4142EA0325254307
:102820002943816030BD0A46816821F0700142F081
:10283000070319438160704730B50B461446026A9E
:10284000056A25F001050562816921F0F00141EA80
:10285000041122F00A021A438161026230BD30B5D0
:102860000B461446026A056A25F010050562816967
:1028700021F4704141EA043122F0A00242EA03123D
:102880008161026230BD00BFFEE7000002480068BF
:10289000C0F30220704700000CED00E010B50028E6
:1028A00004DB0A07130E054A135406E00A07140E48
:1028B000034A00F00F031B1FD45410BD00E400E0D6
:1028C00018ED00E0014689B101290BD0022905D09D
:1028D00003290FD109480A4A10600BE00948084A49
:1028E000106007E00848064A106003E00748044A01
:1028F000106000BF00BF02480068704700007A3DCA
:10290000680000200000FA3D00007A3E0000FA3E18
:102910000146082925D2DFE801F0201C1814100C0C
:1029200008041248124A10601BE01248104A106056
:1029300017E011480E4A106013E010480C4A10606E
:102940000FE00F480A4A10600BE00E48084A10607A
:1029500007E00D48064A106003E00C48044A106086
:1029600000BF00BF02480068704700000000F23955
:102970006C00002000007A3A0000FA3A00007A3B2E
:102980000000FA3B00007A3C0000FA3C00007A3D6F
:1029900010B50024752000F0A3F90446214647A095
:1029A000FDF71EFC0021762000F0D8F901217620E9
:1029B00000F0D4F96420FEF76DFA472C7BD1012199
:1029C000762000F0CBF902217A2000F0C7F900212F
:1029D000762000F0C3F94021162000F0BFF96520F1
:1029E00000F07EF904460021652000F0B7F90021CF
:1029F000602000F0B3F90221612000F0AFF9214618
:102A0000652000F0ABF963215F2000F0A7F90021F9
:102A1000762000F0A3F93621142000F09FF9002160
:102A2000762000F09BF9652000F05AF9044644F046
:102A300004042146652000F091F90120FFF742FFD0
:102A40000021762000F08AF9502000F049F9044670
:102A500044F0200444F007042146502000F07EF9A1
:102A60000120FFF755FF0021762000F077F94F2075
:102A700000F036F9044644F0200444F007042146EF
:102A80004F2000F06BF90021762000F067F94E200E
:102A900000F026F9044624F0200444F00C0444F02D
:102AA000030421464E2000F059F90120FEF7F2F907
:102AB000002010BDFFE74FF0FF30FAE77265675F57
:102AC00076616C3A25640A008A68002A01DCFDF709
:102AD000D9BD521E8A604A68C0B2531C4B60107048
:102AE00070470000F8B502226946292000F018F965
:102AF0009DF801009DF8001040EA012004B2204634
:102B000000F0F2FD064604480168304600F04CFE35
:102B100005462846F8BD00006C0000202DE9FC5F4A
:102B200082468B4658480078D8B9584858490978A1
:102B300040F821B056480078401C55490870594665
:102B40005448006800F084FC5249086050480078FE
:102B5000092827DD00204E49087001204A490870E5
:102B600020E04A484A4A127850F822104948006842
:102B700000F018FF4749086059464648006800F0D1
:102B800067FC4449086041484149097840F821B050
:102B90003F480078401C0A2190FBF1F201FB120033
:102BA0003B4908703848007828B13B4939480068EB
:102BB00000F0BCFC09E03648007800F0ADFD0446AA
:102BC00021463448006800F0B1FCCAF80C00DAF87D
:102BD0000C0000F011FC0646304A314B00F024FA9C
:102BE00004460D46DAF8080000F006FC804622464E
:102BF0002B4600F029F9CDE9000100F0F3F8CAF8FE
:102C00000800DAE9011000F0CDFECAF81000DAF889
:102C10000800CAF80400DAF8100000F0EDFB21F01B
:102C2000004104461F4A204B00F0C2F907D21F485A
:102C3000DAF81010006800F00BFC1C4908601B4912
:102C4000DAF80800096800F0ADFECAF8000018497B
:102C5000DAF8000000F074FE06D21649DAF8000037
:102C600000F0A0FECAF800001349DAF8000000F0F6
:102C700067FD06D20F49DAF8000000F0E9FBCAF858
:102C80000000BDE8FC9F00007C0000204001002007
:102C90007000002074000020000020417B14AE472B
:102CA000E17A843FFCA9F1D24D62803F7800002098
:102CB000000034430000B443000034C301B582B0C7
:102CC00000200190401E012301AA02A900900348A0
:102CD000FEF734FF9DF804000EBD0000A0000020A8
:102CE00001B582B000200190002210210B48FEF7B0
:102CF00075FA9DF8080040F080000290012102A8BA
:102D0000FFF783FA012101A8FFF77FFA01221021C2
:102D10000248FEF763FA9DF804000EBD000801406A
:102D200037B50C4615469DF8000040F08000009035
:102D3000002210210848FEF751FA01216846FFF7EA
:102D400064FAE9B22046FFF760FA01221021024836
:102D5000FEF744FA3EBD00000008014013B5002212
:102D600010210948FEF73AFA01216846FFF74DFAAB
:102D7000012101A8FFF749FA012210210248FEF7BC
:102D80002DFA00201CBD000000080140FEF73EFAAD
:102D9000FFF7BFFCFFF74AFAFFF7B4FAFFF7D4FAE0
:102DA000FFF7F6FD0B48FFF79FF8FEF71DFA0A49FB
:102DB00008600EE0FFF796FE0849086008490868B9
:102DC00000F076FC04460523224601210846FFF761
:102DD000A5FBEFE7F8000020500000205400002081
:102DE0008C00002021F00042A2F16052B2F5801F59
:102DF00001F0004328BFD2F17F6C0BD95FEA001CC1
:102E000043EAC20242EB507018BF704728BF20F05F
:102E100001007047B2F5801FBCBF184670474FEAEB
:102E2000410C1CF5001F02D2084600F084BD70B5AD
:102E300000F0A4F900000089FFF7F6BF4FF0004052
:102E4000A0F580007047000010B591EA030F48BF5D
:102E500083F0004300F1EE81841A71EB030C05D27C
:102E6000121943EB0C03001B61EB0C01DFF824E1AA
:102E70004FEA1154A4EB135C1EEA430F18BF9EEAFD
:102E8000445F73D023EA0E03DCF1200E21EA0451E3
:102E900043F4801332D322FA0CFE10EB0E0023FA17
:102EA0000CFE41EB0E01CCF1200E03FA0EFE10EBEE
:102EB0000E0051F10001B1F5801FCCF1200E32D28D
:102EC00001EB045112FA0EF2BDE8104058BF7047F2
:102ED000401C38BF5FEA420218BF7047002814BF89
:102EE00020F0010041F100014FEA410313F5001FFA
:102EF00038BF7047A1F1C04100F08EB9012A43EB01
:102F00000302ACF1200CDCF11F0E32BF4FF0000EBB
:102F100023FA0CF310EB030041EB0451B4EB115F07
:102F2000D0D0A1EB045101F5801149085FEA3000CF
:102F300001EB04510ED350F1000038BF12FA0EFE1F
:102F400008D1BDE81040C9E7401C38BF5FEA420223
:102F5000CAD1C3E7BDE810404FEA410313F5001F93
:102F600038BF7047A1F1C04100F056B99EEA445FF6
:102F700008D011EA5E0FBDE8104004BF01F0004127
:102F800000207047BDE8104070B500F0F7F800BFB2
:102F900064FBBE3E0000E0FF491058BFC1F1404154
:102FA0005B1058BFC3F140438B42EFF30080704782
:102FB00051EA030C17D41CF5801F58BFBCF5801FC5
:102FC00000F10680994218BF704708BF90427047D1
:102FD00007D711F5801F58BF13F5801F19D49942E8
:102FE0007047894270471CF5801F08D5BCF5801FCB
:102FF000F7D58B4218BF704708BF824270474FF425
:10300000001C1CEB410F38BF1CEB430F01D28B425D
:10301000704770B500F0B2F8922449004FF00051AB
:103020004FF08053FFF7B8BFDFF848C170B51CEA16
:10303000111E1EBF1CEA13159EEA0C0F95EA0C0F19
:1030400000F06F8081EA030423EA4C134EEAD47E39
:1030500021EA4C1141F4801143F48013AE44A1FBEA
:10306000024CA0FB0365AEF17F7E361955EB0C05D3
:10307000A1FB034C4CF10003A0FB021C16EB0C0659
:10308000654153F10003094218BF46F0010613F4ED
:10309000007F0BD14FEA03314FEA0530340341EA98
:1030A000155140EA16506FF003020AE04FEAC321BF
:1030B0004FEAC520F40241EA555140EA56506FF0FC
:1030C000020202EB2E4201EB025585EACE710AD0D4
:1030D0005FEA440C18BF24F0004450F1000041F1B5
:1030E000000120EAD47040F2FE7C624500D270BD3F
:1030F000A84214BF4FF080444FF04044002E08BF58
:103100000024BEF1806FA8BFA1F1C041BDE87040AE
:1031100080F282804FF0000001F1C04101F00041D7
:1031200070479EEA0C0F0CEA131518BF95EA0C0FB6
:1031300006D04FF0000081EA030E0EF0004170BD92
:1031400000F01CF88900013E00F007B800F009B853
:103150004FEA430C5FEA5C5C08D081EA030100F0AF
:103160005BB84FEA410C5FEA5C5CF6D14FF00000BF
:10317000014970470000FF070000F87F0EF1020EC2
:103180002EF0030E5EF8046B364205D4012A43EBA1
:10319000030515F5001F12D8012841EB010C1CF5A1
:1031A000001F0CD80ED14FEAD17C15F5001F0CEB97
:1031B0004C0C0CF1020C08BF4CEBD37C04E04FF03C
:1031C000080C01E04FEAD37C0CEB4C0526FA05F61F
:1031D00006F00706B6F1040C06D20EEB860CBDE82D
:1031E00070404CF0010C6047DFE80CF0090B020264
:1031F0004FF000414FF00000A1F5002170BD1946CD
:103200001046012851EB010418BFD4F5001484BF07
:10321000002001F0004170BD0808A0F500114FEA40
:103220003101704710B591EA030F48BF83F00043A6
:103230003FF512AE841A71EB030C07D212198CF011
:10324000004C43EB0C03001B61EB0C01DFF8A4E125
:103250004FEA1154A4EB135C1EEA430F18BF9EEA19
:10326000445F00F0B08023EA6E03524221EA045129
:10327000C3EB6E0338BF5B1EDCF1200E25D322FAB0
:103280000CFE10EB0E0043FA0CFE41EB0E01CCF1EC
:10329000200E03FA0EFE10EB0E0051F10001CCF1EE
:1032A000200E29D412FA0EF201EB0451BDE81040B1
:1032B00058BF7047401C1CBFB2F1004F7047002838
:1032C0000CBF491C20F00100704712EB020E43EBCB
:1032D000030218BF4FF0010E4EEA4202ACF1200C7F
:1032E000DCF11E0E54D943FA0CFE10EB0E0051F126
:1032F000FF31CCF11E0ED5D50EF1010E12FA0EFEE5
:10330000404141EB010101EB445C5FEA5C5C10D998
:1033100010EBDE7001EB045138BFBEF1004FBDE889
:10332000104018BF704700280CBF491C20F0010056
:10333000704730D24FEAD42C11F5001124F4006408
:103340001BD0B1FA81F20B3AA41AA41ED2F12003C9
:10335000914030FA03F31943904001EBCC71002CFB
:1033600001EB0451BDE81040A8BF704701F1C04116
:103370004FF0000001F000417047B0FA80F310FAFE
:1033800003F100D110BDE41A173C4805C90AE4E76F
:1033900001EB045110BD491001EB0451BDE8104090
:1033A0004FEA300002E04FF0000170474A0008BFCA
:1033B0000042F8D0B2F5001F28BF704701F000416D
:1033C0004FF0000070479EEA445F07D011EA5E0F9D
:1033D000BDE8104004BF002100207047BDE8104048
:1033E00070B5FFF7CBFE00BF40DFF63E83F0004133
:1033F000104670470000E0FF43004FEAD30C4FEA4D
:103400003C0C43401FBF40070CF1605113F0FE4FCE
:1034100070471CF0006F03D100200CF00041704792
:103420000CF0004343EA507010B540EACC0000F0C5
:103430003CFA00BF000000924FEA0001FFF7ECBE2B
:103440004FF000414FF00000A1F50021704700004F
:1034500090EA010F48BF81F0004100F1AA82421AB0
:103460003CBF801A89184FEAD0524FF07F4C1CEABB
:10347000410FA2EBD15318BF9CEA026F00F03B80D2
:103480004FF0004C4CEA00204CEA012121FA03FCE9
:1034900010EB0C0C1ED202F1FF325FEA1C2040EB55
:1034A000C25038BF70471CF07F0F4FEA400C18BF66
:1034B000BCF17F4F38BF7047C3F12003994008BF6C
:1034C00020F00100BCF17F4F38BF7047A0F1C04031
:1034D00000F031BA4FEA3C00000A40EBC25028BF6E
:1034E0001CF0FF0F4FEA400CE6D018BFBCF17F4F35
:1034F00038BF7047EAE79CEA026F05D010EA5C0F1C
:1035000008BF00F00040704710B500F0CEF900BFD2
:1035100064FBBE3E401058BFC0F14040491058BF48
:10352000C1F140418142EFF3008070474FF47F0CBE
:103530001CEAD0121EBF1CEAD11392EA0C0F93EAC8
:103540000C0F00F0858090EA010F48BF42F48072B2
:1035500040F4000C41F400002CF07F4120F07F404B
:1035600000B58142A2EB03020FF2081CACEB504EF7
:10357000C0F100009EF800E04FEA4E0E00FB0EFC8A
:1035800038BF49004FEA2C1C02F5FA020CFB0EF37F
:103590004FEACE1E4FEA112C4FEAC1210EEB635EBB
:1035A00042EB22420EFB0CFC4FEA1C5300FB0311C2
:1035B0004FEA112C4FEA01310EFB0CFC4FEADC4CB8
:1035C00000FB0C11C14228BF09184CEB03335DF816
:1035D00004EB10EB410143EBC250B2F57C0F38BF56
:1035E000704729D512F0F00F1CBF00F1C04000F069
:1035F00000407047008182838485868788898B8C10
:103600008D8E8F919293959697999A9C9D9FA0A24B
:10361000A3A5A7A8AAACAEB0B2B3B5B7B9BCBEC09B
:10362000C2C5C7C9CCCED1D4D7D9DCDFE2E6E9EC3C
:10363000F0F3F7FAFE0000004FEA400C0CF1807C3A
:10364000BCF17E4F28BF7047B0F1C04000F073B9A5
:1036500090EA010F0CEAD11348BF42F48072624530
:1036600038BF634507D213F47F0F16D080EA0100FC
:1036700000F00040704710B500F017F9097EFC3EDD
:1036800000F005B880EA010000F00040704780EAD1
:10369000010000F0004000F04EB912F47F0F04BFAB
:1036A0000248704780EA010000F045B90000C07F81
:1036B00041000B0ED3F19E0208D950F400034FEAEB
:1036C000032323FA02F048BF4042704710B500F0D0
:1036D000ECF800BF49922480002070476FF0004250
:1036E00082EA20007047000010F0004148BF4042CD
:1036F000B0FA80F310FA03F2C3F19D030BD051EA44
:10370000C35101EB1220530638BF704700F101008E
:1037100008BF20F001007047B0FA80F310FA03F2FE
:10372000C3F19D030AD0D90501EB1220530638BF1F
:10373000704700F1010008BF20F001007047000051
:1037400050EA010C00F113801CF5000F58BFBCF5C6
:10375000000F01D48842704707D710F5000F58BFFB
:1037600011F5000F15D488427047894270471CF547
:10377000000F04D5BCF5000FF7D5814270474FF01C
:10378000807C1CEB400F38BF1CEB410F01D2814203
:10379000704710B500F089F8922449004FF00050AE
:1037A0004FF08051FFF7B6BE4FF47F0C1CEAD012E9
:1037B0001EBF1CEAD11392EA0C0F93EA0C0F00F023
:1037C000478090EA010F48BF42F480724FF0004CEE
:1037D0004CEA00204CEA012102EB0302A0FB01139A
:1037E000A2F50002002918BF43F001035B0028BFC7
:1037F0004FEA330342EB22425FEA132C4CEBC250F8
:103800002EBFBCEB436FB2F57C0F70474FEA036CE1
:10381000BCF1004F08BF20F00100B2F57C0F38BFAB
:1038200070470BD582F0FF0212F5803FC8BF70478A
:1038300000F1C040D8BF00F00040704700F5000C18
:103840005FEA4C0C48BF7047B0F1C04000F073B85D
:1038500090EA010F0CEAD11348BF42F4807262452E
:1038600038BF634504D280EA010000F00040704791
:1038700010B500F01AF800BF8900013E00F007B84B
:1038800000F009B85FEA410C5FEA1C6C08D080EADE
:10389000010000F050B85FEA400C5FEA1C6CF6D102
:1038A0004FF00040A0F5800070470EF1020E2EF0A0
:1038B000030E5EF8044B244204D44FEA4102B2F1F5
:1038C0007F4F11D84FEA4003B3F17F4F0CD80ED190
:1038D0004FEAD07CB2F17F4F0CEB4C0C0CF1020C98
:1038E00008BF4CEBD17C04E04FF0080C01E04FEA3C
:1038F000D17C0CEB4C0324FA03F404F00704B4F17C
:10390000040C06D20EEB840CBDE810404CF0010C08
:103910006047DFE80CF0070802024FF00040A0F516
:10392000800010BD0846420018BFD2F1807288BFE7
:1039300000F0004010BDFF2141EAD050C0057047A3
:1039400051EA000C00F113801CF5000F58BFBCF5C4
:10395000000F01D48142704707D711F5000F58BFFF
:1039600010F5000F15D481427047894270471CF54D
:10397000000F04D5BCF5000FF7D5884270474FF013
:10398000807C1CEB410F38BF1CEB400F01D28842FA
:10399000704780EA010081EA000180EA0100FFF738
:1039A000F8BE000090EA010F48BF81F000413FF5EA
:1039B00056AD421A04D882F00042A0EB0200114436
:1039C0004FEAD0524FF07F4C1CEA410FA2EBD1538B
:1039D00018BF9CEA026F4AD04FF0004C4CEA00201E
:1039E0004CEA012121FA03FCB0EB0C0C0FD412F0CD
:1039F000FE0F36D05FEA4C001DD5001240EBC250DE
:103A000038BF70471CF03F0F18BF70470BE0A2F1A2
:103A100001025FEA1C2040EBC25038BF70471CF027
:103A20007F0F18BF7047C3F12003994014BF401E99
:103A300020F00100704780084FEA122308BF70474A
:103A4000B0FA80FCA2EB0C02CCF1280C60FA0CF06E
:103A500093EA122F04BF00EBC25070474FEAC370C5
:103A60007047130A5FEADC1008BF7047F6E79CEA6C
:103A7000026F04D010EA5C0F08BF0020704710B539
:103A8000FFF713FF40DFF63E81F00040704702036E
:103A90000405060708090A0B0C0D0E0F1010010291
:103AA00000000000000000000102030406070809EE
:103AB00000000000010203040000000000000000FC
:103AC0000000000000000000000000F800000000FE
:103AD000000000333000000000100C06100C06003F
:103AE000000000000000000040C07840C0784000A6
:103AF000043F04043F040400007088FC0830000008
:103B0000001820FF211E0000F008F000E01800005F
:103B100000211C031E211E0000F008887000000018
:103B20001E2123241927211010160E00000000006A
:103B30000000000000000000000000E01804020087
:103B4000000000071820400000020418E0000000F8
:103B50000040201807000000404080F080404000F6
:103B60000202010F01020200000000F0000000004C
:103B70000101011F01010100000000000000000020
:103B800080B0700000000000000000000000000095
:103B9000000101010101010100000000000000001E
:103BA00000303000000000000000000080601804B9
:103BB000006018060100000000E010080810E00096
:103BC000000F102020100F00001010F8000000005F
:103BD0000020203F202000000070080808887000A6
:103BE0000030282422213000003008888848300026
:103BF0000018202020110E000000C02010F8000046
:103C000000070424243F240000F8088888080800DE
:103C10000019212020110E0000E0108888180000F3
:103C2000000F112020110E0000380808C8380800C5
:103C30000000003F00000000007088080888700045
:103C4000001C222121221C0000E010080810E000C6
:103C50000000312222110F00000000C0C00000004F
:103C60000000003030000000000000800000000074
:103C7000000080600000000000008040201008006C
:103C80000001020408102000404040404040400035
:103C90000404040404040400000810204080000010
:103CA0000020100804020100007048080808F00015
:103CB0000000003036010000C030C828E810E000E5
:103CC0000718272423140B000000C038E000000070
:103CD000203C23020227382008F8888888700000DA
:103CE000203F202020110E00C030080808083800AE
:103CF000071820202010080008F808080810E00025
:103D0000203F202020100F0008F88888E8081000C5
:103D1000203F20202320180008F88888E808100099
:103D2000203F200003000000C030080808380000D1
:103D300007182020221E020008F808000008F808D2
:103D4000203F210101213F20000808F80808000059
:103D50000020203F2020000000000808F80808008C
:103D6000C08080807F00000008F888C02818080004
:103D7000203F20012638200008F80800000000003D
:103D8000203F20202020300008F8F800F8F8080034
:103D9000203F003F003F200008F830C00008F8082E
:103DA000203F200007183F00E01008080810E0003E
:103DB0000F10202020100F0008F808080808F00055
:103DC000203F210101010000E01008080810E00078
:103DD0000F18242438504F0008F88888888870000D
:103DE000203F2000030C30200070880808083800AD
:103DF0000038202121221C00180808F808081800A3
:103E00000000203F2000000008F808000008F80823
:103E1000001F202020201F000878880000C83808D4
:103E2000000007380E010000F80800F80008F8004C
:103E3000033C0700073C03000818688080681808E6
:103E400020302C03032C30200838C800C838080064
:103E50000000203F2000000010080808C8380800B3
:103E60002038262120201800000000FE0202020057
:103E70000000007F40404000000C30C00000000007
:103E8000000000010638C00000020202FE0000002F
:103E9000004040407F0000000000040202020400D5
:103EA0000000000000000000000000000000000012
:103EB00080808080808080800002020400000000FA
:103EC00000000000000000000000808080800000F2
:103ED0000019242222223F2008F8008080000000E0
:103EE000003F112020110E000000008080800000A3
:103EF000000E112020201100000000808088F800B2
:103F0000000E112020103F200000808080800000E3
:103F1000001F222222221300008080F08888881847
:103F20000020203F20200000000080808080800052
:103F3000006B94949493600008F8008080800000E7
:103F4000203F210000203F200080989800000000C2
:103F50000020203F202000000000008098980000F2
:103F600000C08080807F000008F800008080800012
:103F7000203F24022D302000000808F80000000037
:103F80000020203F202000008080808080808000F2
:103F9000203F20003F20003F808000808080000084
:103FA000203F210000203F20000080808080000012
:103FB000001F202020201F00808000808000000043
:103FC00080FFA12020110E00000000808080800072
:103FD000000E112020A0FF80808080008080800063
:103FE00020203F2120000100000080808080800090
:103FF0000033242424241900008080E08080000005
:104000000000001F20200000808000000080800051
:10401000001F202020103F208080800000808080B2
:1040200000010E3008060100808000800080808042
:104030000F300C030C300F00008080008080800067
:104040000020312E0E312000808080000080808092
:1040500080818E7018060100008080808080800042
:104060000021302C2221300000000000807C020260
:1040700000000000003F404000000000FF00000082
:1040800000000000FF0000000002027C8000000031
:104090000040403F0000000000060101020204044D
:1040A00000000000000000003A7474003A747400CC
:1040B0003A747400D4400008000000208C00000016
:1040C00028010008604100088C0000203C08000026
:1040D0004401000800000075F575000000000000B4
:1040E00000000000000000000000000000000000D0
:1040F00000000000000000000000000000000000C0
:1041000000000000000000000000000000000000AF
:10411000000000000000000000000000000000009F
:10412000000000000000000000000000000000008F
:10413000100000000100000000127A0023DB793E2D
:10414000000000000000000000000000000000006F
:10415000000000000000000000000000000000005F
:04000005080000ED02
:00000001FF
