:020000040800F2
:10000000D00800209D010008093B0008F9300008D5
:10001000053B0008BD090008E14B00080000000096
:10002000000000000000000000000000313F000858
:10003000C109000800000000BB3E00088D3F000819
:10004000B7010008B7010008B7010008B7010008B0
:10005000B7010008B7010008B7010008B7010008A0
:10006000B7010008B7010008B7010008B701000890
:10007000B7010008B7010008B7010008B701000880
:10008000B7010008B7010008B7010008B701000870
:10009000B7010008B7010008B7010008B701000860
:1000A000B7010008B7010008B7010008B701000850
:1000B000B7010008B701000861400008B701000857
:1000C000B7010008B7010008B7010008B701000830
:1000D000B7010008CD4A0008B7010008B7010008C1
:1000E000B7010008B7010008B7010008B701000810
:1000F000B7010008B7010008B7010008B701000800
:10010000B7010008B7010008B7010008B7010008EF
:10011000B7010008B7010008B7010008B7010008DF
:10012000B7010008B7010008B7010008B7010008CF
:10013000B7010008B7010008B7010008B7010008BF
:10014000B7010008B7010008B7010008B7010008AF
:10015000B7010008B7010008B7010008B70100089F
:10016000B7010008B7010008B7010008B70100088F
:10017000B7010008B7010008B7010008000000003F
:10018000B7010008B7010008DFF80CD000F04CFB05
:1001900000480047316E0008D0080020064880471C
:1001A00006480047FEE7FEE7FEE7FEE7FEE7FEE75C
:1001B000FEE7FEE7FEE7FEE74D4000088901000884
:1001C0002DE9F05F0546002092469B46884606468C
:1001D000814640241BE0284641464746224600F01F
:1001E000B7F953465A46C01A914110D311461846E2
:1001F000224600F09EF92D1A67EB01084F46224671
:100200000120002100F095F917EB00094E41201E56
:10021000A4F10104DFDC484631462A464346BDE8E6
:10022000F09FD2B201E000F8012B491EFBD27047CB
:100230000022F6E710B513460A4604461946FFF7B2
:10024000F0FF204610BD421C10F8011B0029FBD115
:10025000801A70472DE9FE4F804681EA0300C00FE7
:100260000C46009021F0004123F00045B8EB02005D
:10027000A94105D24046214690461C460B460246FF
:1002800023F00040104347D0270DC7F30A00C3F303
:100290000A510290401A019040286BDAC3F3130010
:1002A00040F4801B0098924620B10023D2EB030A51
:1002B00063EB0B0B01985946C0F14002504600F029
:1002C00038F906460D4650465946019A00F050F955
:1002D00010EB08006141002487EA115284EAE773B9
:1002E0001A4340D0009A62B3019A012A4FEA07529A
:1002F00015DC001B61EB02014FF0004202EA0752DD
:10030000CDE90042001C41F5801132462B4600F039
:1003100087F903B0BDE8F08F40462146F9E7001B9E
:1003200061EB0201001C41F5801300185B412018AD
:10033000A2F5001747EB030140EAD570B6196D41ED
:1003400011E06D084FEA360645EAC0754FEA0752DC
:10035000001B61EB0201001C41F5801149084FEAC6
:1003600030000019514132462B4603B0BDE8F04F32
:1003700000F047B90098012240000023D0EB0202B0
:1003800063EBE073009821464FEAE074B8EB00009D
:1003900061EB0401E9E783F000435BE781F0004192
:1003A00058E72DE9FE4F81EA030404F0004421F0F0
:1003B000004100944FF0000B23F0004350EA010489
:1003C0005ED052EA03045BD0C3F30A54C1F30A556A
:1003D0002C44A4F2F3340194A0FB0254C1F31301A2
:1003E00041F48011C3F3130343F4801301FB02446F
:1003F00000FB034E840A970A44EA815447EA835774
:10040000A4FB076802958D0A05FB07854FEA932C2C
:1004100004FB0C542705029D4FEA065847EA16379D
:10042000B5EB08056EEB070C870E920E47EA8117B5
:1004300042EA8312A7FB0201B6EB0B0164EB000456
:100440002B0D43EA0C335E1844EB1C50DA46514640
:10045000E7FB0201C5F313044FEA0B3343EA1453DD
:100460004FEA0432019C43EA0603A4F10C0402940F
:10047000009CCDE900B400F0D3F803B0BDE8F08FE4
:1004800000200146F9E70EB5C10F80EAE07008448C
:10049000CA07002140F233438DE80E000A460B469E
:1004A00000F0BEF803B000BD00F0004230F00040A4
:1004B0000AD0C10D01F56071C0F3160042EA015186
:1004C000C20840071143704700200146704701F001
:1004D000004330B421F0004150EA010206D00A0D79
:1004E000A2F56072C1F31301002A02DC30BC0020C7
:1004F0007047440F44EAC104C100E01830BC00EB6F
:10050000C25000F047B830B50B460146002020220B
:10051000012409E021FA02F59D4205D303FA02F510
:10052000491B04FA02F52844151EA2F10102F1DC70
:1005300030BD202A04DB203A00FA02F10020704787
:100540009140C2F1200320FA03F319439040704711
:10055000202A04DB203A21FA02F00021704721FA18
:1005600002F3D040C2F1200291400843194670477F
:10057000202A06DBCB17203A41FA02F043EAE07367
:1005800006E041FA02F3D040C2F120029140084354
:10059000194670470029A8BF7047401C490008BF92
:1005A00020F00100704710B4B0FA80FC00FA0CF0A3
:1005B00050EA010404BF10BC704749B1CCF12004DB
:1005C00021FA04F411FA0CF118BF01212143084368
:1005D000A3EB0C01CB1D4FEA00614FEA102042BF94
:1005E000002010BC704700EBC35010440029A4BF8A
:1005F00010BC7047401C490008BF20F0010010BC2F
:10060000704710B5141E73F1000408DA401C41F164
:10061000000192185B411A4301D120F0010010BD86
:100620002DE9F04D92469B4611B1B1FA81F202E0FC
:10063000B0FA80F220329046FFF77BFF04460F4667
:1006400040EA0A0041EA0B0153465A46084313D0D8
:10065000114653EA010019D0C8F140025046FFF795
:1006600077FF05460E46504659464246FFF761FF62
:10067000084305D0012004E020463946BDE8F08D4E
:100680000020054346EAE0762C4337430A98630589
:10069000E40AA0EB08000022FD0A44EA47540A30AD
:1006A00002D500200146E9E7010510196941DDE99D
:1006B000084500196941BDE8F04DA2E72DE9F04D6C
:1006C00081EA030404F0004B21F0004514464FF08A
:1006D000000A23F0004150EA050220D054EA01024A
:1006E0001DD0C5F30A570246C5F31303C1F3130027
:1006F000C1F30A5640F4801543F48013A7EB0608B3
:10070000101BD64608F2FD3873EB050002D308F142
:10071000010801E092185B41B8F1000F03DA0020F4
:100720000146BDE8F08D00204FF480110646844656
:100730000EE0171B73EB050705D3121B63EB0503D4
:1007400006434CEA010C49084FEA300092185B411D
:1007500050EA0107EDD152EA030012D082EA040008
:1007600083EA0501084305D0101BAB4106D20122E4
:10077000002306E000224FF0004302E06FF0010288
:1007800053101AEB06004CEB085110EB0A0041EB3A
:100790000B01BDE8F04DFFF734BF70B521F0004309
:1007A00003430CD0C1F30A550024D5EB040564EBD8
:1007B0000403D617AD1AB34102DB0020014670BD19
:1007C000201841EB025170BDC1F30A52C1F313016D
:1007D00040F2FF3341F480119A4202DA00200146D0
:1007E000704740F233439A42A2F2334202DC524253
:1007F000FFF7AEBEFFF79DBE30B5041E71F10004D9
:1008000004DB4FF00044404264EB0101141E73F11D
:10081000000405DB1C464FF00043524263EB040327
:10082000994208BF904230BD064C074D06E0E06893
:1008300040F0010394E8070098471034AC42F6D327
:10084000FFF7A6FC307E0008507E00082DE9F04D31
:1008500000231A461B1A8A4103DB00200146BDE82B
:10086000F08DC1F30A52C1F3130141F480154FF02A
:10087000000BD10702D100186D41521E002704461B
:1008800040F2FF11384601EB620A3E4680460246BE
:1008900000204FF48011FFF75BFEC2197141BB18B5
:1008A00046EB0100B4EB030C75EB000C04D3E41A27
:1008B00065EB000517460E46241908F101006D414D
:1008C00080463428E3DDF91946EB0600091BA841F0
:1008D00003D24FF0FF32134601E0002213461BEB18
:1008E000070046EB0A51BDE8F04DFFF78ABE000055
:1008F0002A48006801280FD1294890ED000AB5EE7A
:10090000C00AF1EE10FA07D090ED000A254880EDFC
:10091000000A002021490860214890ED000A214882
:10092000D0ED000A30EE600A1F4880ED000A90ED1D
:10093000000ADFED1E0AB4EEE00AF1EE10FA08DD5F
:1009400090ED000ADFED1A0A30EE600A80ED000A31
:100950001DE0154890ED000ADFED160AB4EEE00A3E
:10096000F1EE10FA08D290ED000ADFED110A30EE38
:10097000200A80ED000A0AE0094890ED000A0948C3
:10098000D0ED000A30EE600A074880ED000A064804
:1009900090ED000A084880ED000A70473C000020F6
:1009A00058000020340000202C00002000003443B8
:1009B0000000B443000034C33000002000BFFEE755
:1009C000704772B600BFFEE770B50020002300221A
:1009D0000024DFED530AB0EE600A00210EE0514D15
:1009E0006D5C3D2D01D14D1CE8B24E4D6D5C212D4D
:1009F00002D14D1EEBB203E04D1CE9B2C829EEDB7B
:100A000000BF4849095C2D2902D1411CC8B201240C
:100A1000191A491CCAB2042A20D14249095C30394A
:100A200000EE901AF8EEE00A3E4D811C695C303908
:100A300001EE101AB8EEC11ADFED3B1A41EE210AA1
:100A4000C11C695C303901EE101AB8EEC11ADFED35
:100A5000371A41EE210AB0EE600A5AE0052A27D182
:100A6000304D411C695C30392D5C303D05EB85050E
:100A700001EB450100EE901AF8EEE00A294DC11C89
:100A8000695C303901EE101AB8EEC11ADFED261A92
:100A900041EE210A011D695C303901EE101AB8EEF1
:100AA000C11ADFED221A41EE210AB0EE600A30E0F1
:100AB000062A2ED11B49095C3039642511FB05F546
:100AC000184E411C715C303901EB810105EB410589
:100AD000811C715C3039294400EE901AF8EEE00A6E
:100AE0003546011D695C303901EE101AB8EEC11AA5
:100AF000DFED0D1A41EE210A411D695C303901EE2E
:100B0000101AB8EEC11ADFED091AB0EE600A01EE54
:100B1000210A012C03D1F1EE400AB0EE600A70BD4B
:100B20000000000004040020CDCCCC3D0AD7233CBB
:100B300070B50446A56D00F081F9064694F83500BD
:100B4000022808D08020606500BF002084F83400AF
:100B500000BF012070BD2068006820F016002168E9
:100B600008602068406920F0800021684861206C9E
:100B700008B9A06C28B12068006820F0080021683E
:100B800008602068006820F001002168086010E01B
:100B900000F054F9801B05280BD920206065032044
:100BA00084F8350000BF002084F8340000BF032023
:100BB000D0E72068006800F001000028E8D194F830
:100BC0005C103F208840A860012084F8350000BFF9
:100BD000002084F8340000BF00BFBBE7014691F855
:100BE0003500022803D08020486501207047052089
:100BF00081F835000868006820F001000A6810607C
:100C00000020F3E770B5044600F018F906462546C3
:100C1000681C10B104480078054400BF00F00EF9CC
:100C2000801BA842FAD370BD64000020F8B50246CC
:100C30000B460025002400200021D6E0012606FAFC
:100C400001F51E6806EA0504AC4274D11E7906F06F
:100C50000306012E04D01E7906F00306022E13D1DE
:100C600090684F000326BE40B0434F00DE68BE4090
:100C700030439060506801268E40B0431E79C6F321
:100C800000168E40304350601E7906F00306032E96
:100C900009D0D0684F000326BE40B0434F009E6885
:100CA000BE403043D0601E7906F00306022E13D1F9
:100CB000CF0802F1200656F827004E07F70E0F2640
:100CC000BE40B0434F07FF0E1E69BE403043CF0801
:100CD00002F1200646F8270010684F000326BE40A8
:100CE000B0431E7906F003064F00BE40304310604B
:100CF0005E6806F44036002E76D000BF00260096CF
:100D00003C4E366846F480463A4F3E603E46366872
:100D100006F48046009600BF00BF374E8F0856F895
:100D200027008E07370F0F26BE40B043334EB24226
:100D300002D1002624E057E0314EB24201D1012613
:100D40001EE0304EB24201D1022619E02E4EB242D0
:100D500001D1032614E02D4EB24201D104260FE04A
:100D60002B4EB24201D105260AE02A4EB24201D1F1
:100D7000062605E0284EB24201D1072600E00826EB
:100D80008F073F0FBE4030431B4E8F0846F82700A9
:100D9000224E3068A0435E6806F4801606B12043F8
:100DA0001E4E3060361D3068A0435E6806F40016A3
:100DB00006B12043194E361D3060184E361F30687C
:100DC000A0435E6806F4003606B12043134E361F7A
:100DD0003060361F3068A0435E6806F4803606B186
:100DE00020430E4E083E3060491C1029FFF426AF08
:100DF000F8BD0000443802400838014000000240BD
:100E00000004024000080240000C024000100240B2
:100E10000014024000180240001C0240083C01403F
:100E2000024613690B400BB1012000E0002070471F
:100E30000AB1816101E00B048361704701480068D9
:100E4000704700005C00002070B504460CB901201A
:100E500070BD94F83D0028B9002084F83C0020467D
:100E600000F018FB242084F83D002068006820F082
:100E70000100216808602068006840F40040216893
:100E800008602068006820F400402168086000F0D5
:100E9000E7FC05465C496068884206D85B488542A5
:100EA00001D2012007E0002005E05948854201D227
:100EB000012000E00020012800D1C9E75548B5FB1A
:100EC000F0F62068406820F03F0030432168486019
:100ED0004D496068884201D8701C07E04FF4967055
:100EE00070434FF47A71B0FBF1F0401C2168096A3D
:100EF00021F03F0108432168086243496068884245
:100F000014D8681E61684900B0FBF1F0401CC0F3C2
:100F10000B00042801D204203DE0681E61684900EE
:100F2000B0FBF1F0401CC0F30B0034E0A06838B90E
:100F3000681E616801EB4101B0FBF1F0401C0AE062
:100F4000681E616801EBC10202EB0111B0FBF1F018
:100F5000401C40F48040C0F30B0008B901201AE0A7
:100F6000A06848B9681E616801EB4101B0FBF1F06F
:100F7000401CC0F30B000CE0681E616801EBC1026D
:100F800002EB0111B0FBF1F0401CC0F30B0040F488
:100F9000804040F400402168C9694CF6FF729143DB
:100FA00008432168C861D4E907010843216809683A
:100FB00021F0C001084321680860D4E90310084308
:100FC0002168896848F2FF329143084321688860AC
:100FD000D4E9050108432168C96821F0FF010843ED
:100FE0002168C8602068006840F00100216808603E
:100FF00000202064202084F83D000020206384F835
:101000003E0000BF24E70000A086010080841E008F
:1010100000093D0040420F002DE9F843044689468F
:1010200017469846089EFFF709FF054694F83D00CD
:1010300020287DD119230122B7492046009502F0CE
:10104000ACF910B10220BDE8F88300BF94F83C0071
:10105000012801D10220F6E7012084F83C0000BFFE
:101060002068006800F0010028B92068006840F09E
:101070000100216808602068006820F40060216891
:101080000860222084F83D00102084F83E000020F3
:1010900020646762A4F82A80608D20859F48E06202
:1010A0002B4632464946204602F048F808B1012056
:1010B000C9E7208D88B900BF0020009020684069F2
:1010C000009020688069009000BF00BF2068006821
:1010D00040F400702168086047E0208D012817D196
:1010E0002068006820F480602168086000BF00204C
:1010F000009020684069009020688069009000BFDF
:1011000000BF2068006840F40070216808602CE08F
:10111000208D022818D12068006820F480602168A2
:1011200008602068006840F400602168086000E002
:10113000EFE000BF00200090206840690090206828
:101140008069009000BF10E02068006840F4806073
:101150002168086000BF002000902068406900906E
:1011600020688069009000BF00BFC3E0208D032885
:101170007ED8208D012815D12A463146204602F01E
:10118000E8F908B101205EE720680069616A08702B
:10119000606A401C6062208D401E2085608D401E6C
:1011A0006085A7E0208D02282AD1334600225C49C1
:1011B0002046009502F0F1F808B1012043E72068CD
:1011C000006840F400702168086020680069616A66
:1011D0000870606A401C6062208D401E2085608D12
:1011E000401E608520680069616A0870606A401C62
:1011F0006062208D401E2085608D401E608579E0F4
:101200003346002246492046009502F0C6F808B150
:10121000012018E72068006820F4806021680860D9
:1012200020680069616A0870606A401C6062208DF5
:10123000401E2085608D401E60853346002238495F
:101240002046009502F0A9F808B10120FBE62068CD
:10125000006840F400702168086020680069616AD5
:101260000870606A401C6062208D401E208500E08E
:1012700010E0608D401E608520680069616A08701A
:10128000606A401C6062208D401E2085608D401E7B
:1012900060852FE02A463146204602F05AF908B10F
:1012A0000120D0E620680069616A0870606A401C0D
:1012B0006062208D401E2085608D401E6085206804
:1012C0004069C0F38000A8B1208D032805D12068B3
:1012D000006820F480602168086020680069616A05
:1012E0000870606A401C6062208D401E2085608D01
:1012F000401E6085208D00287FF438AF202084F8C0
:101300003D00002084F83E0000BF84F83C0000BF90
:1013100099E6022097E60000020010000000FFFF9F
:10132000040001002DE9F8430446894616461F468D
:10133000DDF82080FFF782FD054694F83D00202867
:101340007ED11923012251492046009502F025F84B
:1013500010B10220BDE8F88300BF94F83C000128DA
:1013600001D10220F6E7012084F83C0000BF20688C
:10137000006800F0010028B92068006840F0010012
:10138000216808602068006820F400602168086017
:10139000212084F83D00102084F83E0000202064C5
:1013A00066626785608D20853948E0622B4642463B
:1013B0004946204601F05EFF08B10120CAE700BFA0
:1013C00000200090206840690090206880690090AB
:1013D00000BF00BF44E02A464146204602F0FEF826
:1013E00050B1206C042805D12068006840F40070DA
:1013F000216808600120ADE7606A00782168086113
:10140000606A401C6062608D401E6085208D401EB9
:10141000208520684069C0F3800070B1208D60B1E4
:10142000606A007821680861606A401C6062608DB3
:10143000401E6085208D401E20852A46414600E0E2
:1014400022E0204601F076FF50B1206C042805D13F
:101450002068006840F4007021680860012079E786
:10146000208D0028B7D12068006840F40070216802
:101470000860202084F83D00002084F83E0000BF72
:1014800084F83C0000BF65E7022063E7020010001B
:101490000000FFFF10B586B00446142101A8FEF736
:1014A000C7FE1B49206888422FD100BF0020009052
:1014B0001848006840F002001649086008460068B5
:1014C00000F00200009000BF00BFC0200190122079
:1014D000029000200390032004900420059001A9AD
:1014E0000D48FFF7A3FB00BF002000900948103013
:1014F000006840F400100749103108600846006891
:1015000000F40010009000BF00BF06B010BD000046
:101510000054004030380240000402400348006894
:101520000349097808440149086070475C000020BD
:101530006400002010B50D48006840F400700B49AD
:1015400008600846006840F480600860084600684B
:1015500040F480700860032000F0A6F80F2000F02F
:1015600007F800F02BF8002010BD0000003C0240FE
:1015700070B504460E4800784FF47A71B1FBF0F074
:101580000C490968B1FBF0F5284600F02FFC08B1C2
:10159000012070BD102C07D200222146501E00F001
:1015A00045F80548046001E00120F2E70020F0E77B
:1015B00064000020680000206000002008B500BF23
:1015C000002000900E48006840F480400C490860FC
:1015D0000846006800F48040009000BF00BF00BFD4
:1015E00000200090081F006840F08050091F08602C
:1015F0000846006800F08050009000BF00BF08BDA2
:10160000443802400146084600280DDB00BF00BFF9
:1016100000F01F0301229A4043099B0003F1E023DD
:10162000C3F8002100BF00BF00BF70472DE9F05F85
:1016300080460D461646002703F020FB0746394634
:101640002A46334601F00700C0F1070ABAF1040F39
:1016500002D94FF0040A01E0C0F1070AD14600F1B7
:10166000040ABAF1070F02D24FF0000A01E0A0F11C
:10167000030AD4464FF0010A0AFA09FAAAF1010A4C
:101680000AEA020A0AFA0CFA4FF0010B0BFA0CFBF9
:10169000ABF1010B0BEA030B4AEA0B04214640466F
:1016A00003F0F4FABDE8F09F00BF00F00702064B1C
:1016B00019684FF6FF031940044B0B4343EA02211C
:1016C000014B196000BF70470CED00E00000FA0507
:1016D00070B504460D460CB9012070BD584800682D
:1016E00000F00700A84209D255490D70084600686D
:1016F00000F00700A84201D00120EEE7207800F0BA
:10170000020002281DD1207800F00400042805D131
:101710004C48006840F4E0504A490860207800F0E6
:101720000800082805D14748006840F46040454952
:1017300008604448006820F0F000A168084341496F
:101740000860207800F00100A8B36068012807D184
:101750003C4808380068C0F34040B8B90120BCE7F5
:101760006068022802D06068032807D1354808382D
:101770000068C0F3406048B90120AEE7314808383E
:101780000068C0F3400008B90120A6E72D480068B2
:1017900020F00300616808432A490860FFF74EFB08
:1017A000064609E0FFF74AFB801B41F28831884278
:1017B00002D9032091E707E02248006800F00C00FE
:1017C0006168B0EB810FEDD11D48006800F00700A3
:1017D000A84209D91A490D700846006800F00700B0
:1017E000A84201D0012078E7207800F00400042806
:1017F00007D11448006820F4E050E168084311491B
:101800000860207800F00800082808D10D4800681A
:1018100020F46040216940EAC1000A49086000F0F4
:101820003FF808490968C1F30311074A515CC840F1
:101830000649086006480068FFF79AFE00204CE75A
:10184000003C024008380240AC76000868000020E6
:101850006000002001480068704700006800002018
:1018600000B5FFF7F7FF04490968C1F38221034A75
:10187000515CC84000BD000008380240BC7600083A
:1018800000B5FFF7E7FF04490968C1F34231034A95
:10189000515CC84000BD000008380240BC7600081A
:1018A0002DE9F047002400250026A14625480068C0
:1018B00000F00C0020B1042805D008283AD105E03A
:1018C000DFF8849039E0DFF8849036E01D48001F8F
:1018D000006800F03F041B48001F006800F480000F
:1018E00078B11A481749091F0968C1F38811A0FB8C
:1018F00001700146224600233846FEF761FC05468A
:101900000EE011480F49091F0968C1F38811A0FBB7
:1019100001700146224600233846FEF751FC054679
:101920000848001F0068C0F30140401C4600B5FB9A
:10193000F6F902E0DFF8109000BF00BF4846BDE8AE
:10194000F0870000083802400024F40000127A00FA
:10195000F8B504460CB90120F8BD207800F001006C
:10196000002874D0F948006800F00C0004280DD05D
:10197000F648006800F00C00082813D1F348001F57
:10198000006800F48000B0F5800F0BD1EF480838F4
:101990000068C0F34040002859D06068002856D144
:1019A0000120D9E700BF6068B0F5803F08D1E74863
:1019B0000838006840F48030E449083908601EE0C7
:1019C0006068B0F5A02F0DD1E0480838006840F4F9
:1019D0008020DE49083908600846006840F48030FD
:1019E00008600CE0D9480838006820F48030D749F6
:1019F000083908600846006820F48020086000BFAD
:101A0000606890B1FFF71AFA054606E0FFF716FA8C
:101A1000401B642801D903209EE7CC4808380068A1
:101A2000C0F340400028F1D011E0FFF707FA054667
:101A300006E0FFF703FA401B642801D903208BE777
:101A4000C24808380068C0F340400028F1D120782F
:101A500000F0020002285FD1BC48006800F00C00D2
:101A600058B1BA48006800F00C0008281CD1B748EB
:101A7000001F006800F48000B0B9B448083800685E
:101A8000C0F3400020B1E068012801D0012063E7E5
:101A9000AE480838006820F0F800216940EAC1002B
:101AA000AA490839086037E0E06800B30120A84976
:101AB0000860FFF7C3F9054606E0FFF7BFF9401BD2
:101AC000022801D9032047E7A04808380068C0F37E
:101AD00040000028F1D09D480838006820F0F80048
:101AE000216940EAC10099490839086014E00020E2
:101AF00097490860FFF7A2F9054606E0FFF79EF94F
:101B0000401B022801D9032026E7904808380068C6
:101B1000C0F340000028F1D1207800F00800082828
:101B20002CD16069A8B101208A490860FFF786F9C5
:101B3000054606E0FFF782F9401B022801D9032081
:101B40000AE782486C300068C0F340000028F1D0FA
:101B500014E000207F490860FFF770F9054606E0B1
:101B6000FFF76CF9401B022801D90320F4E67748FF
:101B70006C300068C0F340000028F1D1207800F0FC
:101B80000400042870D1002770483830006800F045
:101B9000805090B900BF002000906C483830006839
:101BA00040F080506949383108600846006800F00C
:101BB0008050009000BF00BF01276748006800F414
:101BC0008070B0B96448006840F480706249086071
:101BD000FFF734F9054606E0FFF730F9401B02280D
:101BE00001D90320B8E65C48006800F48070002842
:101BF000F2D000BFA068012808D1544868300068BE
:101C000040F001005149683108601DE0A0680528D6
:101C10000DD14E486830006840F004004B496831EF
:101C200008600846006840F0010008600CE0474882
:101C30006830006820F001004449683108600846B7
:101C4000006820F00400086000BFA068A8B1FFF79A
:101C5000F5F8054609E0FFF7F1F8401B41F288313D
:101C6000884202D9032077E626E0384868300068C9
:101C7000C0F340000028EED013E0FFF7DFF8054680
:101C800008E0FFF7DBF8401B41F28831884201D9B8
:101C9000032061E62D4868300068C0F3400000284A
:101CA000EFD1012F07D129483830006820F080504B
:101CB00026493831086000BFA069002845D0234874
:101CC000006800F00C0008285DD0A069022845D10A
:101CD00000201F490866FFF7B1F8054606E0FFF748
:101CE000ADF8401B022801D9032035E61748083813
:101CF0000068C0F340600028F1D1D4E9070108432F
:101D0000616A40EA81110122A06AC2EB500041EAF7
:101D100000412C20005D41EA00600C49091F086069
:101D200001200B490866FFF789F8054606E0FFF732
:101D300085F8401B022801D903200DE60348083826
:101D40000068C0F340600028F1D049E00838024044
:101D500000004742800E47420070004000202149A9
:101D60000866FFF76BF8054606E0FFF767F8401BCB
:101D7000022801D90320EFE51B480068C0F340604A
:101D80000028F2D12CE0A069012800D1E4E5164832
:101D9000001D0668A069012820D006F48001E069D2
:101DA00081421BD106F03F01206A814216D147F6DD
:101DB000C0703040616AB0EB811F0FD106F4403132
:101DC0000122A06AC2EB5000B1EB004F06D106F031
:101DD00070612C20005DB1EB006F01D00120BBE5EC
:101DE0000020B9E5000047420038024070B50446C3
:101DF0002546681EB0F1807F01D301200FE0681EE8
:101E00004FF0E02148610F214FF0FF3002F03EFF1C
:101E100000204FF0E021886107200861002070BD9C
:101E200070B504460D4616464FF0FF33324629463C
:101E3000204601F001F970BD7047704710B50346A8
:101E4000002200BF93F83C00012801D1022010BD00
:101E5000012083F83C0000BF22F0FF00CC6840EA7C
:101E6000040222F440708C6840EA040222F480608C
:101E70004C6840EA040222F400600C6840EA040264
:101E800022F480500C6940EA040222F400504C69AC
:101E900040EA040222F48040CC6940EA0402186857
:101EA000426400BF002083F83C0000BF00BFCEE7C3
:101EB00030B502460B4600BF92F83C00012801D124
:101EC000022030BD012082F83C0000BF022082F8D1
:101ED0003D00106844681068816824F07004186838
:101EE000044310684460184D1068A8421BD0106865
:101EF000B0F1804F17D0154D1068A84213D0144D83
:101F00001068A8420FD0134D1068A8420BD0124D94
:101F10001068A84207D0114D1068A84203D0104D98
:101F20001068A84205D121F080015868014310686B
:101F30008160012082F83D0000BF002082F83C0053
:101F400000BF00BFBDE700000000014000040040EA
:101F500000080040000C0040000401400040014027
:101F60000018004010B504460CB9012010BD94F8CB
:101F70003D0028B9002084F83C00204600F026F8F7
:101F8000022084F83D00211D206802F071F8012034
:101F900084F8460000BF84F83E0001213F2001552F
:101FA000402001554120015500BF00BF012084F8A9
:101FB000420043200155442001554520015500BFF2
:101FC000012084F83D000020D0E7000038B5044629
:101FD0000E492068884217D100BF002000900C48AD
:101FE000006840F004000A4908600846006800F0F4
:101FF0000400009000BF00BF002211461E20FFF722
:1020000015FB1E20FFF7FEFA38BD00000008004057
:1020100040380240014691F83D00012801D00120DE
:102020007047022081F83D000868C06840F0010058
:102030000B68D8601A4B086898421BD00868B0F14A
:10204000804F17D0174B0868984213D0164B08687A
:1020500098420FD0154B086898420BD0144B086873
:10206000984207D0134B0868984203D0124B086877
:1020700098420CD10868806800F00702062A0CD04C
:102080000868006840F001000B68186005E0086807
:10209000006840F001000B6818600020C0E70000F5
:1020A000000001400004004000080040000C004017
:1020B0000004014000400140001800402DE9F041BB
:1020C00004460D46002700BF94F83C00012802D1C9
:1020D0000220BDE8F081012084F83C0000BF02200E
:1020E00084F83D002068866826F0770626F47F464F
:1020F000206886602868502833D00CDC202850D017
:1021000004DC00284BD0102851D149E0302849D0B8
:1021100040284CD139E060282DD0702807D0B0F588
:10212000805F03D0B0F5005F41D10DE041E0D5E91B
:1021300002136A68206802F020F82068866846F07A
:1021400077062068866034E0D5E902136A68206863
:1021500002F013F82068806840F4804021688860AD
:1021600027E0EA686968206802F0F8F850212068E2
:1021700002F00EF81DE0EA686968206802F001F9D3
:102180006021206802F004F813E0EA6869682068BA
:1021900002F0E4F84021206801F0FAFF09E000BFF6
:1021A00000BF00BF2968206801F0F2FF01E00127AD
:1021B00000BF00BF012084F83D0000BF002084F86C
:1021C0003C0000BF384684E72DE9F04104460D4647
:1021D00014B90120BDE8F08194F83D0028B9002031
:1021E00084F83C00204600F053F8022084F83D00BB
:1021F0002068806844F20701884321688860211DB7
:10220000206801F035FF2068D0F8088020688669D2
:102210002068076A286840EA080840F203308643CD
:10222000A969A86840EA0120064340F60C408643AD
:102230004FF2F0008643E969E86840EA012006436E
:1022400028690001296A40EA0130064327F0220785
:1022500027F088076969686840EA01100743206829
:10226000C0F808802068866120680762012084F831
:10227000460084F83E0001213F200155012084F8EA
:10228000420043200155012084F83D000020A1E7D1
:1022900010B586B00446142101A8FDF7C9FF2068D7
:1022A000B0F1804F4DD100BF002000903F48006842
:1022B00040F001003D4908600846006800F0010058
:1022C000009000BF00BF00BF0020009037481038CA
:1022D000006840F001003549103908600846006880
:1022E00000F00100009000BF00BF00BF0020009080
:1022F0000846006840F0020008600846006800F0E8
:102300000200009000BF00BF202001900220029038
:1023100001200390022004900120059001A9244887
:10232000FEF784FC08200190022002900120039017
:10233000022004900120059001A91E48FEF776FCBA
:1023400032E01D49206888422ED100BF0020009055
:102350001648006840F0020014490860084600680A
:1023600000F00200009000BF00BF00BF00200090FE
:102370000E481038006840F001000C491039086020
:102380000846006800F00100009000BF00BFC020B8
:1023900001900220029001200390022004900590F9
:1023A00001A90348FEF742FC06B010BD40380240C8
:1023B0000000024000040240000400402DE9F04308
:1023C00004460D4694F83E603F20075D94F8428035
:1023D000432010F804906DB9012E02D1B8F1010F1D
:1023E00002D00120BDE8F083022084F83E0084F88A
:1023F000420025E0042D0CD1012F02D1B9F1010FCB
:1024000001D00120EEE702213F2001554320015574
:1024100016E0012E07D1012F05D1B8F1010F02D12D
:10242000B9F1010F01D00120DCE7022084F83E0061
:1024300002213F200155022084F84200432001552B
:1024400015B1042D0CD105E001220021206801F016
:1024500083FE10E001220421206801F07DFE0AE0E5
:1024600001220021206801F077FE0122042120686A
:1024700001F072FE00BF00BF2068006840F001005C
:10248000216808600020ADE7704770B504462068F9
:10249000C5682068066906F00200022819D105F017
:1024A0000200022815D1401F216808610120207711
:1024B0002068806900F0030018B12046FFF7E4FFB0
:1024C00005E0204600F0CAF8204600F097F9002009
:1024D000207706F00400042819D105F00400042830
:1024E00015D1C043216808610220207720688069E7
:1024F00000F4407018B12046FFF7C6FF05E0204603
:1025000000F0ACF8204600F079F90020207706F0C2
:102510000800082819D105F00800082815D1C04383
:1025200021680861042020772068C06900F003005A
:1025300018B12046FFF7A8FF05E0204600F08EF80E
:10254000204600F05BF90020207706F010001028EC
:1025500019D105F01000102815D1C0432168086179
:10256000082020772068C06900F4407018B1204628
:10257000FFF78AFF05E0204600F070F8204600F0E3
:102580003DF90020207706F0010048B105F0010078
:1025900030B16FF0010021680861204600F0B6F903
:1025A00006F08000802809D105F08000802805D140
:1025B000C043216808612046FFF73EFC06F040005A
:1025C000402809D105F04000402805D1C0432168CA
:1025D0000861204600F0C2FA06F02000202809D148
:1025E00005F02000202805D1C0432168086120465D
:1025F000FFF723FC70BD000010B586B0044614211F
:1026000001A8FDF715FE1249206888421DD100BFC0
:10261000002000900F48006840F010000D4908604D
:102620000846006800F01000009000BF00BF4FF4A3
:10263000206001900220029000200390049001206D
:10264000059001A90448FEF7F1FA06B010BD00009C
:1026500000000140303802400010024070472DE970
:10266000F04104460D461646002700BF94F83C0092
:10267000012802D10220BDE8F081012084F83C004D
:1026800000BF36B1042E1BD0082E31D00C2E5ED1E7
:1026900045E02946206801F085FD2068806940F00A
:1026A0000800216888612068806920F004002168A2
:1026B000886120688069296908432168886148E049
:1026C0002946206801F0A6FD2068806940F400607A
:1026D000216888612068806920F4806021688861B1
:1026E00020688069296940EA01202168886130E01A
:1026F0002946206801F0CCFD2068C06940F0080040
:102700002168C8612068C06920F004002168C861A0
:102710002068C069296908432168C86119E0294611
:10272000206801F0F1FD2068C06940F40060216874
:10273000C8612068C06920F480602168C861206891
:10274000C069296940EA01202168C86101E00127C8
:1027500000BF00BF00BF002084F83C0000BF384627
:1027600089E710B504460CB9012010BD94F83D006E
:1027700028B9002084F83C00204600F025F802200B
:1027800084F83D00211D206801F072FC012084F8CE
:10279000460000BF84F83E0001213F200155402043
:1027A00001554120015500BF00BF012084F84200BF
:1027B00043200155442001554520015500BF01200B
:1027C00084F83D000020D0E708B50A4A016891422C
:1027D0000FD100BF002100910749096841F00101B4
:1027E000054A11601146096801F00101009100BF1E
:1027F00000BF08BD0000014044380240704700009F
:1028000070B504460D4615B994F83E000BE0042D52
:1028100002D13F20005D06E0082D02D14020005D7E
:1028200001E04120005D012801D0012070BD1DB9EB
:10283000022084F83E000EE0042D03D102213F2047
:10284000015508E0082D03D102214020015502E086
:1028500002214120015501222946206801F07CFC1B
:1028600023492068884203D022492068884201D148
:10287000012000E0002028B12068406C40F40040B6
:10288000216848641A49206888421BD02068B0F14A
:10289000804F17D018492068884213D01749206804
:1028A00088420FD01649206888420BD01149206811
:1028B000884207D013492068884203D01249206813
:1028C00088420CD12068806800F00706062E0CD0E4
:1028D0002068006840F001002168086005E0206879
:1028E000006840F001002168086000209EE70000B9
:1028F00000000140000401400004004000080040C6
:10290000000C0040004001400018004010B52DEDC3
:10291000088B044604F066F900287DD004F072FAB2
:10292000804880ED000A04F02BFA7F4880ED000A11
:1029300004F03CFA7D4880ED000A04F04DFA7C4832
:1029400080ED000A784890ED000A20EE000A7748F2
:10295000D0ED000A90ED001A00EE810AF7EE000AB1
:10296000B0EE001A41EE400A10EE901A0846FDF74C
:102970009BFD41EC1A0B6B4890ED000A6A48D0EDC4
:10298000000A20EE200A6948D0ED000A684890ED60
:10299000001A00EE810AF0EE000A20EE200A10EE86
:1029A000101A0846FDF780FD41EC1B0BB0EE4A1AE9
:1029B000F0EE6A1AB0EE4B0AF0EE6B0A02F098FCE9
:1029C000B0EE409AF0EE609A9FED5A0B53EC102B4C
:1029D00051EC190BFDF7E5FC41EC180BFDF777FD09
:1029E000564908604F4890ED000A5048D0ED000A63
:1029F00020EE200A4E48D0ED000A4B4890ED001A18
:102A000000EEC10AF0EE000A20EE200A10EE101AC5
:102A10000846FDF749FD00E069E041EC1A0BB0EE15
:102A20004A0AF0EE6A0A02F047F9B0EE409AF0EE78
:102A3000609A9FED400B53EC102B51EC190BFDF7F6
:102A4000B0FC41EC180BFDF742FD3D4908603748EA
:102A500090ED000A20EE000A3548D0ED000A90ED16
:102A6000001A00EE810AF7EE000AB0EE001A41EEFD
:102A7000400A10EE901A0846FDF716FD41EC1A0BBD
:102A8000284890ED000A2A48D0ED000A20EE200ADE
:102A90002548D0ED000A254890ED001A00EE810A85
:102AA000F0EE000A20EE200A10EE101A0846FDF79C
:102AB000FBFC41EC1B0BB0EE4A1AF0EE6A1AB0EECA
:102AC0004B0AF0EE6B0A02F013FCB0EE409AF0EE07
:102AD000609A9FED180B53EC102B51EC190BFDF77E
:102AE00060FC41EC180BFDF7F2FC16490860FDF79D
:102AF000FFFE154801F014FA4042144908601448DA
:102B000001F00EFA134908601348008808B904F070
:102B100035FD11480088012801D101F0F1FCBDEC20
:102B2000088B10BD40000020440000204800002019
:102B30004C0000206666666666A64C405000002089
:102B4000540000205800002020020020180000201F
:102B5000680200201C00002004000020704770471D
:102B6000704700002DE9F84F04462068056820688A
:102B7000C668206847694FF00009CA4605F00F098A
:102B8000B9F1000F0AD105F0200038B106F020009D
:102B900020B1204601F070FDBDE8F88FB9F1000FBB
:102BA0007CD007F0010018B906F49070002875D0A9
:102BB00005F0010030B106F4807018B1606C40F08F
:102BC0000100606405F0040030B107F0010018B1A5
:102BD000606C40F00200606405F0020030B107F064
:102BE000010018B1606C40F00400606405F008005A
:102BF00048B106F0200010B907F0010018B1606C70
:102C000040F008006064606C002846D005F02000A9
:102C100028B106F0200010B1204601F02DFD2068FB
:102C20004069C0F3801A606C00F0080010B9BAF176
:102C3000000F2DD0204601F0D9FC2068406900F03B
:102C40004000402820D100BF00BF2168143151E866
:102C5000001F21F040002168143141E80002002AE1
:102C6000F3D100BFE06B50B17748E16B0865E06BD2
:102C7000FDF7B4FF88B1E06B016D88470DE0204699
:102C8000FFF76EFF09E009E02046FFF769FF04E067
:102C90002046FFF765FF002060647DE7206B012878
:102CA00078D105F01000002874D006F0100000283C
:102CB000FAD000BF002000902068006800902068D3
:102CC0004068009000BF00BF2068406900F04000ED
:102CD000402860D1E06B006840681FFA80F8B8F1C6
:102CE000000F56D0A08D404553DDA4F82E80E06B38
:102CF000C069B0F5807F43D000BF00BF21680C31B0
:102D000051E8001F21F4807021680C3141E8000275
:102D1000002AF3D100BF00BF00BF2168143151E881
:102D2000001F21F001002168143141E80002002A4F
:102D3000F3D100BF00BF00BF2168143151E8001F6C
:102D400021F040002168143141E80002002AF3D14B
:102D500000BF202084F842000020206300BF00BF95
:102D600021680C3151E8001F21F0100021680C315E
:102D700041E80002002AF3D100BFE06BFDF7D8FE66
:102D800002206063A08DE28D801A81B22046FFF799
:102D9000E6FE01E742E0A08DE18D401A1FFA80F8BF
:102DA000E08DD0B3B8F1000F37D000BF00BF21686D
:102DB0000C3151E8001F21F4907021680C3141E87A
:102DC0000002002AF3D100BF00BF00BF2168143108
:102DD00051E8001F21F001002168143141E8000290
:102DE000002AF3D100BF202084F842000020206395
:102DF00000BF00BF21680C3151E8001F21F0100016
:102E000021680C3141E80002002AF3D100BF022002
:102E1000606341462046FFF7A2FEBDE605F0800054
:102E200030B106F0800018B1204601F0D9FDB3E6BC
:102E300005F0400030B106F0400018B1204601F026
:102E40000BFCA9E600BFA7E6D945000810B504466B
:102E50000CB9012010BDA06900B100E000BF94F8DA
:102E6000410028B9002084F84000204600F02AF8EC
:102E7000242084F841002068C06820F400502168B4
:102E8000C860204601F076FC2068006920F490407C
:102E9000216808612068406920F02A0021684861A3
:102EA0002068C06840F400502168C8600020606459
:102EB000202084F8410084F842000020606300BFB5
:102EC000C8E7000010B586B00446142101A8FDF73C
:102ED000AFF91F492068884238D100BF0020009018
:102EE0001C48006840F010001A4908600846006855
:102EF00000F01000009000BF00BF00BF0020009055
:102F000014481438006840F0010012491439086070
:102F10000846006800F00100009000BF00BF4FF4B9
:102F2000C0600190022002900020039003200490D2
:102F30000720059001A90848FDF778FE00221146F8
:102F40002520FEF773FB2520FEF75CFB06B010BDC5
:102F500000100140443802400000024070B50446B1
:102F60000D46164694F8420020280BD105B10EB943
:102F7000012070BD0020206332462946204601F022
:102F80000FFDF6E70220F4E770B505461B492868F7
:102F9000884232D11A480078401C194908701948F3
:102FA000017817480078401E174A115415480078D8
:102FB00021281BD11248017814A001F023FE00241F
:102FC00006E01148025D214613A001F01BFE641CBF
:102FD0000B4800788442F4DB012001F07FFDC8211A
:102FE0000948FDF725F9002005490870002005492A
:102FF000087001220F48FFF7B1FF70BD00100140BB
:1030000001000020000000200404002052584C65FC
:103010006E3D25640D0A00005541525420446174F0
:1030200061427566665B25645D203D2025630D0A5F
:1030300000000000F80200202DE9F84F04460E467B
:10304000174699464FF0000A94F84100202850D1C5
:1030500006B117B90120BDE8F88F00206064212077
:1030600084F84100FDF7EAFE8246A784E784A06861
:10307000B0F5805F04D1206910B90025B04602E0A8
:1030800035464FF000081EE05346002280212046BE
:10309000CDF8009001F0D4FC20B1202084F841004C
:1030A0000320D8E745B9B8F80000C0F3080021684C
:1030B000486008F1020803E02878216848606D1C28
:1030C000E08C401EE084E08C0028DDD153460022D5
:1030D00040212046CDF8009001F0B2FC20B1202024
:1030E00084F841000320B6E7202084F84100002046
:1030F000B1E70220AFE7704700BFFEE7014608686E
:103100004069C0F38020B0B16FF480600A685061FC
:1031100000200863202081F83D00002081F83E0057
:10312000086C40F00400086400BF002081F83C00F7
:1031300000BF012070470020FCE700002DE9F843A4
:1031400004460D4690461E46E76A2068006840F433
:10315000806021680860082F04D0012F02D017F585
:10316000803F06D12068006840F4807021680860C4
:1031700008E0206B112805D12068006840F48070B9
:1031800021680860434600224FF001112046009656
:1031900000F003F960B12068006800F48070B0F5B9
:1031A000807F02D14FF4007020640320BDE8F883D3
:1031B0002069B0F5804F05D1E8B240F001002168E8
:1031C000086149E005F44070F02141EAE01021680F
:1031D0000861334642462649204600F03DF908B1D1
:1031E0000120E3E7E8B221680861334642462049FE
:1031F000891F204600F030F908B10120D6E700BF52
:10320000002000902068406900902068806900904C
:1032100000BF00BF2068006840F48070216808602B
:10322000434600224FF001112046009600F0B5F809
:1032300058B12068006800F48070B0F5807F02D13A
:103240004FF4007020640320B0E705F44070F121D2
:1032500041EAE01021680861334642460449891F6B
:10326000204600F0F9F808B101209FE700209DE713
:10327000080001002DE9F84304460D46174698461C
:10328000E66A082E04D0012E02D016F5803F06D142
:103290002068006840F480702168086008E0206BB6
:1032A000122805D12068006840F480702168086009
:1032B0003B4600224FF001112046CDF8008000F07F
:1032C0006CF860B12068006800F48070B0F5807F11
:1032D00002D14FF4007020640320BDE8F883206918
:1032E000B0F5804F04D105F0FE002168086112E0BE
:1032F00005F44070F02141EAE0102168086143467E
:103300003A460B49204600F0A7F808B10120E4E74F
:10331000E8B22168086143463A460549891F2046BC
:1033200000F09AF808B10120D7E70020D5E70000A7
:103330000800010070B504460D46164625E02046FB
:10334000FFF7DCFE08B1012070BD681CE8B1FDF795
:1033500075FD801BA84200D8BDB920684069C0F344
:10336000800090B900202063202084F83D000020D8
:1033700084F83E00206C40F02000206400BF002054
:1033800084F83C0000BF0120DEE720684069C0F3FC
:1033900080000028D3D00020D6E72DE9F041044674
:1033A0000D4617461E46DDF8188038E0701CA8B39D
:1033B000FDF744FDA0EB0800B04200D876BBC5F392
:1033C000074001280AD120684069A9B20840A9B283
:1033D000884201D101200BE0002009E020688069CB
:1033E000A9B20840A9B2884201D1012000E0002022
:1033F000B84214D100202063202084F83D00002032
:1034000084F83E00206C40F02000206400BF0020C3
:1034100084F83C0000BF0120BDE8F081FFE7C5F360
:10342000074001280AD120684069A9B20840A9B222
:10343000884201D101200BE0002009E0206880696A
:10344000A9B20840A9B2884201D1012000E00020C1
:10345000B842ABD00020DFE72DE9F04104460D462D
:1034600016461F4658E020684069C0F38020E8B146
:103470002068006840F40070216808606FF4806084
:103480002168486100202063202084F83D0000204E
:1034900084F83E00206C40F00400206400BF00204F
:1034A00084F83C0000BF0120BDE8F081701C90B39F
:1034B000FDF7C4FCC01BB04200D866BBC5F3074093
:1034C00001280AD120684069A9B20840A9B28842FF
:1034D00001D101200BE0002009E020688069A9B239
:1034E0000840A9B2884201D1012000E0002090B933
:1034F00000202063202084F83D00002084F83E0056
:10350000206C40F02000206400BF002084F83C00C4
:1035100000BF0120C8E7FFE7C5F3074001280AD133
:1035200020684069A9B20840A9B2884201D10120AF
:103530000BE0002009E020688069A9B20840A9B228
:10354000884201D1012000E0002000288BD000201B
:10355000AAE770B504460D46164637E02068406974
:10356000C0F30010A0B16FF0100021684861002086
:103570002063202084F83D00002084F83E00206C69
:10358000206400BF002084F83C0000BF012070BD13
:10359000FDF754FC801BA84200D8BDB920684069E3
:1035A000C0F3801090B900202063202084F83D00F3
:1035B000002084F83E00206C40F02000206400BF12
:1035C000002084F83C0000BF0120E0E7206840694B
:1035D000C0F380100028C1D00020D8E770B50446A1
:1035E0000D46164625E02046FFF788FD08B101206C
:1035F00070BD681CE8B1FDF721FC801BA84200D813
:10360000BDB920684069C0F3C01090B900202063A4
:10361000202084F83D00002084F83E00206C40F01B
:103620002000206400BF002084F83C0000BF01207F
:10363000DEE720684069C0F3C0100028D3D0002026
:10364000D6E7000070B504460D46002C0ADD0122C5
:1036500010211D48FDF7ECFB002220211A48FDF740
:10366000E7FB09E0002210211748FDF7E1FB0122EA
:1036700020211548FDF7DCFB201E01DB014600E0A0
:103680004142124A12689163002D0ADD0022042192
:103690000D48FDF7CDFB012208210B48FDF7C8FBC3
:1036A00009E0012204210848FDF7C2FB002208219D
:1036B0000548FDF7BDFB281E01DB014600E0414245
:1036C000024A1268516370BD00140240D801002004
:1036D00000B587B0142102A8FCF7AAFD00BF0020A6
:1036E00001905D48006840F010005B4908600846A2
:1036F000006800F01000019000BF00BF00BF002074
:1037000001900846006840F0200008600846006804
:1037100000F02000019000BF00BF00BF002001901A
:103720000846006840F0800008600846006800F025
:103730008000019000BF00BF00BF0020019008463C
:10374000006840F0010008600846006800F00100D1
:10375000019000BF00BF00BF002001900846006834
:1037600040F0080008600846006800F0080001907A
:1037700000BF00BF00BF002001900846006840F075
:10378000400008600846006800F04000019000BF5B
:1037900000BF00BF002001900846006840F0020012
:1037A00008600846006800F00200019000BF00BFFA
:1037B00000223C212948FDF73BFB00224FF44071D9
:1037C0002748FDF735FB0420029000200390049069
:1037D00002A92448FDF72AFA3C2002900120039018
:1037E00000200490059002A91C48FDF71FFA4FF431
:1037F000407002900120039000200490059002A9DF
:103800001748FDF713FA4FF43C6002900020039034
:10381000049002A91448FDF709FA4FF400600290E1
:1038200000200390049002A91048FDF7FFF918202A
:103830000290002003900120049002A90848FDF79F
:10384000F5F94020029000200390049002A904485A
:10385000FDF7ECF907B000BD30380240001402401B
:10386000000C02400010024000180240000002401C
:1038700010B50B480B4908600B4848600021094807
:103880008160C1604FF4804101610021416181612B
:10389000C1610162FDF7D8FA08B1FDF792F810BDD9
:1038A0000054004084010020801A060000B591B049
:1038B00000200F9010901C2108A8FCF7B9FC2021D3
:1038C0006846FCF7B5FC2748274908600020486097
:1038D00000212548816041F61F41C160002101613E
:1038E00041618161FEF73DFF08B1FDF76AF80020F4
:1038F0000F9010900FA91C48FEF7DAFA08B1FDF7F7
:1039000060F860200890002009900A900B900C90BD
:103910000D900E90002208A91348FEF7A0FE08B1F2
:10392000FDF74FF8042208A90F48FEF798FE08B1EA
:10393000FDF747F80020009001900290039004905A
:103940004FF4005005900020079069460648FEF7A6
:1039500075FA08B1FDF735F80348FEF74DFE11B0D2
:1039600000BD000000000140D801002000B58BB070
:10397000242102A8FCF75CFC0020009001904FF08D
:103980008040174908600020486000211448816089
:10399000491EC16000210161816103200290002065
:1039A00003900120049000200590069007900120CC
:1039B0000890002009900A9002A90948FEF704FC2B
:1039C00008B1FCF7FEFF0020009001906946044812
:1039D000FEF76EFA08B1FCF7F4FF0BB000BD000073
:1039E0002002002000B58BB0242102A8FCF720FCA7
:1039F0000020009001901848184908600020486095
:103A00000021164881604FF6FF71C16000210161FD
:103A10008161032002900020039001200490002087
:103A200005900690079001200890002009900A90C8
:103A300002A90A48FEF7C8FB08B1FCF7C2FF002044
:103A40000090019069460548FEF732FA08B1FCF78C
:103A5000B8FF0BB000BD0000000400406802002069
:103A600000B587B000200390049005900690019067
:103A7000029014481449086042F2CF0048600021C7
:103A8000114881606321C160002101618161FEF7FD
:103A900069FA08B1FCF795FF4FF48050039003A931
:103AA0000948FEF70BFB08B1FCF78BFF00200190E3
:103AB000029001A90448FEF7FBF908B1FCF781FF69
:103AC00007B000BD00080040B002002010B50B4850
:103AD0000B4908604FF4E1304860002108488160DC
:103AE000C16001610C21416100218161C161FFF769
:103AF000ADF908B1FCF765FF10BD000000100140F2
:103B0000F802002000BFFEE700BFFEE770B500240A
:103B10000EE00021204600F01EF9002504E0002000
:103B200000F0BBF9681CC5B2802DF8DB601CC4B284
:103B3000082CEEDB70BD000000B587B000BF002090
:103B400001901148006840F002000F4908600846E3
:103B5000006800F00200019000BF00BF1120039038
:103B6000032005900002029002A90848FDF75EF8C4
:103B7000012211020548FDF75BF9012251020348B9
:103B8000FDF756F907B000BD30380240000C024086
:103B900070B5054600241EE08020204100EA0502A1
:103BA0004FF400711648FDF743F9012003F032F895
:103BB000012211021248FDF73BF9012003F02AF817
:103BC00000224FF480710E48FDF732F9012003F016
:103BD00021F8601CC4B2082CDEDB01221102084867
:103BE000FDF726F9012003F015F800224FF480714B
:103BF0000348FDF71DF9012003F00CF870BD00002B
:103C0000000C024010B5012251021048FDF710F9D6
:103C1000012002F0FFFF012211020C48FDF708F914
:103C2000012002F0F7FF00224FF400710748FDF772
:103C3000FFF8012002F0EEFF00224FF480710348EC
:103C4000FDF7F6F8012002F0E5FF10BD000C024080
:103C500010B500224FF400710B48FDF7E9F8012080
:103C600002F0D8FF012211020748FDF7E1F8012018
:103C700002F0D0FF012251020348FDF7D9F80120DC
:103C800002F0C8FF10BD0000000C024070B544F601
:103C9000206002F0BFFF002406E0002500E06D1C5C
:103CA000B5F57A7FFBD3641CB4F57A7FF5D3FFF7C3
:103CB00043FFAE2000F0E1F8D52000F0DEF88020D0
:103CC00000F0DBF8A82000F0D8F83F2000F0D5F88D
:103CD000D32000F0D2F8002000F0CFF8402000F010
:103CE000CCF8A12000F0C9F8C82000F0C6F8DA200E
:103CF00000F0C3F8122000F0C0F8812000F0BDF8F9
:103D0000CF2000F0BAF8D92000F0B7F8F12000F089
:103D1000B4F8DB2000F0B1F8302000F0AEF8A420B9
:103D200000F0ABF8A62000F0A8F88D2000F0A5F870
:103D3000142000F0A2F8AF2000F09FF8FFF7E6FE95
:103D400070BD10B50246012000E050430B1EA1F1EA
:103D50000101FAD110BD70B505460C4645F0B00022
:103D600000F08BF8102141EA141000F086F804F0FE
:103D70000F0000F082F870BD2DE9F04105460E46B7
:103D80001746721ED206110E6A1E5206100EFFF75B
:103D9000E2FF002409E0A7F12001134A02EB011120
:103DA000085D00F07AF8601CC4B2082CF3DB721EC8
:103DB000D206110E6A1E012303EB4202D0B2FFF7B6
:103DC000CAFF00240BE0A7F12001074A02EB011211
:103DD00004F10801505C00F060F8601CC4B2082CCB
:103DE000F1DBBDE8F0810000C47600082DE9F04762
:103DF0008146884615461E46002D06DB2B2241468D
:103E00004846FFF7B9FF2F4605E02D2241464846B8
:103E1000FFF7B2FF6F42002417E0301B411E0A205B
:103E2000FFF78FFFB7FBF0F00A21B0FBF1F201FBC7
:103E3000120000F1300A08EB0400401CC1B25246E7
:103E40004846FFF799FF601CC4B2B442E5DBBDE809
:103E5000F0872DE9F04107460E461546002407E09D
:103E60002A5D3019C1B23846FFF786FF601CC4B224
:103E7000285D0028F4D1BDE8F08110B50446FFF7B5
:103E8000C1FE7820FFF784FE0020FFF781FE204668
:103E9000FFF77EFEFFF7DCFE10BD10B50446FFF70E
:103EA000B1FE7820FFF774FE4020FFF771FE204638
:103EB000FFF76EFEFFF7CCFE10BD704710B50CA2E9
:103EC00001210846FFF7C5FF0AA208210120FFF7DC
:103ED000C0FF03230848194602680120FFF786FF48
:103EE000032306480A2102680120FFF77FFF10BD67
:103EF000543A0000463A0000180000201C00002040
:103F000038B504460D464FF6FF702B4622469721E2
:103F100000900248FDF780F838BD000084010020C1
:103F200001460A68526A10B200220B685A62704752
:103F30007047000070B52DED048B8AB0B0EE408A5A
:103F400004460D4618EE100AFCF7AEFA41EC190BC8
:103F50008DED009B2B46224608A102A800F062FED0
:103F600002A8FCF770F986B2324602A90648FDF7AE
:103F700057FF0AB0BDEC048B70BD000025642C25F2
:103F8000642C25660D0A0000F802002010B5FDF72C
:103F9000C5FA10BD00B593B0302107A8FCF748F969
:103FA000142102A8FCF744F900BF00200190254825
:103FB000006840F08050234908600846006800F01F
:103FC0008050019000BF00BF00BF002001901E483C
:103FD000006840F480401C4908600846006800F40E
:103FE0008040019000BF00BF0220079001200A908E
:103FF00010200B9002200D9000210E9108210F91AE
:10400000A8211091022111910421129107A8FDF716
:104010009FFC08B1FCF7D5FC0F2002900220039012
:10402000002004904FF4A05005904FF4805006906B
:10403000052102A8FDF74CFB08B1FCF7C2FC13B048
:1040400000BD000040380240007000400348006896
:1040500040F47000014908607047000088ED00E0FE
:1040600010B50248FEF711FA10BD0000B0020020A2
:1040700010B502682D4B98420ED0B0F1804F0BD096
:104080002B4B984208D02B4B984205D02A4B984294
:1040900002D02A4B984203D122F070024B681A4397
:1040A000224B984220D0B0F1804F1DD0204B984237
:1040B0001AD0204B984217D01F4B984214D01F4B58
:1040C000984211D01E4B98420ED01E4B98420BD0F6
:1040D0001D4B984208D01D4B984205D01C4B98426E
:1040E00002D01C4B984203D122F44072CB681A4391
:1040F00022F080034C6943EA040202608B68C362C9
:104100000B688362094B984202D00C4B984201D154
:104110000B69036301234361036903F001031BB1CE
:10412000036923F00103036110BD0000000001409A
:104130000004004000080040000C00400004014062
:104140000040014000440140004801400018004088
:10415000001C00400020004030B501F01F05012484
:1041600004FA05F3046A9C430462046A01F01F0523
:1041700002FA05F52C43046230BD30B50C46816867
:1041800021F47F4142EA032525432943816030BD64
:104190000A46816821F0700142F0070319438160EB
:1041A0007047000030B5026A056A25F00105056216
:1041B0004368846924F0700424F003040D682C43E0
:1041C00022F002028D682A43104DA84200D103E07C
:1041D0000F4DA84206D100BF22F00802CD682A4345
:1041E00022F00402094DA84202D0094DA84207D18D
:1041F00023F4807323F400734D692B438D692B43A3
:10420000436084614D684563026230BD0000014037
:104210000004014030B5026A056A25F01005056208
:104220004368846924F4E04424F440740D6844EA4B
:10423000052422F020028D6842EA0512124DA842A0
:1042400000D103E0114DA84207D100BF22F0800247
:10425000CD6842EA051222F040020B4DA84202D07E
:104260000A4DA84209D123F4806323F400634D6909
:1042700043EA85038D6943EA8503436084614D68A1
:104280008563026230BD000000000140000401406F
:1042900030B5026A056A25F4807505624368C46911
:1042A00024F0700424F003040D682C4322F40072FF
:1042B0008D6842EA0522124DA84200D103E0114D5B
:1042C000A84207D100BF22F40062CD6842EA05226D
:1042D00022F480620A4DA84202D00A4DA84209D1B8
:1042E00023F4805323F400534D6943EA05138D6989
:1042F00043EA05134360C4614D68C563026230BD83
:10430000000001400004014030B5036A056A25F44D
:10431000805505624468C26922F4E04222F440728A
:104320000D6842EA052223F400538D6843EA053301
:10433000084DA84202D0084DA84204D124F480447C
:104340004D6944EA85144460C2614D6805640362A6
:1043500030BD0000000001400004014030B50B46B4
:104360001446026A056A25F001050562816921F09B
:10437000F00141EA041122F00A021A43816102624B
:1043800030BD30B50B461446026A056A25F01005AB
:104390000562816921F4704141EA043122F0A002F2
:1043A00042EA03128161026230BD000010B50421AF
:1043B0004C48FCF735FD40B24B49C8704FF4807152
:1043C0004A48FCF72DFD40B24749887040214748D4
:1043D000FCF726FD40B2444948704FF40061444860
:1043E000FCF71EFD40B24049087080213F48FCF7B1
:1043F00017FD40B23C49087140213E48FCF710FDD2
:1044000040B2394948714FF400713848FCF708FD53
:1044100040B2354988714FF400613448FCF700FD23
:1044200040B23149C8710846C07808B9012000E09F
:104430000020314908702C48807808B1002000E045
:1044400002202D4948702848407808B1002000E03B
:104450000320294908712448007808B1002000E0B1
:104460000420254948712048007908B1002001E066
:104470004FF0FF30204988701B48407908B1002078
:1044800001E06FF001001C49C8701748807908B13D
:10449000002001E06FF00200174988711248C079CE
:1044A00008B1002001E06FF003001349C87108460D
:1044B0000078497808441049897808440E49C97839
:1044C00008440D49097908440B49497908440A49C7
:1044D000897908440849C979084440B207490870F5
:1044E00010BD000000100240F00000200018024043
:1044F00000000240000C0240FA00002002010020EF
:1045000010B52C4890F900102B4803F0ADF8BDEE23
:10451000C00A10EE100A00B2284908800846B0F917
:104520000000C0F1190000EE900AF8EEE00AB0EECB
:10453000600A2348008801B2224802F06FFEBDEEF7
:10454000C00A10EE100A00B21F4908801B48B0F9DB
:104550000000193000EE900AF8EEE00AB0EE600AB2
:104560001A48008801B21A4802F058FEBDEEC00A8F
:1045700010EE100A00B2174908801348B0F9000085
:10458000B0F5E15F03DD4FF4E1500F4908801148B9
:10459000B0F90000B0F5E15F03DD4FF4E1500D49E3
:1045A00008800C48B0F900100748B0F90000FFF788
:1045B00049F810BD02010020680100200C00002015
:1045C00018000020140100200E0000201C00002014
:1045D000300100201000002070B50546AC6B0020B3
:1045E000E085E0842046FEF7BBFA70BD00BF00BF47
:1045F00002680C3252E8002F22F4907102680C32EB
:1046000042E80013002BF3D100BF00BF00BF0268D7
:10461000143252E8002F22F001010268143242E8FD
:104620000013002BF3D100BF016B01290ED100BF95
:1046300000BF02680C3252E8002F22F0100102681D
:104640000C3242E80013002BF3D100BF202180F888
:10465000421000210163704710B504462068C0680D
:1046600020F040002168C860202084F841002046E6
:10467000FEF741FD002010BDF8B5044694F8420055
:10468000222875D1A068B0F5805F0CD1206950B99F
:104690000025A66A20684068C0F308003080A06A40
:1046A000801CA06215E0A56A0026A068B0F5805FB6
:1046B00003D0A06828B9206918B92068406828701C
:1046C00004E02068406800F07F002870A06A401C69
:1046D000A062E08D401E80B2E085002846D12068AF
:1046E000C06820F020002168C8602068C06820F4FD
:1046F00080702168C8602068406920F0010021684E
:104700004861202084F8420000206063206B01286B
:1047100026D10020206300BF00BF21680C3151E882
:10472000001F21F0100021680C3141E80002002A2E
:10473000F3D100BF2068006800F0100010280AD1F3
:1047400000BF00200090206800680090206840684A
:10475000009000BF00BFA18D2046FEF700FA02E0E6
:104760002046FEF711FC0020F8BD01E00020FBE729
:104770000220F9E72DE9F84F04462068006920F48B
:104780004050E1680843216808612169A068084336
:1047900061690843E169084300902068C06849F2F4
:1047A0000C618843009908432168C860206840690B
:1047B00020F44070A1690843216848617649206867
:1047C000884203D075492068884203D1FDF758F824
:1047D000814602E0FDF744F88146E069B0F5004FFC
:1047E0006CD102206168A0FB015003461920A9FB8F
:1047F000007001462A463846FBF7E2FC6421B0FB14
:10480000F1F04FEA001A02206168A0FB01510B464B
:104810001920A9FB00712A463846FBF7D1FC8346D4
:1048200002206168A0FB015003461920A9FB00711A
:104830002A463846FBF7C4FC6421B0FBF1F000EBDC
:10484000C00101EB0010ABEB8000322101EBC00096
:104850006421B0FBF1F000F0F8000AEB400A0220FE
:104860006168A0FB015003461920A9FB00700146B6
:104870002A463846FBF7A4FC834602206168A0FB69
:10488000015003461920A9FB00712A463846FBF760
:1048900097FC6421B0FBF1F000EBC00101EB0010CC
:1048A000ABEB8000322101EBC0006421B0FBF1F0E2
:1048B00000F007005044216888606AE004206168C5
:1048C000A0FB015003461920A9FB007001462A46AF
:1048D0003846FBF775FC824604206168A0FB015056
:1048E00003461920A9FB007001462A463846FBF70B
:1048F00067FC6421B0FBF1F000EBC00101EB00109C
:10490000AAEB8000322101EB00106421B0FBF1F032
:1049100000F0F00A04206168A0FB01700346192032
:10492000A9FB00513A462846FBF74AFC6421B0FB3C
:10493000F1F00AEB001A04206168A0FB01510B465C
:104940001920A9FB00712A463846FBF739FC83463B
:1049500004206168A0FB015003461920A9FB0070E8
:1049600001462A463846FBF72BFC6421B0FBF1F0E8
:1049700000EBC00101EB0010ABEB8000322101EB3A
:1049800000106421B0FBF1F000F00F0050442168EA
:104990008860BDE8F88F000000100140001401405D
:1049A00010B5034699629A85DA8500205864222062
:1049B00083F84200186928B11868C06840F4807014
:1049C0001C68E0601868406940F001001C68606184
:1049D0001868C06840F020001C68E060002010BD2E
:1049E000014691F84100212828D18868B0F5805F00
:1049F0000BD1086948B90A6A1088C0F308000B682F
:104A00005860086A801C086205E00B6A581C08623E
:104A100018780B685860C88C401E80B2C88458B99A
:104A20000868C06820F080000B68D8600868C0681B
:104A300040F040000B68D860002070470220FCE77F
:104A40002DE9F84304460D4617469846089E31E086
:104A5000701C70B3FCF7F2F9A0EB0800B04200D86C
:104A600016B90320BDE8F8832068C06800F0040090
:104A7000F8B1802D1ED0402D1CD020680068C0F3F6
:104A8000C000B0B100BF0020009020680068009016
:104A900020684068009000BF00BF2046FFF7A6FDD9
:104AA0000820606400BF002084F8400000BF01209F
:104AB000D8E7FFE7206800682840A84201D101201C
:104AC00000E00020B842C3D00020CBE710B5024878
:104AD000FEF748F810BD0000F802002010B50446AB
:104AE000FBF772FFB0EE402A012C6ED137480078F8
:104AF000502807D135484078312803D1344880ED1B
:104B0000042A62E031480078492807D12F484078CC
:104B1000312803D12E4880ED052A56E02B48007835
:104B2000442807D129484078312803D1284880ED0E
:104B3000062A4AE025480078502807D123484078C3
:104B4000322803D1234880ED042A3EE01F48007834
:104B5000492807D11D484078322803D11D4880EDEF
:104B6000052A32E019480078442807D117484078D0
:104B7000322803D1174880ED062A26E01348007832
:104B800053280FD11148407870280BD10F488078F6
:104B9000652807D1BDEEC20A10EE100A00B20E4918
:104BA000088012E00948007850280ED10748407864
:104BB0006F280AD105488078732806D1BDEEC20A55
:104BC00010EE100A00B20549088010BD0404002050
:104BD0004C010020300100202A0000202800002085
:104BE00000BFFEE738B504460D464FF6FF702B4672
:104BF0002246962100900248FCF794FB38BD000045
:104C0000840100200FB4054B10B503A9044A029893
:104C100001F03EFC10BC5DF814FB00000D6D0008B7
:104C20000C0100200FB4084B10B504A902AA039888
:104C300001F02EFC044602A9002001F0C0FF20462E
:104C400010BC5DF814FB0000BF6B000803B40198B2
:104C50004100009850EAC12018BF04204A0D18BF37
:104C600040F0010040F2FF72B2EB515F08BF40F02C
:104C70000200012808BF052002B070470248006802
:104C8000C0F30220704700000CED00E010B50028D2
:104C900004DB0A07130E054A135406E00A07140E34
:104CA000034A00F00F031B1FD45410BD00E400E0C2
:104CB00018ED00E00000000070B5C1482DED020BBA
:104CC0002DED0E8B82B0119D25F000449FEDBEDBD3
:104CD0009FEDBFEB84423EDBA4F140511098A1F15F
:104CE0007F6108430FD0BC48844202DC28D1109871
:104CF00030B39DED100B02B0BDEC0E8B02B0BDE8E1
:104D0000704001F0A9BA9DED100B53EC1D2B51EC36
:104D1000100BFBF746FB9DED100B41EC180B53EC11
:104D20001E2B51EC100BFBF73CFB53EC182BFBF745
:104D300091FA41EC100B02B0BDEC0E8B02B070BDCD
:104D4000012001F0DDFA02B0BDEC0E8B02B0BDE82F
:104D5000704001F095BAA1489FEDA18B844256DACC
:104D60009DED100BB4F1795F0ADA51EC100BFFF7EF
:104D70006DFF042808BF01F0A3FA9DED100BDAE7E0
:104D800053EC102B51EC100BFBF70BFB41EC190B08
:104D900095480621B0EE490AF0EE690A784401F020
:104DA000C7F953EC192B51EC100BFBF7FAFA41EC55
:104DB0001A0B8E48B0EE490AF0EE690A04217844D5
:104DC00001F0B6F953EC192B51EC100BFBF7E9FA93
:104DD00053EC182BFBF73EFA41EC100B51EC1A0B7D
:104DE00053EC102BFBF76AFCCDE900019DED000BA5
:104DF00053EC102B9DED100B51EC100BFBF7D1FA7F
:104E00009DED101B53EC112BFBF724FAD2E09DED26
:104E1000100B51EC100B01F06DFF53EC182BFBF74E
:104E2000BDFA9FED730BCDE9000153EC102B9DED06
:104E3000000B51EC100BFBF7B4FA41EC190B6E4868
:104E40000621B0EE490AF0EE690A784401F070F9E3
:104E500053EC192B51EC100BFBF7A3FA41EC1B0B95
:104E60006648B0EE490AF0EE690A0421784401F080
:104E70005FF953EC192B51EC100BFBF792FA53EC42
:104E8000182BFBF7E7F941EC1C0B51EC190B02F066
:104E90003DFB41EC180B5A489FED5BABA04222DC76
:104EA00053EC1C2B51EC1B0BFBF708FCCDE900016C
:104EB0009DED000B51EC180B53EC102BFBF771FA26
:104EC00053EC182BFBF7C6F953EC1A2BFBF769FAD6
:104ED00053EC1D2BFBF75FFA53EC1E2BFBF75EFA2E
:104EE00041EC100B5FE08DED008B002000909DEDFC
:104EF000000B51EC180B53EC102BFBF7ABF99DEDAD
:104F0000000B41EC1E0B53EC102B51EC100BFBF77C
:104F100048FA53EC192BFBF741FA53EC1E2BFBF725
:104F2000CDFB41EC190B53EC1C2B51EC1B0BFBF78D
:104F3000C5FB41EC1B0B53EC1A2B51EC190BFBF787
:104F400030FA53EC1D2BFBF729FA41EC190B53EC0B
:104F50001A2B51EC180BFBF724FA53EC1B2BFBF725
:104F600020FA53EC192BFBF716FA9DED000B41ECE0
:104F7000180B53EC1A2B51EC100BFBF712FA9FEDA8
:104F8000249B53EC192BFBF709FA41EC100B51EC65
:104F9000180B53EC102BFBF7FEF953EC192BFBF716
:104FA000FDF941EC100B002D3FF7C5AE51EC100B95
:104FB00081F0004141EC100BBDE600000000000054
:104FC0000000F03F00000000075C143326A6913C6F
:104FD000182D4454FB21F93F0000F07F0000E03F12
:104FE000000000000000F03F182F0000262F0000F6
:104FF000000000000000E03F6A2E0000782E000054
:105000003333EF3F000000000000000000000040CC
:10501000182D4454FB21E93F70B59B482DED020B40
:105020002DED068B079D25F00044A04218DC974823
:10503000844202DC0AD1069840B19DED060BBDEC1E
:10504000068B02B0BDE8704001F006B9002DCCBF60
:105050009FED8F0B9FED900BBDEC068B02B070BDEA
:105060008F48A04215DD8F48A042D8BF4FF0FF34D3
:1050700058DD9DED060B51EC100BFFF7E7FD042802
:1050800008BF01F01DF99DED060BBDEC068B02B0CB
:1050900070BD9DED060B51EC100B01F02BFECDE920
:1050A000060181489FED828BA0423CDD8248A042F0
:1050B0001FDD00249FED82AB9DED060B53EC1A2BF8
:1050C00051EC100BFBF7C6F89DED060B41EC190BEC
:1050D00053EC1A2B51EC100BFBF763F953EC182B24
:1050E000FBF759F953EC192BFBF7E8FACDE9060168
:1050F00049E09DED060B012453EC182B51EC100BED
:10510000FBF7A8F89DED060B41EC190B53EC182B9F
:1051100051EC100BFBF73FF953EC192BFBF7CEFAD0
:10512000CDE906012FE06848A0421FDD02249FED73
:10513000689B9DED060B53EC192B51EC100BFBF704
:1051400030F953EC182BFBF785F89DED060B41EC7D
:10515000180B53EC192B51EC100BFBF71CF953EC0B
:10516000182BFBF7ABFACDE906010CE09DED060B21
:10517000032453EC102B9FED580B51EC100BFBF755
:105180009DFACDE906019DED060B53EC102B51EC79
:10519000100BFBF706F941EC180B53EC182BFBF73F
:1051A00000F941EC190B4E480621B0EE490AF0EE29
:1051B000690A784400F0BCFF53EC182B51EC100B3B
:1051C000FBF7EFF841EC180B4648B0EE490AF0EE59
:1051D000690A0521784400F0ABFF53EC192B51EC20
:1051E000100BFBF7DEF841EC100B51EC180B53ECF5
:1051F000102B002C0EDAFBF72DF89DED061B53EC5F
:10520000112BFBF7CEF89DED061B53EC112BFBF792
:10521000C5F835E0FBF71EF89DED061B53EC112B8E
:10522000FBF7BFF841EC100B2F48784400EBC400AB
:1052300090ED001B51EC100B53EC112BFBF7ABF86E
:105240009DED061B53EC112BFBF7A5F841EC100B61
:105250002648784400EBC40090ED001B51EC100B85
:1052600053EC112BFBF79AF841EC100B002DA2BF69
:10527000BDEC068B02B070BD51EC100B81F000410B
:1052800041EC100B01E70000000010440000F07F2B
:10529000182D4454FB21F93F182D4454FB21F9BF2C
:1052A0000000DC3F0000203E0000F33F0000000053
:1052B000000000000000F03F0000E63F000000009A
:1052C00000000000000000400080034000000000DB
:1052D000000000000000F83F000000000000F0BFE8
:1052E000422C0000F82B0000822B00003A2B00001B
:1052F00070B56B4E2DED040B2DED028B82B0DDF8F9
:105300001CC0DDE905235C422CF000411C4341EA4E
:10531000D474049D22F00040B44205D86C422C4362
:1053200040EAD474B4420BD99DED061B9DED040BED
:1053300002B0BDEC028B04B0BDE8704000F096BF37
:10534000ACF14054A4F17F641C430BD0022404EA66
:10535000AC7444EAD27405439FED538B9FED542BFC
:1053600007D015E09DED040B51EC100B01F02CFC67
:1053700042E0002C11BF012C9DED040B02B0BDECEE
:10538000028B04BF04B070BD022C38D0032C3BD07C
:105390000B439FED491B9FED4A0B0AD0B14218D138
:1053A000B04209D121F0804120F080400791059062
:1053B0000FE0002A15DA10E0434B7B44002C08BFB5
:1053C00093ED000B0DD0012C10D0022C17D0032C24
:1053D0001AD0B0421DD1002A03DAB0EE410AF0EE35
:1053E000610A02B0BDEC028B04B070BD93ED000BFE
:1053F00051EC100B81F0004141EC100BF1E7B0EEE5
:10540000480AF0EE680AECE7B0EE420AF0EE620AF3
:10541000E7E7401A00153C28C8BF8DED000B19DCEA
:10542000BCF1000FBEBF10F13C0F9FED290B8DEDBD
:10543000000B0FDB9DED060B53EC102B9DED040BC9
:1054400051EC100BFBF73AF901F054FC01F0BCFBF6
:10545000CDE90001002C08BF9DED000BC1D0012C4F
:1054600010D0022C9FED1C0B53EC102B9DED000B6C
:1054700051EC100B0DD0FAF78EFF53EC182BFAF706
:105480008AFFB9E7019880F0004001909DED000B84
:10549000A7E7FAF780FF53EC182BFAF77FFFABE78B
:1054A0000000F07F00000000182D4454FB2109404B
:1054B000182D4454FB2109C0182D4454FB21F9BF79
:1054C000182D4454FB21F93F6A2A00000000000017
:1054D0000000000000000000075C143326A6A13C79
:1054E0002DE9F04D2DED040B2DED0E8B96B0DDE981
:1054F0002550279CDDF890A025F0004624F00048B8
:10550000BAF1000F14BF0121002101EB4502FC4953
:1055100053184A1093422AD3002814BF01230023B2
:1055200003EB44030B44F7498B4220D358EA0001B4
:105530009FEDF59B76D0DFF8D8B35D4503D1BAF186
:10554000000F05D188E0BAF1000F08BF002100D09C
:10555000012101EB450111F5001F08D8002814BFF7
:105560000121002101EB440111F5001F0BD99DED34
:10557000261B9DED240B16B0BDEC0E8B04B0BDE8D0
:10558000F04D00F073BE0027002DBCBFE1498845F7
:1055900021DAE1498845A8BF02271CDAC3451ADC95
:1055A000DE4901EB2851142908DDC1F1340220FA4B
:1055B00002F101FA02F282420DD108E058B9C1F1BC
:1055C000140228FA02F101FA02F2424503D101F075
:1055D0000101C1F1020756EA0A0124D1002C22DAA6
:1055E000002D18BF022F01D0012F0AD0022000F099
:1055F00087FE16B0BDEC0E8B04B0BDE8F04D00F098
:1056000013BE022000F07CFE00F00EFE51EC100BE9
:1056100081F0004141EC100B16B0BDEC0E8B04B0D4
:10562000BDE8F08D18E09FEDBEAB9FEDBF8B00286D
:1056300071D1B848804522D105F1804010F5801025
:1056400008BFBAF1000F07D0B3450ADC002CA8BF91
:105650009DED260BE0DA0DE0B0EE490AF0EE690AA6
:10566000DAE7002C06DA9DED260B51EC100B81F0E9
:1056700000416FE0AE48784490ED000BCCE7D84590
:105680004DD1002C48DA2EB186423AD1BAF1000F42
:1056900042D126E0BAF1000F13D0022000F030FE14
:1056A00000F0FEFD8DED020B9DED240B8DED000B4A
:1056B00010EE900A039961F31E0003909DED020B1A
:1056C000AAE78DED02AB9DED240B1AEE901A10EEB9
:1056D000900A8DED000B61F31E0003909DED020B0F
:1056E0009AE78DED028B9DED240B18EE901A10EECB
:1056F000900A8DED000B61F31E0003909DED020BEF
:105700008AE709DA9DED240B51EC190B53EC102BB1
:10571000FAF7D4FF1EE020E09DED240B7CE78642E3
:105720001BDAB4F1804F0DD0A4F10050B0F1FF505E
:1057300013D1002D11DB9DED240B51EC100B01F06A
:10574000E5FE07E09DED240B53EC102B51EC100B04
:1057500000F0C2BC41EC100B5EE79DED240B51EC58
:10576000100B01F0C7FABAF1000FCDE90E0142D1DA
:105770009FED710B46B3A6F1E040B0F17F600CD015
:105780005E4538D1002D00DAA7B3022F0CBF0120EF
:105790004FF0FF30FAF777FEDCE7002D01DD002C3B
:1057A0000DDA002D01DD002C1FDB002D16DA002C98
:1057B00014DB012F08BF9FED620B3FF42DAFB0EE5D
:1057C0004A0AF0EE6A0A27E7022F18BF002D0CD014
:1057D000012F0AD1002DFFF61FAF06E0002DB8BF44
:1057E000002C08DA012F3FF417AFB0EE480AF0EEB4
:1057F000680A11E71BE0012000EBE57050EA0701A1
:1058000015D0791EB0EE498AF0EE698A084308BFC8
:105810009FED4D8B4E480025804570DD4D494E482B
:10582000884514DDB0420DDB002C19DB2FE0012090
:1058300000F066FD16B0BDEC0E8B04B0BDE8F04D77
:1058400000F01EBDB34502DC002C09DC1FE08642DF
:1058500002DA002C1BDA03E05E452BDD002C16DD9E
:10586000022000F04DFD00F01BFD8DED020B53EC0E
:105870001A2B51EC180BFAF794FDCDE900010399AE
:10588000019861F31E0003909DED020BC4E6022017
:1058900000F036FD00F014FD10EE901A18EE900A9C
:1058A0008DED020B8DED008B61F31E0003909DEDDD
:1058B000020BB1E69DED0E0B53EC192B51EC100BC6
:1058C000FAF769FD9FED260BCDE9080153EC102B8B
:1058D0009DED080B51EC100BFAF763FD9FED221BB9
:1058E00053EC112BFAF75AFD9DED081B53EC112BCD
:1058F000FAF757FD9FED1E1B53EC112B3CE08CE09B
:10590000FFFF1F00FFFF0F00000000000000F03F3E
:105910000000F03F0000F07F0000404301FCFFFF6B
:10592000000000000000F07F000000000000000008
:10593000AE27000000000000000000000000008012
:10594000000000000000F0FF000000000000F0BFB9
:105950000000E0410000F043FFFFEF3F00000000C7
:10596000000000000000D03F555555555555D53F16
:10597000000000000000E03FFAF710FD9DED080B6D
:1059800041EC1A0B53EC102B51EC100BFAF709FDFC
:1059900053EC1A2BFAF705FD41EC1A0B9FEDFE0BA9
:1059A00053EC102B9DED080B51EC100BFAF7F9FCA2
:1059B00041EC1B0B9FEDFA0B51EC1A0B53EC102B27
:1059C000FAF7EFFC41EC1A0B9FEDF70B53EC102BA1
:1059D0009DED080B51EC100BFAF7E3FC53EC1A2B7E
:1059E000FAF7D9FC41EC1A0B51EC1B0B53EC1A2BB8
:1059F000FAF730FC0690CDE906519DED060B53EC0D
:105A00001B2B51EC100BFAF7C6FC53EC1A2BFAF7D0
:105A1000C5FC41EC100B00F0A1B90020B6F5801FC9
:105A20000EDA9FEDE30B53EC102B9DED0E0B51ECBA
:105A3000100BFAF7B6FCCDE90E016FF034000E46FC
:105A400000EB2650A0F2FF37C6F31300DA4940F00E
:105A50007F6646F040568842D8BF002408DDD7490B
:105A60008142C8BF012403DC0024A6F580167F1CF8
:105A7000D348784400EBC4000F9690ED00CB9DED29
:105A80000E0B53EC1C2B51EC100BFAF784FC9DED24
:105A90000E0B41EC1B0B53EC1C2B51EC100BFAF7CB
:105AA000D9FB41EC100B51EC190B53EC102BFAF70E
:105AB00005FE41EC1D0B51EC1B0B53EC1D2BFAF7B3
:105AC00070FC41EC1A0BBF488DED10AB784410957B
:105AD00090ED000B4FF0005040EA660000EB844070
