:020000040800F2
:10000000C0090020B101000857330008152E000870
:1000100055330008D51900085D39000800000000BC
:100020000000000000000000000000005936000839
:10003000D7190008000000003B3600085B360008B6
:10004000CB010008CB010008CB010008CB01000860
:10005000CB010008CB010008CB010008CB01000850
:10006000CB010008CB010008CB010008CB01000840
:10007000CB010008CB010008CB010008CB01000830
:10008000CB010008CB010008CB010008CB01000820
:10009000CB010008CB010008CB010008CB01000810
:1000A000CB010008CB010008CB010008CB01000800
:1000B000CB010008CB010008C1360008CB010008C5
:1000C000CB010008CB010008CB010008CB010008E0
:1000D000CB010008CB010008CB010008CB010008D0
:1000E000CB010008CB010008CB01000800F002F8AA
:1000F00000F04FF80AA090E8000C82448344AAF173
:100100000107DA4501D100F044F8AFF2090EBAE870
:100110000F0013F0010F18BFFB1A43F0010318473B
:100120001067000030670000103A24BF78C878C11B
:10013000FAD8520724BF30C830C144BF04680C60ED
:10014000704700000023002400250026103A28BF35
:1001500078C1FBD8520728BF30C148BF0B60704739
:10016000662905F0AC86002070471FB59DE80300A6
:1001700000F03EFE00F0D2FA04000020002104F05E
:10018000E7FEE06000F0E6FB1FBD10B500F04BFCA1
:1001900010BD00F0B3FC1146FFF7E7FF04F034F8A0
:1001A00000F0B8FD03B4FFF7F0FF03BC00F0B2FFAE
:1001B0000948804709480047FEE7FEE7FEE7FEE7FB
:1001C000FEE7FEE7FEE7FEE7FEE7FEE70448054937
:1001D000054A064B70470000BD360008ED000008D8
:1001E000C0030020C0090020C0050020C005002079
:1001F0000FB4044910B503AA029800F07DFA10BCB0
:100200005DF814FBB80200202DE9F0410E460446CB
:10021000002020622046E168884730B3252805D0B9
:10022000D4E901219047206A401CF2E7E1682046AA
:1002300000278847050018D0A5F14100192802D8E9
:1002400020354FF400673246294620462760FFF7E5
:1002500087FF40B1012804D0F61D26F007060836B6
:10026000D8E7361DD6E72846DAE7206ABDE8F081F0
:100270004FF0000200B5134694469646203922BF3F
:10028000A0E80C50A0E80C50B1F12001BFF4F7AF8A
:10029000090728BFA0E80C5048BF0CC05DF804EB6C
:1002A000890028BF40F8042B08BF704748BF20F8DA
:1002B000022B11F0804F18BF00F8012B70477047D8
:1002C0007047704710B500F02DFA006810BD10B5EA
:1002D000044600F027FA046010BD70472DE9FF4F77
:1002E0000C461E464FF0FF378BB0D2E90001DDF817
:1002F00060800A908A46C1F30A5505B93D4600213F
:1003000008464FF00000BAF1000F00F4400005DA93
:1003100000EB80004FF4400101EA50004FEA905991
:10032000B9F1010F00DDB9460A9850EA4A000ED033
:1003300044F61050A5F2FF3545432F14B8F1000FD5
:100340001ED07542291E1EDDC9F100021CE0B8F165
:10035000010F4FF0000001D0302103E0F24305E02F
:100360002154401CB042FBDB3046002200212154C6
:100370000B99C1F80880C1E900200FB0BDE8F08FEB
:10038000BD1B6D1CDEE74A4600DA694206A800F094
:100390006BFA06AB93E8070003AB83E8070050460F
:1003A0000A9900F04FFF8DE80700A0F500501F38B4
:1003B00000900398002D0ADD42F21F014A460844CE
:1003C000002303A90390684601F0B8F909E0A0F5FD
:1003D00000504A461F38002303A90390684601F0E5
:1003E000C2F98DE807000004000C03D04FF0FF3085
:1003F000410800E01046B8F1000F03D0002200923F
:1004000015461EE0751E05D400F090F93032625595
:100410006D1EF9D5B3460122084302D000227F1C8D
:1004200004E02078302801D100227F1E002A09979D
:1004300084D01DE0112D07DA00F078F930326255D2
:100440006D1C50EA0102F5D1084302D00098C8B1F2
:100450000EE00021681E05E0235C625C63542254B8
:10046000401E491C8142F7DBAB46A81B401E099089
:10047000002004F80B000B98099AC0F80880C0E926
:10048000002B7AE711264FF0000857E72DE9F04FCF
:1004900088460446D21D22F0070191B0D1E900013F
:1004A000CDE90A0103F06AFA02460B98C00F01D0A9
:1004B0002D2007E02068810701D52B2002E02021B4
:1004C00001EAC000032A099001D0072A05DB034690
:1004D0004146204600F088F90BE12078800601D5DE
:1004E000E06900E00620B8F1650F814606D0B8F15A
:1004F000660F18D0B8F1670F70D131E00020B9F164
:10050000110F009001DB112301E009F101030AAA98
:1005100001A90CA8FFF7E2FEDDE90C70002609F145
:100520000105834647E001204B4600904FF000470D
:100530000AAA01A90CA8FFF7D1FEDDE90DB00C99BC
:100540005D46002610B909F101000D18B9EB050050
:1005500003D4C0F1FF3609F10105A5EB09002BE03A
:10056000B9F1010F01DA4FF001090020B9F1110FC3
:100570000090484601DD112300E003460AAA01A9C4
:100580000CA8FFF7ABFEDDE90C704D460026834654
:10059000207800070AD4AB4500DA5D4601A8012D9A
:1005A00004DD411911F8011C302907D04F4502DA4A
:1005B00017F1040F04DA012082460FE06D1EEEE70A
:1005C000002F02DCED1B3E4403E0781CA84200DD56
:1005D0007D1CB81B00F1010A4FF00047207800078E
:1005E00003D4AA4501DB4FF0FF3A0021B7F1004FD9
:1005F0000DF143088DF8431024D002202B23002F47
:1006000001DA7F422D230A21021EA0F1010000DC45
:100610005FB197FBF1FC97FBF1F201FB1C7C1746E5
:100620000CF1300C08F801CDEEE7A8F101000370E1
:100630002188090501D5452100E06521A0F10108C7
:1006400000F8011C09980FA9A1EB0807FF1D00B1D4
:100650000120411901EBEA70A1693844081A401ED3
:10066000A0612078C00602D42046AFF3008009982C
:1006700028B1D4E901219047206A401C20622078EB
:10068000C00622D52046AFF300801EE0002E04DB1A
:10069000B34502DD01A8805D00E03020D4E90121EE
:1006A0009047206A401C2062761CAAF101005FEA94
:1006B000000A0AD100F032F8C0680168405CD4E951
:1006C00001219047206A401C2062281EA5F10105E7
:1006D000DCDC07E0D4E9012118F8010B9047206A1F
:1006E000401C2062381EA7F10107F3DC2046AFF35F
:1006F0000080032011B041E6074B70B50D467B44E6
:1007000000F05FF80446284600F020F910B14FF0E1
:10071000FF3070BD204670BD633A0000004870474E
:1007200080030020004870476003002030B5B0F11E
:100730000A024FEA900E71F100034EEA817EB0EB9F
:100740000E0061EB91014FEA101E4EEA017E10EBA4
:100750000E0041EB11114FEA102E4EEA016E10EB24
:100760000E0041EB11214FEA104E4EEA014E10EB04
:100770000E0041EB1141401841F100014FEAD00059
:1007800040EA41704FEAD10110EB80054FEA810445
:1007900044EA907444EB01046D1944EB0404521BC9
:1007A000A3414FF0000348BF0A3200D530BD401CC2
:1007B00041F1000130BD000001694A1C0261087866
:1007C000704700B58FB0CDE9013100210591054991
:1007D0007944CDE9031011466846FFF715FD0FB0C7
:1007E00000BD0000E5FFFFFF2DE9F0411F46044674
:1007F00003260168072A01F4006004DB08B116A58E
:1008000005E016A503E008B115A500E015A521F047
:1008100010002060A069C01EA0610FB1401EA06141
:100820002046AFF300804FB1D4E90121384690470C
:10083000206A401C2062C01C206206E0206AFAE7A1
:10084000D4E9012115F8010B9047761EF8D2204615
:10085000AFF30080BDE8F0814E414E006E616E0046
:10086000494E4600696E66002DE9F04781461646FE
:100870008AB0354878440DC88DE80D003248784478
:10088000801C03AC0DC884E80D0041F69B30084481
:10089000372190FBF1F290FBF1F5A5F1800501FB0A
:1008A00012041B3C02D56442012000E00020DFF866
:1008B00098A080460027FA44AAF1BE0A0EE0E0079D
:1008C0000AD03246684607EB470101230AEB810153
:1008D00000F049FF8DE8070064107F1C002CEED16A
:1008E000194F7F44AE3F19E0E80715D007EB04101D
:1008F0000DF1180A90E80E008AE80E00C068F04278
:1009000001D1981908903246012306A903A800F0E6
:100910002AFF03AB83E807006D10641C002DE3D1B0
:100920004FF0010332466946B8F1000F03A802D028
:1009300000F004FF01E000F016FFC9E90001C9F86A
:1009400008200AB0BDE8F087945F0000007B00F04B
:100950008000704710B542485421FFF789FC414898
:100960005421FFF785FC40485421FFF781FC3F49A3
:100970003B483C4A3F4B08603D490A603A49196090
:10098000531C0365481C1065012008653B48344A28
:1009900039A1784400F022F920B9384878440A385F
:1009A00000F0C1F937482F4A35A1784400F016F914
:1009B00020B9344878440A3800F0B5F932482A4A58
:1009C0002FA1784400F00AF920B92F4878440A385A
:1009D00000F0A9F940232248DC000021224600F063
:1009E000D9F820B125487844543800F09CF91D48C6
:1009F00022464023002100F0CDF820B12148784460
:100A0000543800F090F9184822461023002100F0D5
:100A1000C1F8002806D01C487844BDE8104056387C
:100A200000F081B910BD104870B5006D20F00104D0
:100A30000B4800F049F90B4800F046F90A4800F06D
:100A400043F909E0206D20F00105204600F03CF953
:100A5000204600F078F82C46002CF3D170BD000041
:100A600064020020B80200200C030020B000002027
:100A7000B4000020B8000020720000008E5E00006C
:100A8000770000007A5E0000665E00000EB5CDE9DA
:100A9000000100F01FFB029069460120ABBE0EBDB5
:100AA00008B5694600900220ABBE08BD1FB58DE8B1
:100AB000070069460520ABBE04B010BD1FB58DE828
:100AC0000F0069460620ABBEF6E708B56946009000
:100AD0000920ABBE08BD1CB5CDE9000169460A205E
:100AE000ABBE1CBD704708B5694600900C20ABBE7C
:100AF00008BD000000487047600300207546FFF7FE
:100B0000F9FFAE4605006946534620F007008546CA
:100B100018B020B5FFF75AFBBDE820404FF00006A3
:100B20004FF000074FF000084FF0000B21F00701D5
:100B3000AC46ACE8C009ACE8C009ACE8C009ACE818
:100B4000C0098D46704770B50446051F00F034F9A2
:100B50000068002C14BF446870BD002C18BFAC4264
:100B60003CBF20466468F8D301680A18AA4218BF3F
:100B7000456003D12A68054611440160286841197F
:100B8000A1421CBF6C6070BD616869602168084447
:100B9000286070BD70B5C468A50713D0650211D474
:100BA000B2F5807F09D0B2F5007F06D0B2F5806F34
:100BB00008D1012300F1240106E05D1E6FF07F469D
:100BC000B54201D3012070BD0161C361416024F4CD
:100BD00070611143C160002070BD00002DE9F0413B
:100BE0000C4607461646104600F06EF82078611C49
:100BF00061280AD0722802D077283CD102E0012572
:100C0000002405E00225042402E0082448F202053D
:100C100011F8010B2B2806D0622809D011F8010C1D
:100C200074280AD00BE045F0030544F00204EFE716
:100C300045F0040544F00104EAE744F010043846A6
:100C40002146FFF723FF411C15D00021316171605F
:100C50004FF40071F560F1617061200704D53046F2
:100C60000222002100F022F9306D40F001003065D1
:100C70003046BDE8F0810020FBE72DE9F0410D464C
:100C80000646104C206DC10704D0410804D020F066
:100C90000104F7E722460EE0542000F0D8F80700E0
:100CA0000ED0206D47F001010843542120653846DD
:100CB000FFF7DEFA3A4629463046BDE8F0418DE7B7
:100CC0000020D6E7640200202DE9F04704464FF0EB
:100CD00000094FF0FF37C568D4E90486A80707D09C
:100CE000204600F093F93046FFF7DAFE002802DADA
:100CF0003846BDE8F087280502D54046FFF723FFB8
:100D00004C212046FFF7B4FA206D20F00100206549
:100D10004846EEE710B50446AFF300802046BDE834
:100D20001040FFF73FBA10B500F0BAF9BDE8104027
:100D300000F0B0B94FF0013C50F8042B51F8043BDF
:100D40009A4221D1A2EB0C03934313EACC1317D19F
:100D500050F8042B51F8043B9A4215D1A2EB0C0336
:100D6000934313EACC130BD150F8042B51F8043BF6
:100D70009A4209D1A2EB0C03934313EACC13DBD0C4
:100D80004FF00000704700BFD01A01BAB1FA81F1EC
:100D900001F0180122FA01F0CB40C1F12001DBB2D1
:100DA000C0B2C01A2CFA01F3D11A914311EAC3114F
:100DB000E6D1704770470000004870476803002084
:100DC000704770477047704738B504460A460020A0
:100DD0006946AFF30080002808BF38BD024600997D
:100DE000204600F0A4F9012038BD012000F0F3B93D
:100DF000F8B5AFF30080054600200C46102000BF78
:100E00000646A819A0420DD9324669460020AFF324
:100E10000080070008BF00F0DEF90098A04218BF6C
:100E20000546C419FFF7C8FF05600746F01D20F00E
:100E300007004619284600F073F9B44208BFF8BD10
:100E4000A21B31463868BDE8F84000F070B970B5B3
:100E50000646FFF7B1FF056806F10B0020F0070416
:100E6000B4429CBF002070BD2B466A68BAB11068BE
:100E7000A04210D304F1080188423CBF506858607A
:100E800007D35168101941601168091B016058604F
:100E90001460101D70BD13465268002AE7D1214628
:100EA0002846FFF791FF0028DED170BD2DE9F04103
:100EB000044616460D464769007B80072ED038460B
:100EC000FFF703FE50BB3EB3012E02D0022E25D108
:100ED00004E0204600F045F905441DE03846FFF7E0
:100EE00002FEE168002841F01001E16005DA2046C9
:100EF00000F058F80120BDE8F081C9030BD5626805
:100F0000E16A914200D81146A26911442269891A06
:100F1000814200DD08460544002D01DA0220EAE79F
:100F2000E16A6068E268814206D29103E06203D51B
:100F300022F4003141F01002A6690027AE4213DC12
:100F4000E16A814201D90B4600E0034603EB060C3F
:100F50002369ACEB030CAC4506DD814201D98C461C
:100F600000E084469C4505D1A760276042F0200040
:100F7000A5620DE0AD1BE669AE1B8142A66000D9FB
:100F80000846C01A281A20605819606022F0200014
:100F900003490840E060002084F84870ABE7000097
:100FA000BFCFD7FFC16821F4001141F08001C160BB
:100FB00000218160016070472DE9F04781461446A9
:100FC0000E464FF0FF383248D5685769054209D0C0
:100FD0003846A169FFF77FFD002811DB2C48C0438C
:100FE0000540E5602B46324649463846FFF75EFD30
:100FF000A16920F00042B21A11440028A16103D077
:101000002046FFF7CFFF4046BDE8F08770B50446A5
:101010000569C06A6168884200D80846E16821F421
:101020002011E160C90312D5A84208D02246411B15
:101030002846FFF7C1FF10B14FF0FF3070BD002010
:10104000E562C4E90150E06820F48030E0600020EF
:1010500070BD10B50446C06820F02000E060A16AB1
:10106000A06988420DD02046FFF7D0FFE06820F449
:10107000405040F01000E060A06AA0612069E0628A
:10108000606044F24001E0688843E06010BD000009
:1010900010000200002801D000F03CB870470000AA
:1010A00010B5014602A000F07DF8012010BD00003F
:1010B00053494752545245443A2052656469726517
:1010C00063743A2063616E2774206F70656E3A20F6
:1010D0000000000010B5431C02E010F8011B71B1C4
:1010E0008107FAD14FF0013202C88C1A8C4314EAFE
:1010F000C211F9D0C01A0A0603D0C01E10BDC01A12
:1011000010BD0A0401D0801E10BD0902FCD0401E93
:1011100010BD000001491820ABBEFEE7260002000A
:1011200000210160C0E9011070471020704703469C
:1011300040688C46002818BF88423CBF0346406880
:10114000F8D318681844884207D00CF1030020F047
:101150000700001D411A521A0146081D0A60FFF7D8
:10116000F2BC10B50146C268900703D0900607D5BF
:10117000886A0AE0FFF7D6FA01210160881E10BDD7
:101180008B69486818440B69C01A91F848301BB144
:1011900091F84910401A10BD1103FCD50028FADD62
:1011A000401E10BD70B505460C460A2000E06D1CBF
:1011B00000F018F835B128780028F8D102E0641C56
:1011C00000F010F814B120780028F8D1BDE8704084
:1011D0000A2000F007B810B500F00CF8BDE8104088
:1011E000FFF758BF08B569468DF800000320ABBE75
:1011F00008BD000010B5012805D0002103A0FFF7AD
:10120000D1FF012010BD09A1F8E700005349475262
:10121000544D454D3A204F7574206F6620686561C6
:1012200070206D656D6F7279000000003A2048658E
:101230006170206D656D6F727920636F7272757069
:10124000746564005FEA400C08BF91F0000F4FEA3C
:101250008C234FEAC12243EA51514FEA1C5018BF78
:1012600000F5F0404FEA300018BF41F000415FEA5E
:101270006C5C00F02980BCF1FF3F08BF40F080406B
:101280007047130C06BF12044FF0100C4FF0000C07
:10129000130E04BF12020CF1080C130F04BF12014D
:1012A0000CF1040C930F04BF92000CF1020CD30F4D
:1012B00004BF52000CF1010C11464FF00002A0F1E6
:1012C0001F00A0EB0C00704711F0004F08BF7047E3
:1012D00031F000413FF4D5AF0B0C06BF09044FF0CD
:1012E000100C4FF0000C0B0E04BF09020CF1080C9F
:1012F0000B0F04BF09010CF1040C8B0F04BF890014
:101300000CF1020CCB0F04BF49000CF1010CCCF125
:101310002003A0EB0C0022FA03F302FA0CF241EADC
:10132000030100F10100704720F07F4C80EA0300C8
:1013300023F07F47ACEB070303F57C5300F000403C
:1013400003F1FF032DE980494FEA154B09B44FEA39
:10135000144325EA0B4E24EA03480FF2042606EB59
:10136000132749083E785FEA320203FB0667C7F598
:10137000000707FB06F64FEA54374FEAD64606F158
:10138000020607FB066CCCF1005C4FEA1C472CEA16
:10139000074C07FB06F40CFB06F504EB15464FEA79
:1013A000961634BF00204FF000404FEAD13706FBBD
:1013B00007FC4FEA1C4C0CFB0BF7D21B03FB0CF792
:1013C00061EB07010CFB0EF7B0EB074072EB174225
:1013D0000CFB08F734BFA2EB0742B2EB074261EB0C
:1013E00017414FEA0C444FEA910706FB07FC4FEA0E
:1013F0001C4C0CFB0BF7B0EBC74072EB573203FBF6
:101400000CF734BFA2EBC742B2EBC74261EB5731D6
:101410000CFB0EF7B0EBC70072EB57720CFB08F732
:1014200034BFA2EBC702B2EBC70261EB5771039F57
:101430004FEA816141EA921104EBCC044FEAD137C3
:101440004FEA826206FB07FC42EA90124FEA806094
:101450004FEA1C4C0CFB0BF7D21B03FB0CF761EBA8
:1014600007010CFB0EF7B0EB074072EB17420CFBC9
:1014700008F734BFA2EB0742B2EB074261EB17411A
:101480004FEA8C554FEA910704EB9C2406FB07FCBE
:101490004FEA1C4C0CFB0BF7B0EBC74072EB57321A
:1014A00003FB0CF734BFA2EBC742B2EBC74261EBC0
:1014B00057310CFB0EF7B0EBC70072EB57720CFB09
:1014C00008F734BFA2EBC702B2EBC70261EB57715A
:1014D00015EB4C254FEA816141EA92114FEA826295
:1014E0004FEAD13742EA901206FB07FC44F10004B0
:1014F0004FEA80604FEA1C4C0CFB0BF7D21B03FB3E
:101500000CF761EB07010CFB0EF7B0EB074072EB39
:1015100017420CFB08F734BFA2EB0742B2EB0742BD
:1015200061EB174115EB1C154FEA813141EA9241FD
:101530004FEA823242EA90424FEA80304FEA0C761C
:1015400044F1000448EA03434EEA0B484FF0000E12
:10155000B2EB080C71EB030724BF624639464EEB31
:101560000E0E4FF0000B0018524149414BEB0B0B94
:10157000B2EB080C71EB03077BF1000B24BF624652
:1015800039464EEB0E0E4FF0000B00185241494108
:101590004BEB0B0BB2EB080C71EB03077BF1000B71
:1015A00024BF624639464EEB0E0E51EA020718BFC1
:1015B00046F0010616EB0E7655F1000254F10001DB
:1015C00003D5BDE88901BDE80088BDE88901BDE813
:1015D0000048B619524141EB0101A3F101037047E4
:1015E00080807F7E7D7C7B7A797877767675747360
:1015F000727171706F6E6E6D6C6C6B6A6A6968681F
:10160000676666656464636362616160605F5F5EB4
:101610005E5D5D5C5C5B5B5A5A595958585757562A
:10162000565555555454535352525251515050508F
:101630004F4F4F4E4E4D4D4D4C4C4C4B4B4B4A4AE1
:101640004A49494948484847474747464646454525
:10165000454444444443434343424242424141415E
:10166000002B9C4630D477002BD01CB54FEA3707AF
:1016700003B44FF010004FF01001BAF1000F06D084
:10168000BCF1000FDCBF40F0080040F008014FF053
:1016900000000FBCBDE810400BF1010BBBF1010FC6
:1016A00008BF5FEA170722BF12F1010211F1010121
:1016B0004FF0004143F1000300F0004043EA000016
:1016C0007047F9D35708D0E746EA064613F1400FB2
:1016D0004FEA16461FDD13F1200FDFBF16430A46FF
:1016E000002120335B42BED0C3F1200746EA064604
:1016F00002FA07F74FEA164646EA0706C3F1200743
:1017000022FA03F201FA07F721FA03F14FF000037E
:1017100042EA0702A7E746EA020646EA06464FEA19
:10172000164646EA0106BCBF46EA0646360C4FF0AE
:1017300000034FF000024FF0000194E72DE9804CC8
:101740009A46934670B491E8380007C831EA400CD5
:1017500048BF34EA430C03D5FFF7E6FDFFF780FFEF
:10176000F0BCBDE8008C2DE9804C9A46934670B4DD
:1017700091E8380007C810F0804F08BF13F0804F81
:1017800003D100F005F8FFF76BFFF0BCBDE8008C5B
:1017900020F07F4780EA030023F07F4C07EB0C0327
:1017A000A3F57C5300F00040A3F1FE0392F0000F7C
:1017B00000F0B38095F0000F00F077802DE901492B
:1017C0004FEA11404FEA144621EA004800FB06FCAC
:1017D00024EA064708FB06F607FB08F800FB07F7B4
:1017E00018EB06484CEB164C4FEA124B18EB074827
:1017F0004FEA15464CEB174022EA0B4E0BFB06FC5A
:1018000025EA06470EFB06F607FB0EFE0BFB07F765
:101810001EEB064E4CEB164C4FF000061EEB074E2F
:101820004CEB174B18EB0B0840F1000018EB0E0BBC
:1018300058EB000840F100008F1A4FF000013CBF48
:10184000C943661B14BFB5EB040C00213CBFC94360
:10185000F61B4FEA17444EEA8E0E27EA04454FEA7C
:101860001C4704FB07622CEA074C05FB07F70CFB3F
:1018700005F604FB0CFC16EB074642EB174216EB91
:101880000C4642EB1C421BEB060658EB02024141A0
:1018900046EA9E0601D5BDE80189B619524141EBE1
:1018A0000101A3F10103BDE801894FEA14454FEAA4
:1018B000114724EA054621EA074C05FB07F406FB1D
:1018C00007F70CFB06F105FB0CFC11EB074144EBA1
:1018D00017444FEA124711EB0C4144EB1C4422EA37
:1018E000074C05FB07F206FB07F70CFB06F605FBAA
:1018F0000CFC16EB074642EB174216EB0C4642EB8C
:101900001C456A1854F1000148BF7047B61952418E
:1019100041EB0101A3F10103704795F0000F37D0AF
:101920004FEA11424FEA144721EA024624EA074CE3
:1019300002FB07F106FB07F70CFB06F402FB0CFCAD
:1019400014EB074441EB17414FEA154714EB0C44E5
:1019500041EB1C4125EA074C02FB07F506FB07F7A4
:101960000CFB06F602FB0CFC16EB074645EB174595
:1019700016EB0C4645EB1C42121951F1000148BF11
:101980007047B619524141EB0101A3F101037047C1
:101990004FEA14454FEA114724EA054621EA074C6D
:1019A00005FB07F106FB07F70CFB06F24FF00006FC
:1019B00005FB0CFC12EB074241EB174112EB0C420A
:1019C00051EB1C4148BF7047921841EB0101A3F154
:1019D00001037047FEE7704772B6FEE770B5044634
:1019E00000F004F90546601C02D004480078044465
:1019F00000F0FCF8401BA042FAD370BD1C00002090
:101A00002DE9F84FDFF8B8910024A9F1040B234623
:101A10000F2709F1040AABF1040EC9E00125A54026
:101A20002A40AA427DD1674ED1F804C0ACEB06082B
:101A3000B44532D014DCBCF1030F3AD009DCBCF160
:101A4000000F2AD0BCF1010F1CD0BCF1020F31D124
:101A50001DE0BCF1110F17D0BCF1120F2AD119E013
:101A6000B8F5881F19D006DCB8F5803F15D0B8F559
:101A7000801F1FD111E0B8F5001F0ED0B8F5041F6C
:101A800018D10AE0CB6815E0CB681B1D12E0CB68CB
:101A900008330FE0CB680C330CE08B682BB1012BC3
:101AA0004FF0080303D0456104E0042302E0056120
:101AB00000E00023FF2A01D8064601E000F10406F9
:101AC0004FEA840501D9A5F12005D6F8008007FA70
:101AD00005FC28EA0C0803FA05F548EA0508C6F8EB
:101AE00000804D68ED0062D5374DAE6946F00106C5
:101AF000AE61AD6924F0030605F001050095334D94
:101B000006EB050CDCF80850A607360F07FA06F8B6
:101B100025EA0805DFF8B880404503D14FF00008FA
:101B200017E044E0DFF8AC80404502D14FF00108F7
:101B30000FE0DFF8A480404502D14FF0020808E032
:101B4000DFF89880404502D14FF0030801E04FF0E4
:101B5000040808FA06F848EA0508CCF808804D6839
:101B6000D9F80060ED024D4601D5164300E09643DA
:101B70002E604D68DAF80060AD02554601D5164377
:101B800000E096432E604D68DBF80060AD035D46D3
:101B900001D5164300E096432E604D68DEF80060E4
:101BA000ED03754601D5164300E096432E60641C94
:101BB0000D682A46E5407FF431AFBDE8F88F00009C
:101BC0000804014000001110001002400000014014
:101BD00000080140000C01400010014000140140C9
:101BE0000AB1016170470904FBE700000148806801
:101BF000704700001C00002070B5040025D094F848
:101C00003D00002520B984F83C50204600F076FACB
:101C1000242084F83D002068016821F00101016062
:101C20002068016841F4004101602068016821F4E6
:101C30000041016000F0BEFB4D4A6168914201D84D
:101C40004C4900E04C49884201D2012070BD4B490B
:101C50002368B0FBF1F15E6826F03F060E435E603C
:101C60006368934206D94FF4967359434FF47A73DD
:101C7000B1FBF3F12368491C1E6A26F03F0631438D
:101C800019626168914210D84900401EB0FBF1F220
:101C9000521CC2F30B02042A01D2042022E0B0FB42
:101CA000F1F0401CC0F30B001CE0A268F2B301EBA2
:101CB000C10303EB0116431EB3FBF6F35B1C43F4B5
:101CC00080431B0549D092B301EBC10202EB011125
:101CD000401EB0FBF1F0401CC0F30B0040F480400C
:101CE00040F400402168CA694CF6FF739A431043E0
:101CF000C861D4E9071001432068026822F0C002DD
:101D000011430160D4E9030101432068826848F26D
:101D1000FF339A4311438160D4E9050108432168E8
:101D2000CA6822F0FF021043C86001E00EE016E02E
:101D30002068016841F0010101602564202084F8D9
:101D40003D00256384F83E50002070BD01EB410644
:101D5000431EB3FBF6F35B1CB3E70120C2E701EBC4
:101D60004101401EB0FBF1F0401CC0F30B00B7E78F
:101D7000A086010080841E0000093D0040420F0043
:101D80002DE9F84F0025DDF82890984617468A4639
:101D900004460095FFF72AFF064694F83D002028E8
:101DA0007AD11923012286492046009601F03CF998
:101DB0000028F5D194F83C0001286DD0012084F86A
:101DC0003C0020680168C90703D1016841F00101A6
:101DD00001602068016821F400610160222084F81C
:101DE0003D00102084F83E0025646762A4F82A8034
:101DF000608D20857348E06233464A46514620464E
:101E000001F022F800287CD1208DDFF8BC8120274A
:101E100068B1012814D00228206801681ED041F45E
:101E2000806101602068416980690090BBE02068A2
:101E3000416981690091016841F400710160B2E07B
:101E40002068016821F48061016072B620684169F0
:101E500081690091016841F400710AE041F4006178
:101E6000016072B62068416981690091016821F4BE
:101E70008061016062B696E0032865D801280CD025
:101E800002284B464FF000024146204600960BD0F8
:101E900001F0CAF8A8BB0CE090E032464946204663
:101EA00001F068F968BB71E001F0BEF848BB72B69A
:101EB00033E02068016821F48061016072B6206817
:101EC0000069616A0870606A401C6062208D401E73
:101ED0002085608D401E60853C4846F2A811006850
:101EE000B0FBF1F0C0EBC00000EB80000090401EA2
:101EF000009007D020684069C04340070DD5009886
:101F0000F5E727E044F8305F6773A573206940F078
:101F10002000206162B625731CE02068016841F44E
:101F20000071016020680069616A0870606A401C85
:101F30006062218D491E2185618D491E618562B6D1
:101F400021680969017025E032464946204601F0C2
:101F500011F910B10120BDE8F88F20680069616AAD
:101F60000870606A401C6062208D401E81B221852D
:101F7000608D401E608520684269D243520712D4AA
:101F8000032903D1016821F48061016020680069A0
:101F9000616A0870606A401C6062208D401E208566
:101FA000608D401E6085208D00287FF465AF84F829
:101FB0003D7084F83E5084F83C50CCE70220CAE7DC
:101FC000020010000000FFFF0400010028000020B4
:101FD0002DE9F84F1F4690468A460446DDF82890C2
:101FE000FFF704FE054694F83D0020287FD1192311
:101FF000012240492046009501F016F8002876D1CC
:1020000094F83C00012872D0012084F83C0020683C
:102010000168C90703D1016841F00101016020682E
:10202000016821F400610160212084F83D00102046
:1020300084F83E0000262664C4F824806785608DFD
:1020400020852D48E0622B464A465146204600F046
:1020500071FF90B9206841698069009036E02A4696
:102060004946204601F0BEF850B1206C042804D146
:102070002068016841F4007101600120BDE8F88F1B
:10208000606A216800780861606A401C6062618D46
:10209000491E6185218D491E89B2218522685369B7
:1020A000DB435B070BD451B100781061606A401CC0
:1020B0006062608D401E6085208D401E20852A460E
:1020C0004946204600F084FF0028CED1208D00280C
:1020D000C5D154F83D0B016841F400710160202026
:1020E00004F81E09E67766770020C7E7FFE70220BD
:1020F000C4E70000020010000000FFFF10B586B02A
:102100000021009101910291039100680F498842DA
:102110001AD10F4CA06940F00800A061A06969467F
:1021200000F008000490C0200090122001900320CD
:1021300003900848FFF764FCE06940F40010E06198
:10214000E06900F40010049006B010BD0054004097
:1021500000100240000C01400248816802781144DE
:10216000816070471C000020074810B5016841F0ED
:1021700010010160032000F075F80F2000F006F850
:1021800000F024F8002010BD0020024070B50D4D75
:1021900004464FF47A712878B1FBF0F00A490968D7
:1021A000B1FBF0F000F0DCFA48B9102C07D20022A5
:1021B0002146501E00F036F800206C6070BD0120F2
:1021C00070BD00001C000020280000200C4808B54D
:1021D000816941F001018161816901F00101009192
:1021E000C16941F08051C161C06900F08050009028
:1021F0000448416821F0E06141F00071416008BD90
:102200000010024000000140002809DB00F01F021E
:10221000012191404009800000F1E020C0F8001148
:1022200070470000F0B40E4B1B680C46C3F302234A
:10223000C3F10705042D00D90425191D072901D272
:10224000002300E0DB1E012606FA05F1491E2140AD
:1022500099409E40761E16403143F0BC01F0A2BB6F
:102260000CED00E0064900F0070208684FF6FF0396
:10227000184040EA0220034A1043086070470000FB
:102280000CED00E00000FA052DE9F0470F460500CF
:1022900061D0434E306800F00700B84209D2306880
:1022A00020F0070038433060306800F00700B84283
:1022B00051D128683B4C810712D5400703D560688F
:1022C00040F4E06060602878000703D5606840F45F
:1022D000605060606068A96820F0F00008436060AA
:1022E0002878C00728D06868012810D02168022803
:1022F00010D0890700292EDA616821F0030101431B
:102300006160FFF773FC804641F288390DE0216877
:102310008903EFE78901EDE7FFF768FCA0EB08010F
:10232000494502D90320BDE8F0876068696800F07C
:102330000C00B0EB810FEFD1306800F00700B8421D
:102340000BD9306820F0070038433060306800F067
:102350000700B84201D00120E5E72878400705D5FD
:102360006068E96820F4E06008436060287800074E
:1023700006D56068296920F4605040EAC1006060B9
:1023800000F038F86168084AC1F30311515CC84095
:102390000649086006480068FFF7F8FE0020C2E71B
:1023A00000200240001002401060000828000020B9
:1023B000200000200448054900684968044AC1F328
:1023C0000221515CC84070472800002000100240E4
:1023D000206000080448054900684968044AC1F3C0
:1023E000C221515CC8407047280000200010024004
:1023F000206000080E4A51680E4801F00C03042BBF
:1024000011D0082B0FD10C48C1F38343C903C05C22
:102410000AD55168084AC1F34041921E515C054AF1
:102420005043B0FBF1F07047044948437047000047
:102430000010024000127A000060000800093D0010
:102440002DE9F84F040070D02078C04DC00749D066
:102450006868C0F38100012807D06868C0F3810074
:10246000022809D16868C00306D52868800339D5D9
:1024700060680028E7D035E06068B0F5803F0BD099
:1024800010B1B0F5A02F11D0286820F4803028605A
:10249000286820F4802002E0286840F4803028601A
:1024A000606890B1FFF7A2FB06460AE0286840F496
:1024B00080202860F0E700BFFFF798FB801B6428AE
:1024C00073D828688003F7D50CE0FFF78FFB06462A
:1024D00005E000BFFFF78AFB801B6428F0D828685E
:1024E0008003F7D420789A4E80074FF001094FF00F
:1024F000000839D5686810F00C0F07D06868C0F381
:102500008100022809D16868C00306D428688007C2
:1025100014D52069012808D110E02069B0B1C6F8AF
:102520000090FFF763FB074605E00AE1FFF75EFB5B
:10253000C01B0228C4D828688007F7D528686169BD
:1025400020F0F80040EAC10028600DE0C6F80080E5
:10255000FFF74CFB074604E0FFF748FBC01B0228CF
:1025600023D828688007F7D4207800072CD579482D
:10257000A169D9B1C0F80090FFF738FB074604E025
:10258000FFF734FBC01B02280FD8686A8007F7D515
:1025900071484FF4FA510068B0FBF1F0009000BFB1
:1025A0000098411E0091FAD20EE080E0C0F8008051
:1025B000FFF71CFB074604E0FFF718FBC01B0228CF
:1025C00075D8686A8007F7D42078400760D5E86935
:1025D0000027C00008D4E86940F08050E861E8694D
:1025E000012700F0805000905C480168C90513D4B1
:1025F0000168834641F480710160FFF7F7FA824673
:1026000006E000BFFFF7F2FAA0EB0A0064284ED8FC
:10261000DBF80000C005F5D5E06801280AD008B154
:10262000052813D0286A20F001002862286A20F0CB
:10263000040002E0286A40F001002862E06841F2EC
:10264000883B98B1FFF7D2FA82460BE0286A40F047
:1026500004002862EEE700BFFFF7C8FAA0EB0A010A
:1026600059455AD8286A8007F6D50CE0FFF7BEFA1C
:10267000824605E0FFF7BAFAA0EB0A0159454CD8AB
:10268000286A8007F6D41FB1E86920F08050E8611D
:10269000E06988B36968C1F38101022944D0022846
:1026A000C6F8608004D0FFF7A1FA044638E034E0B1
:1026B000FFF79CFA074604E0FFF798FAC01B0228D0
:1026C0002BD828688001F7D4206AB0F5803F05D167
:1026D0006868A16820F4003008436860D4E9080104
:1026E0000843696821F4741108436860C6F8609073
:1026F000FFF77CFA044606E025E000BFFFF776FA14
:10270000001B022809D828688001F7D51BE000BF0C
:10271000FFF76CFA001B022802D90320BDE8F88FEE
:1027200028688001F4D40EE00128F7D06868226A96
:1027300000F48031914204D1616A00F47010884243
:1027400001D00120EAE70020E8E700000010024085
:1027500000004242800442422800002000700040F5
:1027600010B5401EB0F1807F01D3012010BD4FF0A5
:10277000E02460610F21601701F014F90020A061CE
:1027800007202061002010BD7047704770B590F899
:102790003C20012A26D0012480F83C40022280F807
:1027A0003D2003685A689D6822F070060A6832432B
:1027B0005A600D4B02689A4208D0B2F1804F05D0A2
:1027C0000A4B9A4202D00A4B9A4204D1496825F03A
:1027D00080031943916080F83D40002180F83C104F
:1027E000084670BD022070BD002C0140000400406E
:1027F0000008004010B5040003D094F83D0010B16B
:1028000007E0012010BD002084F83C00204600F0C5
:102810001FF8022084F83D00211D206800F056FFBB
:10282000012084F8460084F83E0084F83F0084F8D4
:10283000400084F8410084F8420084F8430084F8A2
:10284000440084F8450084F83D00002010BD0000DD
:1028500008B500680B49884212D10B48C16941F0A4
:102860000401C161C069002200F00400009011461B
:102870001E20FFF7D7FCBDE808401E20FFF7C4BCB0
:1028800008BD0000000800400010024090F83D1014
:10289000012901D001207047022180F83D10016814
:1028A000CA6842F00102CA6000680B49884208D039
:1028B000B0F1804F05D00949884202D008498842CA
:1028C00004D1816801F00701062903D0016841F0B5
:1028D0000101016000207047002C0140000400400D
:1028E0000008004070B5044690F83C00002501281F
:1028F00017D0012684F83C60022084F83D0020684F
:10290000826822F0770222F47F42826008685028B1
:1029100038D00DDC20284FD005DC90B3102811D121
:102920004AE0022070BD302846D040280AD13BE062
:1029300060282FD070280DD0B0F5805F03D0B0F59F
:10294000005F12D0012584F83D60002084F83C002F
:10295000284670BDCB68D1E90121206800F0F2FE65
:102960002068816841F0770109E0CB68D1E9012155
:10297000206800F0E7FE2068816841F480418160B2
:10298000E1E719E0CA684968206800F0EDFE5021CF
:10299000206806E0CA684968206800F0F6FE6021F9
:1029A000206800F0D9FECEE7CA684968206800F0C8
:1029B000DBFE40212068F4E7226801461046F0E77C
:1029C00070472DE9F04104460068C66805694FF07C
:1029D0000007A90713D5B10711D5F91E0161012020
:1029E0002077206880698007204602D0FFF7E8FF43
:1029F00004E000F07EF8204600F07CF827776807B6
:102A000016D5700714D521686FF004000861022004
:102A100020772068806910F4407F204602D0FFF7BD
:102A2000CFFF04E000F065F8204600F063F8277758
:102A3000280715D5300713D521686FF00800086105
:102A4000042020772068C0698007204602D0FFF765
:102A5000B7FF04E000F04DF8204600F04BF8277770
:102A6000E80616D5F00614D521686FF0100008614D
:102A7000082020772068C06910F4407F204602D0EB
:102A8000FFF79EFF04E000F034F8204600F032F833
:102A90002777E80708D0F00706D021686FF001001B
:102AA0000861204600F028F8280608D5300606D52B
:102AB00021686FF0800008612046FFF765FE680618
:102AC00008D5700606D521686FF0400008612046E1
:102AD00000F0D6F8A8060AD5B00608D521686FF030
:102AE000200008612046BDE8F041FFF74EBEBDE87A
:102AF000F0817047704700002DE9FF5F01F0F2FAA6
:102B000000287DD001F078FB584C206001F05CFB80
:102B1000606001F061FBA06001F066FBE060A1680D
:102B200006468A46504603F07FF8616805468946A6
:102B3000484603F079F8294602F0F6FF012103F038
:102B400020FA4FF07E58414603F03AF902F0C0FFF8
:102B500007460D463146504603F066F8064649469C
:102B6000206803F061F8314602F0DEFF012103F036
:102B700008FA02F0ADFF3A462B4601F0E3F902F005
:102B800043FCDFF8EC904FF0663632464B4602F0DD
:102B90008FFC02F0F3F920616168E06803F044F80B
:102BA0000546A168206803F03FF8294603F012F9B2
:102BB000012103F0E6F902F08BFF00F07BFF02F049
:102BC00023FC32464B4602F073FC02F0D7F96061F9
:102BD000E1688B46584603F027F8A16805468A4607
:102BE000504603F021F8294602F09EFF012103F030
:102BF000C8F9414603F0E4F802F06AFF0D4600E030
:102C000031E007465146606803F00EF880465946A9
:102C1000206803F009F8414602F086FF012103F025
:102C2000B0F902F055FF3A462B4601F08BF902F05D
:102C3000EBFB32464B4602F03BFC02F09FF9A061F1
:102C400002F046FF07468846606902F041FF0546EC
:102C50000E46206902F03CFF8DE8E00102460B467B
:102C600004A0FDF7C5FABDE8FF9F000000000020AA
:102C700066A64C4025662C25662C25660A000000B9
:102C8000704770B5040004D094F84100002510B1DD
:102C900006E0012070BD84F84050204600F024F882
:102CA000242084F841002068C16821F40051C160EB
:102CB000204600F0A3FD2068016921F490410161E4
:102CC0002068416921F02A0141612068C16841F40E
:102CD0000051C1606564202084F8410084F84200FE
:102CE0006563002070BD000030B585B000240094FD
:102CF00001940294039400681449884224D1144832
:102D0000816941F480418161816901F480410491CC
:102D1000816941F00401816180690E4D00F0040079
:102D200004904FF400700090022001900320039063
:102D300069462846FEF764FE2815CDE90004694679
:102D400028460294FEF75CFE05B030BD0038014015
:102D5000001002400008014090F84230202B01D0C2
:102D60000220704721B11AB10023036300F0A2BD15
:102D7000012070472DE9F843044690F84100984639
:102D800016460D46202802D00220BDE8F88385B102
:102D90007EB100206064212084F84100FEF726FF08
:102DA000A6848146E684A0682027B0F5805F02D023
:102DB00003E00120E9E7206910B12E4600250EE06E
:102DC00000260CE08021204600F08FFDA8B9C6B196
:102DD00016F8010B21684860E08C401EE084E08C0E
:102DE0004B464FF00002CDF800800028EAD14FF0AA
:102DF0004001204600F079FD40B184F84170032085
:102E0000C3E735F8020BC0F30800E3E784F841702C
:102E10000020BAE7FEE700F02FBA01684A69D24302
:102E200052050FD46FF480624A61002140F8301FD0
:102E3000202242738173026942F00402026101732D
:102E400001207047002070472DE9F84F0446C06A02
:102E50001E4693460D4621680A6842F480620A6065
:102E6000082807D0012805D010F5803F02D0206B3C
:102E7000112804D12068016841F4807101604FF08D
:102E800001195B46002249462046009600F0CCF826
:102E90004FF4007840B120680068C00501D5C4F83F
:102EA00040800320BDE8F88F2069DFF884A0B0F5EA
:102EB000804F0FD00620216800EAD51747F0F000B8
:102EC000086133465A460AF10601204600F0F4F83C
:102ED00058BB03E0E8B240F001001CE02168E8B212
:102EE000086133465A465146204600F0E5F8E0B9FD
:102EF0002068416981690091016841F48071016035
:102F00005B46002249462046009600F08DF80028D6
:102F1000C1D147F0F1002168086133465A46514655
:102F2000204600F0C9F80028BCD00120BAE7000014
:102F300002000100F8B50446C06A1E460D46174659
:102F4000082807D0012805D010F5803F02D0206B5B
:102F5000122804D12068016841F480710160134691
:102F600000224FF001112046009600F05DF840B1BC
:102F700020680068C00502D54FF40070206403206B
:102F8000F8BD2069B0F5804F0ED00620216800EA18
:102F9000D51040F0F000086133463A460B49204610
:102FA00000F08AF878B902E005F0FE0000E0E8B22F
:102FB00021680861054933463A46891F204600F0DA
:102FC0007BF80028DCD00120F8BD000008000100DB
:102FD00070B516460D4604461EE02046FFF71DFF5D
:102FE00008B1012070BD681C16D0FEF7FFFD801BE4
:102FF000A84200D885B920684069C04340070BD576
:10300000002044F8300F20216173A073216941F042
:10301000200121612073E4E720684069C043400734
:10302000DBD4002070BD00002DE9F047984617461C
:103030000D460446C1F30746DDF820902AE000BFA4
:10304000B8F1FF3F26D0FEF7D1FDA0EB09014145C5
:1030500002D8B8F1000F1DD12068012E16D080696A
:1030600025EA00000004000C12D00020B84211D163
:10307000002044F8300F20216173A073216941F0D2
:103080002001216120730120BDE8F0874069E7E756
:103090000120EBE72068012E0AD0806925EA0000B4
:1030A0000004000C06D00020B842C9D00020EBE795
:1030B0004069F3E70120F7E72DE9F0479846164607
:1030C0000D4604464FF000094FF0200AC1F30747B0
:1030D00023E020684069C043400515D4206801689A
:1030E00041F40071016021686FF480604861C4F8A8
:1030F000309084F83DA084F83E90216C41F00401AA
:10310000216484F83C9021E0701C06D0FEF76EFD2F
:10311000A0EB0800B04203D816B1012F1FD021E068
:103120002068012F15D0806925EA00000004000CFA
:1031300018D000BF44F8309F84F80DA084F80E909A
:10314000216941F02001216184F80C900120BDE843
:10315000F087406925EA00000004000CEAD12068ED
:10316000406901E02068806925EA00000004000C45
:10317000AFD1ECE72DE9F041002590460E4604461C
:10318000202728E04069C043C0060CD454F8301B07
:103190006FF01000486144F810596777A577206AEE
:1031A0002062257714E0FEF721FDA0EB0800B04275
:1031B00000D886B920684069C04340060BD544F862
:1031C000305F6773A573206940F02000206125738C
:1031D0000120BDE8F08120684169C9434906D1D486
:1031E0000020F6E770B516460D4604461EE0204660
:1031F000FFF713FE08B1012070BD681C16D0FEF762
:10320000F5FC801BA84200D885B920684069C043FE
:1032100000060BD5002044F8300F20216173A07305
:10322000216941F0200121612073E4E720684069B1
:10323000C0430006DBD4002070BD00000D4808B577
:10324000816941F020018161816901F020010091D3
:10325000816941F004018161816901F004010091FB
:10326000816941F008018161806900F008000090E7
:1032700008BD0000001002400D4810B50B49016068
:103280000C49416000214FF480428160C0E9031283
:1032900041618161C1610162FEF7AEFC002803D08B
:1032A000BDE81040FEF798BB10BD00000054004080
:1032B000BC000020A086010010B586B0002416488E
:1032C0000094019402940394049412490594C0E973
:1032D00000144FF6FF71C0E9024104618461FFF7F9
:1032E00089FA08B1FEF778FB4FF4805000906946E8
:1032F0000948FFF7F7FA08B1FEF76EFB049404A93A
:1033000005480594FFF742FA002801D0FEF764FB58
:1033100006B010BD00080040100100200C4810B598
:103320000A4901604FF4E1314160002181600C22C3
:10333000C160C0E904128161C161FFF7A2FC0028ED
:1033400003D0BDE81040FEF747BB10BD0038014078
:1033500058010020FEE7FEE770B50024002120465A
:1033600000F0F0F80025002000F056F96D1CEDB2D9
:10337000802DF8D3641CE4B2082CEFD370BD00009C
:10338000104810B5816986B041F0080181618069FB
:103390000D4C00F0080004901120019003200390D0
:1033A0000002009069462046FEF72AFB01225102E6
:1033B0002046FEF715FC012211022046FEF710FC04
:1033C00006B010BD00100240000C01402DE9F0478E
:1033D000164E002407464FF080084FF4807975158B
:1033E00028FA04F0384201D0012200E000224946C8
:1033F0003046FEF7F5FB012229463046FEF7F0FB8A
:10340000002229463046FEF7EBFB641CE4B2082C90
:10341000E6D3012229463046FEF7E2FB2946304634
:10342000BDE8F0470022FEF7DBBB0000000C0140C6
:1034300070B501220B4D140221462846FEF7D0FB41
:103440000122560231462846FEF7CAFB00222146D9
:103450002846FEF7C5FB31462846BDE870400022ED
:10346000FEF7BEBB000C014070B50A4D4FF48074EE
:10347000002221462846FEF7B3FB012251022846CE
:10348000FEF7AEFB21462846BDE870400122FEF75C
:10349000A7BB0000000C014010B500204FF47A7269
:1034A0000021491C9142FCD3401C9042F8D3FFF705
:1034B00067FFAE2000F09FF8D52000F09CF8802038
:1034C00000F099F8A82000F096F83F2000F093F85B
:1034D000D32000F090F8002000F08DF8402000F09C
:1034E0008AF8A12000F087F8C82000F084F8DA20DC
:1034F00000F081F8122000F07EF8812000F07BF8C7
:10350000CF2000F078F8D92000F075F8F12000F015
:1035100072F8DB2000F06FF8302000F06CF8A42087
:1035200000F069F8A62000F066F88D2000F063F83E
:10353000142000F060F8AF2000F05DF8BDE8104006
:10354000FFF70ABF10B50C4640F0B00000F053F88A
:10355000102040EA141000F04EF804F00F00BDE80F
:10356000104000F048B800002DE9F0410746CE00B9
:103570004000083E801E15464FF0FF38F1B2C0B241
:10358000FFF7E0FF1148002400EB05152819A0F50E
:10359000805090F8000E00F03FF8641CE4B2082C54
:1035A000F4D308EB4700F1B2C0B2FFF7CBFF002421
:1035B0002819A0F5805090F8080E00F02DF8641C32
:1035C000E4B2082CF4D3BDE8F081000028600008C4
:1035D0002DE9F04115460E460746002406E0301955
:1035E000C1B23846FFF7C0FF641CE4B22A5D002A6E
:1035F000F5D1BDE8F08110B50446FFF719FF78203A
:10360000FFF7E4FE0020FFF7E1FE2046FFF7DEFEB5
:10361000BDE81040FFF728BF10B50446FFF708FFCC
:103620007820FFF7D3FE4020FFF7D0FE2046FFF7BB
:10363000CDFEBDE81040FFF717BF704708B54FF645
:10364000FF7200920B46024697210248FEF798FB54
:1036500008BD0000BC0000207047FEF77DBD30B5FE
:103660008FB028216846FCF703FE14210AA8FCF756
:10367000FFFD01210804CDE9001000240294022579
:103680000491CDE907504FF4E01009906846FEF729
:10369000D7FE08B172B6FEE70F20CDE90A054FF458
:1036A0008060CDE90C4002210AA80E94FEF7ECFDE3
:1036B000002801D072B6FEE70FB030BD70470000A1
:1036C0000148FFF77EB9000010010020F0B5026844
:1036D000194B1A4C1A4D4FF08047984205D0B8420A
:1036E00003D0A04201D0A84203D122F070064A685C
:1036F0003243984205D0B84203D0A04201D0A8423C
:1037000003D122F44074CA6822434C6922F080023B
:10371000224302608A68C2620A688262984201D1CA
:1037200009690163012141610169C90703D0016988
:1037300021F001010161F0BD002C014000040040B6
:103740000008004010B5846842EA032224F47F4454
:103750000A432243826010BD826822F070020A434D
:1037600042F007018160704710B5036A046A24F0D3
:1037700001040462846924F0F00444EA021423F092
:103780000A020A438461026210BD10B5036A046A2A
:1037900024F010040462846923F0A00324F470442C
:1037A00044EA023243EA01118261016210BD0168FC
:1037B0000C3151E8002F22F4907241E80023002BD5
:1037C000F5D10168143151E8002F22F0010241E8DF
:1037D0000023002BF5D1016B012909D101680C31BF
:1037E00051E8002F22F0100241E80023002BF5D110
:1037F000202180F8421000210163704770B5044613
:1038000000680169E26821F44051114301612169B6
:10381000A0680843616908432168CA6841F20C63E3
:103820009A430243CA6020684169A26921F4407149
:10383000114341611E492068884202D1FEF7CAFD4A
:1038400001E0FEF7B7FD00EBC00101EB001260687C
:1038500064218000B2FBF0F3B3FBF1F36FF01806C4
:103860007343B2FBF0F5B2FBF0F605EB83053223B0
:1038700003EB0515B5FBF1F5B6FBF1F605F0F00528
:1038800005EB0615B2FBF0F6B2FBF0F0B0FBF1F081
:103890006FF01802504306EB800003EB0010B0FB02
:1038A000F1F0216800F00F002844886070BD00002E
:1038B0000038014081628285C28500214164222155
:1038C00080F84210016921B10168CA6842F480722F
:1038D000CA6001684A6942F001024A610068C16831
:1038E00041F02001C160002070472DE9F84398465F
:1038F00017460D460446089E24E0701C22D0FEF7B1
:1039000075F9A0EB0800B0421AD8CEB12068C168A2
:10391000490717D5802D15D0402D13D00168C94314
:1039200009070FD401680025406800902046FFF782
:103930003EFF0820606484F840500120BDE8F88311
:103940000320FBE72068006835EA000004D000206F
:10395000B842D2D00020F1E70120F9E7FEE70000ED
:1039600008B54FF6FF7200920B46024696210248B8
:10397000FEF72EFB08BD0000BC000020490050EA05
:10398000C12018BF04204A0D18BF40F0010040F2CA
:10399000FF72B2EB515F08BF40F00200012808BF80
:1039A000052070470907090E002804DB00F1E0201C
:1039B00080F80014704700F00F0000F1E02080F85C
:1039C000141D70472DE9F0414F1E00EBC70104465E
:1039D000D1E9000115461E4637F006020DD02A46F1
:1039E000334601F065FD7F1E04EBC703D3E90023D6
:1039F00001F0F6FA37F00602F1D1022F25D0042F9C
:103A000013D0062F18BFBDE8F0812A46334601F0D7
:103A10004FFDD4E90A2301F0E3FA2A46334601F0C8
:103A200047FDD4E9082301F0DBFA2A46334601F0CA
:103A30003FFDD4E9062301F0D3FA2A46334601F0CC
:103A400037FDD4E9042301F0CBFA2A46334601F0CE
:103A50002FFDD4E9022301F0C3FA2A46334601F0D0
:103A600027FDD4E90023BDE8F04101F0B9BA000018
:103A7000002213461046014901F06EBB0000F03FE2
:103A8000012202F050BA01F0ABBA002213461046F0
:103A9000114601F061BB40F2013200204FF0E041DD
:103AA00002F041BA024A0020110702F03CBA0000BD
:103AB00001FDFFFF2DE9F04D8D4F21F0004A86B04A
:103AC00005460C46BA452ADBAAEB070028430AD074
:103AD0008848824501DC1AD1CDB106B02846BDE840
:103AE000F04DFFF7CDBF844A844B284601F0E0FC3F
:103AF00007460E46824A834B2846214601F0D8FCF1
:103B000006B03A463346BDE8F04D01F069BA0120EF
:103B1000FCF7DDFB06B0BDE8F04DFFF7B6BF7A4815
:103B2000824542DABAF1795F0BDA2846FFF726FFC1
:103B3000042808BFFFF7B6FF284606B02146BDE8B7
:103B4000F08D2A460B46104601F0B2FC8346024631
:103B50006E480E460B4606217844FFF733FF5A465F
:103B6000334601F0A5FC804669488A465A463346EA
:103B700004217844FFF726FF5A46334601F098FCAB
:103B800000223B4601F02CFA02460B4640465146C5
:103B900001F0E2FA2A46234601F08AFC06B02A46E2
:103BA0002346BDE8F04D01F01BBA284624F0004141
:103BB00000223D463B4601F0AFFD4FF0FF3202F0E0
:103BC000B2F90646024653480F460B460621784492
:103BD000FFF7F8FE32463B4601F06AFCCDE90001F2
:103BE0004D4832463B4604217844FFF7EBFE32460F
:103BF0003B4601F05DFC00222B4601F0F1F98346C3
:103C000002913046394601F07DF9804643480D4621
:103C1000504517DCDDE900015A46029B01F09CFA91
:103C200042462B4601F044FC42462B4601F0D8F9AF
:103C3000012202F078F9304A304B01F05FFE304A41
:103C4000304B4CE04FF0000A52460B46404601F024
:103C5000C7F9CDE9031052462B461046194601F02C
:103C600027FC32463B4601F057FDDDE9033201F007
:103C700073FA06460F46DDE900015A46029B01F041
:103C80006BFA8346009101223046394602F04BF927
:103C9000194A1A4B01F040FD06460F4601224046E4
:103CA000294602F040F95A46009B01F001FC3246D9
:103CB0003B4601F023FE06460F46012250462946A8
:103CC00002F031F90E4DDFF858802A46434601F0E4
:103CD00023FD32463B4601F01FFD2A46434601F0D4
:103CE0001BFD002CD8BF81F0004106B0BDE8F08D6F
:103CF0000000F03F0000F07F075C143326A6913CE3
:103D0000182D4454FB21F93F0000E03FBC2A00007D
:103D1000D22A0000462A00005C2A00003333EF3F1D
:103D2000FB21E93F2DE9F84F04460D4621F0004004
:103D300000917349814211DC7249884201DC06D14D
:103D40002CB120462946BDE8F84FFFF799BE6E48D2
:103D5000002DCCBF6D496E49BDE8F88F6D49814299
:103D600011DD6D498142D8BF4FF0FF366DDD204631
:103D70002946FFF703FE042808BFFFF793FE2046FD
:103D80002946BDE8F88F6549654F25F00045814219
:103D900033DD6449814219DD002632464FF080430D
:103DA0002046294601F01CF980468A460122204619
:103DB000294602F0B8F800223B4601F09FFD42463A
:103DC000534601F0C9F904460D463EE001260022A3
:103DD000BA463B462046294601F002F980460F4686
:103DE000002253462046294601F088FD42463B46C4
:103DF00001F0B2F904460D4627E04B4981421BDD34
:103E0000DFF828A10226002253462046294601F069
:103E10004FFB00223B4601F0E3F880460F460022AC
:103E200053462046294601F069FD42463B4601F0D3
:103E300093F904460D4608E0032622462B4600204F
:103E40003B4901F089F904460D4622462B461046AF
:103E5000194601F02DFB8B46824602460B4601F0C7
:103E600027FB07460246334888460B46062178441E
:103E7000FFF7A8FD52465B4601F01AFB82462E482A
:103E80008B463A46434605217844FFF79BFD3A4668
:103E9000434601F00DFB02460B46002E50465946A4
:103EA0000CDA01F09DF822462B4601F001FB01B02F
:103EB00022462B46BDE8F04F01F02EBC01F090F8F1
:103EC00022462B4601F0F4FA1C4A7A4402EBC60360
:103ED000D3E9002301F012FD22462B4601F00EFD2E
:103EE000174A7A4402EBC603D3E9002301F014FC1D
:103EF000009A002AB8BF81F00041BDE8F88F0000A9
:103F0000000010440000F07F182D4454FB21F93FBD
:103F1000FB21F9BF0000DC3F0000203E0000F33F22
:103F20000000F03F0000E63F008003400000F83F43
:103F30000000F0BFE6280000A4280000422800008E
:103F40000A2800002DE9F04D9446CCF1000423F03E
:103F500000464CEA0404524F46EAD4749A46884616
:103F600021F00042BC4206D8454240EA050442EA3C
:103F7000D474BC4204D9BDE8F04D6246FFF783BD5E
:103F8000AAF14055A5F17F6555EA0C040BD0022437
:103F900004EAAA74434DDFF810E144EAD87452EA07
:103FA000000B04D00CE0BDE8F04DFFF7BBBE002CC9
:103FB00014BF012CBDE8F08D022C30D0032C32D080
:103FC00056EA0C0B0AD0BE4220D1BA4209D126F0E3
:103FD000804622F080423346114617E000291ADB62
:103FE00025E0DFF8C8B0FB44002C04BFDBE900018A
:103FF000BDE8F08D012C02BFDBE9000181F000413A
:10400000BDE8F08D022C0AD0032C0CD0BA4212D19C
:10401000B8F1000F0BDA23482549BDE8F08D28469A
:104020002449BDE8F08D28467146BDE8F08D1D4855
:104030002149BDE8F08D921B12153C2AC4BF1948D6
:104040001D490EDCBAF1000FBEBF12F13C0F00207B
:10405000014606DB624601F07FF821F00041FFF7E0
:1040600061FE002C08BFBDE8F08D012C04BF81F07B
:104070000041BDE8F08D114A114B022C07D001F030
:104080003DFC2A46BDE8F04D0A4B01F037BC01F07B
:1040900035FC2A46BDE8F04D064B01F03DBB000063
:1040A0000000F07F182D4454FB2109C09E2700001A
:1040B000FB21F9BFFB210940FB21F93F075C1433C9
:1040C00026A6A13C002000F089BE042000F086BE98
:1040D000012000F083BE022000F080BE032000F02B
:1040E0007DBE000010B500F05BFE012807D1074837
:1040F0008078032803D106480078FB2801D00020EF
:1041000010BD00F0E3F8012010BD000044000020C5
:10411000C001002000220146012000F0B3BE0022B1
:104120000146082000F0AEBE00220146022000F049
:10413000A9BE00220146042000F0A4BE00220146D0
:10414000032000F09FBE00220146052000F09ABE29
:1041500000220146132000F095BE002201461120E6
:1041600000F090BE13B54FF0FF33012269460248BC
:10417000FEF700FE00981CBD580100202DE9F0411B
:10418000104F0546002607F1200816E02C461C2D8E
:1041900000D91C24201DC1B20A48FFF74FFA0020A5
:1041A000414607E03A18802E127901D28A55761CD2
:1041B000401CC0B2A042F5D32D1B002DE6D101203A
:1041C000BDE8F081A001002002480179C06D00F037
:1041D000CBBD00002C00002002480179006E00F0E9
:1041E000C3BD00002C00002002480179406E00F0A1
:1041F000BBBD00002C00002002480179806E00F059
:10420000B3BD00002C00002008B5FDF7ADFFFFF79F
:1042100026FAFFF713F8FFF72FF8FFF77FF8FFF7FD
:104220004BF8FFF739F9012121A20846FFF7D0F931
:1042300040F6B8342046FDF7D1FBFFF78DF8FEF7C6
:10424000EAFD012269461C48FEF786FD00F040FEAB
:104250000120FFF778FF6420FFF761FF6420FFF77C
:1042600059FF6420FFF765FF6420FFF75DFF6420BE
:10427000FFF764FF6420FFF770FF6420FFF768FF1B
:10428000FFF720FFFFF724FFFFF725FFFFF726FFCB
:10429000FFF71BFF012109A20846FFF799F9204605
:1042A000FDF79CFBFFF758F80748FEF7EFFAFEE72B
:1042B0004F4C45445F4F6B0058010020424E4F3039
:1042C00038355F6F6B00000010010020F0B52E48FC
:1042D0002E4B4FF0000E0088D97920F40040B3F83F
:1042E0000960B3F80B50B3F80D40093801F003072B
:1042F000F4467246092801DDB3F80FE00B2801DD12
:10430000B3F811C020485979183801291AD0042966
:104310001DD0022920D0032923D0052926D0082921
:1043200024D011292AD013292AD01E2909D1997AFB
:104330008170806F9918C97A8154521CD2B2092AAF
:10434000F8D3F0BD8762C661C0E90854F0BD876349
:10435000C662C0E90C54F0BD8764C663C0E910545E
:10436000F0BD8765C664C0E91454F0BDC0F868E0CC
:10437000C665C0E91854C0E91BC7F0BD4467F0BD6D
:10438000597A4170F0BD000044000020C0010020B7
:104390002DE9F04D1D460C4698B0174621F000411E
:1043A00023F00043002814BF4FF0010C4FF0000C25
:1043B0000CEB440CFE4A0CEB02064FEA620C66451D
:1043C0002BD33E0018BF012606EB45061644F94ADA
:1043D000964222D3F84A53EA070C02D0944205D100
:1043E00048B918B000201146BDE8F08D002808BF7C
:1043F0004FF0000C01D04FF0010C0CEB440212F511
:10440000001F0AD8002F14BF4FF0010C4FF0000C12
:104410000CEB450212F5001F07D918B03A462B469F
:104420002146BDE8F04DFFF72EBB0022DFF88CA33C
:10443000002CB8BF534526DADFF884C36345A8BF14
:10444000022220DADFF870C39C451CDCDFF874C35D
:104450000CEB235CBCF1140F08DDCCF1340627FA19
:1044600006FC0CFA06F6BE420DD108E05FB9CCF1AD
:10447000140623FA06FC0CFA06F69E4203D10CF051
:104480000102C2F1020251EA000C19D1002D17DA23
:10449000002C18BF022A01D0012A07D00220FBF706
:1044A00016FF18B0BDE8F04DFFF7E2BA0220FBF7A7
:1044B0000EFFFFF7DDFA18B081F00041BDE8F08D86
:1044C000B7F1000C6CD1534525D104F1804212F5AF
:1044D000801201BF00280020B74918B008BFBDE80E
:1044E000F08DB548884207DC002DA1BF6046294603
:1044F00018B0BDE8F08D07E0281E05DA80F0004115
:1045000018B06046BDE8F08DAF497944D1E90001AB
:1045100018B0BDE8F08DDFF8A0C2634525D1002DAD
:104520001FDA19B1514512D1D8B909E0002840F07D
:10453000EC82A24A214618B062F31E01BDE8F08D5C
:104540000020214618B060F31E01BDE8F08D08DAA6
:1045500018B02346BDE8F04D02460020614600F049
:10456000FBBD18B02146BDE8F08D514518DAB5F114
:10457000804F0DD0A5F1005CBCF1FF5C10D1B4F10F
:10458000000C0DDB18B06146BDE8F04D00F0BABC80
:10459000234618B00246BDE8F04D194600F088BF2A
:1045A000060024F0004C3BD1D9B1514533D1002C49
:1045B00006DD002DA1BF0020514618B0BDE8F08DEA
:1045C000002C01DD002D1BDB002C13DA002D11DB8C
:1045D000012A4FF0000014BF78497C4918B0BDE8AB
:1045E000F08D022A18BF002C0AD0012A08D1002C15
:1045F00006DA0AE0002CB8BF002D11DA012A04D037
:10460000002018B00146BDE8F08D18B000204FF032
:104610000041BDE8F08DA1F14050B0F17F601AD0AB
:10462000012000EBE47050EA020421D0624C521EDB
:104630004FF0000B104304BF4FF0000B644C654873
:1046400083427CDD644A654893421FDD884217DB64
:10465000002D25DB37E0002C00DA4AB1022A0CBF1E
:1046600001204FF0FF3018B0BDE8F04D00F0CCBE97
:104670000120FBF72CFE18B0BDE8F04DFFF705BA9E
:104680004D4A8A4202DC002D0ADC1CE0814202DA3B
:10469000002D18DA04E0484B994220DD002D12DD90
:1046A0000220FBF714FEFFF7F6F905460E4600223E
:1046B00053465846214600F0FBFE18B066F31E0133
:1046C0002846BDE8F08D0220FBF701FEFFF7EAF96E
:1046D0000A46214618B062F31E01BDE8F08D0022A3
:1046E0003046614601F00AF980460E466FF001023D
:1046F00001F019FC4FF05532394B01F00DF84246EC
:10470000334600F0D5FE0022364B01F005F8824614
:104710004246334604911046194600F0C9FE5246FF
:10472000049B00F0C5FE8A4600904FF0C0422E4B1D
:104730004046314600F0BCFE2C4A2B4B00E027E0FF
:10474000CDE906015146009800F0B2FE8246019183
:10475000274A284B4046314600F0AAFE5246019BAC
:1047600001F0CCF882460B4602460591DDE90601D0
:1047700000F036FCDDE9062300268846304601F0CD
:10478000BDF85246059B00F0C7FF024600F07EB917
:104790000020B1F5801F07DA35223046614601F06E
:1047A000C2FB06466FF0340000EB215024E000000D
:1047B000FFFF1F00FFFF0F000000F03F0000F07F31
:1047C0000000404301FCFFFF7A2200000000F0FFE0
:1047D0000000F0BF0000E0410000F043FFFFEF3FAA
:1047E0005555D53F0000E03F4715F73FFE822B654A
:1047F00044DF5DF80BAE543EA0F2FF300190C1F3F0
:10480000130040F07F6141F040510291FE4988421F
:10481000D8BF002004DDFD498142C8BF012001DD71
:104820000D9008E000200D900198401C0190029826
:10483000A0F5801002900299F54878440B910D99EB
:1048400000EBC100D0E900230F9330460A920B9988
:1048500001F054F8CDE90601DDE90A2130460F9B4D
:1048600000F0BEFB02460B460020EA4900F074FC53
:10487000059102460B460090DDE9060100F018FEA6
:104880001490E5488A464FF0000878440299006881
:1048900012904FF0005040EA61010D980F9B01EB20
:1048A000804000F5002109910A9A129801F026F83B
:1048B00032460B9B00F030FF4246534600F0F8FDB5
:1048C0000646029140465146099B129A00F0F0FDBF
:1048D000DDE9062300F020FF3246029B01F00EF8CE
:1048E000059B009A00F0E4FD0091149A0490534651
:1048F0001046194600F0DCFD06460246C7480B4646
:10490000029106217844FFF75DF8CDE90510029B7E
:1049100032461046194600F0CBFDDDE9053200F0C5
:10492000C7FD05910646534640461946149A00F0C5
:1049300057FB009B049A00F0BBFD3246059B00F03C
:104940004FFBCDE90510424653461046194600F08C
:10495000AFFD0022B24B02910A9000F041FBDDE96D
:10496000053200F03DFB0E464246AD4B404600F09E
:10497000C5FF029B0A9A00F0C1FFDDE9053200F095
:10498000CBFE424602910A9033461046514600F053
:104990008FFDCDE906015346149A02990A9800F05A
:1049A00087FD8A460290334642460099049800F0FB
:1049B0007FFD5346029A00F013FB82460B460246E7
:1049C0000591DDE9060100F00BFBDDE9062300207F
:1049D0008846064600F092FF5246059B00F09CFE7A
:1049E000824609914FF060428E4B3046414600F0BE
:1049F0005FFD049006918C4A8A4B5046099900F05D
:104A000057FD82460291894A894B3046414600F063
:104A10004FFD5246029B00F0E3FA864B7B440D9A11
:104A200003EBC203D3E9002300F0DAFA0E900791FA
:104A3000019800F0E9FC0591DDE9061382460E9A23
:104A4000049800F0CDFA7C4A7A440D9B02EBC30334
:104A5000D3E900230093029200F0C2FA5246059B6C
:104A600000F0BEFA0026884652463046059B00F00C
:104A700045FF009B029A00F041FF069B049A00F05C
:104A80003DFF079B0E9A00F047FE024600200B46B2
:104A900002903846294600F00BFD824601912B46D4
:104AA00038461946029A00F029FF3246434600F084
:104AB000FFFC5246019B00F093FA07468A463246B5
:104AC00043462946029800F0F3FC05460E463A4656
:104AD000534600F085FA594A8846914221DBA8EBFB
:104AE000020353EA000210D12A46334600F006FFC3
:104AF000CDE90401524A534B3846514600F070FA52
:104B0000DDE9042300F0D2FD21D20220FBF7DFFB18
:104B1000FEF7C1FF0A46214618B062F31E01BDE848
:104B2000F08D494B28F000429A4210D3474A08EBD7
:104B3000020353EA00027FF4C6AD2A46334600F072
:104B4000DDFE3A46534600F0B1FD7FF6BCAD0022D3
:104B5000019228F000403E493E4A01EB205182423A
:104B600023DA481C4FF4801121FA00F040443A4AFD
:104B7000C0F30A517A44394BA1F2FF31CB4020EA0D
:104B80000303C0F3130040F48010C1F11401C840C6
:104B900012680190B8F1000FBCBF40420190284656
:104BA000314600F0ABFE05460E462A4633463846EF
:104BB000514600F015FA4FF000084246284B404697
:104BC000059100F075FCCDE90601264A264B4046CA
:104BD000059900F06DFC009102902A46334640464C
:104BE000059900F08BFE3A46534600F095FD1F4AAA
:104BF0001F4B00F05DFC009B029A00F0F1F90746A4
:104C0000884602460B4635E08E9803007AB60B00C4
:104C10002A1E00000000F03FFA1E0000901D000058
:104C20000000084009C7EE3FFD033ADCF5015B14C4
:104C3000E02F3EBE681C00002C1C000000009040CD
:104C4000FE822B654715973C00CC904000346F3FA7
:104C500001FCFFFF0000E03F101C0000FFFF0F0001
:104C6000432EE63F396CA80C615C20BEEF39FAFE9A
:104C7000422EE63FDDE9060100F0B2F9DDE9062348
:104C800005460E4600F03AFE3A46434600F044FD23
:104C90000F462A46334600901046194600F008FC9D
:104CA000824602462E4888460B4605217844FEF788
:104CB00089FE5246434600F0FBFB2A46334600F08D
:104CC0002BFD80468A463B4628463146009A00F036
:104CD000EFFB3B46009A00F083F90691009000221A
:104CE0004FF080434046514600F008FE0F460C90BE
:104CF000424653462846314600F0DAFB3B460C9AC2
:104D000000F02AFA069B009A00F0F8FD2A46334686
:104D100000F0F4FD0022134B00F0FEFC0546019864
:104D20000E4601EB00510815002810DC28463146DC
:104D3000019A01F0F8F8FEF721FE042808BFFEF7FB
:104D4000B1FE28463146019A01F0EDF805460B46C2
:104D500018B02A4658462146BDE8F04D00F0A8BBE1
:104D6000181A00000000F03F70B50C4600F044FF38
:104D70000546604200F048FB02460B4600204FF01B
:104D80008041FFF705FB04460E46284600F0A0FED2
:104D90002246334600F08CFBBDE8704000F0EEB8D0
:104DA00010B504210B48FEF749FC0A480278437805
:104DB0008478C1780848027043708470C17042EAF8
:104DC000032030F4004003D0001FFFF7D7F9012083
:104DD00010BD0000A00100204400002003220F4964
:104DE00000238B54521CD2B20C2AFAD3012240B1B8
:104DF000012808D0022808D0032808D004280AD0A7
:104E000006E0CA7004E00A7102E04A7100E0CA716B
:104E1000072000F005B8CA700A71F6E7C00100204B
:104E2000064A074BF221117019785170491C19700C
:104E300090700C21022000F005B80000C001002095
:104E40002C00002070B50D4B0C1D00221C700C4E68
:104E50005A709870355CDD706D1C355403F120007C
:104E600004E0855C9E18521C3571D2B28A42F8D398
:104E7000E1B20248FEF774FD012070BDA0010020E0
:104E8000A80000204FF47A73594330B40F4BFD242F
:104E90001C70587000209870D870187159710C0AE5
:104EA0009C710C0CDC71090E197258729872D872D0
:104EB00018735A73100A9873100CD873100E187464
:104EC000112130BC0220FFF7BDBF0000C00100204F
:104ED0000B4910B5012008700146FFF7B3FF3220DF
:104EE000FCF77CFDFFF75CFF0128FBD03220FCF7CC
:104EF00075FD00BFFFF754FF0128FBD010BD000077
:104F0000C00100202DE9F04106460F4600F010FCDC
:104F1000041E0D4618BF0120284320F00040C0F1B8
:104F20007F6000F1E040C00F0ED0301C18BF0120A0
:104F3000384320F00040C0F17F6000F1E040C00F36
:104F400004BF0120FBF7C3F920462946BDE8F081E4
:104F500010B500290AD00878002807D00548784401
:104F6000FBF7E8FE002801D0002010BD024878447D
:104F700010BD0000F2180000EA18000021F0004205
:104F8000A2F16052B2F5801F01F0004328BFD2F1B8
:104F90007F6C0BD95FEA001C43EAC20242EB5070FF
:104FA00018BF704728BF20F001007047B2F5801F7E
:104FB000BCBF184670474FEA410C1CF5001F02D2D7
:104FC000084600F0F8BE70B500F01CFB0000008938
:104FD000FFF7F6BF4FF00040A0F5800070470000DB
:104FE00010B591EA030F48BF83F0004300F18E84AF
:104FF000841A71EB030C05D2121943EB0C03001B4E
:1050000061EB0C01DFF824E14FEA1154A4EB135CCF
:105010001EEA430F18BF9EEA445F73D023EA0E03D3
:10502000DCF1200E21EA045143F4801332D322FA3A
:105030000CFE10EB0E0023FA0CFE41EB0E01CCF13E
:10504000200E03FA0EFE10EB0E0051F10001B1F537
:10505000801FCCF1200E32D201EB045112FA0EF275
:10506000BDE8104058BF7047401C38BF5FEA42029D
:1050700018BF7047002814BF20F0010041F1000163
:105080004FEA410313F5001F38BF7047A1F1C0413B
:1050900000F006BB012A43EB0302ACF1200CDCF16B
:1050A0001F0E32BF4FF0000E23FA0CF310EB03007B
:1050B00041EB0451B4EB115FD0D0A1EB045101F5E9
:1050C000801149085FEA300001EB04510ED350F122
:1050D000000038BF12FA0EFE08D1BDE81040C9E743
:1050E000401C38BF5FEA4202CAD1C3E7BDE81040A6
:1050F0004FEA410313F5001F38BF7047A1F1C041CB
:1051000000F0CEBA9EEA445F08D011EA5E0FBDE817
:10511000104004BF01F0004100207047BDE810407E
:1051200070B500F06FFA00BF64FBBE3E0000E0FF08
:1051300002494FF0000000F0C4BE00BF0000F87F3D
:10514000491058BFC1F140415B1058BFC3F1404303
:105150008B42EFF3008070472DE9C04130B4DFF897
:10516000A0C23CEA111418BF3CEA131400F0EC8012
:1051700081EA03051CEA111444EAD57418BF1CEA3D
:10518000131500F0C780A4EB05044FF0004545EA75
:10519000C12145EAC32341EA505143EA525304F185
:1051A0007F74994204F500344FEAC0204FEAC222CE
:1051B00008BF904200F09C804FEA13650FF2401642
:1051C000765D4FEA134506FB05F7C7F1807706FBCE
:1051D00007F74FEAD737A7FB03687642C8F5803850
:1051E000A7FB06CE38BFA8F1010807FB08E64FF081
:1051F000000EA6FB028CE6FB03CEDCF1000CCEF128
:10520000004E38BFAEF1010EA6FB0C584FF0000760
:105210004FF00005E6FB0E87A1FB08C6A0FB07CEFA
:1052200016EB0E0645F10005E1FB076515F1E04EB2
:105230007EBFA4F580345FEA46066D4116F1800713
:1052400045F100054FEA17274FEA066647EA05676A
:10525000A6F1DE46B6F1805F4FEA15251FD9384624
:1052600024F0010C05EBC471BCF1FE6F01EB0C11D5
:1052700002D8F0BCBDE8008124425CBF01F5801E6D
:105280009EEAC47F02D4F0BCBDE80081244238D439
:10529000F0BCA1F1C041BDE8004100F001BA4FEA05
:1052A000D22242EA43524FEAD323A7FB02864FEAB7
:1052B000D02040EA415007FB03661EEA0E0F4FEA7A
:1052C000D12105FB026658BFA6EB0056B6EB00568F
:1052D0004FEA520E4EEAC37E18EB0E0E56EB530EFB
:1052E000BDD518EB02085E417F1C55F10005B6E7FD
:1052F0004FF480154FF000074FF000064FF0000804
:10530000ADE7F0BC4FF0000001F1C04101F00041F9
:10531000BDE8008111EA0C1F0CEA131500D00CE067
:1053200013EA0C1F00F025804FF00000F0BC81EA6A
:10533000030101F00041BDE80081F0BCBDE800417F
:1053400081EA030100F0ACB9F0BCBDE8004170B5E2
:1053500000F058F9097EFC3E00F007B881EA03012D
:105360004FF0000001F00041704781EA030100F0B6
:1053700097B9F0BCBDE800414FF0000021497047EB
:10538000FFFDFBF9F7F5F4F2F0EEEDEBE9E8E6E40A
:10539000E3E1E0DEDDDBDAD8D7D5D4D3D1D0CFCD91
:1053A000CCCBCAC8C7C6C5C4C2C1C0BFBEBDBCBBCA
:1053B000BAB9B8B7B6B5B4B3B2B1B0AFAEADACABC5
:1053C000AAA9A8A8A7A6A5A4A3A3A2A1A09F9F9E9F
:1053D0009D9C9C9B9A999998979796959594939351
:1053E000929191908F8F8E8E8D8C8C8B8B8A8989E8
:1053F000888887878685858484838382828181806B
:105400000000FF070000F87F10F0004248BF404254
:10541000B0FA80F310FA03F10AD0C3F11D0303F5CB
:1054200080634FEA415002EB035202EBD1217047F7
:105430004FF000007047000051EA030C17D41CF530
:10544000801F58BFBCF5801F00F10680994218BF2D
:10545000704708BF9042704707D711F5801F58BFAB
:1054600013F5801F19D499427047894270471CF583
:10547000801F08D5BCF5801FF7D58B4218BF704739
:1054800008BF824270474FF4001C1CEB410F38BF2D
:105490001CEB430F01D28B42704770B500F0B2F89D
:1054A000922449004FF000514FF08053FFF748BE5F
:1054B000DFF848C170B51CEA111E1EBF1CEA1315A7
:1054C0009EEA0C0F95EA0C0F00F06F8081EA03044E
:1054D00023EA4C134EEAD47E21EA4C1141F48011A8
:1054E00043F48013AE44A1FB024CA0FB0365AEF174
:1054F0007F7E361955EB0C05A1FB034C4CF10003E4
:10550000A0FB021C16EB0C06654153F10003094297
:1055100018BF46F0010613F4007F0BD14FEA0331A8
:105520004FEA0530340341EA155140EA16506FF056
:1055300003020AE04FEAC3214FEAC520F40241EA20
:10554000555140EA56506FF0020202EB2E4201EB39
:10555000025585EACE710AD05FEA440C18BF24F0E8
:10556000004450F1000041F1000120EAD47040F203
:10557000FE7C624500D270BDA84214BF4FF080444B
:105580004FF04044002E08BF0024BEF1806FA8BF3A
:10559000A1F1C041BDE8704080F282804FF0000070
:1055A00001F1C04101F0004170479EEA0C0F0CEA86
:1055B000131518BF95EA0C0F06D04FF0000081EAD2
:1055C000030E0EF0004170BD00F01CF88900013E92
:1055D00000F007B800F009B84FEA430C5FEA5C5CE2
:1055E00008D081EA030100F05BB84FEA410C5FEAA2
:1055F0005C5CF6D14FF00000014970470000FF07E6
:105600000000F87F0EF1020E2EF0030E5EF8046B20
:10561000364205D4012A43EB030515F5001F12D8C5
:10562000012841EB010C1CF5001F0CD80ED14FEAEC
:10563000D17C15F5001F0CEB4C0C0CF1020C08BFD3
:105640004CEBD37C04E04FF0080C01E04FEAD37C34
:105650000CEB4C0526FA05F606F00706B6F1040C2D
:1056600006D20EEB860CBDE870404CF0010C604792
:10567000DFE80CF0090B02024FF000414FF0000090
:10568000A1F5002170BD19461046012851EB010417
:1056900018BFD4F5001484BF002001F0004170BD94
:1056A0000808A0F500114FEA3101704753EA010CD8
:1056B00017D41CF5801F58BFBCF5801F00F1068071
:1056C0008B4218BF704708BF8242704707D713F557
:1056D000801F58BF11F5801F19D48B4270479B4221
:1056E00070471CF5801F08D5BCF5801FF7D599427F
:1056F00018BF704708BF904270474FF4001C1CEB66
:10570000430F38BF1CEB410F01D2994270470FB4D1
:105710000CBC03BCFFF7C1BE91EA030F10B581F0CA
:1057200000413FF565AC83F0004300F0EFB80000A6
:105730002DE9F04101F5801CBCF5001FC0F2C380CB
:105740004FEA115C21EA0C510CF1FD0C41F480117F
:105750005FEA5C0C0CF5C07C01D3400049413DA4DC
:10576000890241EA905187028E0E0A0CA45D04FB67
:1057700004F602FB06F6C6F14046A4FB0662F60DEF
:1057800046EA422606FB06F4A4FB01235242C3F17B
:10579000404338BF5B1EA6FB02420024E6FB032405
:1057A000D20B42EA4446A6FB0623A1FB02E2A3FB7E
:1057B00007E4A4184FF0000252F10002E3FB01429B
:1057C0006442C2F1404E38BFAEF1010EA6FB042385
:1057D0004FF00002E6FB0E32A2FB03464FF000043E
:1057E000B61954F10004E2FB0264A1FB06E6A4FB37
:1057F00007E816EB08064FF0000858F10008E4FB34
:1058000001687642C8F1405838BFA8F10108A2FBF0
:1058100006E4A3FB08E52D194FF0000454F1000441
:10582000E2FB0854A1FB05E6A7FB04E818EB060819
:105830004FF0000656F10006E1FB048618F1200542
:1058400056F10006A809A8F11B08B10908F03F08A5
:10585000B8F10A0F40EA86601CD901EB0C51BDE893
:10586000F08100BFFCF5EEE8E2DDD8D3CFCBC7C3B3
:10587000C0BDB9B6B4B1AEACA9A7A5A3A19F9D9B6D
:105880009A9896959392908F8D8C8B898887868530
:1058900084838281A0FB006800FB01F208EB4208D0
:1058A000B8EB872807D5341858EB0104D5D5401C30
:1058B00051F10001D1E7341A78EB0104CDD4401E38
:1058C00071F10001C9E75FEA4C0C5FEA9C5C0DD105
:1058D00005D34FF0000001F00041BDE8F081BDE8C4
:1058E000F04170B5FFF78EFE6DDBFFBEBDE8F04105
:1058F0004FF00000004970470000F87F10B591EAB2
:10590000030F48BF83F000433FF572AB841A71EB7D
:10591000030C07D212198CF0004C43EB0C03001B54
:1059200061EB0C01DFF8A4E14FEA1154A4EB135C26
:105930001EEA430F18BF9EEA445F00F0B08023EADE
:105940006E03524221EA0451C3EB6E0338BF5B1E63
:10595000DCF1200E25D322FA0CFE10EB0E0043FAE8
:105960000CFE41EB0E01CCF1200E03FA0EFE10EB03
:105970000E0051F10001CCF1200E29D412FA0EF2E2
:1059800001EB0451BDE8104058BF7047401C1CBFDC
:10599000B2F1004F704700280CBF491C20F00100F5
:1059A000704712EB020E43EB030218BF4FF0010EDB
:1059B0004EEA4202ACF1200CDCF11E0E54D943FA3F
:1059C0000CFE10EB0E0051F1FF31CCF11E0ED5D5BF
:1059D0000EF1010E12FA0EFE404141EB010101EB06
:1059E000445C5FEA5C5C10D910EBDE7001EB0451A3
:1059F00038BFBEF1004FBDE8104018BF7047002807
:105A00000CBF491C20F00100704730D24FEAD42C63
:105A100011F5001124F400641BD0B1FA81F20B3AA5
:105A2000A41AA41ED2F12003914030FA03F31943C3
:105A3000904001EBCC71002C01EB0451BDE810400B
:105A4000A8BF704701F1C0414FF0000001F00041D4
:105A50007047B0FA80F310FA03F100D110BDE41AD8
:105A6000173C4805C90AE4E701EB045110BD491091
:105A700001EB0451BDE810404FEA300002E04FF066
:105A8000000170474A0008BF0042F8D0B2F5001F7D
:105A900028BF704701F000414FF0000070479EEAB8
:105AA000445F07D011EA5E0FBDE8104004BF00213B
:105AB00000207047BDE8104070B5FFF7A3FD00BFA0
:105AC00040DFF63E83F00041104670470000E0FFE3
:105AD00043004FEAD30C4FEA3C0C43401FBF400742
