:020000040000FA
:100000005C1F2020D5000000D9000000DB000000AC
:1000100000000000000000000000000000000000E0
:10002000000000000000000000000000DD000000F3
:100030000000000000000000DF000000713600003A
:10004000E3000000EB2000002D370000453B0000DE
:10005000410A0000E3000000E3000000E3000000AC
:1000600000000000E3000000E300000000000000CA
:1000700000000000353A0000E93A0000153A00009F
:100080008136000005370000E3000000E3000000B7
:10009000E3000000DD36000000000000000000006A
:1000A000E3000000C9220000000000000000000082
:1000B000E300000000000000E3000000E300000097
:1000C0000348854600F07CFC004800476D46000070
:1000D0005C1F202003480047FEE7FEE7FEE7FEE73F
:1000E000FEE7FEE7C100000003460B439B0703D079
:1000F00009E008C9121F08C0042AFAD203E00B78ED
:100100000370401C491C521EF9D27047D2B201E064
:100110000270401C491EFBD270470022F6E710B562
:1001200013460A4604461946FFF7F0FF204610BD65
:10013000421C0178401C0029FBD1801A7047F8B599
:1001400002464A40D40F42004B0052085B089A42D4
:1001500002D20246084611464A0023D0C30D4A0087
:10016000DDB2120EAD1A202D35DA49020126490AF8
:10017000F6058A19002C00D0524220214F1B11464F
:10018000B9402A411018C20D9A4221D0002C17D034
:10019000012D08DCDA05801AD20F8019D207DBB2F4
:1001A00000F03FFBF8BDDA05801A012340001B0672
:1001B000C01880185A428018CA0F1043490007E03F
:1001C0004908C2071143DA05801A801940088018CF
:1001D00000F01FFBF8BD61000122511A001BF7E778
:1001E0000122D2075140AAE70122D2075040A6E7D8
:1001F000024670B54A40D30FDB0740002DD04A00BD
:100200002AD0010E140E000212020919400A520AE5
:100210008418E50104465443000A120A2E04504390
:10022000A4194219200CC543AA18120C0125AD03CC
:10023000521C521912047F39240400D0521C10435E
:1002400001D44000491EC2B20C06C0092018401C4F
:100250004008802A02D003E0002070BD4008400022
:10026000002900DA0020184370BD70B502464A40EC
:10027000D50F40004A00ED0740085208002814D06E
:10028000002A12D0C40DD30D41020120C005520234
:10029000490A520AE41A091812187D34914201D30E
:1002A000641C00E04900002C01DA002070BD00232E
:1002B000914201D3891A0343400849000028F7D12D
:1002C00000290AD0914202D10121C90705E09142DB
:1002D00001D2012101E00121C943E005C018401904
:1002E00000F097FA70BD0000F0B507460846584088
:1002F00087B0C00F049048000E46590040084908D6
:10030000BC1A884105D2384631461E4617460B4670
:1003100002465800400810434CD0300D0390400571
:100320005900400D490D0590401A0290402872DA9C
:1003300018030121000B090508430190049800925D
:10034000002805D001995242002088410092019076
:10035000029840210A1A0199009800F037FA0546E0
:100360000C466B4607CB00F041FAC0197141039A65
:100370000E0D0023D71756401A467A40164344D034
:10038000049A002A2DD0029A012A039A15DC12053C
:10039000C01A914101263605001C7141D20F059EFD
:1003A000D2070093019202962A46234600F07FFA74
:1003B00007B0F0BD38463146FAE71605224A0F4627
:1003C000B218C01AB74101210905001C4F4100189D
:1003D0007F41114618187941E20F10436D196441AD
:1003E00013E0E2076D0815436408C2071443039A3B
:1003F00001261205C01A91413605001C7141CE0735
:10040000400830434908C01851412A46234600F0AD
:1004100041FACDE7FFE7049801224000C117121A04
:1004200000238B4104983146C417381AA141EEE7E6
:1004300030B40124E407634030BC55E730B40124F4
:10044000E407614030BC4FE70000E0FFF0B51FB4A7
:1004500088B00B990998002448400999C00F4900B9
:1004600049080991C0070B990090490049080B9170
:1004700009990898A64608431CD00B990A98084386
:1004800018D0099801244000420D4800410D0998F8
:1004900024050003000B204309900B980003000B78
:1004A00020430B9050181C4940180022019014461C
:1004B000104605E0002001460DB0F0BD032801DA2A
:1004C000034600E003239C46C11A0AAE0AE05F001F
:1004D00008ADED5B4F00F75B7D430027AA187C4118
:1004E000491C5B1E6145F2DD410004AB5A522104F8
:1004F000120C0A43240C401C0828DFDB01980290F0
:100500000099704601910090059B049A07990698FE
:1005100000F0CDF9D0E700000DFCFFFFF0B50C4670
:100520005C4085B0E40FE40703944C0000266408A7
:1005300059009446490802460296224321D0624659
:100540000A431ED06200570D4A000E032303550DC7
:10055000012402462C492405781B1B0B360B40183E
:1005600023432643614600901C46501AB44103D3EE
:100570000098401C009002E0921800985B4100280F
:1005800003DA0020014605B0F0BD00200121090575
:100590000746864611E064461D46141BB54106D346
:1005A0006546521BB341744607430C43A646CD072C
:1005B00040084908284392185B4105460D43EAD19B
:1005C0001046184313D06046194650407140084306
:1005D00006D06046101AB34106D20122002306E07D
:1005E00000220123DB0702E00122D24353100098CE
:1005F00074460105381C6141029C039D0019694144
:1006000000F048F9BFE70000FD0300000122D20717
:10061000002800DB101A002900DB511A814201D8A2
:1006200001207047002070470122D207002800DB1C
:10063000101A002900DB511A814201D201207047B3
:10064000002070470122D207002800DB101A002981
:1006500000DB511A814201D301207047002070470E
:10066000C217C10F504010B54018CA079623002189
:1006700000F0D7F810BD10B500229623114600F007
:10068000D0F810BDC20F410040020123400ADB0533
:10069000D207090EC0187F2901DA00207047962979
:1006A00003DC9623591AC84001E096398840002A95
:1006B000F4D040427047C20FD207400040080BD030
:1006C000C10D0723DB01C91840020905400A114387
:1006D000C20840071143704700200146704770B5BB
:1006E0000446002903D000202022012310E0002826
:1006F00001D00020C043C046C0460DE02546D5408D
:100700008D4205D30D469540641B1D46954040190A
:100710001546521E002DF1DC214670BD70B5002536
:1007200004462E46002911D0002C01DA012544424E
:10073000002901DA012649422046FFF7D0FFB542E1
:1007400000D04042002D00D0494270BD002C02DA9A
:100750000121C90702E0002C00DD03490846C0461C
:10076000C046214670BD0000FFFFFF7FF0B51FB4FB
:100770000646002082B005464024019100901BE00F
:10078000019922460F46304600F02CF9049A059B49
:10079000801A994110D310461946224600F016F8E7
:1007A000361A8F410197224601200021009F00F058
:1007B0000DF838184D4100902046641E0028DFDCFB
:1007C000019B00982946324607B0F0BD10B5202A9B
:1007D00004DB0146203A9140002010BD91402023C7
:1007E0009C1A0346E3401943904010BD10B5202ADF
:1007F00006DBCB170846203A1041C1170B4306E031
:100800000B461341D0402024A21A914008431946B8
:1008100010BD002904DA401C490001D14008400005
:10082000704770B40024050C05D11024000402D1D7
:10083000002921D01124050E01D100020834050F32
:1008400001D10001241D850F01D18000A41C0028C6
:1008500001DB4000641C002908D020252E1B0D461A
:10086000F540A14000D001212943084301061B1B8C
:10087000000ADB1D02D5002070BC7047DB0518188C
:1008800080180029F8DA401C4900F5D170BC4008F6
:100890004000704710B5002B08DA0024401C61416D
:1008A00092185B411A4301D14008400010BDF0B5D9
:1008B0001FB482B005460C0003D0084605F07AF953
:1008C00002E005F077F920300246009021462846E4
:1008D000FFF77CFF049B059A04460F46184311431B
:1008E000084314D0184610431BD0009840210A1A20
:1008F0001846059900F076F805460E46009A0599C7
:100900000498FFF763FF084305D0012004E0204668
:10091000394607B0F0BD0020C11705430E432C43F4
:10092000374300990E986305401A7905E40A0022BE
:100930000C43FD0A0A3002D500200146E9E7010513
:10094000101969410C9C0D9D00196941FFF7A2FF28
:10095000DFE700004A0009030123090B1B051943C7
:100960000A4B10B5520D9A4202DA0020014610BD22
:10097000064B34339A4203DC9A1A00F033F810BD68
:10098000034BD218FFF722FF10BD0000FF03000049
:10099000CDFBFFFF10B5002904DB0124E407404232
:1009A0008C412146002B04DB1C460123DB0752420D
:1009B000A341994200D1904210BD00000000000008
:1009C000064C0125064E05E0E36807CC2B430C3CA2
:1009D00098471034B442F7D3FFF776FB2C6C000035
:1009E0004C6C000010B5202A04DB0846203AD040A9
:1009F000002110BD0B46D340D0402024A21A9140C4
:100A00000843194610BD30B58C180278401C1307F6
:100A10001B0F01D10378401C120906D10278401C3B
:100A200003E005780D70401C491C5B1EF9D101E004
:100A30000B70491C521EFBD1A142E6D3002030BDF1
:100A400080B50120800700F0C7F80A2804D1FFE72D
:100A500002490120087000E0FFE780BD7A062020EF
:100A600010B51D491D484860012082048A60487005
:100A700088701B4A4A6243058B622123C854222393
:100A8000C8544A6403038B644123C8544223C854A6
:100A90004A6603028B666123C8546223C8548423C8
:100AA000CA50430288240B518123C8548223C8545E
:100AB000A423CA508302A8240B51A123C854A22303
:100AC000C854C423CA50C202C823CA50C122885481
:100AD000C222885410BDC0465003202000000A40A6
:100AE00000200A4084B0009101460098039102A9B9
:100AF0000870019203980A78825C0B480270039B8D
:100B00000A78D21852784270039B0A78D2189278E9
:100B10008270039A09788918C978C17000680199B0
:100B2000086004B07047C0461C03202082B00190CA
:100B30000091009B0199F44A88581843885002B0EC
:100B40007047C04610B585B00092024600980B9CD5
:100B50000A9C099C089C079C049203AA11700290AD
:100B6000019302980199084307990843089908439B
:100B7000099908430A9908430B9908430499127884
:100B8000920089182322D201885005B010BD81B08F
:100B900000900099112002028858012318438850C0
:100BA00001B0704782B001900091009B0199034A07
:100BB00088581843885002B07047C046281000007B
:100BC00081B0009000990120C2020248885001B013
:100BD0007047C0460100002681B000900098812136
:100BE00049014058C0B201B07047000081B0009088
:100BF0000099024A0248885001B07047040800007A
:100C0000030000B180B582B00190009101980D49B8
:100C1000401800990978A922120689180A4A00F09A
:100C200051F80198112109024018009949680722DA
:100C3000120600F047F8009840780199A54A8850BC
:100C400002B080BD08080000030000FF82B00190E0
:100C50006846018000880199014A885002B07047B7
:100C60001411000080B582B00190009101980449F0
:100C7000401800991F22120400F0B0F802B080BDA5
:100C80000811000083B0029001910092029801992E
:100C90000843009908430549086003B07047C046FF
:100CA00002480068072108407047C04600134040D2
:100CB00082B001900199881E001F00BFFCD20090F5
:100CC00002B0704784B003900291019203980068CB
:100CD0000090009801998843009000980299019A29
:100CE000114008430399086004B0704784B0039032
:100CF000029101920398006800900098019988433E
:100D0000009000980299019A1140084303990860E5
:100D100004B0704784B00390029101920398006878
:100D20000090009801998843009000980299019AD8
:100D3000114008430399086004B0704784B00390E1
:100D400002910192039800680090009801998843ED
:100D5000009000980299019A114008430399086095
:100D600004B0704784B00390029101920398006828
:100D70000090009801998843009000980299019A88
:100D8000114008430399086004B0704784B0039091
:100D9000029101920398006800900098019988439D
:100DA000009000980299019A114008430399086045
:100DB00004B0704784B003900291019203980068D8
:100DC0000090009801998843009000980299019A38
:100DD000114008430399086004B0704784B0039041
:100DE000029101920398006800900098019988434D
:100DF000009000980299019A1140084303990860F5
:100E000004B0704770B587B0009314460D46009942
:100E100002460E980D980C980B9B069205AA157029
:100E20000494039102A90B8001AB18800498039CE1
:100E300020430E9C240120430D9C20431B881B0152
:100E40001843098808430699127812018918092263
:100E50005202885007B070BDF0B589B004910146C8
:100E60000498089107A905910870069208980978D6
:100E7000069F7A68BB68BC89FD893E697F690397D4
:100E8000029601950094FFF7BDFF0599089809782F
:100E9000069B1A785B7800F003F809B0F0BD0000FB
:100EA00010B586B0019303460198059304AB197001
:100EB00003A90A7002AA107005981B789B00C0183D
:100EC000044BC018097812781143BF22FFF70EFFB8
:100ED00006B010BD1011000082B001900091009B7F
:100EE0000199094A88581843885002B07047C04693
:100EF00082B001900091009B0199034A88581843E1
:100F0000885002B07047C0464810000082B001907F
:100F100000910098019995225201885002B07047C3
:100F200082B0019000910098019995225201885059
:100F300002B0704782B0019000910098019995220B
:100F40005201885002B0704782B001900091009821
:100F5000019995225201885002B0704782B00190E9
:100F600000910098019995225201885002B0704773
:100F700081B00090009881005A4A885801235B068E
:100F80001843885001B0704782B001900091009BD7
:100F900001998C4A88581843885002B07047C0465F
:100FA00082B00190009100980199024A885002B0E5
:100FB0007047C046D012000081B000900099012017
:100FC000C2029748885001B07047C04682B0019075
:100FD00000910198024940580099084002B07047BA
:100FE0003810000081B00090009881003D4A0D4803
:100FF000885001B07047C04610B584B0069C03907D
:1010000002910192009302980199084300990843C4
:10101000069908430349084303998900314A8850D7
:1010200004B010BD8100040081B0009000988100E0
:101030002C4A8120885001B07047C04610B584B05A
:10104000069C039002910192009302980199084333
:1010500000990843069908438121084303998900B0
:10106000204A885004B010BD81B0009000988100E3
:101070001C4A0020885001B07047C04682B00190E1
:10108000009100981049084301998900154A885039
:1010900002B0704710B584B0079C069C0390029183
:1010A0000192009302980199084300990843069918
:1010B0000843079908430449084303998900094AEA
:1010C000885004B010BDC0468000040082B001907A
:1010D000009100988021084301998900014A8850B5
:1010E00002B070470480424082B0019000910198A4
:1010F0002721C90140580099084002B0704782B0CA
:101100000190009101982721C90140580099084099
:1011100002B0704781B000900099DF4ADF488850E4
:1011200001B0704782B001900091009B0199034A81
:1011300088581843885002B07047C046901300008A
:1011400082B00190009100980199114A885002B034
:101150007047C04682B001900091009801990C4AF6
:10116000885002B07047C04682B00190009100984C
:101170000199074A885002B07047C04682B001907A
:10118000009100980199024A885002B07047C04609
:101190009012000082B00190009100980199024ADB
:1011A000885002B07047C046B012000082B0019073
:1011B0000091009B0199034A88589843885002B0D7
:1011C0007047C0462810000081B0009000990920A7
:1011D0004202885801231B021843885001B070470F
:1011E00081B000900099084A88580123184388501C
:1011F00001B0704781B000900099034A88580423D9
:101200001843885001B070472812000081B0009048
:1012100000990120C2027E48885001B07047C04644
:101220000100002680B584B00390029101A80280DD
:10123000694600200880FFE76846008801A9098800
:10124000884215DAFFE7039800F02CF8002808D14F
:10125000FFE7039802996A461288895C00F0AAF8B1
:1012600000E005E0FFE70098401C69460880E3E7DE
:101270006846008804B080BD81B00090009881214C
:1012800049014058C0B201B07047000081B00090E1
:1012900000980A4940580F2108404142484101B096
:1012A0007047C04681B000900098044940580F2113
:1012B000090208404142484101B070473C12000019
:1012C00081B00090009802494058C0B201B0704708
:1012D0001C12000081B0009000996F4A6F4888503E
:1012E00001B0704781B000900099024A00208850F8
:1012F00001B070471412000080B584B0019101461E
:101300000198039102A908800398092252028018CB
:10131000098803225202FFF761FD04B080BD00007E
:1013200080B582B00190009101986E4940180099F3
:1013300009780C22FFF7EEFC0198012109034018FF
:10134000009949780722FFF7E5FC02B080BDC0464E
:1013500080B584B0019101460198039102A90880EB
:1013600003980D4A8018098807221202FFF736FDFC
:1013700004B080BD80B584B001910146019803910D
:1013800002A908700398044A801809780722FFF719
:1013900025FD04B080BDC0463812000082B0019027
:1013A0006846017000780199014A885002B0704780
:1013B0002412000082B00190684601700078019903
:1013C00091225201885002B07047000081B001465E
:1013D000684601700178302048430249405801B006
:1013E0007047C0460011404081B0009000991A4AF1
:1013F000885801231843885001B0704781B000908D
:1014000000990120C2020248885001B07047C046CE
:101410000100002680B582B0019000910198112151
:1014200009024018009A118953881943927911438F
:10143000084AFFF783FC019807494018009A9188F1
:10144000D3791943127811435D229200FFF776FC9D
:1014500002B080BD7F3300000411000081B0009015
:1014600000980349405810210840000901B0704716
:101470001011000081B00090009802494058C0B29D
:1014800001B070473011000081B000900099024A0D
:101490000248885001B0704704080000030000B102
:1014A00080B582B0019000910198044940180099DC
:1014B000034AFFF793FC02B080BDC046081100004C
:1014C000FF03000082B0019000910098007801991C
:1014D000044A8850009840780199012212038850EC
:1014E00002B070470410000080B584B000920A4634
:1014F00001460098039102A90A7001AA107003988E
:10150000044BC0180978127811433F22FFF766FC9C
:1015100004B080BD0C11000082B0019068460170DB
:101520000078019945229201885002B0704700006E
:1015300080B586B0059000F083F8FFE700F0A8F8CA
:10154000012189030840884201D0FFE7F6E70598AA
:10155000417E2B48029001220392FFF72BFC059855
:101560002021415C274801900322FFF723FCFFF76D
:1015700097FB01460398049100210422FFF782FBA8
:1015800001980599496A09681F4A11600599496AD5
:1015900049681E4A116004991D4A11600599C9697C
:1015A0004906490C7F221202FFF704FC0298059AB3
:1015B00011680907090B53681B039BB2C91893688C
:1015C0001B071B0DC918D3681943136919435369C5
:1015D0001943127E11430F4AFFF7ECFB039A5D4952
:1015E0000868120210430860FFE700F051F801217B
:1015F00049020840884201D0FFE7F6E706B080BD07
:1016000020010B4024010B4028010B402C010B4012
:101610000013404072FF0F005B4908680122120767
:10162000904308607047C0464A49086801229043C9
:101630000860704747490868012290430860704776
:101640004449086801221202904308607047C0466E
:101650004049086801221202904308607047C04662
:101660004949086801221207104308607047C046C4
:101670007349086801221203104308607047C0468E
:101680000249086810221043086070473C010B4073
:10169000034800687047C046014800687047C0466C
:1016A00004020B4081B0014668460170007802498F
:1016B000086001B07047C04608030B4080B582B097
:1016C000014601A8018001880F2002025C48FFF753
:1016D00085FB02B080BDC04680B582B0014601A83E
:1016E0000170007801030F2002033548FFF776FBF5
:1016F00002B080BD80B586B005AB0193188004911F
:1017000003A802900270FFF78FFF0198008800F095
:1017100023F8049800F02EF802980E4A116801236D
:10172000194311600078C00700280DD0FFE7FFF7CC
:1017300097FFFFE7FFF7ACFF01210902084088424D
:1017400001D0FFE7F6E702E0FFF766FFFFE706B02C
:1017500080BDC04608010B4080B582B0014601A89B
:1017600001800188032002030748FFF723FB02B032
:1017700080BDC04680B582B0019001990248FF2229
:10178000FFF718FB02B080BD10010B4081B001468D
:101790006846017000780249086001B07047C04691
:1017A0000C010B4080B582B0014601A80180018880
:1017B000012042020248FFF711FB02B080BDC04683
:1017C00038010B4080B582B0014601A80170017854
:1017D00002480322FFF702FB02B080BD00010B406C
:1017E00080B582B0014601A801700178144830220A
:1017F000FFF7F4FA02B080BD80B582B0014601A8BF
:1018000001700078FFF7C2FFFFE7FFF741FF0121FA
:1018100049050840884201D0FFE7F6E70849086813
:101820000122120410430860FFE7FFF731FF102187
:101830000840102801D0FFE7F7E702B080BDC0469E
:1018400004010B4080B584B00390029101A802808E
:10185000FFE701AA1088411E1180002809D0FFE788
:1018600003980299097800F0E8FB0298401C029066
:10187000EFE704B080BD80B58CB00B900A910A9858
:101880004079C00700285CD0FFE70A9800790790EC
:10189000002804D0FFE7079820280CD018E00B9808
:1018A00088210691022200F0B7F906990B980322CD
:1018B00000F0B2F919E00B982121090105910222EB
:1018C00000F0AAF905990B98032200F0A5F90CE0A5
:1018D0000B980521C9010491022200F09DF9049999
:1018E0000B98032200F098F9FFE70B980022029270
:1018F00002230193114600F0A9F9029A0B980323E1
:101900000393114600F0A2F90199029B0B980091F4
:1019100019461A4600F0D2F9029B03990B980091E0
:1019200019461A4600F0CAF9019B029A0B98114613
:1019300000F0AAF9029A039B0B98114600F0A4F953
:10194000FFE70A98006808900A98007908A90871CA
:101950000A98807948710B9800F030F80CB080BD7F
:1019600081B000900099024A0120885001B0704770
:101970000811000082B001900091009B0199034A78
:1019800088581843885002B07047C046281000009D
:1019900081B0009000990120C2020248885001B035
:1019A0007047C0460100002681B000900098812158
:1019B00049014058C0B201B07047000080B58AB0FC
:1019C00009900891089800790790002804D0FFE753
:1019D0000798202812D029E0099808990968491E1B
:1019E00000F0E2F9099888210691002200F014F92C
:1019F00006990998012200F00FF92AE00998089940
:101A00000968491E00F0D0F909982D490491002277
:101A100000F002F9049909980122059200F0FCF8FF
:101A200005990998490700F0B1F912E00998089959
:101A30000968490800F0B8F909980521C90103911E
:101A4000002200F0E9F803990998012200F0E4F877
:101A5000FFE709980023019319461A4600F0F6F8AB
:101A6000019A099801230293114600F0EFF8019BB7
:101A70000998009319461A4600F020F9019B029933
:101A80000998009119461A4600F018F9019B099827
:101A900019461A4600F0F8F8019A029B0998114677
:101AA00000F0F2F80998CB494018089A1179527958
:101AB000114302221143034AFFF754F90AB080BDD3
:101AC00001040000BFFF003080B584B00390029194
:101AD00003980299496800F067F90298007801902C
:101AE000222856D80198810001A040588746C04658
:101AF000891B0000931B0000891B0000931B000042
:101B0000931B0000931B0000931B0000931B00001D
:101B1000931B0000931B0000931B0000931B00000D
:101B2000931B0000931B0000931B0000931B0000FD
:101B30007D1B0000931B00007D1B0000931B000019
:101B4000931B0000931B0000931B0000931B0000DD
:101B5000931B0000931B0000931B0000931B0000CD
:101B6000931B0000931B0000931B0000931B0000BD
:101B70007D1B0000931B00007D1B000003980121CA
:101B8000490700F003F905E00398002100F0FEF892
:101B900000E0FFE703980299098A0022009200F012
:101BA000ADF8009B03980299C9681A4600F04EF8F8
:101BB00002990878097A08430399864A885004B044
:101BC00080BDC04681B000900099DD4ADD48885054
:101BD00001B0704782B001900091009801991122E4
:101BE0001202885002B0704780B584B00390029111
:101BF00001A802700399224A89180091017800987F
:101C00008900401800900098029907229204FFF77B
:101C1000A9F804B080BDC04680B584B0039002919D
:101C200001A802700399074A891800910178009869
:101C300089004018009000980299034AFFF792F833
:101C400004B080BD70180000DBB6C1FF10B586B0CF
:101C500005900491039202A803700599084A891817
:101C60000191017801988900401801900198049928
:101C7000039A1143034AFFF775F806B010BDC0463A
:101C8000301800007777020010B586B005900491F7
:101C9000039202A8037005993122D201891801919B
:101CA0000178019889004018019001980499039ADD
:101CB00011438F22FFF756F806B010BD10B587B05C
:101CC00000910446009809990694059004920393A4
:101CD00002A801700699084A8918019101780198B3
:101CE0008900401801900598049908430399084316
:101CF0000199086007B010BD5018000084B003902F
:101D0000029101A802700399064A8918009101788E
:101D1000009889004018009002980099086004B06B
:101D20007047C0461018000082B0019000910098E2
:101D3000007801999F4A88500098407801990122C3
:101D400012038850009880780199B54A885002B0F3
:101D50007047C04610B586B001930B460146019806
:101D6000059104A90B8003AB1A8002AA1080059884
:101D7000184C001909881B88194312881143024A1C
:101D8000FFF72CF806B010BD80FF000080B582B0D0
:101D90000190009101980F49401800990322120701
:101DA000FEF7E0FF02B080BD82B001900091009884
:101DB0000199024A885002B07047C04608180000D6
:101DC00081B000900099034A885801231843885035
:101DD00001B070470418000082B001900091009893
:101DE0000199024A885002B07047C046481000006E
:101DF00081B0009000991120020288580123984375
:101E0000885001B0704781B0009000991120020203
:101E1000885801231843885001B0704781B0009062
:101E200000990120C002024A885001B07047C046A4
:101E30008810000081B0009000991120020288589B
:101E400001235B041843885001B0704782B00190B1
:101E50000091009B0199034A88581843885002B0AA
:101E60007047C0462810000081B000900099012002
:101E7000C2020248885001B07047C04601000026E7
:101E800082B00190009101980249405800990840A1
:101E900002B070473810000081B000900098812196
:101EA00049014058C0B201B07047000080B582B00F
:101EB000019000910198FFF79BFF01981121090201
:101EC0004018009A11889378194392881143084A60
:101ED000FEF75CFF01982E494018009A9179D3795A
:101EE0001943127A11437E22FEF750FF02B080BDE3
:101EF0001867020081B00090009803494058C0B2B2
:101F0000C00901B07047C0460811000081B00090C0
:101F1000009806494058C0B201B0704781B00090A7
:101F2000009802494058C0B201B070472411000027
:101F300081B000900099024A0248885001B0704771
:101F400004080000030000B180B584B00390029142
:101F5000019203980B49401802990B4AFEF73EFF85
:101F600003980A49401801993F22FEF737FF039969
:101F7000074A8818895801221140FEF72FFF04B044
:101F800080BDC04610110000FFFF000014110000CA
:101F90000411000082B0019000910098007801992E
:101FA000044A885000984078019901221203885011
:101FB00002B070470810000080B582B00190009117
:101FC000019811210902401800990322D203FEF75B
:101FD00005FF02B080BD000080B584B001910146CC
:101FE0000198039102A9087003980D4A8018097896
:101FF0007022FEF7F3FE04B080BDC04680B584B009
:10200000019101460198039102A908700398044ABE
:10201000801809780722FEF7E1FE04B080BDC046B3
:102020000C11000082B0019068460170007801999F
:1020300089225201885002B0704780B582B0019069
:1020400068460170FFE70198FFF754FF002801D0B0
:10205000FFE7F8E7019869460978FFF7E3FF02B068
:1020600080BD80B582B00190019802F0A8F902B05D
:1020700080BD000080B584B00020039001A90870E5
:10208000FFE701A80078072825DCFFE701A8017811
:102090000020009000F0ECFA009802A90870FFE719
:1020A00002A800787F2810DCFFE70399481C039002
:1020B0000C48405C00F032FB0120FFF7D2FFFFE745
:1020C0000298401C02A90870EAE7FFE70198401C4B
:1020D00001A90870D5E7C820FFF7C3FF00F08AF90F
:1020E00004B080BDEE660000704780B500F092FB42
:1020F00080BD000080B590B00FA9002008700EA927
:1021000008700DA908700CA908700B900AA9087036
:10211000FFE70AA80078C7281EDCFFE70AA80178B5
:102120006648405C3D2805D1FFE70A98401C0FA98E
:102130000870FFE70AA801786048405C212805D1B3
:10214000FFE70A98401E0EA9087005E0FFE70A980D
:10215000401C0AA90870DCE70FA801785748405CCA
:102160002D2808D1FFE70F98401C0FA908700CA973
:1021700001200870FFE70E980F99401A411C0DA826
:1021800001700078042825D1FFE70FA801784B489B
:1021900042180892405C3038FEF762FA014608980F
:1021A000079180783038FEF75BFA4549FEF720F852
:1021B0000799FDF7C4FF014608980991C0783038A7
:1021C000FEF74EFA3F49FEF713F80999FDF7B7FFFE
:1021D0000B9064E00DA8007805282AD1FFE70FA82E
:1021E00002783649881805908A5C303A0A215143B2
:1021F000407840183038FEF733FA014605980491CC
:10220000C0783038FEF72CFA2D49FDF7F1FF04991C
:10221000FDF795FF01460598069100793038FEF7E5
:102220001FFA2849FDF7E4FF0699FDF788FF0B9098
:1022300034E00DA8007806282FD1FFE70FA8027818
:102240001E49881802908A5C303A642151434378D1
:10225000303B0A225A438918807840183038FEF7FC
:10226000FFF901460298019100793038FEF7F8F93C
:102270001349FDF7BDFF0199FDF761FF0146029883
:10228000039140793038FEF7EBF90E49FDF7B0FFC6
:102290000399FDF754FF0B90FFE7FFE7FFE70CA85A
:1022A0000078012806D1FFE70B980121C9074840B3
:1022B0000B90FFE70B9810B080BDC0464C02202069
:1022C000CDCCCC3D0AD7233C80B582B04148FEF747
:1022D000D3FF401E01900C2878D80198810001A0FE
:1022E00040588746192300002123000031230000B5
:1022F00073230000CB230000CB230000CD2300007C
:10230000AD230000CB230000CB230000AD23000051
:10231000CB230000CB2300002F490620087056E095
:102320002C480821FEF742FF2B49032008704EE09D
:10233000294905200870FFE72648FEF7A7FF002877
:1023400016D1FFE7284800682849096888420AD260
:10235000FFE72048FEF7B4FF234B1A68511C1960B1
:102360002349885403E01B48FEF7AAFFFFE7E3E791
:102370002DE01949022008701848006818490968BA
:10238000884212D2FFE7154800900268154881186C
:1023900013480068801A82B20E48FEF743FF009986
:1023A0000246086880180860FFE710E00A480078D5
:1023B000042805D0FFE708480078012804D1FFE78A
:1023C000054907200870FFE7FFE7FFE7FFE702B0D6
:1023D00080BDC04600200F407B06202094092020AD
:1023E000980920209C0920206C08202070082020BB
:1023F0007408202080B582B001A900200870FFE792
:1024000001A80078072823DCFFE70198B030C0B2AC
:1024100000F04AF9012000F047F9102000F044F9DB
:10242000694600200870FFE7684600787F2809DCCD
:10243000FFE7002000F072F9FFE70098401C6946B2
:102440000870F1E7FFE70198401C01A90870D7E781
:1024500002B080BD80B586B0034605A8037004AB0A
:10246000197003A90A700399203901AA1170007824
:102470007F2808DBFFE705A9002008700498401CAE
:1024800004A90870FFE705A8007804A9097800F0FE
:10249000EFF802A900200870FFE702A800780528DD
:1024A00011DCFFE701A800780621414332484018BB
:1024B00002A90978405C00F031F9FFE70298401C5E
:1024C00002A90870E9E706B080BDC04680B586B0B5
:1024D00005AB187004A80170039202A900200870CF
:1024E00001A9087069460870FFE7039869460978F2
:1024F000405C00283DD0FFE7039869460978405CBE
:10250000203802A9087005A800787F2808DBFFE7BB
:1025100005A9002008700498401C04A90870FFE772
:1025200005A8007804A9097800F0A2F801A9002004
:102530000870FFE701A80078052811DCFFE702A872
:102540000078062141430C48401801A90978405CF5
:1025500000F0E4F8FFE70198401C01A90870E9E7E2
:102560000598801D05A908700098401C69460870F0
:10257000BBE706B080BDC046C664000080B58AB027
:10258000024609A8028008AA11800021405E0128A5
:1025900005DBFFE7002109A8405E039002E0002070
:1025A0000390FFE7039807A90880002109A8405E6F
:1025B000002806D5FFE7002109A8405E40420290AE
:1025C00002E000200290FFE7029806A9088000219F
:1025D00008A8405E012805DBFFE7002108A8405E4F
:1025E000019002E000200190FFE7019805A9088012
:1025F000002108A8405E002806D5FFE7002108A8B2
:10260000405E4042009002E000200090FFE7009909
:1026100004A80180008805A9098807AA128806ABCA
:102620001B8800F0C5F80AB080BD000080B584B0FA
:102630000120019001050D480290FEF77BFC0199F5
:10264000029809040391FEF775FC642001F0B7FEBF
:1026500002980399FEF788FD022002F0D1F9FFF7F6
:1026600009FDFFF7C7FE04B080BDC04600200A4048
:1026700080B584B003AA0192107002A8017002987C
:10268000B030C0B200F010F80198007800091030A6
:1026900000F00AF80398012108430F21084000F0D8
:1026A00003F804B080BD000082B001A9087069463B
:1026B0000020087001225204354B1A600870FFE7B1
:1026C00068460078072822DCFFE7012040042F49F4
:1026D000086001A800780006002805D5FFE7012062
:1026E000C0032949086004E00120C00328490860AC
:1026F000FFE701204004274908600198400001A934
:102700000870FFE70098401C69460870D8E7012070
:1027100040041D49086002B07047C04682B001A95C
:10272000087069460020087001225204164B1A6096
:102730000870FFE768460078072822DCFFE70120E1
:1027400040041249086001A800780006002805D559
:10275000FFE70120C0030C49086004E00120C0032A
:102760000B490860FFE7012040040A49086001980E
:10277000400001A90870FFE70098401C69460870F6
:10278000D8E702B07047C04690320A40A0120A4013
:10279000A0320A4090120A4080B582B00120019018
:1027A00001F010FB019801F04BFB02B080BD00006E
:1027B00010B588B007AC208006A8018005A802806B
:1027C00004A80380002203920292079902A80090B5
:1027D000018006994180059981800499C180018812
:1027E0000B480190FFF78AFA009901984988012265
:1027F000FFF784FA0099019889880222FFF77EFA90
:1028000000990198C9880322FFF778FA08B010BD33
:102810000000864080B50120FEF7D8FD002800D1D9
:102820003CE19F481021FEF7D1FB002849D0FFE78B
:102830009C49012008709A481021FEF755FC002899
:1028400004D0FFE798490120087003E09649002072
:102850000870FFE792484021FEF746FC002804D0AC
:10286000FFE792490120087003E0904900200870BA
:10287000FFE78C4800788C49097840188B49097823
:1028800041188B4801700078002805D0FFE7884880
:102890000078022805D1FFE786490868401C0860D7
:1028A00004E084490868401E0860FFE7814800682A
:1028B000FDF7D6FE8049086079481021FEF718FB25
:1028C000FFE777484021FEF781FB002849D0FFE76A
:1028D00074490020087072481021FEF705FC00289A
:1028E00004D0FFE770490120087003E06E49002022
:1028F0000870FFE771484021FEF7F6FB002804D07E
:10290000FFE76A490120087003E068490020087069
:10291000FFE76448007864490978401863490978FA
:102920004118634801700078002805D0FFE760482F
:102930000078022805D1FFE75E490868401C08605E
:1029400004E05C490868401E0860FFE759480068D9
:10295000FDF786FE5849086051484021FEF7C8FA45
:10296000FFE74F482021FEF731FB002847D0FFE763
:102970005349012008704A482021FEF7B5FB002882
:1029800004D0FFE74F490120087003E04D490020C3
:102990000870FFE742488021FEF7A6FB002804D01C
:1029A000FFE749490120087003E04749002008700B
:1029B000FFE74348007843490978401842490978BD
:1029C0004118424801700078002805D0FFE73F48D1
:1029D0000078022805D1FFE73D490868401E0860DD
:1029E00004E03B490868401C0860FFE7384800687D
:1029F000384908802A482021FEF77AFAFFE728485C
:102A00008021FEF7E3FA002847D0FFE72C49002099
:102A1000087023482021FEF767FB002804D0FFE759
:102A200028490120087003E0264900200870FFE7CC
:102A300022488021FEF758FB002804D0FFE72249F6
:102A40000120087003E0204900200870FFE71C48BF
:102A500000781C49097840181B49097841181B481F
:102A600001700078002805D0FFE71148007802289F
:102A700005D1FFE716490868401E086004E01449C4
:102A80000868401C0860FFE7114800681149088089
:102A900003488021FEF72CFAFFE7FFE780BDC04620
:102AA00000200A40310F2020330F2020350F202036
:102AB000B80E2020380420202003202000000A40E7
:102AC000320F2020340F2020360F2020B90E202076
:102AD000340420202403202080B584B001910246D4
:102AE000019803A90A8002900298098889000122AE
:102AF00001F034F904B080BD10B588B001910446EE
:102B0000019807A902910C800690059204930698FB
:102B1000098889000122039201F020F90299039AA1
:102B2000059809888900091D01F018F90299039A8E
:102B3000049809888900083101F010F908B010BD27
:102B400080B588B016490120059080070790FEF7F0
:102B500059F8059907980904FEF784F8059A07982B
:102B60000023049303930293019300931146FDF70E
:102B7000E9FF07980B49FEF769F80599079849029C
:102B80000691FDF7D3FF06990798FEF70BF804208E
:102B9000032101F07FF90798FDF7F9FF08B080BD28
:102BA000F06A0000409C000080B5034A0348002101
:102BB000FEF752F980BDC046F86A000000A042400E
:102BC00080B5FFF7F1FF80BD80B592B00920FEF718
:102BD0004BFA0A20FEF748FA1E2007210491FEF75F
:102BE00075FA012009908103B6481090FEF7D8F9D4
:102BF000049808210391FEF769FA0399B2480D90F1
:102C0000FEF7CEF90D2005210791FEF75FFA0D982A
:102C10008021FEF7C5F903980799FEF757FA0D983A
:102C200010210B91FEF7BCF907992420FEF74EFA0C
:102C300009990D98C903FEF7B3F90C2004210591F9
:102C4000FEF744FA109802210891FEF7A9F90499B9
:102C50003420FEF73BFA09990D98C905FEF7A0F953
:102C600005990620FEF732FA05990D98FEF798F9B6
:102C70000598089900230C93019300931A46FEF7D8
:102C800009FA08990C9B01930093032006901A46B9
:102C9000FEF700FA0598FEF76BF90698FEF768F95B
:102CA00008991420FEF712FA08991520FEF7E6F9A4
:102CB00008991220FEF70AFA08991320FEF7DEF9A8
:102CC00008992D20FEF702FA08992E20FEF7D6F972
:102CD00008990E20FEF7FAF908990F200F90FEF7D9
:102CE000CDF906992120FEF7F1F906992320FEF788
:102CF000EDF906992220FEF7C1F90C9B00932720DD
:102D000019461A46FEF778F909980C9B009342047D
:102D10000A92302011901946FEF76EF93820FEF71E
:102D200083F93920FEF780F93120FEF77DF926205E
:102D3000FEF77AF907980C9B009319461A46FEF79E
:102D40005BF908980C9B009319461A46FEF754F954
:102D50000998FEF747F90C98FEF744F90C9B00938D
:102D6000362019461A46FEF747F90C9B009335208A
:102D700019461A46FEF740F90C9B00932520194688
:102D80001A46FEF739F93B20FEF74EF91F20FEF7F1
:102D90004BF90A9A0C9B009318201946FEF72CF960
:102DA0000A9A0C9B009319201946FEF725F90A9AF6
:102DB0000C9B00931A201946FEF71EF90A9A0C9BE9
:102DC00000931B201946FEF717F90A9A0C9B0093F3
:102DD0001C201946FEF710F90A9A0C9B0093372025
:102DE0001946FEF72BF90B980C9B009319461A46CF
:102DF000FEF702F90C9B0093112019461A46FEF7C4
:102E0000FBF80C9B0093162019461A46FEF7F4F8BF
:102E10000C9B0093172019461A46FEF7EDF8202068
:102E2000FEF702F92A20FEF7FFF82F20FEF7FCF844
:102E30000C9B0093332019461A46FEF7DDF80C9BD5
:102E40000093322019461A46FEF7D6F80C9B0093E1
:102E50002C2019461A46FEF7CFF80C9B00932B2026
:102E600019461A46FEF7C8F80C9B00931D20194618
:102E70001A46FEF7C1F80B20FEF7D6F80D98134955
:102E80000E91FEF767F90D980E99FEF789F81098E4
:102E90000F49FEF745F810980E49FEF75BF91098B8
:102EA0000D49FEF77DF80F9910980902FEF73AF9DF
:102EB00010981199FEF710F810981199FEF764F820
:102EC00012B080BD00200A4000000A400000020845
:102ED0000100530C008000020180530E80B582B0C7
:102EE000124913480190FEF71BFA01980321490289
:102EF000FEF702FA0198FEF767F90198FEF7F2F97A
:102F000001980921FEF74AFA019800210091FEF785
:102F100031FA00990198FEF71BFA0198FEF76AF959
:102F20000198FEF75DF902B080BDC046106B00004D
:102F300000200F4080B588B0314932480790FEF735
:102F4000F3FE07983049FEF796FC07980023059397
:102F500019461A46FEF7FEFE059B07980093194690
:102F60001A46FEF7ABFE059A07981146FEF73CFE9F
:102F7000059A07981146FEF7C1FE059B07980121A7
:102F80000291009119461A46FEF798FE029A059999
:102F90000798FEF729FE029A05990798FEF7AEFEFC
:102FA000059B079802210391009110220492194673
:102FB000FEF784FE039A05990798FEF715FE039A1B
:102FC00005990798FEF79AFE049A059B0798032136
:102FD000069100911946FEF771FE0599069A079829
:102FE000FEF702FE0599069A0798FEF787FE0798F6
:102FF000FEF7B6FC07980F21FEF7ECFD08B080BD88
:10300000126B000000008640186B000080B584B091
:103010001E491F480390FEF787FE03981D49FEF7DF
:103020002AFC03980023019319461A46FEF792FEE4
:10303000019B0398009319461A46FEF73FFE019A3A
:1030400003981146FEF7D0FD019A03981146FEF74A
:1030500055FE019B039801210291009119461A46E1
:10306000FEF72CFE0199029A0398FEF7BDFD019927
:10307000029A0398FEF742FE0398FEF771FC03984C
:103080000321FEF7A7FD04B080BDC046206B000001
:1030900000208640246B000080B584B01E491F4884
:1030A0000390FEF741FE03981D49FEF787FC039845
:1030B0000023019319461A46FEF74CFE019B039824
:1030C000009319461A46FEF7F9FD019A0398114636
:1030D000FEF78AFD019A03981146FEF70FFE019B49
:1030E000039801210291009119461A46FEF7E6FD68
:1030F0000199029A0398FEF777FD0199029A0398C5
:10310000FEF7FCFD0398FEF72BFC03980321FEF766
:1031100061FD04B080BDC0462C6B000000A086405D
:10312000306B000080B582B00B490C480190FEF76F
:10313000C9F901980A49FEF76DF901980121FEF7D6
:10314000AFF9019810210222FEF7CEF90198FEF79F
:103150004BF902B080BDC046386B0000008046408D
:103160003A6B000080B5FFE7FEF796FA0349084086
:10317000884201D0FFE7F7E780BDC046000320008A
:1031800080B582B000200090FEF78CFA01200190FB
:103190000002FEF793FA0098FEF714FBFEF74AFAD6
:1031A000FEF756FA019A032000031421FEF7A2FA53
:1031B0000C48FEF7BDF91020FEF712FB0920FEF7C0
:1031C0008BFAFEF755FAFEF75BFA01984002FEF71C
:1031D000E9FA0098FEF710FB0199084600F05AFE44
:1031E00002B080BD446B000080B5C82000F018FA22
:1031F00080BD000080B582B00A49EA480190FEF720
:1032000093FD01980849FEF75FFC01980121FEF744
:10321000B1FB1020022100F03DFE0198FEF7A0FB5B
:1032200002B080BD6C6B0000706B000080B582B096
:103230000A49DD480190FEF777FD01980849FEF73D
:1032400043FC01980121FEF795FB1120032100F0BA
:1032500021FE0198FEF784FB02B080BD846B000064
:10326000886B000080B582B00B49D1480190FEF711
:103270005BFD01980949FEF727FC019801210091A7
:10328000FEF778FB0099152000F004FE0198FEF788
:1032900067FB02B080BDC0469C6B0000A06B0000C5
:1032A00080B582B00A49C1480190FEF73DFD019802
:1032B0000849FEF709FC01980121FEF75BFB02209B
:1032C000032100F0E7FD0198FEF74AFB02B080BD44
:1032D000B46B0000B86B000080B582B00E49B648F0
:1032E0000190FEF757FE01980C49FEF7DFFD0198AB
:1032F0000021FEF761FE0198412189001B22FEF7A3
:1033000023FE019803218902FEF7A0FD0198FEF734
:103310007AFD02B080BDC046CC6B0000CE6B0000D1
:1033200080B582B00E49BD480190FEF733FE01988A
:103330000C49FEF7BBFD01980021FEF73DFE019808
:10334000412189001B22FEF7FFFD0198012189021E
:10335000FEF77CFD0198FEF756FD02B080BDC04629
:10336000D86B0000DA6B000080B582B01549934835
:103370000190FEF70FFE01981349FEF797FD0198A3
:103380000021FEF719FE01984121009189001B22BE
:10339000FEF7DAFD009901988902FEF757FD0198C2
:1033A000FEF73CFD0198FEF745FD01987021FEF700
:1033B00013FE01980721FEF721FE0198FEF723FD79
:1033C00002B080BDE46B0000E66B000080B582B007
:1033D0000E497B480190FEF7DDFD01980C49FEF790
:1033E00065FD01980021FEF7E7FD01984121C90024
:1033F0003522FEF7A9FD019803218902FEF726FD7B
:103400000198FEF700FD02B080BDC046F06B0000E1
:10341000F26B000080B500F045F8FFF7D5FBFFF731
:10342000AFFEFFF787FDFFF7F1FDFFF735FEFFF772
:10343000E1FEFFF7FBFEFFF733FFFFF713FFFFF798
:103440004DFDFFF749FFFFF76BFFFFF78DFFFFF71C
:10345000BDFFFFF767FEFFF773FBFFF7B1FBFFF759
:10346000C3FEFFF77FFE0949B822002088540849AF
:1034700088540849742288540749885407492C22E3
:10348000885407492422885480BDC0467C062020E9
:1034900038072020F40720201C0920201C0A2020A7
:1034A000F408202080B590B03A480090FDF732FE35
:1034B00089480190FDF72EFE37480290FEF782FB07
:1034C00036480390FEF77EFB35480490FEF77AFB02
:1034D0007C480590FEF776FB92480690FEF772FB5B
:1034E0009A480790FEF76EFB84480890FEF76AFB47
:1034F00030480990FDF7EEFE2F480A90FEF718FDC0
:1035000046480B90FEF714FD2C480C90FEF710FD7A
:103510002B480D90FEF70CFD2A480E90FDF7B4FFE6
:10352000012080070F90FDF761FB0098FDF744FD37
:103530000198FDF741FD0298FEF72AFA0398FEF77D
:1035400027FA0498FEF724FA0598FEF721FA069860
:10355000FEF71EFA0798FEF71BFA0898FEF718FA0E
:103560000998FDF753FE0A98FEF77EFC0B98FEF7CC
:103570007BFC0C98FEF778FC0D98FEF775FC0E9816
:10358000FDF73CFF0F98FDF71BFB1020FDF790FBAC
:1035900010B080BD00000A40000086400020864038
:1035A00000A086400040084000808640000009409E
:1035B0000000874000200F40008010400020104095
:1035C000000050400080464080B592B002920A460A
:1035D0000299039202460398119210AA10800FA834
:1035E00001800021525E0492405E05901198FDF723
:1035F00062F8049A059B01910090074907A806907C
:1036000002F0C4FA0698FCF793FD069982B20348CB
:10361000FEF718F912B080BD206C000000001040C9
:1036200080B584B002900298401E000E002803D09E
:10363000FFE70120039011E00298401E094908604D
:1036400000200190C043032100F024FC01980649AA
:103650000860064A072111600390FFE7039804B051
:1036600080BDC04614E000E018E000E010E000E09B
:1036700002490868401C08607047C046BC0E202004
:1036800080B51048FEF790F9012819D1FFE70E48E0
:1036900000F01CFF01F078F80C480168491C01603B
:1036A00001680B4848430121C8410A49884206D8AD
:1036B000FFE70120C1060848FDF76CFDFFE700E0C9
:1036C000FFE780BD00400840C00E202044032020BA
:1036D000295C8FC251B81E0500200A4080B50748FA
:1036E000FEF762F9012806D1FFE7054800F0EEFE7B
:1036F00000F07DFE00E0FFE780BDC046000087408F
:10370000E00E202080B50748FEF74EF9012806D1CB
:10371000FFE7054800F0DAFE00F06AFE00E0FFE790
:1037200080BDC04600808640D00E202080B507486E
:10373000FEF73AF9012806D1FFE7054800F0C6FE7A
:1037400000F057FE00E0FFE780BDC04600000940E2
:10375000F00E2020F0B598B0694813900068012160
:10376000149149030840410B00201590062216923F
:103770000029179001D1169817901598149A179947
:10378000604B0F9319706049109109681204114041
:10379000090C052211920029129001D11198129062
:1037A0001598149A13990F9C129B63700B689504DB
:1037B0002B405D426B419B00A3700968D20411400D
:1037C000C90C03220D9200290E9001D10D980E9084
:1037D000159810990F9C149A139B0E9DE5701D6807
:1037E000D60535406E4275416D0025711B68120685
:1037F00013405D426B41637109681140090EC0437B
:1038000000290C9001D015980C901598149A1099D5
:103810000F9C0C9BA371096853061940490ED243B3
:103820000A9200290B9001D10A980B9015981099D3
:103830000F9B0B9ADA710968C90702220792D243DB
:1038400008920029099001D10898099015980D9ABD
:10385000079B10990F9D099C2C7209681940490813
:10386000D24305920029069001D10598069015983B
:10387000149A10990F9C069B6372096812071140F5
:10388000090F04220292D24303920029049001D12D
:10389000039804901598119A10990F9C049BA37299
:1038A0000968C90FD24300920029019001D1009804
:1038B00001900F99169A119B029C0D9D079E149FD3
:1038C0000198C87215980856CF57C0198E5780199D
:1038D0004D5740190C570019CB56C0188A568018FE
:1038E000CA7980180A7A80184A7A80188A7A8018E9
:1038F000C97A41183C480170007818B0F0BDC04644
:1039000080330A40090F202080130A4080B586B01A
:103910000021049134484156344801F0FBF9FCF78A
:10392000B1FE04990246324802900280314A525E4A
:103930000192415E1E20401AFCF792FE0199024658
:103940002D4800F065FFFCF79DFE049902460298A1
:103950002A4B05931A802A4A525E0392405E1E301B
:10396000FCF77EFE03990246DC4800F051FFFCF7AD
:1039700089FE049902460598224B1A80405E22492E
:10398000884205DBFFE71D49E12040010880FFE791
:1039900000211C48405E1C49884205DBFFE71949AD
:1039A000E12040010880FFE700211648405E1749EA
:1039B000884204DCFFE7134915480880FFE700212F
:1039C0000E48405E1149884204DCFFE70B4910486D
:1039D0000880FFE700220948805E0A49895EFEF7F9
:1039E000CDFD06B080BDC0461C0F2020E801202080
:1039F0001E0F20201803202054002020160F202006
:103A0000140320201A0F2020211C0000DFE3FFFFF9
:103A1000E0E3000080B582B00548FEF77FFA01467A
:103A200001A80170007800F079FD02B080BDC046A9
:103A30000080104080B582B00120810200912548AD
:103A4000FEF71EFA0099884241D1FFE72148FEF7B0
:103A50005DFA014620480170204A1178491C117016
:103A6000017812789A4BD218521E117000782128D2
:103A700024D1FFE719480178194802F077F80020AF
:103A80000190FFE701981549097888420BDAFFE7B2
:103A900001998F48425C134802F068F8FFE70198EB
:103AA000401C0190EEE7012000F07CF88848C82116
:103AB000FCF733FB094900200870FFE706490020A6
:103AC0000870012081020348FEF786F9FFE702B083
:103AD00080BDC04600001040340320204103202058
:103AE000156C0000FC6B000080B584B001208102E1
:103AF00002911248FEF7C4F90299884210D1FFE7FB
:103B00000E480190FEF702FA014603A80170007802
:103B100000F026FA019801218902FEF75DF9FFE71E
:103B20000648FEF7B9F9112804D1FFE7044800F070
:103B3000CDFC00E0FFE704B080BDC046002010408F
:103B4000200F202080B582B0012081020091124810
:103B5000FEF796F9009988421BD1FFE70E48FEF761
:103B6000D5F901A908700D480088022804DBFFE799
:103B70000A4900200880FFE70198084B1A88511C69
:103B8000198007498854012081020348FEF724F96F
:103B9000FFE702B080BDC0460000504094052020E1
:103BA0009005202080B584B003A901910870FEF72C
:103BB000A1FA0146019802910078012800D085E021
:103BC00043480078502809D1FFE741484078312820
:103BD00004D1FFE702984249086176E03C4800784A
:103BE000492809D1FFE73A484078312804D1FFE756
:103BF00002983B49486167E035480078442809D17C
:103C0000FFE733484078312804D1FFE70298344970
:103C1000886158E02E480078502809D1FFE72C48E9
:103C20004078322804D1FFE702982C49086149E026
:103C300027480078492809D1FFE7254840783228ED
:103C400004D1FFE70298254948613AE0204800780E
:103C5000442809D1FFE71E484078322804D1FFE705
:103C600002981E4988612BE019480078532810D12A
:103C7000FFE71748407870280BD1FFE71448807899
:103C8000652806D1FFE70298FCF7FCFC1249088082
:103C900015E00F480078502810D1FFE70C48407815
:103CA0006F280BD1FFE70A488078732806D1FFE719
:103CB0000298FCF7E7FC07490880FFE7FFE7FFE70A
:103CC000FFE7FFE7FFE7FFE7FFE7FFE704B080BD9F
:103CD0004C022020280320202A032020E40020205A
:103CE0002C02202080B586B00590049103A80280A4
:103CF000012041061848FDF727F9032000F068FE6F
:103D000004A80190807800F063FE0198407800F0EC
:103D10005FFE0198007800F05BFE02A90020088099
:103D2000FFE702A8008803A9098888420DDAFFE7A7
:103D3000FF2000F04DFE059902AA12888854FFE783
:103D40000298401C02A90880EBE7012041060248C6
:103D5000FDF714FA06B080BD00200A4080B586B099
:103D600005900491039201A9002008800880FFE7D4
:103D700001A800880399884215D2FFE7049801A999
:103D800009888900411802A80422FFF7ABFF0298B6
:103D9000059908600598001D0590FFE70198401CF3
:103DA00001A90880E4E706B080BD81B000900099C9
:103DB0000120C0078143FF20C005401AC00F01B099
:103DC0007047000081B001466846017000214056EE
:103DD000002809D4FFE7684601781F200140012030
:103DE00088400C490860FFE701B0704781B0014688
:103DF0006846017000214056002809D4FFE7684654
:103E000001781F2001400120884002490860FFE737
:103E100001B0704780E200E081B001466846017061
:103E200000214056002809D4FFE7684601781F208A
:103E300001400120884016490860FFE701B0704743
:103E400081B001466846017000214056002809D41F
:103E5000FFE7684601781F200140012088400C4997
:103E60000860FFE701B0704781B001466846017005
:103E700000214056002809D4FFE7684601781F203A
:103E800001400120884002490860FFE701B0704707
:103E900000E100E070B582B0024601A80270009116
:103EA00000214056002816D4FFE7002401A9085736
:103EB0000322D3431840174A805809578C07E50E50
:103EC000FF24AC40A043009CA401E4B2AC402043DA
:103ED000194088501AE001A908780F2420400838BA
:103EE0000322D34318400A4A8058002549578D07BA
:103EF000EE0EFF25B540A843009DAD01EDB2B540E3
:103F000028432140083919408850FFE702B070BDAE
:103F10001CED00E000E400E070B586B00C460546FC
:103F20000B980A990595049403AC2280029301AA88
:103F300011806946087004980521FCF7D0FB0599AB
:103F4000088003980599488002980599486001986F
:103F50000599088100980599087506B070BD0000A4
:103F600010B588B007A9087006A900200870764827
:103F7000007800280CD1FFE707A80078A52807D112
:103F8000FFE7714901200870079872490870D8E06E
:103F90006D480078012812D1FFE707A80078312882
:103FA0000DDCFFE768490220087007986749087030
:103FB000079868494870664900200870C0E0624868
:103FC000007802281AD1FFE760480078012815DB45
:103FD000FFE75E480178491E017007995C4C227822
:103FE000531C23705B4BD21891700078002804D1C9
:103FF000FFE7554903200870FFE7A0E0524800782A
:1040000003280CD1FFE75049042008700798504B53
:1040100019784A1C1A704F4A891888708EE04A48ED
:104020000078042800D084E007A800785A2800D03F
:104030007FE00798464B19784A1C1A70454A891840
:10404000887041490020087006A9087005A9012060
:104050000880FFE705A800883D49097888420EDA04
:10406000FFE705A801883B48415C0698401806A96F
:104070000870FFE70598401C05A90880EAE706A834
:10408000007833490A783349895C884250D1FFE788
:1040900030480390304A02920221FCF723FD029936
:1040A00003980A1D0621FCF71DFD029A03980832A9
:1040B0000A21FCF717FD029A03980C320E21FCF737
:1040C00011FD029A039810321221FCF70BFD029A9F
:1040D000039814321621FCF705FD029A0398183252
:1040E0001A21FCF7FFFC029A03981C321E21FCF7F0
:1040F000F9FC04A900200880FFE704A8008807282D
:1041000015DCFFE704A800880190810012484058A0
:10411000FCF7B8FA01994A00104988521049012069
:104120000870FFE70498401C04A90880E5E7FFE752
:1041300003E0054900200870FFE7FFE7FFE7FFE71E
:10414000FFE708B010BDC0462A0520202905202021
:10415000280520203C052020700520202C0520204B
:104160006E05202080B584B00120019001020291EB
:1041700029480390FCF7C3FF019903984902FCF713
:10418000BEFF019903988902FCF7B9FF01990398D2
:10419000C902FCF7B4FF02990398FCF7B0FF0028AE
:1041A00004D0FFE71D490120087003E01B490020EF
:1041B0000870FFE7012041021748FCF7A0FF002824
:1041C00004D0FFE716490120087003E014490020DD
:1041D0000870FFE7012081020F48FCF790FF0028DC
:1041E00004D0FFE70F490120087003E00D490020CB
:1041F0000870FFE70120C1020748FCF780FF002894
:1042000004D0FFE708490120087003E006490020B8
:104210000870FFE704B080BD00200A40480220205B
:10422000490220204A0220204B02202010B594B0E1
:1042300006200690002212920592049201240F9407
:1042400003943E481090029001929D48099000907E
:104250003B4808903B490A913B4B00F01DFB0898F6
:104260000999109B129A0694059204920394029362
:1042700001920091DC30354B0C9300F00DFB0A9855
:104280000C9B129A069405920492039430490B9168
:104290000291019200902F482F4900F0FDFA0B99EE
:1042A0001098129A069405920492039402912B4955
:1042B0000D91019100902A48412109063F221206E2
:1042C0001192FF239B050E9300F0E6FA0C991098CB
:1042D000129B069405930493039402900193214842
:1042E0000090214813901A4600F0D6FA0D980E99C6
:1042F000109B129A069405920492039402930190E3
:104300001A4800901A481B4B00F0C6FA0F9A1098F2
:104310001199129B069205930493039202900193C4
:104320001548009015481A4600F0B6FA139914483B
:10433000DC22FBF7D9FE14B010BDC0460000FA43E2
:10434000580A20200000F041000016430000A04061
:1043500000C079440001202000000743000096437C
:10436000100C202000004842FC0C20200000484394
:10437000D80D202000004040000096429C052020DF
:104380004804202080B582B0019001997D20C000B2
:10439000484300F002F802B080BD80B582B00190C1
:1043A00000F018FA0090FFE700F014FA0099401AA4
:1043B0000199884201D2FFE7F6E702B080BD80B5DF
:1043C00082B001900198FFF7DDFF02B080BD80B59B
:1043D00084B00B46014603A8017002A90B7001923C
:1043E00000780978019A01F075F904B080BD704732
:1043F0007047704780B582B00190009101A80178A4
:104400000248FDF71AFE019802B080BD00801040FE
:1044100080B584B010480188491C018000880428B8
:1044200016DBFFE70C490020039008802349019127
:1044300023480862094802900068FCF711F9019BC3
:104440000299024603989A61054A10600860FFE7E6
:104450001A48806904B080BD4C0A2020380420200E
:104460002003202080B584B0124900200860124843
:104470000188491C01800088042816DBFFE70E48EC
:104480000021039101800D4A01920D4850620D48B0
:104490000290405EFCF7E4F8019B02990246039803
:1044A000DA61094A10600880FFE70448C06904B077
:1044B00080BDC046000F20204E0A2020040020208E
:1044C0000000A041240320203404202080B582B0C5
:1044D0000190019840680199086000F07BF9FCF7B1
:1044E000CAF80C49FBF7C1FE019948600198406881
:1044F00001990968FBF774FE01998860019880684A
:104500003F210906FBF71BFEFCF7BCF801998881E7
:1045100002B080BD00007A447047000080B586B0CC
:1045200005A9087003A9002008704C4800780028ED
:1045300010D1FFE705A8007855280AD1FFE70598B4
:1045400047490B78474AD054444A012010700870FC
:10455000FFE780E041480078012810D1FFE705A877
:10456000007853280AD1FFE705983D490B783D4A6A
:10457000D0543A4A022010700870FFE76AE03748CA
:104580000078022865D1FFE70599354803785A1C61
:104590000270344AD15400780B2859D1FFE704A99E
:1045A00000200870FFE704A8007809280EDCFFE768
:1045B000039804A90A782B49895C401803A908705C
:1045C000FFE70498401C04A90870ECE703A80078F2
:1045D0002449897A884235D1FFE722490091C87879
:1045E00000028978401800B2FCF73AF84721090622
:1045F0000191FBF73AFE1C490291FBF7F9FD009986
:104600005E4A1060487900020979401800B2FCF750
:1046100027F80199FBF729FE0299FBF7E9FD0099BC
:10462000574A1060C87900028979401800B2FCF737
:1046300017F80199FBF719FE0299FBF7D9FD4E49CE
:104640000860FFE705490020087005490870FFE78A
:10465000FFE7FFE7FFE706B080BDC046420320202A
:1046600040032020350320200000344380B588B06B
:1046700000200790FEF7CEFEFDF7D8FFFFF7D6FD2E
:1046800000F0A2FB00F09CF900F06AF9FDF72CFDA8
:10469000FCF7E6F900F00CFBFFF73EFFFEF77CF8B5
:1046A0000120C1063148FCF731FC00F0D9FFFFE7DB
:1046B000FFF750F806902E4801210591FDF7BDFC4B
:1046C00041480068FBF7DEFF039040480490006813
:1046D000FBF7D8FF039902462648FEF775FF0599B8
:1046E000254802680846FFF772FE059823490A68C4
:1046F0000221FFF76CFE059821490A680321FFF7A4
:1047000066FE049905980A680521FFF760FE069881
:10471000FBF7A6FF024605980621FFF758FE002189
:104720001848405601280DD1FFE77F20C20501201F
:1047300002900421FFF74BFE02980103A348FCF707
:10474000FFFC12E000210F48405600280CD1FFE783
:104750000120019004210022FFF739FE0198010396
:104760009A48FCF7D3FBFFE7FFE7A1E700000A4008
:10477000000010400000F0414C03202030032020B6
:104780002C0320204802202080B5FFF76BFE0E4945
:104790000860FFF73DFE0D490860FFF7E3FC0021CC
:1047A0000B48405E002803D1FFE700F0EDF909E077
:1047B00000210748405E012803D1FFE7FFF7A6F874
:1047C000FFE7FFE780BDC046F00C2020F40C20205E
:1047D0007806202080B582B00A4801900A48026815
:1047E0007D20C0000146514300910199074A12689B
:1047F000891A48430199FBF772FF01460098401857
:1048000002B080BD80380100BC0E202018E000E01E
:1048100080B58AB0099008A8018007920799009195
:104820000021405EFBF71CFF01460098FBF7D8FC17
:104830000999086009990291086904900868019033
:104840004968FBF7CDFC0199024602980392406942
:10485000FBF7CEFC0399024604980592FBF7C8FCCF
:104860000599FBF76CFC01460A480160016809984C
:104870000690C068FBF763FC0699C86009980C3085
:1048800000F04CF80999086848600998C0680AB0B7
:1048900080BDC04644042020F0B587B014460D46C4
:1048A00006461298119910990F9A0E9F0D9F0C9F12
:1048B000069605950494039302AB1A7001AA117031
:1048C000694608700598069908600498069948603A
:1048D0000398069988600C980699802288500D9854
:1048E00006998C2288500E9806999022885002983A
:1048F00006997D228854019806998422885411983B
:10490000069988228850009806997C228854069936
:1049100094220120885407B0F0BD000080B582B019
:104920000190019800680C49FBF770FE002804D143
:10493000FFE7019908480860FFE701980068074908
:10494000FBF780FE002804D1FFE7019903480860C7
:10495000FFE702B080BDC0460000E1450000E1C5B0
:1049600080B500F001F880BD80B586B000200290CF
:10497000019000900F487D22D10003919200049293
:104980003F231B060593FFF7C7FA02980399049A81
:10499000059B019000900848FFF7BEFA0298039922
:1049A000049A059B019000900448FFF7B5FA06B001
:1049B00080BDC046A000202088002020700020205C
:1049C00080B502480121FCF7C9FA80BD00200A40E9
:1049D00080B582B0014601A8017001780748FCF754
:1049E0009BFDFFE70548FCF739FD002801D0FFE7F4
:1049F000F8E70248FCF73EFD02B080BD008046406B
:104A0000F0B585B004A90391087004984B4908706B
:104A10004B4D28884B4C20804B4B18884B4A1080BC
:104A20004B490020019008804A4908804A4E0121E4
:104A300031704A4F4A4E3E804A4F3E804A4E317056
:104A40004A490870802100912980218040210291EB
:104A50001980118046490870AE2000F08BF8D520EF
:104A600000F088F8009800F085F8A82000F082F89F
:104A70003F2000F07FF8D32000F07CF8019800F090
:104A800079F8029800F076F88D2000F073F803981A
:104A90000078012804D1FFE7102000F06BF803E054
:104AA000142000F067F8FFE7202000F063F80020F2
:104AB00000F060F8A12000F05DF8C82000F05AF87E
:104AC000DA2000F057F8122000F054F8812000F0AE
:104AD00051F804A80078012804D1FFE79F2000F0D6
:104AE00049F803E0CF2000F045F8FFE7D92000F0B7
:104AF00041F804A80078012804D1FFE7222000F043
:104B000039F803E0F12000F035F8FFE7DB2000F092
:104B100031F8402000F02EF8A42000F02BF8A62059
:104B200000F028F8A12000F025F8C82000F022F8B5
:104B3000AF2000F01FF805B0F0BDC0463E042020B5
:104B40004803202040042020260320203C0420206D
:104B50009605202098052020080F2020040F2020F3
:104B6000FFFF0000060F2020300F202030042020FF
:104B7000520A202080B582B0014601A80170007859
:104B8000FDF792FD02B080BD10B588B03A480190A3
:104B9000002106913948405EFBF762FD024601980C
:104BA0000168374800F0F4FCFBF76CFD069A3549C4
:104BB000039108803448805E029034480490805EFF
:104BC000895E4018FBF74CFD029902463048FFF71A
:104BD0001FFEFBF757FD0399069A034604982D4CD8
:104BE000079423802C4B9B5E0593805E895E401A60
:104BF000FBF736FD059902462848FFF709FEFBF74B
:104C000041FD069902460798254B1A80405E2549CA
:104C1000884205DBFFE71F49E12040010880FFE7EC
:104C200000211F48405E1F49884205DBFFE71C4901
:104C3000E12040010880FFE700211648405E1A4944
:104C4000884204DCFFE7134918480880FFE7002189
:104C50001348405E1449884204DCFFE710491348BA
:104C60000880FFE700220E48805E0A49895EFDF752
:104C700085FC08B010BDC0464C032020280320202E
:104C80002C022020500A2020140320202A03202058
:104C9000E4002020B60E20201803202054002020FD
:104CA000B40E2020211C0000DFE3FFFFE0E3000042
:104CB00080B51148FDF784F81048FDF781F81048D9
:104CC000FDF77EF81020FFF7A7F80E48FDF778F8FB
:104CD0001120FFF7A1F80C48FDF772F80220FFF74A
:104CE0009BF80A48FDF76CF81520FFF795F808487F
:104CF000FDF766F880BDC046000086400020864073
:104D000000A0864000400840008086400000094026
:104D10000000874010B590B00F900EA80B90017066
:104D200000210A914456274B07931A8812191A80BA
:104D30004056FBF795FC0F994968FBF751FAFBF7D2
:104D4000A1FC0A9902460B980CAB01931A700F9ABA
:104D50000692126904924056FBF782FC069A0A9961
:104D6000034601980393926902924056FBF778FC40
:104D700001460298FBF73CFA039902460498059213
:104D8000FBF736FA0599FBF7DAF9069A0A99034612
:104D90000798099352690892405EFBF761FC01464F
:104DA0000898FBF725FA0999FBF7C9F90A99024611
:104DB0000B980D924056FBF753FC0F9948600D98E5
:104DC00010B010BD180F202080B5C0B026203FA91C
:104DD000FDF782FE27203EA9FDF77EFE28203DA993
:104DE000FDF77AFE29203CA9FDF776FE2A203BA993
:104DF000FDF772FE2B203AA9FDF76EFE2C2039A993
:104E0000FDF76AFE2D2038A9FDF766FE3F98FEF7F4
:104E1000CCFF002806D1FFE73F98FBF733FCFE49A3
:104E2000087003E0FC4900200870FFE73E98FEF799
:104E3000BCFF002806D1FFE73E98FBF723FCF649AC
:104E4000487003E0F44900204870FFE73D98FEF702
:104E5000ACFF002806D1FFE73D98FBF713FCEE49B5
:104E6000887003E0EC4900208870FFE73C98FEF76B
:104E70009CFF002806D1FFE73C98FBF703FCE649BE
:104E8000C87003E0E4490020C870FFE73B98FEF7D4
:104E90008CFF002804D1FFE73B98DF49486003E01E
:104EA000DD49E0484860FFE73A98FEF77EFF0028BA
:104EB00006D1FFE73A98FBF7E5FBD749088103E005
:104EC000D549D9480881FFE73998FEF76EFF0028D9
:104ED00006D1FFE73998FBF7D5FBCF49488103E0BE
:104EE000CD49D2484881FFE73898FEF75EFF002899
:104EF00006D1FFE73898FBF7C5FBC749888103E077
:104F0000C549CA488881FFE700203790369037A905
:104F1000FDF7E2FD012036A9FDF7DEFD3798FEF72B
:104F200044FF002804D1FFE73798C149086003E037
:104F3000BF49C0480860FFE73698FEF736FF0028F3
:104F400006D1FFE73698FBF79DFBBB49088003E0DD
:104F5000B94900200880FFE7082034A9009132AA4F
:104F6000019230AB0293FDF7C7FD0B202FA9FDF78F
:104F7000B3FD0099019A0298091D121D031D13200B
:104F8000FDF7BAFD0C202EA92DAA2CABFDF7B4FD20
:104F90000F202BA9FDF7A0FD3498FEF706FF00288F
:104FA00004D1FFE73498A549086003E0A349A44869
:104FB0000860FFE73298FEF7F8FE002804D1FFE70B
:104FC00032989E49486003E09C4900204860FFE712
:104FD0003098FEF7EAFE002804D1FFE730989749A1
:104FE000886003E0954997488860FFE72F98FEF7AF
:104FF000DCFE002804D1FFE72F989349086003E006
:10500000914992480860FFE73598FEF7CEFE0028E8
:1050100005D1FFE735988949DC22885004E08749AB
:10502000DC228B488850FFE73398FEF7BEFE00284D
:1050300005D1FFE733988149E022885004E07F4999
:10504000E02200208850FFE73198FEF7AEFE0028EE
:1050500005D1FFE731987949E422885004E0774987
:10506000E4227C488850FFE72E98FEF79EFE002839
:1050700004D1FFE72E987849086004E07649FF20C4
:1050800080050860FFE72D98FEF78FFE002804D109
:10509000FFE72D987049486003E06F4900204860A1
:1050A000FFE72C98FEF781FE002804D1FFE72C983B
:1050B0006949886003E0684968488860FFE72B9881
:1050C000FEF773FE002804D1FFE72B9864490860BF
:1050D00004E063493F2000060860FFE710202AA98A
:1050E00029AA28ABFDF708FD2A98FEF75EFE0028E6
:1050F00004D1FFE72A985B49086004E05949412040
:1051000000060860FFE72998FEF74FFE002804D14B
:10511000FFE729985449086003E053495348086061
:10512000FFE72898FEF741FE002804D1FFE7289802
:10513000FC49086003E0FB4900200860FFE71620F7
:1051400027A926AA25ABFDF7D7FC1F2024A9FDF728
:10515000C3FC1C2023A922AA21ABFDF7CDFC279874
:10516000FEF723FE002804D1FFE72798F2490860E4
:1051700003E0F149F1480860FFE72698FEF715FEC5
:10518000002804D1FFE72698EB49486003E0EA498C
:1051900000204860FFE72598FEF707FE002804D1AD
:1051A000FFE72598E449886003E0E349E048886028
:1051B000FFE72498FEF7F9FD002804D1FFE72498C3
:1051C000DF49086003E0DE49DE480860FFE7239816
:1051D000FEF7EBFD002804D1FFE72398DA490860C9
:1051E00004E0D949412000060860FFE72298FEF755
:1051F000DCFD002804D1FFE72298D349486004E091
:10520000D1493F2000064860FFE72198FEF7CDFD19
:1052100000282DD102E0C046040220202198CA496E
:1052200088602AE09A99194024040000DC050000F7
:10523000F80C20200000A042540A2020580A202008
:105240000000F04100001643140220209A99193EF4
:105250000000A0410000A040D80D202000004040E8
:10526000E4012020E0012020DC0120209A99193F50
:10527000B549FF2080058860FFE7202020A91FAAEC
:105280001EABFDF739FC2098FEF78FFD002804D1F6
:10529000FFE72098AD49086003E0AC49AC480860DE
:1052A000FFE71F98FEF781FD002804D1FFE71F9854
:1052B000A849086003E0A7499E480860FFE71E98D8
:1052C000FEF773FD002804D1FFE71E98A24908608D
:1052D00003E0A14900200860FFE723201DA9FDF796
:1052E000FBFB24201CA9FDF7F7FB25201BA9FDF7DC
:1052F000F3FB1D98FEF759FD002806D1FFE71D9826
:10530000FBF7C0F99549087003E094490120087043
:10531000FFE71C98FEF749FD002806D1FFE71C981F
:10532000FBF7B0F98E49087003E08D490020087042
:10533000FFE71B98FEF739FD002806D1FFE71B9811
:10534000FBF7A0F98749087003E08649012008703F
:10535000FFE706A900200880FFE706A800881328B9
:1053600010DCFFE706A80188084665308A0007A917
:10537000891880B2FDF7B0FBFFE70698401C06A92C
:105380000880EAE70798FEF710FD002804D1FFE740
:1053900007987549086003E0734964480860FFE7AF
:1053A0000898FEF702FD002804D1FFE708986E492F
:1053B000486004E06C49032080074860FFE70998D3
:1053C000FEF7F3FC002804D1FFE7099866498860DE
:1053D00003E0654955488860FFE70A98FEF7E5FC59
:1053E000002804D1FFE70A985F49C86003E05E49DE
:1053F0005E48C860FFE70B98FEF7D7FC002804D191
:10540000FFE70B985849086103E05749464808618F
:10541000FFE70C98FEF7C9FC002804D1FFE70C98C1
:105420005149486103E0504951484861FFE70D98F0
:10543000FEF7BBFC002804D1FFE70D984A498861BC
:1054400003E049494B488861FFE70E98FEF7ADFC41
:10545000002804D1FFE70E984349C86103E04249A0
:105460004348C861FFE70F98FEF79FFC002804D16E
:10547000FFE70F983C49086203E03B493E48086259
:10548000FFE71098FEF791FC002804D1FFE7109881
:105490003549486203E0344938484862FFE71198CB
:1054A000FEF783FC002804D1FFE711982E4988629B
:1054B00003E02D4932488862FFE72F2005A904AA9E
:1054C00003ABFDF719FB0598FEF76FFC002806D12A
:1054D000FFE70598FBF7D6F82A49087103E0294948
:1054E00000200871FFE70498FEF75FFC002804D154
:1054F000FFE704982349886003E022492248886036
:10550000FFE70398FEF751FC002804D1FFE703985A
:105510001C49C86003E01B491C48C860FFE740B055
:1055200080BDC046EC0C20200000F0410000A041EE
:105530000000A04000004040000120200000074380
:105540004000202000004E42100C20204C00202063
:105550000000204148002020240520204500202074
:105560005000202044002020B80020200000D84116
:105570000000C841000020420000B04100008C4102
:1055800000007041180220206666E6400000B0402E
:1055900080B58EB00D900C910B920B980C99FAF788
:1055A0001FFE089008982A49FBF74CF8002806D1FE
:1055B000FFE708992748FAF713FE0890FFE70899D4
:1055C0000D9806908068FAF7BAFD069988600D98E4
:1055D00080682149FBF71AF8002804D1FFE70D99EC
:1055E0001D488860FFE70D9880681C49FBF72AF882
:1055F000002804D1FFE70D9918488860FFE7089854
:105600000D994968FAF7ECFD09900D98049001692D
:1056100002910899019180690999FAF7E9FD0199C8
:10562000024602980392FAF7E3FD0399FAF787FD21
:105630000499059048698968FAF7DAFD0599FAF73F
:105640007EFD0A9008980D9948600A980EB080BDBA
:10565000000048C300007AC30000C8420000C8C26E
:1056600080B586B00F200190FEF7C0FB0D200290A0
:10567000FEF7BCFB0E200390FEF7B8FB032004905E
:10568000FEF7B4FB0198FEF7EFFB0298FEF7ECFB88
:105690000398FEF7E9FB0498FEF7E6FB0120810280
:1056A00005910848FCF798FB05990748FCF794FB1F
:1056B00005990648FCF790FB05990548FCF78CFB1B
:1056C00006B080BD00801040000010400020104057
:1056D0000000504080B5A4B023AB187022A8017020
:1056E000219220A8002101701CA81B902198FAF794
:1056F000A9FF002815D1FFE71CAA2D20107023A8B0
:105700001890007822A909781278FCF7A3FE18995E
:105710002398801D087021980121C90748402190D5
:10572000FFE72198FAF7AEFF199021981790199882
:10573000FAF796FF01461798FAF752FD1A90199852
:10574000FC49884216DBFFE71998FA491591FAF7E8
:10575000E5FF1599303020AA169213781CAAD05470
:105760001998FAF7DBFF0846169919902098401C03
:105770000870FFE71998F049884216DBFFE719988F
:10578000ED491391FAF7CAFF1399303020AA149209
:1057900013781CAAD0541998FAF7C0FF0846149938
:1057A00019902098401C087013E01998E34988422A
:1057B0000EDCFFE720A80078002809D0FFE720A929
:1057C0000B781CAA3020D0542098401C0870FFE7AA
:1057D000FFE71998DA49884216DBFFE71998D8499C
:1057E0001191FAF79BFF1199303020AA1292137889
:1057F0001CAAD0541998FAF791FF084612991990EB
:105800002098401C087013E01998CE4988420EDC9D
:10581000FFE720A80078002809D0FFE720A90B782F
:105820001CAA3020D0542098401C0870FFE7FFE7E6
:105830001998C549884216DBFFE71998C2490F91AC
:10584000FAF76CFF0F99303020AA109213781CAA37
:10585000D0541998FAF762FF0846109919902098C9
:10586000401C087013E01998B84988420EDCFFE725
:1058700020A80078002809D0FFE720A90B781CAAEF
:105880003020D0542098401C0870FFE7FFE719989B
:10589000AF49884216DBFFE71998AD490D91FAF739
:1058A0003DFF0D99303020AA0E9213781CAAD054D7
:1058B0001998FAF733FF08460E9919902098401C62
:1058C000087013E01998A34988420EDCFFE720A86E
:1058D0000078002809D0FFE720A90B781CAA302007
:1058E000D0542098401C0870FFE7FFE719989A49A8
:1058F000884216DBFFE7199897490B91FAF70EFFDC
:105900000B99303020AA0C9213781CAAD054199805
:10591000FAF704FF08460C9919902098401C08706B
:1059200013E019988D4988420EDCFFE720A8007823
:10593000002809D0FFE720A90B781CAA3020D054FA
:105940002098401C0870FFE7FFE719987D21C900E7
:10595000884217DBFFE719987D21C9000991FAF702
:10596000DDFE0999303020AA0A9213781CAAD0547F
:105970001998FAF7D3FE08460A9919902098401C06
:10598000087013E01998764988420EDCFFE720A8DA
:105990000078002809D0FFE720A90B781CAA302046
:1059A000D0542098401C0870FFE7FFE7199864283E
:1059B00016DBFFE7199864210791FAF7AFFE079904
:1059C000303020AA089213781CAAD0541998FAF7FC
:1059D000A5FE0846089919902098401C087012E00E
:1059E000199863280EDCFFE720A80078002809D06A
:1059F000FFE720A90B781CAA3020D0542098401C27
:105A00000870FFE7FFE719980A2816DBFFE71998E7
:105A10000A210591FAF782FE0599303020AA0692F4
:105A200013781CAAD0541998FAF778FE08460699FC
:105A300019902098401C087012E0199809280EDC73
:105A4000FFE720A80078002809D0FFE720A90B78FD
:105A50001CAA3020D0542098401C0870FFE7FFE7B4
:105A60001998303020A90A781CA988541A983D4901
:105A7000FAF7DAFD00284BD1FFE72098401C20A957
:105A8000049108700B781CAA02922E20D054209802
:105A9000401C08701A983449FAF7AAFBFAF7F2FD8D
:105AA0001990199864210391FAF738FE029A039924
:105AB000049B30301B78D0541998FAF72FFE084613
:105AC000049919902098401C08701998012810DB3F
:105AD000FFE719980A210191FAF720FE0199303069
