:020000040000FA
:10000000FC1E2020D5000000D9000000DB0000000D
:1000100000000000000000000000000000000000E0
:10002000000000000000000000000000DD000000F3
:100030000000000000000000DF0000007935000033
:10004000E3000000A3200000353600005137000017
:10005000210A0000E3000000E3000000E3000000CC
:1000600000000000E3000000E300000000000000CA
:10007000000000007D360000F53600005D3600000F
:10008000893500000D360000E3000000E3000000A9
:10009000E3000000E5350000000000000000000063
:1000A000E3000000812200000000000000000000CA
:1000B000E300000000000000E3000000E300000097
:1000C0000348854600F06CFC00480047A941000049
:1000D000FC1E202003480047FEE7FEE7FEE7FEE7A0
:1000E000FEE7FEE7C100000003460B439B0703D079
:1000F00009E008C9121F08C0042AFAD203E00B78ED
:100100000370401C491C521EF9D27047D2B201E064
:100110000270401C491EFBD270470022F6E710B562
:1001200013460A4604461946FFF7F0FF204610BD65
:10013000421C0178401C0029FBD1801A7047F8B599
:1001400002464A40D40F42004B0052085B089A42D4
:1001500002D20246084611464A0023D0C30D4A0087
:10016000DDB2120EAD1A202D35DA49020126490AF8
:10017000F6058A19002C00D0524220214F1B11464F
:10018000B9402A411018C20D9A4221D0002C17D034
:10019000012D08DCDA05801AD20F8019D207DBB2F4
:1001A00000F031FBF8BDDA05801A012340001B0680
:1001B000C01880185A428018CA0F1043490007E03F
:1001C0004908C2071143DA05801A801940088018CF
:1001D00000F011FBF8BD61000122511A001BF7E786
:1001E0000122D2075140AAE70122D2075040A6E7D8
:1001F000024670B54A40D30FDB0740002DD04A00BD
:100200002AD0010E140E000212020919400A520AE5
:100210008418E50104465443000A120A2E04504390
:10022000A4194219200CC543AA18120C0125AD03CC
:10023000521C521912047F39240400D0521C10435E
:1002400001D44000491EC2B20C06C0092018401C4F
:100250004008802A02D003E0002070BD4008400022
:10026000002900DA0020184370BD70B502464A40EC
:10027000D50F40004A00ED0740085208002814D06E
:10028000002A12D0C40DD30D41020120C005520234
:10029000490A520AE41A091812187D34914201D30E
:1002A000641C00E04900002C01DA002070BD00232E
:1002B000914201D3891A0343400849000028F7D12D
:1002C00000290AD0914202D10121C90705E09142DB
:1002D00001D2012101E00121C943E005C018401904
:1002E00000F089FA70BD0000F0B507460846584096
:1002F00087B0C00F049048000E46590040084908D6
:10030000BC1A884105D2384631461E4617460B4670
:1003100002465800400810434CD0300D0390400571
:100320005900400D490D0590401A0290402872DA9C
:1003300018030121000B090508430190049800925D
:10034000002805D001995242002088410092019076
:10035000029840210A1A0199009800F029FA0546EE
:100360000C466B4607CB00F033FAC0197141039A73
:100370000E0D0023D71756401A467A40164344D034
:10038000049A002A2DD0029A012A039A15DC12053C
:10039000C01A914101263605001C7141D20F059EFD
:1003A000D2070093019202962A46234600F071FA82
:1003B00007B0F0BD38463146FAE71605224A0F4627
:1003C000B218C01AB74101210905001C4F4100189D
:1003D0007F41114618187941E20F10436D196441AD
:1003E00013E0E2076D0815436408C2071443039A3B
:1003F00001261205C01A91413605001C7141CE0735
:10040000400830434908C01851412A46234600F0AD
:1004100033FACDE7FFE7049801224000C117121A12
:1004200000238B4104983146C417381AA141EEE7E6
:1004300030B40124E407634030BC55E730B40124F4
:10044000E407614030BC4FE70000E0FFF0B51FB4A7
:1004500088B00B990998002448400999C00F4900B9
:1004600049080991C0070B990090490049080B9170
:1004700009990898A64608431CD00B990A98084386
:1004800018D0099801244000420D4800410D0998F8
:1004900024050003000B204309900B980003000B78
:1004A00020430B9050181C4940180022019014461C
:1004B000104605E0002001460DB0F0BD032801DA2A
:1004C000034600E003239C46C11A0AAE0AE05F001F
:1004D00008ADED5B4F00F75B7D430027AA187C4118
:1004E000491C5B1E6145F2DD410004AB5A522104F8
:1004F000120C0A43240C401C0828DFDB01980290F0
:100500000099704601910090059B049A07990698FE
:1005100000F0BFF9D0E700000DFCFFFFF0B50C467E
:100520005C4085B0E40FE40703944C0000266408A7
:1005300059009446490802460296224321D0624659
:100540000A431ED06200570D4A000E032303550DC7
:10055000012402462C492405781B1B0B360B40183E
:1005600023432643614600901C46501AB44103D3EE
:100570000098401C009002E0921800985B4100280F
:1005800003DA0020014605B0F0BD00200121090575
:100590000746864611E064461D46141BB54106D346
:1005A0006546521BB341744607430C43A646CD072C
:1005B00040084908284392185B4105460D43EAD19B
:1005C0001046184313D06046194650407140084306
:1005D00006D06046101AB34106D20122002306E07D
:1005E00000220123DB0702E00122D24353100098CE
:1005F00074460105381C6141029C039D0019694144
:1006000000F03AF9BFE70000FD0300000122D20725
:10061000002800DB101A002900DB511A814201D2A8
:1006200001207047002070470122D207002800DB1C
:10063000101A002900DB511A814201D301207047B2
:1006400000207047C217C10F504010B54018CA07AC
:100650009623002100F0D7F810BD10B50022962394
:10066000114600F0D0F810BDC20F41004002012336
:10067000400ADB05D207090EC0187F2901DA0020E5
:100680007047962903DC9623591AC84001E0963931
:100690008840002AF4D040427047C20FD207400081
:1006A00040080BD0C10D0723DB01C9184002090522
:1006B000400A1143C2084007114370470020014619
:1006C000704770B50446002903D000202022012382
:1006D00010E0002801D00020C043C046C0460DE015
:1006E0002546D5408D4205D30D469540641B1D46D9
:1006F000954040191546521E002DF1DC214670BD73
:1007000070B5002504462E46002911D0002C01DAD0
:1007100001254442002901DA012649422046FFF71B
:10072000D0FFB54200D04042002D00D0494270BDFC
:10073000002C02DA0121C90702E0002C00DD034988
:100740000846C046C046214670BD0000FFFFFF7F3F
:10075000F0B51FB40646002082B005464024019142
:1007600000901BE0019922460F46304600F02AF91E
:10077000049A059B801A994110D3104619462246C7
:1007800000F016F8361A8F41019722460120002109
:10079000009F00F00DF838184D4100902046641E6F
:1007A0000028DFDC019B00982946324607B0F0BDE7
:1007B00010B5202A04DB0146203A9140002010BDEC
:1007C000914020239C1A0346E3401943904010BDFA
:1007D00010B5202A06DBCB170846203A1041C11776
:1007E0000B4306E00B461341D0402024A21A91404F
:1007F0000843194610BD002904DA401C490001D104
:1008000040084000704770B40024050C05D1102446
:10081000000402D1002921D01124050E01D10002CB
:100820000834050F01D10001241D850F01D180007E
:10083000A41C002801DB4000641C002908D02025EE
:100840002E1B0D46F540A14000D00121294308434D
:1008500001061B1B000ADB1D02D5002070BC70477F
:10086000DB05181880180029F8DA401C4900F5D17A
:1008700070BC40084000704710B5002B08DA002417
:10088000401C614192185B411A4301D1400840006D
:1008900010BDF0B51FB482B005460C0003D0084669
:1008A00004F016FD02E004F013FD20300246009033
:1008B00021462846FFF77CFF049B059A04460F4615
:1008C00018431143084314D0184610431BD0009816
:1008D00040210A1A1846059900F074F805460E469C
:1008E000009A05990498FFF763FF084305D001209B
:1008F00004E02046394607B0F0BD0020C11705438B
:100900000E432C43374300990E986305401A79052E
:10091000E40A00220C43FD0A0A3002D500200146F9
:10092000E9E70105101969410C9C0D9D0019694109
:10093000FFF7A2FFDFE700004A0009030123090BCC
:100940001B0519430A4B10B5520D9A4202DA0020DA
:10095000014610BD064B34339A4203DC9A1A00F06C
:1009600031F810BD034BD218FFF722FF10BD000075
:10097000FF030000CDFBFFFF10B5002904DB0124BD
:10098000E40740428C412146002B04DB1C46012336
:10099000DB075242A341994200D1904210BD0000B2
:1009A000064C0125064E05E0E36807CC2B430C3CC2
:1009B00098471034B442F7D3FFF786FB206300005A
:1009C0004063000010B5202A04DB0846203AD040DE
:1009D000002110BD0B46D340D0402024A21A9140E4
:1009E0000843194610BD30B58C180278401C130717
:1009F0001B0F01D10378401C120906D10278401C5C
:100A000003E005780D70401C491C5B1EF9D101E024
:100A10000B70491C521EFBD1A142E6D3002030BD11
:100A200080B50120800700F0C7F80A2804D1FFE74D
:100A300002490120087000E0FFE780BD3006202059
:100A400010B51D491D484860012082048A60487025
:100A500088701B4A4A6243058B622123C8542223B3
:100A6000C8544A6403038B644123C8544223C854C6
:100A70004A6603028B666123C8546223C8548423E8
:100A8000CA50430288240B518123C8548223C8547E
:100A9000A423CA508302A8240B51A123C854A22323
:100AA000C854C423CA50C202C823CA50C1228854A1
:100AB000C222885410BDC0460C03202000000A400A
:100AC00000200A4084B0009101460098039102A9D9
:100AD0000870019203980A78825C0B480270039BAD
:100AE0000A78D21852784270039B0A78D21892780A
:100AF0008270039A09788918C978C17000680199D1
:100B0000086004B07047C046D802202082B001902F
:100B10000091009B0199F44A88581843885002B00C
:100B20007047C04610B585B00092024600980B9CF5
:100B30000A9C099C089C079C049203AA11700290CD
:100B400001930298019908430799084308990843BB
:100B5000099908430A9908430B99084304991278A4
:100B6000920089182322D201885005B010BD81B0AF
:100B700000900099112002028858012318438850E0
:100B800001B0704782B001900091009B0199034A27
:100B900088581843885002B07047C046281000009B
:100BA00081B0009000990120C2020248885001B033
:100BB0007047C0460100002681B000900098812156
:100BC00049014058C0B201B07047000081B00090A8
:100BD0000099024A0248885001B07047040800009A
:100BE000030000B180B582B00190009101980D49D9
:100BF000401800990978A922120689180A4A00F0BB
:100C000051F80198112109024018009949680722FA
:100C1000120600F047F8009840780199A54A8850DC
:100C200002B080BD08080000030000FF82B0019000
:100C30006846018000880199014A885002B07047D7
:100C40001411000080B582B0019000910198044910
:100C5000401800991F22120400F0B0F802B080BDC5
:100C60000811000083B0029001910092029801994E
:100C70000843009908430549086003B07047C0461F
:100C800002480068072108407047C04600134040F2
:100C900082B001900199881E001F00BFFCD2009015
:100CA00002B0704784B003900291019203980068EB
:100CB0000090009801998843009000980299019A49
:100CC000114008430399086004B0704784B0039052
:100CD000029101920398006800900098019988435E
:100CE000009000980299019A114008430399086006
:100CF00004B0704784B00390029101920398006899
:100D00000090009801998843009000980299019AF8
:100D1000114008430399086004B0704784B0039001
:100D2000029101920398006800900098019988430D
:100D3000009000980299019A1140084303990860B5
:100D400004B0704784B00390029101920398006848
:100D50000090009801998843009000980299019AA8
:100D6000114008430399086004B0704784B00390B1
:100D700002910192039800680090009801998843BD
:100D8000009000980299019A114008430399086065
:100D900004B0704784B003900291019203980068F8
:100DA0000090009801998843009000980299019A58
:100DB000114008430399086004B0704784B0039061
:100DC000029101920398006800900098019988436D
:100DD000009000980299019A114008430399086015
:100DE00004B0704770B587B0009314460D46009963
:100DF00002460E980D980C980B9B069205AA15704A
:100E00000494039102A90B8001AB18800498039C01
:100E100020430E9C240120430D9C20431B881B0172
:100E20001843098808430699127812018918092283
:100E30005202885007B070BDF0B589B004910146E8
:100E40000498089107A905910870069208980978F6
:100E5000069F7A68BB68BC89FD893E697F690397F4
:100E6000029601950094FFF7BDFF0599089809784F
:100E7000069B1A785B7800F003F809B0F0BD00001B
:100E800010B586B0019303460198059304AB197021
:100E900003A90A7002AA107005981B789B00C0185D
:100EA000044BC018097812781143BF22FFF70EFFD8
:100EB00006B010BD1011000082B001900091009B9F
:100EC0000199094A88581843885002B07047C046B3
:100ED00082B001900091009B0199034A8858184301
:100EE000885002B07047C0464810000082B00190A0
:100EF00000910098019995225201885002B07047E4
:100F000082B0019000910098019995225201885079
:100F100002B0704782B0019000910098019995222B
:100F20005201885002B0704782B001900091009841
:100F3000019995225201885002B0704782B0019009
:100F400000910098019995225201885002B0704793
:100F500081B00090009881005A4A885801235B06AE
:100F60001843885001B0704782B001900091009BF7
:100F70000199824A88581843885002B07047C04689
:100F800082B00190009100980199024A885002B005
:100F90007047C046D012000081B000900099012037
:100FA000C2028D48885001B07047C04682B001909F
:100FB00000910198024940580099084002B07047DA
:100FC0003810000081B00090009881003D4A0D4823
:100FD000885001B07047C04610B584B0069C03909D
:100FE00002910192009302980199084300990843E5
:100FF000069908430349084303998900314A8850F8
:1010000004B010BD8100040081B000900098810000
:101010002C4A8120885001B07047C04610B584B07A
:10102000069C039002910192009302980199084353
:1010300000990843069908438121084303998900D0
:10104000204A885004B010BD81B000900098810003
:101050001C4A0020885001B07047C04682B0019001
:10106000009100981049084301998900154A885059
:1010700002B0704710B584B0079C069C03900291A3
:101080000192009302980199084300990843069938
:101090000843079908430449084303998900094A0A
:1010A000885004B010BDC0468000040082B001909A
:1010B000009100988021084301998900014A8850D5
:1010C00002B070470480424082B0019000910198C4
:1010D0002721C90140580099084002B0704700001C
:1010E00081B000900099DA4ADA48885001B0704720
:1010F00082B001900091009B0199034A88581843DF
:10110000885002B07047C0469013000082B0019032
:101110000091009801990C4A885002B07047C0466F
:1011200082B00190009100980199074A885002B05E
:101130007047C04682B00190009100980199024A20
:10114000885002B07047C0469012000082B00190F3
:10115000009100980199024A885002B07047C04639
:10116000B012000082B001900091009B0199034AE7
:1011700088589843885002B07047C0462810000035
:1011800081B00090009909204202885801231B0277
:101190001843885001B0704781B000900099084A08
:1011A000885801231843885001B0704781B00090DF
:1011B0000099034A885804231843885001B07047A7
:1011C0002812000081B0009000990120C2027E48E0
:1011D000885001B07047C0460100002680B584B039
:1011E0000390029101A80280694600200880FFE771
:1011F0006846008801A90988884215DAFFE7039844
:1012000000F02CF8002808D1FFE7039802996A46FD
:101210001288895C00F0AAF800E005E0FFE700987A
:10122000401C69460880E3E76846008804B080BD3A
:1012300081B000900098812149014058C0B201B0AE
:101240007047000081B0009000980A4940580F2173
:1012500008404142484101B07047C04681B000900B
:101260000098044940580F21090208404142484172
:1012700001B070473C12000081B000900098024914
:101280004058C0B201B070471C12000081B00090FD
:1012900000996F4A6F48885001B0704781B0009044
:1012A0000099024A0020885001B0704714120000D3
:1012B00080B584B0019101460198039102A908808C
:1012C0000398092252028018098803225202FFF76C
:1012D00075FD04B080BD000080B582B00190009122
:1012E00001986E494018009909780C22FFF702FD19
:1012F0000198012109034018009949780722FFF756
:10130000F9FC02B080BDC04680B584B001910146B1
:101310000198039102A9088003980D4A8018098852
:1013200007221202FFF74AFD04B080BD80B584B0E9
:10133000019101460198039102A908700398044A9B
:10134000801809780722FFF739FD04B080BDC04638
:101350003812000082B0019068460170007801994F
:10136000014A885002B070472412000082B00190F8
:10137000684601700078019991225201885002B0AC
:101380007047000081B00146684601700178302046
:1013900048430249405801B07047C04600114040E0
:1013A00081B0009000991A4A885801231843885048
:1013B00001B0704781B0009000990120C20202483C
:1013C000885001B07047C0460100002680B582B049
:1013D000019000910198112109024018009A118989
:1013E0005388194392791143084AFFF797FC0198F3
:1013F00007494018009A9188D3791943127811430C
:101400005D229200FFF78AFC02B080BD7F330000AE
:101410000411000081B00090009803494058102149
:101420000840000901B070471011000081B0009021
:10143000009802494058C0B201B070473011000016
:1014400081B000900099024A0248885001B070476C
:1014500004080000030000B180B582B00190009143
:101460000198044940180099034AFFF7A7FC02B00D
:1014700080BDC04608110000FF03000082B001904B
:101480000091009800780199044A885000984078AB
:10149000019901221203885002B070470410000025
:1014A00080B584B000920A4601460098039102A9D3
:1014B0000A7001AA10700398044BC01809781278BA
:1014C00011433F22FFF77AFC04B080BD0C110000ED
:1014D00082B001906846017000780199452292011E
:1014E000885002B07047000080B586B0059000F0CB
:1014F00083F8FFE700F0A8F801218903084088423B
:1015000001D0FFE7F6E70598417E2B4802900122C3
:101510000392FFF73FFC05982021415C274801908A
:101520000322FFF737FCFFF7ABFB0146039804915A
:1015300000210422FFF796FB01980599496A096882
:101540001F4A11600599496A49681E4A1160049949
:101550001D4A11600599C9694906490C7F2212028A
:10156000FFF718FC0298059A11680907090B5368E0
:101570001B039BB2C91893681B071B0DC918D368BE
:1015800019431369194353691943127E11430F4AD2
:10159000FFF700FC039A5D490868120210430860D7
:1015A000FFE700F051F8012149020840884201D0CC
:1015B000FFE7F6E706B080BD20010B4024010B4099
:1015C00028010B402C010B400013404072FF0F001C
:1015D0005B49086801221207904308607047C046C3
:1015E0004A490868012290430860704747490868E3
:1015F00001229043086070474449086801221202A2
:10160000904308607047C0464049086801221202B2
:10161000904308607047C046494908680122120794
:10162000104308607047C0467349086801221203DE
:10163000104308607047C0460249086810221043F2
:10164000086070473C010B40034800687047C04683
:10165000014800687047C04604020B4081B0014653
:101660006846017000780249086001B07047C046C2
:1016700008030B4080B582B0014601A801800188B3
:101680000F2002025C48FFF799FB02B080BDC04604
:1016900080B582B0014601A80170007801030F20D7
:1016A00002033548FFF78AFB02B080BD80B586B0E3
:1016B00005AB01931880049103A802900270FFF714
:1016C0008FFF0198008800F023F8049800F02EF8AE
:1016D00002980E4A11680123194311600078C0076F
:1016E00000280DD0FFE7FFF797FFFFE7FFF7ACFFFC
:1016F000012109020840884201D0FFE7F6E702E035
:10170000FFF766FFFFE706B080BDC04608010B404B
:1017100080B582B0014601A8018001880320020340
:101720000748FFF737FB02B080BDC04680B582B0E6
:10173000019001990248FF22FFF72CFB02B080BD07
:1017400010010B4081B001466846017000780249E3
:10175000086001B07047C0460C010B4080B582B0F4
:10176000014601A801800188012042020248FFF7DA
:1017700025FB02B080BDC04638010B4080B582B069
:10178000014601A80170017802480322FFF716FB09
:1017900002B080BD00010B4080B582B0014601A8B7
:1017A0000170017814483022FFF708FB02B080BDB9
:1017B00080B582B0014601A801700078FFF7C2FF32
:1017C000FFE7FFF741FF012149050840884201D0AA
:1017D000FFE7F6E708490868012212041043086091
:1017E000FFE7FFF731FF10210840102801D0FFE785
:1017F000F7E702B080BDC04604010B4080B584B05D
:101800000390029101A80280FFE701AA1088411EFF
:101810001180002809D0FFE703980299097800F0A9
:10182000E8FB0298401C0290EFE704B080BD80B551
:101830008CB00B900A910A984079C00700285CD0C0
:10184000FFE70A9800790790002804D0FFE707987F
:1018500020280CD018E00B9888210691022200F075
:10186000B7F906990B98032200F0B2F919E00B982A
:10187000212109010591022200F0AAF905990B988E
:10188000032200F0A5F90CE00B980521C901049191
:10189000022200F09DF904990B98032200F098F9B8
:1018A000FFE70B980022029202230193114600F0F9
:1018B000A9F9029A0B9803230393114600F0A2F9A9
:1018C0000199029B0B98009119461A4600F0D2F933
:1018D000029B03990B98009119461A4600F0CAF929
:1018E000019B029A0B98114600F0AAF9029A039BF9
:1018F0000B98114600F0A4F9FFE70A9800680890D9
:101900000A98007908A908710A98807948710B989B
:1019100000F030F80CB080BD81B000900099024A10
:101920000120885001B070470811000082B001907A
:101930000091009B0199034A88581843885002B0CF
:101940007047C0462810000081B000900099012027
:10195000C2020248885001B07047C046010000260C
:1019600081B000900098812149014058C0B201B077
:101970007047000080B58AB00990089108980079F6
:101980000790002804D0FFE70798202812D029E00C
:10199000099808990968491E00F0E2F90998882118
:1019A0000691002200F014F906990998012200F02E
:1019B0000FF92AE0099808990968491E00F0D0F942
:1019C00009982D490491002200F002F90499099820
:1019D0000122059200F0FCF805990998490700F0EA
:1019E000B1F912E0099808990968490800F0B8F9B6
:1019F00009980521C9010391002200F0E9F8039933
:101A00000998012200F0E4F8FFE709980023019308
:101A100019461A4600F0F6F8019A09980123029334
:101A2000114600F0EFF8019B0998009319461A46F9
:101A300000F020F9019B02990998009119461A4675
:101A400000F018F9019B099819461A4600F0F8F8B9
:101A5000019A029B0998114600F0F2F80998CB49C7
:101A60004018089A11795279114302221143034A0E
:101A7000FFF768F90AB080BD01040000BFFF003025
:101A800080B584B00390029103980299496800F0F0
:101A900067F9029800780190222856D801988100B1
:101AA00001A040588746C046411B00004B1B000068
:101AB000411B00004B1B00004B1B00004B1B000098
:101AC0004B1B00004B1B00004B1B00004B1B00007E
:101AD0004B1B00004B1B00004B1B00004B1B00006E
:101AE0004B1B00004B1B0000351B00004B1B000074
:101AF000351B00004B1B00004B1B00004B1B000064
:101B00004B1B00004B1B00004B1B00004B1B00003D
:101B10004B1B00004B1B00004B1B00004B1B00002D
:101B20004B1B00004B1B0000351B00004B1B000033
:101B3000351B000003980121490700F003F905E077
:101B40000398002100F0FEF800E0FFE703980299F7
:101B5000098A0022009200F0ADF8009B03980299D8
:101B6000C9681A4600F04EF802990878097A0843C5
:101B70000399864A885004B080BDC04681B0009069
:101B80000099DD4ADD48885001B0704782B001906D
:101B900000910098019911221202885002B07047FA
:101BA00080B584B00390029101A802700399224A83
:101BB00089180091017800988900401800900098D9
:101BC000029907229204FFF7BDF804B080BDC04619
:101BD00080B584B00390029101A802700399074A6E
:101BE00089180091017800988900401800900098A9
:101BF0000299034AFFF7A6F804B080BD70180000F0
:101C0000DBB6C1FF10B586B005900491039202A81F
:101C100003700599084A8918019101780198890093
:101C20004018019001980499039A1143034AFFF761
:101C300089F806B010BDC046301800007777020062
:101C400010B586B005900491039202A8037005991F
:101C50003122D20189180191017801988900401838
:101C6000019001980499039A11438F22FFF76AF8B3
:101C700006B010BD10B587B00091044600980999D0
:101C8000069405900492039302A801700699084AED
:101C900089180191017801988900401801900598F0
:101CA00004990843039908430199086007B010BDDF
:101CB0005018000084B00390029101A802700399AB
:101CC000064A891800910178009889004018009010
:101CD00002980099086004B07047C04610180000D0
:101CE00082B0019000910098007801999F4A885035
:101CF000009840780199012212038850009880785A
:101D00000199B54A885002B07047C04610B586B0F8
:101D100001930B4601460198059104A90B8003AB82
:101D20001A8002AA10800598184C001909881B888F
:101D3000194312881143024AFFF740F806B010BD5C
:101D400080FF000080B582B00190009101980F499A
:101D50004018009903221207FEF7F4FF02B080BD7D
:101D600082B00190009100980199024A885002B017
:101D70007047C0460818000081B000900099034ADF
:101D8000885801231843885001B070470418000098
:101D900082B00190009100980199024A885002B0E7
:101DA0007047C0464810000081B000900099112093
:101DB0000202885801239843885001B0704781B0CF
:101DC000009000991120020288580123184388507E
:101DD00001B0704781B0009000990120C002024A12
:101DE000885001B07047C0468810000081B0009054
:101DF000009911200202885801235B04184388507F
:101E000001B0704782B001900091009B0199034A94
:101E100088581843885002B07047C0462810000008
:101E200081B0009000990120C2020248885001B0A0
:101E30007047C0460100002682B0019000910198D1
:101E4000024940580099084002B07047381000001D
:101E500081B000900098812149014058C0B201B082
:101E60007047000080B582B0019000910198FFF7A3
:101E70009BFF0198112109024018009A118893785C
:101E8000194392881143084AFEF770FF01982E49C2
:101E90004018009A9179D3791943127A11437E221E
:101EA000FEF764FF02B080BD1867020081B00090A9
:101EB000009803494058C0B2C00901B07047C046FD
:101EC0000811000081B00090009806494058C0B247
:101ED00001B0704781B00090009802494058C0B2EC
:101EE00001B070472411000081B000900099024AAF
:101EF0000248885001B0704704080000030000B198
:101F000080B584B003900291019203980B49401868
:101F100002990B4AFEF752FF03980A4940180199AB
:101F20003F22FEF74BFF0399074A88188958012280
:101F30001140FEF743FF04B080BDC0461011000001
:101F4000FFFF0000141100000411000082B0019096
:101F50000091009800780199044A885000984078D0
:101F6000019901221203885002B070470810000046
:101F700080B582B0019000910198112109024018AA
:101F800000990322D203FEF719FF02B080BD0000C2
:101F900080B584B0019101460198039102A90870AF
:101FA00003980D4A801809787022FEF707FF04B0E5
:101FB00080BDC04680B584B001910146019803916F
:101FC00002A908700398044A801809780722FEF7CE
:101FD000F5FE04B080BDC0460C11000082B0019037
:101FE000684601700078019989225201885002B038
:101FF000704780B582B0019068460170FFE7019894
:10200000FFF754FF002801D0FFE7F8E70198694681
:102010000978FFF7E3FF02B080BD80B582B0019080
:10202000019801F06EFF02B080BD000080B584B061
:102030000020039001A90870FFE701A80078072895
:1020400025DCFFE701A801780020009000F094FA59
:10205000009802A90870FFE702A800787F2810DC2A
:10206000FFE70399481C03900C48405C00F0DAFA43
:102070000120FFF7D2FFFFE70298401C02A9087079
:10208000EAE7FFE70198401C01A90870D5E7C820DE
:10209000FFF7C3FF00F08AF904B080BD065E0000C0
:1020A000704780B500F03AFB80BD000080B590B06D
:1020B0000FA9002008700EA908700DA908700CA9BE
:1020C00008700B900AA90870FFE70AA80078C728D3
:1020D0001EDCFFE70AA801786648405C3D2805D170
:1020E000FFE70A98401C0FA90870FFE70AA80178CB
:1020F0006048405C212805D1FFE70A98401E0EA9E0
:10210000087005E0FFE70A98401C0AA90870DCE7A0
:102110000FA801785748405C2D2808D1FFE70F9899
:10212000401C0FA908700CA901200870FFE70E9849
:102130000F99401A411C0DA801700078042825D180
:10214000FFE70FA801784B4842180892405C3038EE
:10215000FEF778FA01460898079180783038FEF744
:1021600071FA4549FEF744F80799FDF7E8FF014683
:1021700008980991C0783038FEF764FA3F49FEF7B5
:1021800037F80999FDF7DBFF0B9064E00DA80078A4
:1021900005282AD1FFE70FA802783649881805904C
:1021A0008A5C303A0A215143407840183038FEF7B3
:1021B00049FA014605980491C0783038FEF742FA92
:1021C0002D49FEF715F80499FDF7B9FF014605986A
:1021D000069100793038FEF735FA2849FEF708F8FD
:1021E0000699FDF7ACFF0B9034E00DA800780628A7
:1021F0002FD1FFE70FA802781E49881802908A5C49
:10220000303A642151434378303B0A225A438918BB
:10221000807840183038FEF715FA0146029801918F
:1022200000793038FEF70EFA1349FDF7E1FF019906
:10223000FDF785FF01460298039140793038FEF79B
:1022400001FA0E49FDF7D4FF0399FDF778FF0B90D3
:10225000FFE7FFE7FFE70CA80078012806D1FFE7BA
:102260000B980121C90748400B90FFE70B9810B06D
:1022700080BDC04610022020CDCCCC3D0AD7233CE7
:1022800080B582B04148FEF7D3FF401E01900C2874
:1022900078D80198810001A040588746D1220000DB
:1022A000D9220000E92200002B2300008323000034
:1022B00083230000852300006523000083230000A2
:1022C0008323000065230000832300008323000094
:1022D0002F490620087056E02C480821FEF742FFDF
:1022E0002B49032008704EE0294905200870FFE7BC
:1022F0002648FEF7A7FF002816D1FFE72848006808
:102300002849096888420AD2FFE72048FEF7B4FF4F
:10231000234B1A68511C19602349885403E01B4859
:10232000FEF7AAFFFFE7E3E72DE019490220087056
:102330001848006818490968884212D2FFE7154812
:10234000009002681548811813480068801A82B20C
:102350000E48FEF743FF009902460868801808609F
:10236000FFE710E00A480078042805D0FFE7084896
:102370000078012804D1FFE7054907200870FFE72E
:10238000FFE7FFE7FFE702B080BDC04600200F4037
:10239000310620204C0920205009202054092020FB
:1023A00024082020280820202C08202080B582B076
:1023B00001A900200870FFE701A80078072823DCA6
:1023C000FFE70198B030C0B200F0F2F8012000F051
:1023D000EFF8102000F0ECF8694600200870FFE7E5
:1023E000684600787F2809DCFFE7002000F01AF932
:1023F000FFE70098401C69460870F1E7FFE7019885
:10240000401C01A90870D7E702B080BD80B586B036
:10241000034605A8037004AB197003A90A70039959
:10242000203901AA117000787F2808DBFFE705A991
:10243000002008700498401C04A90870FFE705A854
:10244000007804A9097800F097F802A90020087024
:10245000FFE702A80078052811DCFFE701A8007853
:10246000062141433248401802A90978405C00F037
:10247000D9F8FFE70298401C02A90870E9E706B006
:1024800080BDC04680B586B005AB187004A8017049
:10249000039202A90020087001A90870694608701B
:1024A000FFE7039869460978405C00283DD0FFE7C4
:1024B000039869460978405C203802A9087005A88D
:1024C00000787F2808DBFFE705A900200870049842
:1024D000401C04A90870FFE705A8007804A9097842
:1024E00000F04AF801A900200870FFE701A8007871
:1024F000052811DCFFE702A80078062141430C48BB
:10250000401801A90978405C00F08CF8FFE70198B9
:10251000401C01A90870E9E70598801D05A908700D
:102520000098401C69460870BBE706B080BDC046F5
:10253000DE5B000080B584B00120019001050D48EC
:102540000290FEF7E7FC0199029809040391FEF757
:10255000E1FC642001F0D5FC02980399FEF7E0FD50
:10256000022001F041FFFFF761FDFFF71FFF04B0FC
:1025700080BDC04600200A4080B584B003AA019205
:10258000107002A801700298B030C0B200F010F8CC
:10259000019800780009103000F00AF80398012132
:1025A00008430F21084000F003F804B080BD00008C
:1025B00082B001A908706946002008700122520407
:1025C000354B1A600870FFE768460078072822DC60
:1025D000FFE7012040042F49086001A800780006A9
:1025E000002805D5FFE70120C0032949086004E061
:1025F0000120C00328490860FFE701204004274963
:1026000008600198400001A90870FFE70098401C8D
:1026100069460870D8E7012040041D49086002B0EF
:102620007047C04682B001A9087069460020087052
:1026300001225204164B1A600870FFE768460078C2
:10264000072822DCFFE7012040041249086001A8A6
:1026500000780006002805D5FFE70120C0030C49DB
:10266000086004E00120C0030B490860FFE7012077
:1026700040040A4908600198400001A90870FFE77A
:102680000098401C69460870D8E702B07047C04601
:1026900090320A40A0120A40A0320A4090120A402A
:1026A00080B582B00120019001F092F9019801F00B
:1026B000CDF902B080BD000010B588B007AC208015
:1026C00006A8018005A8028004A8038000220392C6
:1026D0000292079902A8009001800699418005990D
:1026E00081800499C18001880B480190FFF7E2FACC
:1026F0000099019849880122FFF7DCFA00990198B6
:1027000089880222FFF7D6FA00990198C988032226
:10271000FFF7D0FA08B010BD0000864080B5012058
:10272000FEF730FE002800D13CE19F481021FEF763
:102730003DFC002849D0FFE79C49012008709A48D9
:102740001021FEF7C1FC002804D0FFE798490120C2
:10275000087003E0964900200870FFE79248402186
:10276000FEF7B2FC002804D0FFE792490120087070
:1027700003E0904900200870FFE78C4800788C49FE
:10278000097840188B49097841188B480170007806
:10279000002805D0FFE788480078022805D1FFE728
:1027A00086490868401C086004E084490868401EA7
:1027B0000860FFE781480068FDF744FF8049086032
:1027C00079481021FEF784FBFFE777484021FEF7A8
:1027D000EDFB002849D0FFE77449002008707248DB
:1027E0001021FEF771FC002804D0FFE7704901209A
:1027F000087003E06E4900200870FFE7714840212F
:10280000FEF762FC002804D0FFE76A490120087047
:1028100003E0684900200870FFE7644800786449D5
:1028200009784018634909784118634801700078B5
:10283000002805D0FFE760480078022805D1FFE7AF
:102840005E490868401C086004E05C490868401E56
:102850000860FFE759480068FDF7F4FE5849086032
:1028600051484021FEF734FBFFE74F482021FEF797
:102870009DFB002847D0FFE75349012008704A48D4
:102880002021FEF721FC002804D0FFE74F4901205A
:10289000087003E04D4900200870FFE7424880219E
:1028A000FEF712FC002804D0FFE749490120087018
:1028B00003E0474900200870FFE743480078434998
:1028C0000978401842490978411842480170007857
:1028D000002805D0FFE73F480078022805D1FFE730
:1028E0003D490868401E086004E03B490868401CF8
:1028F0000860FFE738480068384908802A482021E6
:10290000FEF7E6FAFFE728488021FEF74FFB002894
:1029100047D0FFE72C490020087023482021FEF70C
:10292000D3FB002804D0FFE728490120087003E00A
:10293000264900200870FFE722488021FEF7C4FBEB
:10294000002804D0FFE722490120087003E0204955
:1029500000200870FFE71C4800781C4909784018DF
:102960001B49097841181B4801700078002805D0E0
:10297000FFE711480078022805D1FFE716490868EB
:10298000401E086004E014490868401C0860FFE726
:10299000114800681149088003488021FEF798FA21
:1029A000FFE7FFE780BDC04600200A40CD0E202093
:1029B000CF0E2020D10E2020680E2020F4032020EE
:1029C000DC02202000000A40CE0E2020D00E202065
:1029D000D20E2020690E2020F0032020E0022020CB
:1029E00080B584B001910246019803A90A80029043
:1029F000029809888900012200F0B6FF04B080BD6A
:102A000010B588B001910446019807A902910C8085
:102A10000690059204930698098889000122039282
:102A200000F0A2FF0299039A059809888900091D00
:102A300000F09AFF0299039A0498098889000831E6
:102A400000F092FF08B010BD80B588B01649012093
:102A5000059080070790FEF7C5F8059907980904C7
:102A6000FEF7F0F8059A0798002304930393029366
:102A7000019300931146FEF755F807980B49FEF7AE
:102A8000D5F80599079849020691FEF73FF806998F
:102A90000798FEF777F80420032101F001F8079862
:102AA000FEF765F808B080BD08620000409C000099
:102AB00080B5034A03480021FEF7BEF980BDC04639
:102AC0001062000000A0424080B5FFF7F1FF80BD1A
:102AD00080B592B00920FEF7B7FA0A20FEF7B4FAE3
:102AE0001E2007210491FEF7E1FA012009908103DD
:102AF000B6481090FEF744FA049808210391FEF7B7
:102B0000D5FA0399B2480D90FEF73AFA0D20052147
:102B10000791FEF7CBFA0D988021FEF731FA039862
:102B20000799FEF7C3FA0D9810210B91FEF728FACA
:102B300007992420FEF7BAFA09990D98C903FEF700
:102B40001FFA0C2004210591FEF7B0FA109802211B
:102B50000891FEF715FA04993420FEF7A7FA0999AF
:102B60000D98C905FEF70CFA05990620FEF79EFAA6
:102B700005990D98FEF704FA0598089900230C931F
:102B8000019300931A46FEF775FA08990C9B01937E
:102B90000093032006901A46FEF76CFA0598FEF79C
:102BA000D7F90698FEF7D4F908991420FEF77EFAB3
:102BB00008991520FEF752FA08991220FEF776FAC6
:102BC00008991320FEF74AFA08992D20FEF76EFAAD
:102BD00008992E20FEF742FA08990E20FEF766FAB1
:102BE00008990F200F90FEF739FA06992120FEF779
:102BF0005DFA06992320FEF759FA06992220FEF77E
:102C00002DFA0C9B0093272019461A46FEF7E4F98B
:102C100009980C9B009342040A92302011901946A7
:102C2000FEF7DAF93820FEF7EFF93920FEF7ECF974
:102C30003120FEF7E9F92620FEF7E6F907980C9B0C
:102C4000009319461A46FEF7C7F908980C9B0093A3
:102C500019461A46FEF7C0F90998FEF7B3F90C9821
:102C6000FEF7B0F90C9B0093362019461A46FEF782
:102C7000B3F90C9B0093352019461A46FEF7ACF9C0
:102C80000C9B0093252019461A46FEF7A5F93B2018
:102C9000FEF7BAF91F20FEF7B7F90A9A0C9B0093CA
:102CA00018201946FEF798F90A9A0C9B00931920F0
:102CB0001946FEF791F90A9A0C9B00931A201946BF
:102CC000FEF78AF90A9A0C9B00931B201946FEF71F
:102CD00083F90A9A0C9B00931C201946FEF77CF995
:102CE0000A9A0C9B009337201946FEF797F90B9828
:102CF0000C9B009319461A46FEF76EF90C9B009345
:102D0000112019461A46FEF767F90C9B009316200E
:102D100019461A46FEF760F90C9B009317201946D6
:102D20001A46FEF759F92020FEF76EF92A20FEF721
:102D30006BF92F20FEF768F90C9B0093332019469E
:102D40001A46FEF749F90C9B0093322019461A46A1
:102D5000FEF742F90C9B00932C2019461A46FEF709
:102D60003BF90C9B00932B2019461A46FEF734F9C9
:102D70000C9B00931D2019461A46FEF72DF90B20D7
:102D8000FEF742F90D9813490E91FEF7BFF90D9821
:102D90000E99FEF7F5F810980F49FEF7B1F8109864
:102DA0000E49FEF7B3F910980D49FEF7E9F80F99AF
:102DB00010980902FEF79CF910981199FEF77CF81B
:102DC00010981199FEF7D0F812B080BD00200A408B
:102DD00000000A40000002080100530C00800002BD
:102DE0000180530E80B582B0124913480190FEF75E
:102DF00073FA019803214902FEF75AFA0198FEF787
:102E0000BFF90198FEF74AFA01980921FEF7A2FAE4
:102E1000019800210091FEF789FA00990198FEF7C8
:102E200073FA0198FEF7C2F90198FEF7B5F902B0FE
:102E300080BDC0462862000000200F4080B588B0E9
:102E4000314932480790FEF74BFF07983049FEF7AB
:102E5000EEFC07980023059319461A46FEF756FF25
:102E6000059B0798009319461A46FEF703FF059A3B
:102E700007981146FEF794FE059A07981146FEF74B
:102E800019FF059B079801210291009119461A46E6
:102E9000FEF7F0FE029A05990798FEF781FE029A66
:102EA00005990798FEF706FF059B079802210391F5
:102EB0000091102204921946FEF7DCFE039A059950
:102EC0000798FEF76DFE039A05990798FEF7F2FE44
:102ED000049A059B07980321069100911946FEF775
:102EE000C9FE0599069A0798FEF75AFE0599069AB3
:102EF0000798FEF7DFFE0798FEF70EFD07980F21F3
:102F0000FEF744FE08B080BD2A6200000000864043
:102F10003062000080B584B01E491F480390FEF760
:102F2000DFFE03981D49FEF782FC039800230193FE
:102F300019461A46FEF7EAFE019B039800931946CC
:102F40001A46FEF797FE019A03981146FEF728FEEF
:102F5000019A03981146FEF7ADFE019B03980121EB
:102F60000291009119461A46FEF784FE0199029AD1
:102F70000398FEF715FE0199029A0398FEF79AFE50
:102F80000398FEF7C9FC03980321FEF7FFFD04B088
:102F900080BDC04638620000002086403C620000D0
:102FA00080B584B01E491F480390FEF799FE039830
:102FB0001D49FEF7DFFC03980023019319461A46CA
:102FC000FEF7A4FE019B0398009319461A46FEF7EC
:102FD00051FE019A03981146FEF7E2FD019A03980B
:102FE0001146FEF767FE019B0398012102910091B3
:102FF00019461A46FEF73EFE0199029A0398FEF71B
:10300000CFFD0199029A0398FEF754FE0398FEF74C
:1030100083FC03980321FEF7B9FD04B080BDC046D0
:103020004462000000A086404862000080B582B083
:103030000B490C480190FEF721FA01980A49FEF766
:10304000C5F901980121FEF707FA01981021022223
:10305000FEF726FA0198FEF7A3F902B080BDC0463C
:1030600050620000008046405262000080B5FFE7D9
:10307000FEF7EEFA03490840884201D0FFE7F7E780
:1030800080BDC0460003200080B582B000200090C3
:10309000FEF7E4FA012001900002FEF7EBFA009837
:1030A000FEF76CFBFEF7A2FAFEF7AEFA019A0320D8
:1030B00000031421FEF7FAFA0C48FEF715FA102067
:1030C000FEF76AFB0920FEF7E3FAFEF7ADFAFEF71A
:1030D000B3FA01984002FEF741FB0098FEF768FB47
:1030E0000199084600F0DCFC02B080BD5C62000083
:1030F00080B5C82000F018FA80BD000080B582B00D
:103100000A49EA480190FEF7EBFD01980849FEF7ED
:10311000B7FC01980121FEF709FC1020022100F004
:10312000BFFC0198FEF7F8FB02B080BD846200008E
:103130008862000080B582B00A49DD480190FEF740
:10314000CFFD01980849FEF79BFC01980121FEF78D
:10315000EDFB1120032100F0A3FC0198FEF7DCFB3E
:1031600002B080BD9C620000A062000080B582B009
:103170000B49D1480190FEF7B3FD01980949FEF7CC
:103180007FFC019801210091FEF7D0FB00991520EA
:1031900000F086FC0198FEF7BFFB02B080BDC04680
:1031A000B4620000B862000080B582B00A49C1482C
:1031B0000190FEF795FD01980849FEF761FC019822
:1031C0000121FEF7B3FB0220032100F069FC019806
:1031D000FEF7A2FB02B080BDCC620000D06200000E
:1031E00080B582B00E49B6480190FEF7AFFE019857
:1031F0000C49FEF737FE01980021FEF7B9FE019851
:10320000412189001B22FEF77BFE019803218902E0
:10321000FEF7F8FD0198FEF7D2FD02B080BDC04672
:10322000E4620000E662000080B582B00E49BD484D
:103230000190FEF78BFE01980C49FEF713FE0198F2
:103240000021FEF795FE0198412189001B22FEF71F
:1032500057FE019801218902FEF7D4FD0198FEF77F
:10326000AEFD02B080BDC046F0620000F262000018
:1032700080B582B0154993480190FEF767FE01982A
:103280001349FEF7EFFD01980021FEF771FE01984A
:103290004121009189001B22FEF732FE009901981E
:1032A0008902FEF7AFFD0198FEF794FD0198FEF745
:1032B0009DFD01987021FEF76BFE01980721FEF736
:1032C00079FE0198FEF77BFD02B080BDFC62000034
:1032D000FE62000080B582B00E497B480190FEF787
:1032E00035FE01980C49FEF7BDFD01980021FEF75F
:1032F0003FFE01984121C9003522FEF701FE0198E9
:1033000003218902FEF77EFD0198FEF758FD02B009
:1033100080BDC046086300000A63000080B500F06D
:1033200045F8FFF7D5FBFFF7AFFEFFF787FDFFF787
:10333000F1FDFFF735FEFFF7E1FEFFF7FBFEFFF7BC
:1033400033FFFFF713FFFFF74DFDFFF749FFFFF7CF
:103350006BFFFFF78DFFFFF7BDFFFFF767FEFFF77E
:1033600073FBFFF7B1FBFFF7C3FEFFF77FFE0949D1
:10337000B822002088540849885408497422885487
:103380000749885407492C22885407492422885425
:1033900080BDC04634062020F0062020AC07202047
:1033A000D4082020D4092020AC08202080B590B07B
:1033B0003A480090FDF794FE89480190FDF790FE91
:1033C00037480290FEF7DAFB36480390FEF7D6FB4B
:1033D00035480490FEF7D2FB7C480590FEF7CEFB03
:1033E00092480690FEF7CAFB9A480790FEF7C6FB84
:1033F00084480890FEF7C2FB30480990FDF746FF6D
:103400009D480A90FEF770FDB7480B90FEF76CFDE3
:10341000CD480C90FEF768FDE2480D90FEF764FD84
:103420002A480E90FEF70CF8012080070F90FDF758
:10343000CDFB0098FDF7B0FD0198FDF7ADFD0298BA
:10344000FEF782FA0398FEF77FFA0498FEF77CFAFB
:103450000598FEF779FA0698FEF776FA0798FEF7D0
:1034600073FA0898FEF770FA0998FDF7ABFE0A9810
:10347000FEF7D6FC0B98FEF7D3FC0C98FEF7D0FCB9
:103480000D98FEF7CDFC0E98FDF794FF0F98FDF711
:1034900087FB1020FDF7FCFB10B080BD00000A4048
:1034A000000086400020864000A086400040084082
:1034B00000808640000009400000874000200F4047
:1034C0000080104000201040000050400080464026
:1034D00080B592B002920A4602990392024603987E
:1034E000119210AA10800FA801800021525E049250
:1034F000405E05901198FDF7D0F8049A059B019164
:103500000090074907A8069001F0CEFE0698FCF748
:103510000FFE069982B27448FEF770F912B080BDB2
:10352000146300000000104080B584B0029002983F
:10353000401E000E002803D0FFE70120039011E099
:103540000298401E0949086000200190C0430321F1
:1035500000F0A6FA019806490860064A07211160A2
:103560000390FFE7039804B080BDC04614E000E07C
:1035700018E000E010E000E002490868401C086024
:103580007047C0466C0E202080B51048FEF7E8F961
:10359000012819D1FFE70E4800F036FD00F066FE65
:1035A0000C480168491C016001680B48484301212F
:1035B000C8410A49884206D8FFE70120C106E94808
:1035C000FDF7C4FDFFE700E0FFE780BD00400840D5
:1035D000700E202000032020295C8FC251B81E05E8
:1035E00000200A4080B50748FEF7BAF9012806D145
:1035F000FFE7054800F008FD00F09BFC00E0FFE756
:1036000080BDC04600008740900E202080B507484E
:10361000FEF7A6F9012806D1FFE7054800F0F4FC03
:1036200000F088FC00E0FFE780BDC04600808640D7
:10363000800E202080B50748FEF792F9012806D1B8
:10364000FFE7054800F0E0FC00F07EFC00E0FFE74B
:1036500080BDC04600000940A00E202080B582B089
:103660000548FEF737FC014601A80170007800F01C
:10367000F3FC02B080BDC0460080104080B582B02F
:103680000120810201911848FEF7D6FB019988427A
:1036900028D1FFE71448FEF715FC014613480170D6
:1036A000134A1178491C1170017812788B4BD2188B
:1036B000521E1170007821280BD1FFE7012000F085
:1036C00077F88648C821FCF728FD094900200870D2
:1036D000FFE7064900200870012081020248FEF73A
:1036E00057FBFFE702B080BD00001040F002202031
:1036F000FD02202080B584B0012081020291124891
:10370000FEF79AFB0299884210D1FFE70E4801901C
:10371000FEF7D8FB014603A80170007800F026FAF6
:10372000019801218902FEF733FBFFE70648FEF707
:103730008FFB112804D1FFE7044800F065FC00E08E
:10374000FFE704B080BDC04600201040BC0E202022
:1037500080B582B00120810200911248FEF76CFB17
:10376000009988421BD1FFE70E48FEF7ABFB01A989
:1037700008700D480088022804DBFFE70A49002092
:103780000880FFE70198084B1A88511C19800749E7
:103790008854012081020348FEF7FAFAFFE702B0DD
:1037A00080BDC046000050404C0520204805202028
:1037B00080B584B003A901910870FEF777FC01463B
:1037C000019802910078012800D085E043480078F4
:1037D000502809D1FFE741484078312804D1FFE75C
:1037E00002984249086176E03C480078492809D1AE
:1037F000FFE73A484078312804D1FFE702983B4977
:10380000486167E035480078442809D1FFE733482C
:103810004078312804D1FFE702983449886158E0A4
:103820002E480078502809D1FFE72C4840783228EC
:1038300004D1FFE702982C49086149E02748007845
:10384000492809D1FFE725484078322804D1FFE70D
:103850000298254948613AE020480078442809D177
:10386000FFE71E484078322804D1FFE702981E493E
:1038700088612BE019480078532810D1FFE71748DA
:10388000407870280BD1FFE714488078652806D16E
:10389000FFE70298FCF7E8FE1249088015E00F48A0
:1038A0000078502810D1FFE70C4840786F280BD1E2
:1038B000FFE70A488078732806D1FFE70298FCF7F3
:1038C000D3FE07490880FFE7FFE7FFE7FFE7FFE7D1
:1038D000FFE7FFE7FFE7FFE704B080BD100220200D
:1038E000E4022020E6022020C4002020F001202055
:1038F00080B586B00590049103A80280012041069E
:103900001848FDF711FB032000F056FD04A80190B4
:10391000807800F051FD0198407800F04DFD01984D
:10392000007800F049FD02A900200880FFE702A806
:10393000008803A9098888420DDAFFE7FF2000F01C
:103940003BFD059902AA12888854FFE70298401CA3
:1039500002A90880EBE7012041060248FDF7EAFBD7
:1039600006B080BD00200A4080B586B00590049165
:10397000039201A9002008800880FFE701A80088C1
:103980000399884215D2FFE7049801A909888900A4
:10399000411802A80422FFF7ABFF029805990860BE
:1039A0000598001D0590FFE70198401C01A90880BB
:1039B000E4E706B080BD81B0009000990120C00707
:1039C0008143FF20C005401AC00F01B070470000BE
:1039D00081B001466846017000214056002809D494
:1039E000FFE7684601781F200140012088400C490C
:1039F0000860FFE701B0704781B00146684601707A
:103A000000214056002809D4FFE7684601781F20AE
:103A100001400120884002490860FFE701B070477B
:103A200080E200E081B00146684601700021405606
:103A3000002809D4FFE7684601781F2001400120D3
:103A4000884016490860FFE701B0704781B0014621
:103A50006846017000214056002809D4FFE76846F7
:103A600001781F200140012088400C490860FFE7D1
:103A700001B0704781B00146684601700021405690
:103A8000002809D4FFE7684601781F200140012083
:103A9000884002490860FFE701B0704700E100E09C
:103AA00070B582B0024601A8027000910021405614
:103AB000002816D4FFE7002401A908570322D343A6
:103AC0001840174A805809578C07E50EFF24AC4070
:103AD000A043009CA401E4B2AC40204319408850AC
:103AE0001AE001A908780F24204008380322D343A4
:103AF00018400A4A8058002549578D07EE0EFF25C9
:103B0000B540A843009DAD01EDB2B540284321402A
:103B1000083919408850FFE702B070BD1CED00E085
:103B200000E400E070B586B00C4605460B980A9993
:103B30000595049403AC2280029301AA1180694682
:103B4000087004980521FCF7BCFD059908800398CE
:103B5000059948800298059948600198059908815F
:103B600000980599087506B070BD000010B588B0C2
:103B700007A9087006A90020087076480078002878
:103B80000CD1FFE707A80078A52807D1FFE7714906
:103B900001200870079872490870D8E06D480078D5
:103BA000012812D1FFE707A8007831280DDCFFE7D4
:103BB00068490220087007986749087007986849A3
:103BC0004870664900200870C0E06248007802280A
:103BD0001AD1FFE760480078012815DBFFE75E484F
:103BE0000178491E017007995C4C2278531C2370A0
:103BF0005B4BD21891700078002804D1FFE755493B
:103C000003200870FFE7A0E05248007803280CD199
:103C1000FFE75049042008700798504B19784A1C58
:103C20001A704F4A891888708EE04A480078042834
:103C300000D084E007A800785A2800D07FE00798D9
:103C4000464B19784A1C1A70454A891888704149B0
:103C50000020087006A9087005A901200880FFE768
:103C600005A800883D49097888420EDAFFE705A8D3
:103C700001883B48415C0698401806A90870FFE798
:103C80000598401C05A90880EAE706A80078334992
:103C90000A783349895C884250D1FFE73048039065
:103CA000304A02920221FCF70DFF029903980A1D87
:103CB0000621FCF707FF029A039808320A21FCF755
:103CC00001FF029A03980C320E21FCF7FBFE029AC8
:103CD000039810321221FCF7F5FE029A0398143271
:103CE0001621FCF7EFFE029A039818321A21FCF70E
:103CF000E9FE029A03981C321E21FCF7E3FE04A998
:103D000000200880FFE704A80088072815DCFFE7EB
:103D100004A800880190810012484058FCF7A4FCD8
:103D200001994A0010498852104901200870FFE7A4
:103D30000498401C04A90880E5E7FFE703E0054973
:103D400000200870FFE7FFE7FFE7FFE7FFE708B0A5
:103D500010BDC046E2042020E1042020E004202021
:103D6000F404202028052020E4042020260520201B
:103D700010B594B00620069000221292059204928B
:103D800001240F9403943E481090029001929B48A6
:103D9000099000903B4808903B490A913B4B00F04A
:103DA00091FA08980999109B129A06940592049228
:103DB0000394029301920091DC30354B0C9300F098
:103DC00081FA0A980C9B129A069405920492039425
:103DD00030490B910291019200902F482F4900F039
:103DE00071FA0B991098129A069405920492039412
:103DF00002912B490D91019100902A484121090619
:103E00003F2212061192FF239B050E9300F05AFAEF
:103E10000C991098129B06940593049303940290B6
:103E2000019321480090214813901A4600F04AFA65
:103E30000D980E99109B129A069405920492039481
:103E4000029301901A4800901A481B4B00F03AFA6E
:103E50000F9A10981199129B06920593049303925E
:103E6000029001931548009015481A4600F02AFA6E
:103E700013991448DC22FCF737F914B010BDC04682
:103E80000000FA430C0A20200000F0410000164315
:103E90000000A04000C07944E0002020000007435B
:103EA00000009643C40B202000004842B00C2020A4
:103EB000000048438C0D2020000040400000964246
:103EC000540520200004202080B582B00190019983
:103ED0007D20C000484300F002F802B080BD80B5EC
:103EE00082B0019000F0D0F90090FFE700F0CCF92B
:103EF0000099401A0199884201D2FFE7F6E702B023
:103F000080BD80B582B001900198FFF7DDFF02B05F
:103F100080BD80B584B00B46014603A8017002A99C
:103F20000B70019200780978019A00F071FF04B0DB
:103F300080BD704780B50349002318461A46FEF736
:103F4000BBFB80BDB80B00007047000080B584B09B
:103F500010480188491C01800088042816DBFFE70F
:103F60000C490020039008802349019123480862EE
:103F7000094802900068FCF765FB019B0299024624
:103F800003989A61054A10600860FFE71A48806943
:103F900004B080BD040A2020F4032020DC0220208D
:103FA00080B584B012490020086012480188491C7D
:103FB00001800088042816DBFFE70E4800210391EA
:103FC00001800D4A01920D4850620D480290405EFA
:103FD000FCF738FB019B029902460398DA61094A13
:103FE00010600880FFE70448C06904B080BDC04687
:103FF000B00E2020060A2020000020200000A04152
:10400000E0022020F003202080B582B001900198CA
:1040100040680199086000F037F9FCF71EFB0C4975
:10402000FCF723F9019948600198406801990968F3
:10403000FCF7D6F801998860019880683F2109064D
:10404000FCF77DF8FCF710FB0199888102B080BD78
:1040500000007A447047000080B586B005A908705A
:1040600003A9002008704C480078002810D1FFE711
:1040700005A8007855280AD1FFE7059847490B782D
:10408000474AD054444A012010700870FFE780E08E
:1040900041480078012810D1FFE705A8007853288F
:1040A0000AD1FFE705983D490B783D4AD0543A4A7A
:1040B000022010700870FFE76AE037480078022895
:1040C00065D1FFE70599354803785A1C0270344AD8
:1040D000D15400780B2859D1FFE704A900200870BB
:1040E000FFE704A8007809280EDCFFE7039804A97D
:1040F0000A782B49895C401803A90870FFE70498E7
:10410000401C04A90870ECE703A800782449897AC8
:10411000884235D1FFE722490091C87800028978AA
:10412000401800B2FCF78EFA472109060191FCF70E
:104130009CF81C490291FCF75BF80099484A106012
:10414000487900020979401800B2FCF77BFA01991E
:10415000FCF78BF80299FCF74BF80099414A106084
:10416000C87900028979401800B2FCF76BFA01990E
:10417000FCF77BF80299FCF73BF838490860FFE749
:1041800005490020087005490870FFE7FFE7FFE7D1
:10419000FFE706B080BDC046FE022020FC022020C2
:1041A000F10220200000344380B584B00020039049
:1041B00000F0F4FDFFF7B2F8FEF7BCF9FFF7D8FD09
:1041C00000F008FA00F0F0F800F0BDF8FDF768FF25
:1041D000FCF736FC00F0CCF9FFF73CFFFEF760FA85
:1041E0000120C1061B48FCF781FEFFE72448006858
:1041F000FCF73AFA0090234801900068FCF734FA83
:10420000009902461448FFF763F914480268012137
:1042100002910846FFF77DFE029811490A680221C3
:10422000FFF777FE02980F490A680321FFF771FE36
:10423000019902980A680521FFF76BFE00210A48E0
:104240004056FCF7FFF9024602980621FFF761FE8F
:10425000CCE7C04600000A400000F04108032020DF
:10426000EC022020E8022020B90E202080B5FFF7C4
:1042700097FE03490860FFF769FE0249086080BDA8
:10428000A40C2020A80C202080B582B00A48019000
:104290000A4802687D20C0000146514300910199FF
:1042A000074A1268891A48430199FCF70AFA01463D
:1042B0000098401802B080BD803801006C0E2020AC
:1042C00018E000E0F0B587B014460D460646129897
:1042D000119910990F9A0E9F0D9F0C9F06960595A8
:1042E0000494039302AB1A7001AA11706946087016
:1042F00005980699086004980699486003980699FD
:1043000088600C980699802288500D9806998C2216
:1043100088500E98069990228850029806997D221E
:104320008854019806998422885411980699882205
:104330008850009806997C2288540699942201207E
:10434000885407B0F0BD80B500F002F880BD0000D1
:1043500080B586B000200290019000900F487D2229
:10436000D1000391920004923F231B060593FFF7AF
:10437000D9FB02980399049A059B01900090084884
:10438000FFF7D0FB02980399049A059B01900090D7
:104390000448FFF7C7FB06B080BDC0468000202060
:1043A000680020205000202080B502480121FCF741
:1043B000C5FD80BD00200A4080B582B0014601A83D
:1043C000017001780748FDF783F8FFE70548FDF71E
:1043D00021F8002801D0FFE7F8E70248FDF726F8AA
:1043E00002B080BD00804640F0B585B004A90391BD
:1043F000087004984B4908704B4D28884B4C20801E
:104400004B4B18884B4A10804B4900200190088084
:104410004A4908804A4E012131704A4F4A4E3E8037
:104420004A4F3E804A4E31704A49087080210091BF
:10443000298021804021029119801180464908700D
:10444000AE2000F08BF8D52000F088F8009800F03E
:1044500085F8A82000F082F83F2000F07FF8D320F4
:1044600000F07CF8019800F079F8029800F076F8F6
:104470008D2000F073F803980078012804D1FFE73D
:10448000102000F06BF803E0142000F067F8FFE75D
:10449000202000F063F8002000F060F8A12000F078
:1044A0005DF8C82000F05AF8DA2000F057F8122022
:1044B00000F054F8812000F051F804A80078012899
:1044C00004D1FFE79F2000F049F803E0CF2000F07F
:1044D00045F8FFE7D92000F041F804A8007801284A
:1044E00004D1FFE7222000F039F803E0F12000F0CA
:1044F00035F8FFE7DB2000F031F8402000F02EF81F
:10450000A42000F02BF8A62000F028F8A12000F04D
:1045100025F8C82000F022F8AF2000F01FF805B001
:10452000F0BDC046FA03202004032020FC03202015
:10453000E2022020F80320204E05202050052020F4
:10454000B80E2020B40E2020FFFF0000B60E202061
:10455000CC0E2020EC032020080A202080B582B059
:10456000014601A801700078FEF722F802B080BD74
:1045700080B51148FDF700FC1048FDF7FDFB104821
:10458000FDF7FAFB1020FFF74DFA0E48FDF7F4FB9C
:104590001120FFF747FA0C48FDF7EEFB0220FFF76A
:1045A00041FA0A48FDF7E8FB1520FFF73BFA0848F7
:1045B000FDF7E2FB80BDC04600008640002086403B
:1045C00000A086400040084000808640000009406E
:1045D0000000874080B5C0B026203FA9FEF700FA52
:1045E00027203EA9FEF7FCF928203DA9FEF7F8F99F
:1045F00029203CA9FEF7F4F92A203BA9FEF7F0F99F
:104600002B203AA9FEF7ECF92C2039A9FEF7E8F99E
:104610002D2038A9FEF7E4F93F98FFF7CCF90028E0
:1046200006D1FFE73F98FCF71FF8FE49087003E04A
:10463000FC4900200870FFE73E98FFF7BCF900280E
:1046400006D1FFE73E98FCF70FF8F649487003E003
:10465000F44900204870FFE73D98FFF7ACF90028C7
:1046600006D1FFE73D98FBF7FFFFEE49887003E0B6
:10467000EC4900208870FFE73C98FFF79CF9002880
:1046800006D1FFE73C98FBF7EFFFE649C87003E06F
:10469000E4490020C870FFE73B98FFF78CF9002839
:1046A00004D1FFE73B98DF49486003E0DD49E0487B
:1046B0004860FFE73A98FFF77EF9002806D1FFE748
:1046C0003A98FBF7D1FFD749088103E0D549D9488B
:1046D0000881FFE73998FFF76EF9002806D1FFE758
:1046E0003998FBF7C1FFCF49488103E0CD49D24853
:1046F0004881FFE73898FFF75EF9002806D1FFE709
:104700003898FBF7B1FFC749888103E0C549CA481B
:104710008881FFE700203790369037A9FEF760F9CF
:10472000012036A9FEF75CF93798FFF744F9002815
:1047300004D1FFE73798C149086003E0BF49C0488A
:104740000860FFE73698FFF736F9002806D1FFE743
:104750003698FBF789FFBB49088003E0B949002080
:104760000880FFE7082034A9009132AA019230ABFB
:104770000293FEF745F90B202FA9FEF731F90099B6
:10478000019A0298091D121D031D1320FEF738F926
:104790000C202EA92DAA2CABFEF732F90F202BA945
:1047A000FEF71EF93498FFF706F9002804D1FFE759
:1047B0003498A549086003E0A349A4480860FFE7CE
:1047C0003298FFF7F8F8002804D1FFE732989E49A5
:1047D000486003E09C4900204860FFE73098FFF7FD
:1047E000EAF8002804D1FFE730989749886003E091
:1047F000954997488860FFE72F98FFF7DCF8002875
:1048000004D1FFE72F989349086003E0914992484B
:104810000860FFE73598FFF7CEF8002805D1FFE7DD
:1048200035988949DC22885004E08749DC228B488E
:104830008850FFE73398FFF7BEF8002805D1FFE75F
:1048400033988149E022885004E07F49E02200202B
:104850008850FFE73198FFF7AEF8002805D1FFE751
:1048600031987949E422885004E07749E4227C4871
:104870008850FFE72E98FFF79EF8002804D1FFE745
:104880002E987849086004E07649FF20800508608A
:10489000FFE72D98FFF78FF8002804D1FFE72D9848
:1048A0007049486003E06F4900204860FFE72C989A
:1048B000FFF781F8002804D1FFE72C986949886048
:1048C00003E0684968488860FFE72B98FFF773F8B2
:1048D000002804D1FFE72B986449086004E063498D
:1048E0003F2000060860FFE710202AA929AA28AB6C
:1048F000FEF786F82A98FFF75EF8002804D1FFE754
:104900002A985B49086004E0594941200006086084
:10491000FFE72998FFF74FF8002804D1FFE729980F
:104920005449086003E0534953480860FFE728985A
:10493000FFF741F8002804D1FFE72898FC490860F8
:1049400003E0FB4900200860FFE7162027A926AAFC
:1049500025ABFEF755F81F2024A9FEF741F81C20CF
:1049600023A922AA21ABFEF74BF82798FFF723F8DB
:10497000002804D1FFE72798F249086003E0F149D5
:10498000F1480860FFE72698FFF715F8002804D1E2
:10499000FFE72698EB49486003E0EA4900204860B9
:1049A000FFE72598FFF707F8002804D1FFE72598CF
:1049B000E449886003E0E349E0488860FFE7249821
:1049C000FEF7F9FF002804D1FFE72498DF490860CB
:1049D00003E0DE49DE480860FFE72398FEF7EBFFBF
:1049E000002804D1FFE72398DA49086004E0D94998
:1049F000412000060860FFE72298FEF7DCFF002850
:104A000004D1FFE72298D349486004E0D1493F2010
:104A100000064860FFE72198FEF7CDFF00282DD162
:104A200002E0C046C80120202198CA4988602AE0D7
:104A30009A99194024040000DC050000AC0C2020E9
:104A40000000A0420A0A20200C0A20200000F041A9
:104A500000001643D80120209A99193E0000A04179
:104A60000000A0408C0D202000004040C401202008
:104A7000C0012020BC0120209A99193FB549FF2090
:104A800080058860FFE7202020A91FAA1EABFDF744
:104A9000B7FF2098FEF78FFF002804D1FFE720988A
:104AA000AD49086003E0AC49AC480860FFE71F98D7
:104AB000FEF781FF002804D1FFE71F98A84908608E
:104AC00003E0A7499E480860FFE71E98FEF773FFC2
:104AD000002804D1FFE71E98A249086003E0A1491D
:104AE00000200860FFE723201DA9FDF779FF24209F
:104AF0001CA9FDF775FF25201BA9FDF771FF1D9867
:104B0000FEF759FF002806D1FFE71D98FBF7ACFD23
:104B10009549087003E0944901200870FFE71C984C
:104B2000FEF749FF002806D1FFE71C98FBF79CFD24
:104B30008E49087003E08D4900200870FFE71B983C
:104B4000FEF739FF002806D1FFE71B98FBF78CFD25
:104B50008749087003E0864901200870FFE706A92D
:104B600000200880FFE706A80088132810DCFFE774
:104B700006A80188084665308A0007A9891880B20E
:104B8000FDF72EFFFFE70698401C06A90880EAE71C
:104B90000798FEF710FF002804D1FFE70798754932
:104BA000086003E0734964480860FFE70898FEF76F
:104BB00002FF002804D1FFE708986E49486004E02E
:104BC0006C49032080074860FFE70998FEF7F3FE71
:104BD000002804D1FFE709986649886003E0654929
:104BE00055488860FFE70A98FEF7E5FE002804D1E3
:104BF000FFE70A985F49C86003E05E495E48C86005
:104C0000FFE70B98FEF7D7FE002804D1FFE70B98CB
:104C10005849086103E0574946480861FFE70C9886
:104C2000FEF7C9FE002804D1FFE70C9851494861FE
:104C300003E0504951484861FFE70D98FEF7BBFE7D
:104C4000002804D1FFE70D984A49886103E04949EB
:104C50004B488861FFE70E98FEF7ADFE002804D1AF
:104C6000FFE70E984349C86103E042494348C861E1
:104C7000FFE70F98FEF79FFE002804D1FFE70F988B
:104C80003C49086203E03B493E480862FFE7109850
:104C9000FEF791FE002804D1FFE7109835494862DD
:104CA00003E0344938484862FFE71198FEF783FE75
:104CB000002804D1FFE711982E49886203E02D49AE
:104CC00032488862FFE72F2005A904AA03ABFDF74D
:104CD00097FE0598FEF76FFE002806D1FFE70598BE
:104CE000FBF7C2FC2A49087103E02949002008713A
:104CF000FFE70498FEF75FFE002804D1FFE7049861
:104D00002349886003E0224922488860FFE703982E
:104D1000FEF751FE002804D1FFE703981C49C86044
:104D200003E01B491C48C860FFE740B080BDC04697
:104D3000A00C20200000F0410000A0410000A04095
:104D400000004040E0002020000007433C002020FD
:104D500000004E42C40B20204800202000002041CB
:104D600044002020DC042020410020204C00202092
:104D700040002020980020200000D8410000C841B9
:104D8000000020420000B04100008C410000704152
:104D9000DC0120206666E6400000B04080B586B0A9
:104DA0000F200190FEF728FE0D200290FEF724FE52
:104DB0000E200390FEF720FE03200490FEF71CFE59
:104DC0000198FEF757FE0298FEF754FE0398FEF78F
:104DD00051FE0498FEF74EFE01208102059108481D
:104DE000FCF7D6FF05990748FCF7D2FF059906485E
:104DF000FCF7CEFF05990548FCF7CAFF06B080BD59
:104E00000080104000001040002010400000504082
:104E100080B5A4B023AB187022A80170219220A8FD
:104E2000002101701CA81B902198FBF7FDFB0028B6
:104E300015D1FFE71CAA2D20107023A81890007828
:104E400022A909781278FDF7E1FA18992398801DB4
:104E5000087021980121C90748402190FFE7219857
:104E6000FBF702FC1990219817901998FBF7EAFBC1
:104E700001461798FBF7B4F91A901998FC49884233
:104E800016DBFFE71998FA491591FBF739FC1599DC
:104E9000303020AA169213781CAAD0541998FBF728
:104EA0002FFC0846169919902098401C0870FFE7BF
:104EB0001998F049884216DBFFE71998ED491391DC
:104EC000FBF71EFC1399303020AA149213781CAA09
:104ED000D0541998FBF714FC08461499199020989F
:104EE000401C087013E01998E34988420EDCFFE784
:104EF00020A80078002809D0FFE720A90B781CAA79
:104F00003020D0542098401C0870FFE7FFE7199824
:104F1000DA49884216DBFFE71998D8491191FBF767
:104F2000EFFB1199303020AA129213781CAAD054AA
:104F30001998FBF7E5FB0846129919902098401C38
:104F4000087013E01998CE4988420EDCFFE720A8CC
:104F50000078002809D0FFE720A90B781CAA302090
:104F6000D0542098401C0870FFE7FFE71998C54906
:104F7000884216DBFFE71998C2490F91FBF7C0FB87
:104F80000F99303020AA109213781CAAD054199887
:104F9000FBF7B6FB0846109919902098401C087042
:104FA00013E01998B84988420EDCFFE720A8007882
:104FB000002809D0FFE720A90B781CAA3020D05484
:104FC0002098401C0870FFE7FFE71998AF49884216
:104FD00016DBFFE71998AD490D91FBF791FB0D9991
:104FE000303020AA0E9213781CAAD0541998FBF7DF
:104FF00087FB08460E9919902098401C087013E012
:105000001998A34988420EDCFFE720A80078002801
:1050100009D0FFE720A90B781CAA3020D054209893
:10502000401C0870FFE7FFE719989A49884216DB91
:10503000FFE7199897490B91FBF762FB0B9930300A
:1050400020AA0C9213781CAAD0541998FBF758FB8D
:1050500008460C9919902098401C087013E0199884
:105060008D4988420EDCFFE720A80078002809D08F
:10507000FFE720A90B781CAA3020D0542098401CB0
:105080000870FFE7FFE719987D21C900884217DB08
:10509000FFE719987D21C9000991FBF731FB0999B8
:1050A000303020AA0A9213781CAAD0541998FBF722
:1050B00027FB08460A9919902098401C087013E0B5
:1050C0001998764988420EDCFFE720A8007800286E
:1050D00009D0FFE720A90B781CAA3020D0542098D3
:1050E000401C0870FFE7FFE71998642816DBFFE70C
:1050F000199864210791FBF703FB0799303020AA28
:10510000089213781CAAD0541998FBF7F9FA0846AC
:10511000089919902098401C087012E0199863288B
:105120000EDCFFE720A80078002809D0FFE720A9BF
:105130000B781CAA3020D0542098401C0870FFE740
:10514000FFE719980A2816DBFFE719980A2105914D
:10515000FBF7D6FA0599303020AA069213781CAADC
:10516000D0541998FBF7CCFA084606991990209864
:10517000401C087012E0199809280EDCFFE720A8EF
:105180000078002809D0FFE720A90B781CAA30205E
:10519000D0542098401C0870FFE7FFE71998303082
:1051A00020A90A781CA988541A983D49FBF72EFAC1
:1051B00000284BD1FFE72098401C20A904910870DB
:1051C0000B781CAA02922E20D0542098401C087004
:1051D0001A983449FBF70CF8FBF746FA199019981E
:1051E00064210391FBF78CFA029A0399049B3030F7
:1051F0001B78D0541998FBF783FA08460499199044
:105200002098401C08701998012810DBFFE71998B6
:105210000A210191FBF774FA0199303020AA137822
:105220001CAAD0541998FBF76BFA1991FFE719984B
:1052300000280AD4FFE72098401C20A9087019987C
:1052400030300A781CA98854FFE7FFE72098411CFA
:1052500020A8017002781CA90020885423A8007897
:1052600022A909781B9AFDF70DF924B080BDC0462C
:1052700000CA9A3B00E1F505FFE0F505809698002D
:105280007F96980040420F003F420F00A086010029
:105290009F860100102700000F270000E703000091
:1052A00017B7D13800007A440FB410B504A9074BE2
:1052B00002AA039800F0F2F8044602A9002000F0C8
:1052C00089FC204610BC08BC04B01847D55B000020
:1052D0002021020C01D010211046020A01D01046F4
:1052E0000839020901D01046091F820801D0104672
:1052F000891E420801D0881E7047081A70470000B6
:1053000002E008C8121F08C1002AFAD17047000045
:105310007047000000000000002001E001C1121FE2
:10532000002AFBD170470000F0B51FB486B0099881
:10533000089A030D0021024314D05148514A18180D
:10534000504305141198012810981AD0281A401CAF
:1053500000264D4F4D49009601910490002812DA25
:10536000444211E01198012449A3012801D1109869
:10537000C1430698119A84600360C26041600BB01B
:10538000F0BD4042E4E70446210500203F4A001CEE
:1053900051410391029012E0E00707D032463B46AC
:1053A00001990098FBF752F80191009032463B4674
:1053B00010461946FBF74AF806460F466410002CC3
:1053C000EAD10498039B0028029A0999089806DA02
:1053D000FBF73CF8019B009AFBF738F805E0FBF778
:1053E0009DF8019B009AFBF799F804460E460022AF
:1053F000284BFBF7C1FA03D80020C043014607E061
:105400000022254B20463146FAF76EFFFBF794FA4F
:10541000102409E0002C0ADB0A220023FBF798F98C
:10542000079B30321A55641E02460A43F2D11122FC
:10543000641C079B121B1C19119B012B03D0012319
:1054400008430ED10AE0084304D011201090002038
:10545000119077E71098151A6D1E0BE01098824294
:1054600002DD00236D1C03E0824201DA00236D1E81
:10547000002BEED0069811998260C16030C07EE7A3
:1054800001FCFFFF104D0000000014400000F03F41
:10549000300000000000F0430000E03FFFB597B08F
:1054A0000646002518E2252877D100242746FD4925
:1054B000049400E00443761C32780120203A9040A6
:1054C0000842F7D130782A280ED0022230780146DF
:1054D0003039092916D804990A235943303940181C
:1054E0001443761C0490F1E7189802C804911890B0
:1054F000002904DA012040030443484204900220BA
:105500000443761C30782E2814D10420044370788C
:10551000761C2A2809D11898761C80C8189009E0B2
:105520000A214F43303FC719761C30780146303985
:105530000929F5D930786C2810D006DC4C281AD00F
:1055400068280ED06A2817D104E0742813D07A286E
:1055500012D110E00120400504430CE001210905AF
:1055600001E0032109050C437178814203D1012038
:1055700000052418761C761C3078119066280BD014
:1055800013DC58287DD009DC00287BD04528F6D0D4
:105590004628F4D047281AD1A5E118E0632835D071
:1055A000642870D0652812D19DE170286CD008DC89
:1055B0006728F1D069287BD06E280DD06F2806D1DE
:1055C000BAE073282ED0752871D0782859D01A9A4D
:1055D000199990476D1C7EE16002400F022809D0A6
:1055E00003280DD00428189801680DD00D60001D07
:1055F000189070E11898EA1701680D604A60F6E7A4
:10560000189801680D80F2E70D70F0E718986A4667
:1056100001781172001D18900020507202A80090AD
:10562000012005E0189802C8189000200091C0439E
:1056300061070DD5002101E00199491C0191B94292
:1056400012DA8142F8DB009A515C0029F4D10BE0B8
:10565000002101E00199491C01918142FADB019A84
:105660000099895C0029F5D1019904981A9B471A81
:1056700021463846199A00F097FA019940194518C1
:105680000BE04FE02CE113E04EE000980099007829
:10569000491C00911A9A199990470198401E01904F
:1056A000401CF2D1214638461A9B199A10E137E086
:1056B0000A200021009001916002410F022907D0C9
:1056C000189A01CA1892C2179446032908D00AE012
:1056D0001898C01DC108C90005C91891944607E073
:1056E00000B2C2179446042902D140B2C1178C46B9
:1056F00000226146944506DA0A4600214042914163
:105700008C462D2102E0210504D52B216A46117318
:10571000012103E0E10701D02021F7E7029155E0E4
:105720000A200AE0102008E0102000900021042048
:1057300004430191082703E0082000210191009013
:105740006002410F022907D0189A01CA189200225C
:105750009446032908D008E01898C01DC108C90064
:1057600005C91891944603E080B2042900D1C0B263
:1057700000210291210729D51199702906D0009A9C
:105780001021019B4A401A4305D00EE040216A4691
:105790001173012108E06146014306D030216A46B9
:1057A00011731199517302210291009A0821019BF2
:1057B0004A401A430AD16146014301D1610705D528
:1057C00030216A46117301217F1E029111995829D7
:1057D00004D035A10E910DA90D910DE037A1F9E787
:1057E0006146019B009AFAF7B3FF0E9B8C469B5CC7
:1057F0000D9A521E0D92137061460143F0D10D981F
:1058000005A9081A20300190600703D50120000483
:10581000844300E001270198874201DD381A00E047
:105820000020019900904118029809180498401A24
:105830000490E00306D421461A9B199A049800F0BC
:10584000B3F94519002706E003A81A9AC05D199913
:1058500090476D1C7F1C02988742F5DBE0030CD556
:1058600021461A9B199A049800F09EF9451904E004
:105870001A9A3020199990476D1C0099481E009083
:105880000029F5DC08E00D980D990078491C0D9170
:105890001A9A199990476D1C0199481E0190002988
:1058A000F1DC63E109280100303132333435363719
:1058B000383961626364656600000000303132335C
:1058C00034353637383941424344454600000000FC
:1058D00000F05AF94519761C3078002800D0E2E52E
:1058E00028461BB0F0BD600700D406271898C01DDD
:1058F000C108C90048680A680831C30FDB0718915E
:10590000190001D09CA108E0210501D59BA104E06C
:10591000E10701D09AA100E09AA1430011985B0829
:10592000109165280CD006DC452809D046281DD0EA
:10593000472841D141E0662818D067283CD13CE097
:105940000021112F01DB112000E0781C0191009053
:1059500008A911A8FFF7E8FC139905910021119AF5
:1059600015927F1C12980197009150E00120C0070A
:1059700003900120019008A9009711A8FFF7D4FC1B
:10598000139A149905920022119B00921298159374
:10599000059A0192002901D0104602E0791C4018B6
:1059A0000190381A01D5019804E04042401E009051
:1059B000781C0190C01B029043E0012F00DA012700
:1059C0000021112F01DD112000E0384601910090E7
:1059D00008A911A8FFF7A8FC13990591119A0021B5
:1059E000129815920091019721070CD40599B9429C
:1059F00001DB019900E00191012904DD159A491E9E
:105A0000515C302906D0B84201DA011D05DA0121C6
:105A1000029115E00199491EEDE7002805DC009987
:105A2000411800910199091A03E0019A411C914221
:105A300000DD01910099401A401C02900120C0072E
:105A40000390200706D402990198814202DB0020CE
:105A5000C043029000206946C87707AF0121039830
:105A60000337C907884224D0022011902B201290BE
:105A7000039800280CDA404203902D20129007E092
:105A80000A210398FAF71DFE30317F1E039039700A
:105A90001199481E11900029F2DC03980028EFD1DB
:105AA000791E129808703078202108404530BF1EBA
:105AB000387006A8C01BC01D0390109800780028FD
:105AC00000D00120019941180298C01709180398C5
:105AD00009180498401A401E0490E00306D4214699
