:020000040000FA
:100000003C212020D5000000D9000000DB000000CA
:1000100000000000000000000000000000000000E0
:10002000000000000000000000000000DD000000F3
:100030000000000000000000DF000000B53D0000EF
:10004000E300000035170000513E0000E93E0000CB
:1000500001070000E3000000E3000000E3000000EF
:1000600000000000E3000000E300000000000000CA
:1000700000000000853E0000A93E0000713E000027
:10008000C53D0000313E0000E3000000E300000039
:10009000E3000000113E000000000000000000002E
:1000A000E30000003D170000000000000000000019
:1000B000E300000000000000E3000000E300000097
:1000C0000348854600F0DCFA00480047314800004C
:1000D0003C21202003480047FEE7FEE7FEE7FEE75D
:1000E000FEE7FEE7C100000010B5431A934209D2B3
:1000F0008318881803E0401E01785B1E1970521E99
:10010000F9D210BD03460B439B0703D009E008C991
:10011000121F08C0042AFAD203E00B780370401CB7
:10012000491C521EF9D210BDF8B502464A40D40F00
:1001300042004B0052085B089A4202D2024608462F
:1001400011464A0023D0C30D4A00DDB2120EAD1A8B
:10015000202D35DA49020126490AF6058A19002CB4
:1001600000D0524220214F1B1146B9402A4110189D
:10017000C20D9A4221D0002C17D0012D08DCDA05DF
:10018000801AD20F8019D207DBB200F0DFF9F8BD78
:10019000DA05801A012340001B06C01880185A4255
:1001A0008018CA0F1043490007E04908C2071143ED
:1001B000DA05801A80194008801800F0BFF9F8BDF0
:1001C00061000122511A001BF7E70122D2075140BA
:1001D000AAE70122D2075040A6E7024670B54A407E
:1001E000D30FDB0740002DD04A002AD0010E140E99
:1001F000000212020919400A520A8418E501044655
:100200005443000A120A2E045043A4194219200C28
:10021000C543AA18120C0125AD03521C5219120431
:100220007F39240400D0521C104301D44000491EE1
:10023000C2B20C06C0092018401C4008802A02D017
:1002400003E0002070BD40084000002900DA0020D3
:10025000184370BD70B502464A40D50F40004A00B1
:10026000ED0740085208002814D0002A12D0C40D0F
:10027000D30D41020120C0055202490A520AE41A74
:10028000091812187D34914201D3641C00E0490022
:10029000002C01DA002070BD0023914201D3891A9D
:1002A0000343400849000028F7D100290AD09142B1
:1002B00002D10121C90705E0914201D2012101E0EB
:1002C0000121C943E005C018401900F037F970BD9D
:1002D000F0B51FB488B00B990998002448400999DB
:1002E000C00F490049080991C0070B9900904900C7
:1002F00049080B9109990898A64608431CD00B9908
:100300000A98084318D0099801244000420D48007B
:10031000410D099824050003000B204309900B9818
:100320000003000B20430B9050181C49401800227A
:1003300001901446104605E0002001460DB0F0BDC6
:10034000032801DA034600E003239C46C11A0AAEE3
:100350000AE05F0008ADED5B4F00F75B7D430027CF
:10036000AA187C41491C5B1E6145F2DD410004ABCB
:100370005A522104120C0A43240C401C0828DFDBCB
:10038000019802900099704601910090059B049A93
:100390000799069800F020F9D0E700000DFCFFFF58
:1003A0000122D207002800DB101A002900DB511AB5
:1003B000814201D201207047002070470122D207FC
:1003C000002800DB101A002900DB511A814201D3FA
:1003D0000120704700207047C217C10F504010B570
:1003E0004018CA079623002100F0B0F810BD10B5E0
:1003F00000229623114600F0A9F810BD0EB5C217D1
:10040000C10F5040CA0740180021054B02930192CA
:1004100000910A460B4600F0DFF803B000BD000073
:1004200033040000C20F410040020123400ADB05F3
:10043000D207090EC0187F2901DA002070479629DB
:1004400003DC9623591AC84001E096398840002AF7
:10045000F4D040427047CB0FDB07490010B5490884
:1004600002460A4307D00A0D07240903E401090BD9
:10047000121B002A01DC002010BDC900440F0C43F0
:10048000C100E018D205801800F058F810BD70B512
:100490000446002903D000202022012310E0002878
:1004A00001D00020C043C046C0460DE02546D540DF
:1004B0008D4205D30D469540641B1D46954040195D
:1004C0001546521E002DF1DC214670BD70B5002589
:1004D00004462E46002911D0002C01DA01254442A1
:1004E000002901DA012649422046FFF7D0FFB54234
:1004F00000D04042002D00D0494270BD002C02DAED
:100500000121C90702E0002C00DD03490846C0466E
:10051000C046214670BD0000FFFFFF7F10B5202AB6
:1005200004DB0146203A9140002010BD9140202379
:100530009C1A0346E3401943904010BD002904DA99
:10054000401C490001D140084000704770B40024AD
:10055000050C05D11024000402D1002921D011245A
:10056000050E01D100020834050F01D10001241D40
:10057000850F01D18000A41C002801DB4000641C11
:10058000002908D020252E1B0D46F540A14000D0A3
:1005900001212943084301061B1B000ADB1D02D56C
:1005A000002070BC7047DB05181880180029F8DAA5
:1005B000401C4900F5D170BC40084000704710B5A0
:1005C000002B08DA0024401C614192185B411A4359
:1005D00001D14008400010BDF0B51FB482B00546FF
:1005E0000C0003D0084604F0C1FE02E004F0BEFE99
:1005F00020300246009021462846FFF78FFF049BDB
:10060000059A04460F4618431143084314D0184670
:1006100010431BD0009840210A1A1846059900F093
:1006200041F805460E46009A05990498FFF776FFB3
:10063000084305D0012004E02046394607B0F0BD4C
:100640000020C11705430E432C43374300990E98F1
:100650006305401A7905E40A00220C43FD0A0A30BA
:1006600002D500200146E9E70105101969410C9CFB
:100670000D9D00196941FFF7A2FFDFE700000000B0
:10068000064C0125064E05E0E36807CC2B430C3CE5
:1006900098471034B442F7D3FFF716FDFC5A000018
:1006A0001C5B000010B5202A04DB0846203AD0402D
:1006B000002110BD0B46D340D0402024A21A914007
:1006C0000843194610BD30B58C180278401C13073A
:1006D0001B0F01D10378401C120906D10278401C7F
:1006E00003E005780D70401C491C5B1EF9D101E048
:1006F0000B70491C521EFBD1A142E6D3002030BD35
:1007000004480068C0B20A2802D1034801210170E0
:100710007047C046201000409C02202010B52222C5
:100720001C480121815421228154422281544122BA
:1007300081548423184AC2506223C1546123C15496
:10074000A423C2508223C1548123C1544B02882464
:1007500003518B02A8240351104B817041708C040B
:10076000436084604B05426283620B03426483648E
:100770000B0242668366CB02C8240351C423C250D5
:10078000A2228154A1228154C2228154C1228154C7
:1007900010BDC0460005202000200A4000000A408D
:1007A000B0B50A78032313400B4A84580B4D2540FB
:1007B000EB18A92424061B198350072212064B6844
:1007C00013401124240205599543EA1802510019D7
:1007D00049780161B0BDC04608080000FCFFFF0079
:1007E000811E091F00BFFCD27047000070B50B01CD
:1007F000C31854689568254394892C431569566934
:100800002543D48924012C4335012543092464025E
:100810001D51137852781A43BF231A40890040189B
:10082000024944589C43A218425070BD1011000068
:10083000F0B582B0002A33D091235B01C3180320A6
:10084000801A00900220C043801A019056420F2067
:1008500007020020DC693C421FD00C5C1C60019C3C
:100860002418241D20D0DC693C4221D00C18657866
:100870001D603518AD1C17D0DD693D421CD0A57830
:100880001D60009D2D180FD0DD693D4218D0E47821
:100890001C60001D3418DDD1104680B202B0F0BDDE
:1008A000002080B202B0F0BD104680B202B0F0BDB0
:1008B000401C80B202B0F0BD801C80B202B0F0BD1E
:1008C000C01C80B202B0F0BD70B50A780C231A408B
:1008D0000124240305196E689E43B2186A604978A2
:1008E00007221140035993435918015170BD00006C
:1008F000B0B51122120283580C4C1C400B894D8854
:100900001D438B792B430A4D1D402B1983508B8837
:10091000CC791C43097821435D239B001940801842
:1009200042689A4389184160B0BDC04680CCFFFF41
:100930007F33000010B50122120383180C785C602D
:100940004978815010BD0000F0B585B00122140235
:10095000344B19680494A1431960950362490E68E9
:100960002E4208D10E682E4205D10E682E4202D1C9
:100970000E682E42F3D0457E15409E699643751948
:100980009D612025455D03263540DF69B7437D190C
:10099000DD61254D2E6805272F60476A3C681C6283
:1009A0007C685C62072434402C60C4697F252D027A
:1009B000DE69AE436406640C3419DC6150C8056816
:1009C0000095476885680195C568029503929A6904
:1009D000164D15402207120B3403A4B2A2183A4355
:1009E000009C2407240D1443019A1443029A1443D3
:1009F000007C20430E4A0240501998611868049AFE
:100A000010431860039840020A68024208D10A683D
:100A1000024205D10A68024202D10A680242F3D0BA
:100A200005B0F0BD08010B40001340408D00F0FF01
:100A300072FF0F00F0B5184B1D46083D2E680124CB
:100A4000A6432E600326360330401F68B74338188C
:100A500018601868FF26B043C9B2401818602868AB
:100A6000204328601868002A11D021070843186025
:100A700020021D490A68024208D10A68024205D1D3
:100A80000A68024202D10A680242F3D0F0BD21078F
:100A900088431860F0BDC04610010B4010B51149E5
:100AA000886001225305104804681C4208D104687C
:100AB0001C4205D104681C4202D104681C42F3D0D8
:100AC00012040B6813430B600168C90608D401685F
:100AD000C90605D40168C90602D40168C906F3D560
:100AE00010BDC04604010B4004020B40F0B5A34A00
:100AF0008218644BC31808794E79634DA14C002EBF
:100B000020D00526F601202800D1703E002800D113
:100B10008826576F2F4037435767976F2F403743CB
:100B20009767566B26405663966B26409663002661
:100B3000566596658F26F6435F6837405F609F680D
:100B400037409F608E79096820280BD0002819D182
:100B5000491E5160D76E2F4088210F43D766174634
:100B6000703719E0491E5160D16E2940474F394313
:100B7000D166116F29403943116701214907444D5E
:100B8000174609E049085160D76E2F400521C90179
:100B90000F43D766174670373C682C400C433C60C7
:100BA000D16A784C2140D162116B21401163002140
:100BB000D16411658F21C943D46F0C40D4671C6880
:100BC0000C401C600643BD2030401168314B0B4087
:100BD000C018801C1060F0BDF0B5684A8218294B1F
:100BE000C318087920280DD000281DD10C68641E78
:100BF0005460D56E244C25408835D566164670362F
:100C000088251DE00C68641E5460D46E1E4D2C4077
:100C10001E4EA419D466146F2C40A4191467012425
:100C200065071B4C16460BE00C6864085460D66ED2
:100C3000154C26400525ED017619D6661646703608
:100C4000376827402F433760D46A4E4D2C40D4621A
:100C5000146B2C4014630024D46414658F24E44383
:100C6000D56F2540D5671D6825401D604979014332
:100C7000BD2008401168074B0B40C018801C106055
:100C8000F0BDC0468418000024493E000104000065
:100C9000FFFFFFCF4000FFCFB0B54A68364BC250D0
:100CA000364A80180A78222A58D8930001A4E358BB
:100CB0009F46C046530D00005D0D0000530D00001F
:100CC0005D0D00005D0D00005D0D00005D0D00007C
:100CD0005D0D00005D0D00005D0D00005D0D00006C
:100CE0005D0D00005D0D00005D0D00005D0D00005C
:100CF0005D0D0000410D00005D0D0000410D000084
:100D00005D0D00005D0D00005D0D00005D0D00003B
:100D10005D0D00005D0D00005D0D00005D0D00002B
:100D20005D0D00005D0D00005D0D00005D0D00001B
:100D30005D0D0000410D00005D0D0000410D000043
:100D400003231B0704689C4301235B07E31803602C
:100D500004E003231B0704689C4304600B8AC36000
:100D6000CB68074C1C40C36A064D1D402B19C3625B
:100D7000097A11430160B0BD081800000418000092
:100D8000777702008888FDFF10B507239B04194080
:100D900092008018024A84589C436118815010BD0B
:100DA0003018000010B5029CA4000019114319432B
:100DB000014A815010BDC0465018000092008018B2
:100DC000014A81507047C0461018000010B501223A
:100DD000120383180C789C604B7883508978014A01
:100DE000815010BD0C110000B0B5112212028358C1
:100DF0000124A34383500B888C781C438B882343A6
:100E0000094C1C408358094D1D40631983508B7950
:100E1000CC791C43097A21437E231940801842680B
:100E20009A4351184160B0BD18670000E798FDFF74
:100E300010B50122120383180C789C604978815008
:100E400010BD0000F0B583B07D21CF007843029043
:100E500028480068019028480068284D281A7843DF
:100E60002946FFF714FB064622480468224800681A
:100E7000281A78432946FFF70AFB0199611A79433A
:100E8000891B08180299884232D21A4804681A4805
:100E90000068281A78432946FFF7F9FA0199611A80
:100EA0007943891B08180299884221D211480468A5
:100EB00011480068281A78432946FFF7E8FA019993
:100EC000611A7943891B08180299884210D209488F
:100ED000046809480068281A78432946FFF7D7FABA
:100EE0000199611A7943891B081802998842BBD37A
:100EF00003B0F0BDD010202018E000E080380100E1
:100F0000F0B587B00120C103059145040021802080
:100F10000290014F0A460EE08080424080200299F4
:100F2000414002910199481C009A8032C9B20729B8
:100F3000014600D3CCE3019108465038C0B21446B4
:100F400001F060FC102001F05DFC012001F05AFC72
:100F5000009407E00120FFF775FF039CE0B20299BF
:100F60008142DBD08120049038600598F7490864FD
:100F70000860F74910390D6006A800260670067053
:100F8000007800281BD10698401C06AA1070107823
:100F9000002814D10698401C06AA1070107800286A
:100FA0000DD10698401C06AA10701078002806D1B2
:100FB0000698401C06AA107010780028E3D0059807
:100FC000E24A106106A806700670007800281BD15E
:100FD0000698401C06AA10701078002814D10698B4
:100FE000401C06AA1070107800280DD10698401CED
:100FF00006AA10701078002806D10698401C06AA90
:10100000107010780028E3D0D148056006A806705B
:101010000670007800281BD10698401C06AA1070A4
:101020001078002814D10698401C06AA1070107879
:1010300000280DD10698401C06AA107010780028D0
:1010400006D10698401C06AA107010780028E3D03C
:10105000C048025D641C0394049838600598BB4B3B
:101060001864BB480560782003E040007E1C072F11
:1010700076D2374643B2002B03D4059BB34C236191
:1010800002E0059BB14C236006AE00233370337041
:101090003678002E47D00D6006AC2370237024787C
:1010A000002C1BD1069C641C06AE34703478002CD6
:1010B00014D1069C641C06AE34703478002C0DD11B
:1010C000069C641C06AE34703478002C06D1069C55
:1010D000641C06AE34703478002CE3D09C4C256040
:1010E00006AC237023702478002CBED1069C641CAF
:1010F00006AE34703478002CB7D1069C641C06AE62
:1011000034703478002CB0D1069C641C06AE347068
:101110003478002CA9D1069C641C06AE3470347857
:10112000002CE3D0A1E7069E761C06AC267024783E
:10113000002CB0D1069C641C06AE34703478002CB0
:10114000A9D1069C641C06AE34703478002CA2D160
:10115000069C641C06AE34703478002CE3D09AE709
:1011600005987A4C20607C487C4E306006A803705D
:101170000370007800281BD10698401C06AC207034
:101180002078002814D10698401C06AC20702078E6
:1011900000280DD10698401C06AC2070207800284D
:1011A00006D10698401C06AC207020780028E3D0B9
:1011B0000D6006A803700370007800281BD1069804
:1011C000401C06AC20702078002814D10698401CE2
:1011D00006AC2070207800280DD10698401C06AC83
:1011E00020702078002806D10698401C06AC20709C
:1011F00020780028E3D05A4800685548056006A8C2
:1012000003700370007800281BD10698401C06ACC0
:1012100020702078002814D10698401C06AC20705D
:10122000207800280DD10698401C06AC207020784C
:10123000002806D10698401C06AC207020780028B3
:10124000E3D0049830600598404C20644048056025
:10125000402604E076007B1C072F00D382E01F4667
:1012600070B2002803D40598384B186102E0059845
:10127000364B186006AB0020187018701B78002BD6
:101280001BD1069B5B1C06AC23702378002B14D16A
:10129000069B5B1C06AC23702378002B0DD1069BAC
:1012A0005B1C06AC23702378002B06D1069B5B1CCD
:1012B00006AC23702378002BE3D00D6006AB1870CA
:1012C00018701B78002B1BD1069B5B1C06AC23708F
:1012D0002378002B14D1069B5B1C06AC237023786B
:1012E000002B0DD1069B5B1C06AC23702378002BD2
:1012F00006D1069B5B1C06AC23702378002BE3D041
:10130000F84B1D6006AB187018701B78002BA1D12C
:10131000069B5B1C06AC23702378002B9AD1069B9E
:101320005B1C06AC23702378002B93D1069B5B1CBF
:1013300006AC23702378002B8CD1069B5B1C06AC7B
:1013400023702378002BE3D084E7C04690320A4014
:10135000A0120A40EE550000810006008080424045
:1013600080330A40059BE04C2360DD4BE04F3B603F
:1013700006AB187018701B78002B1BD1069B5B1CEA
:1013800006AC23702378002B14D1069B5B1C06ACA3
:1013900023702378002B0DD1069B5B1C06AC2370B9
:1013A0002378002B06D1069B5B1C06AC23702378A8
:1013B000002BE3D00D6006AB187018701B78002B63
:1013C0001BD1069B5B1C06AC23702378002B14D129
:1013D000069B5B1C06AC23702378002B0DD1069B6B
:1013E0005B1C06AC23702378002B06D1069B5B1C8C
:1013F00006AC23702378002BE3D0BC4B1B68B94BA1
:101400001D6006AB187018701B78002B1BD1069B53
:101410005B1C06AC23702378002B14D1069B5B1C4D
:1014200006AC23702378002B0DD1069B5B1C06AC09
:1014300023702378002B06D1069B5B1C06AC23701F
:101440002378002BE3D0049B3B60059BA64C2364D0
:10145000A44B1D6003E05200701C072E75D2064697
:1014600050B2002803D405989F4B186102E00598FC
:101470009D4B186006A800230370037000780028B5
:101480001BD10698401C06AC20702078002814D18F
:101490000698401C06AC2070207800280DD10698D4
:1014A000401C06AC20702078002806D10698401C0D
:1014B00006AC207020780028E3D00D6006A80370E9
:1014C0000370007800281BD10698401C06AC2070E1
:1014D0002078002814D10698401C06AC2070207893
:1014E00000280DD10698401C06AC207020780028FA
:1014F00006D10698401C06AC207020780028E3D066
:101500007848056006A80370037000780028A2D10F
:101510000698401C06AC2070207800289BD10698C5
:10152000401C06AC20702078002894D10698401CFE
:1015300006AC2070207800288DD10698401C06AC9F
:10154000207020780028E3D085E70598664A10606F
:101550006348386006A803700370007800281BD128
:101560000698401C06AA10701078002814D106981E
:10157000401C06AA1070107800280DD10698401C57
:1015800006AA10701078002806D10698401C06AAFA
:10159000107010780028E3D00D6006A80370037067
:1015A000007800281BD10698401C06AA10701078FD
:1015B000002814D10698401C06AA10701078002844
:1015C0000DD10698401C06AA10701078002806D18C
:1015D0000698401C06AA107010780028E3D04348F3
:1015E00000684048056006A8037003700078002872
:1015F0001BD10698401C06AA10701078002814D140
:101600000698401C06AA1070107800280DD1069884
:10161000401C06AA10701078002806D10698401CBD
:1016200006AA107010780028E3D004983860059856
:101630002D4A106410610D6006A8037003700078D5
:1016400000281BD10698401C06A9087008780028BD
:1016500014D10698401C06A90870087800280DD1FE
:101660000698401C06A908700878002806D106983C
:10167000401C06A9087008780028E3D005981A498C
:10168000086006A8037003700078002800D061E4A9
:101690000698401C06A908700878002800D059E474
:1016A0000698401C06A908700878002800D051E46C
:1016B0000698401C06A908700878002800D049E464
:1016C0000698401C06A9087008780028E0D041E47C
:1016D000C820FFF7B7FB00F0A5F807B0F0BDC04683
:1016E00081000600A0120A4090320A4080330A406E
:1016F0008080424070470000B0B504460A49FEF7BA
:101700006CFD6108094A551A2946FEF766FD29460F
:10171000FEF763FD0649FEF707FD2946FEF75DFD6E
:101720002146FEF75AFDB0BD12D336BF12141F5F1B
:10173000FF51D83F80B501F053FD80BDB0B53348AF
:10174000014608390968C9B2491E0A2912D8C0469B
:101750007944097949008F440E121A460D0D0D0582
:101760000D0D05002A480178042901D0012901D175
:1017700007210170B0BD264806210170B0BD016887
:10178000082291430160224803210170B0BD204925
:1017900005200870CA68214803681B07EAD00B6956
:1017A00093420DD21E4C02E005682D07E2D005469B
:1017B000203D2D689342F7D2E5545B1C0B61F3E7A3
:1017C000014620390A6802681207D3D00A68026805
:1017D0001207CFD00A6802681207CBD009680168E7
:1017E0000907EDD1C6E70A4C022020706068A268A4
:1017F0009042BFD907498918801A82B20648FFF77C
:1018000017F8A1680818A060B0BDC04628300F4086
:10181000DC0220205C0B202000200F403C320F40D7
:10182000640A2020F0B585B00120C40345040020DF
:10183000CA4E019005E00099481CC9B2072900D39F
:10184000AFE300905038C0B200F0DCFF012000F0A0
:10185000D9FF102000F0D6FF019804E00298401C48
:1018600040B20028E7D40290812003903060BC4849
:1018700004640460BB4A103A156004A80199017021
:101880000170007800281BD10498401C04A908703E
:101890000878002814D10498401C04A9087008781E
:1018A00000280DD10498401C04A90870087800286D
:1018B00006D10498401C04A9087008780028E3D0D9
:1018C000A748046104A80027077007700078002863
:1018D0001BD10498401C04A908700878002814D172
:1018E0000498401C04A90870087800280DD10498B9
:1018F000401C04A908700878002806D10498401CF0
:1019000004A9087008780028E3D09648056004A868
:1019100007700770007800281BD10498401C04A9A8
:1019200008700878002814D10498401C04A9087095
:10193000087800280DD10498401C04A90870087884
:10194000002806D10498401C04A9087008780028D3
:10195000E3D08248039901608148046481480560AE
:10196000782303E05B004F1C072974D2394658B234
:10197000002802D47A48046101E07948046004AF89
:101980000020387038703F78002F47D0156004AEC3
:10199000307030703678002E1BD1049E761C04AF58
:1019A0003E703E78002E14D1049E761C04AF3E702B
:1019B0003E78002E0DD1049E761C04AF3E703E781A
:1019C000002E06D1049E761C04AF3E703E78002E99
:1019D000E3D0644E356004AE307030703678002E3F
:1019E000C0D1049E761C04AF3E703E78002EB9D163
:1019F000049E761C04AF3E703E78002EB2D1049E49
:101A0000761C04AF3E703E78002EABD1049E761C4F
:101A100004AF3E703E78002EE3D0A3E7049F7F1C06
:101A200004AE37703678002EB0D1049E761C04AF19
:101A30003E703E78002EA9D1049E761C04AF3E7005
:101A40003E78002EA2D1049E761C04AF3E703E78F4
:101A5000002EE3D09AE742490C6043493F4E316083
:101A600004A908700870097800291BD10499491C41
:101A700004AB19701978002914D10499491C04ABDE
:101A80001970197800290DD10499491C04AB1970FB
:101A90001978002906D10499491C04AB19701978EA
:101AA0000029E3D0156004A908700870097800299E
:101AB0001BD10499491C04AB19701978002914D161
:101AC0000499491C04AB1970197800290DD10499A7
:101AD000491C04AB19701978002906D10499491CD6
:101AE00004AB197019780029E3D0204909681D4911
:101AF0000D6004A908700870097800291BD10499A9
:101B0000491C04AB19701978002914D10499491C97
:101B100004AB1970197800290DD10499491C04AB44
:101B200019701978002906D10499491C04AB197061
:101B300019780029E3D00399316009490C640949F7
:101B40000D60402103E04900781C072F7DD2074635
:101B500048B200280CD4024804610BE08080424067
:101B600090320A40A0120A408100060080330A40E9
:101B7000AA48046004A800230370037000780028BA
:101B80001BD10498401C04AE30703078002814D16A
:101B90000498401C04AE3070307800280DD10498B1
:101BA000401C04AE30703078002806D10498401CE8
:101BB00004AE307030780028E3D0156004A80370BC
:101BC0000370007800281BD10498401C04AE3070CC
:101BD0003078002814D10498401C04AE307030785E
:101BE00000280DD10498401C04AE307030780028D5
:101BF00006D10498401C04AE307030780028E3D041
:101C0000EA48056004A803700370007800289AD1A0
:101C10000498401C04AE30703078002893D10498AA
:101C2000401C04AE3070307800288CD10498401CE1
:101C300004AE30703078002885D10498401C04AE82
:101C4000307030780028E3D07DE7D9480460D6486A
:101C5000D94E306004A803700370007800281BD1AF
:101C60000498401C04A908700878002814D104982E
:101C7000401C04A90870087800280DD10498401C65
:101C800004A908700878002806D10498401C04A90B
:101C9000087008780028E3D0156004A8037003706A
:101CA000007800281BD10498401C04A9087008780B
:101CB000002814D10498401C04A908700878002852
:101CC0000DD10498401C04A908700878002806D19A
:101CD0000498401C04A9087008780028E3D0B5488F
:101CE0000068B248056004A80370037000780028FB
:101CF0001BD10498401C04A908700878002814D14E
:101D00000498401C04A90870087800280DD1049894
:101D1000401C04A908700878002806D10498401CCB
:101D200004A9087008780028E3D003983060A04820
:101D300004649E4805601F4602E04F1C07296FD2CD
:101D400039469B48046104A803700370007800289A
:101D50001BD10498401C04AE30703078002814D198
:101D60000498401C04AE3070307800280DD10498DF
:101D7000401C04AE30703078002806D10498401C16
:101D800004AE307030780028E3D0156004AE002037
:101D9000307030703678002E1BD1049E761C04AF54
:101DA0003E703E78002E14D1049E761C04AF3E7027
:101DB0003E78002E0DD1049E761C04AF3E703E7816
:101DC000002E06D1049E761C04AF3E703E78002E95
:101DD000E3D0764E356004AE307030703678002E29
:101DE000ABD1049E761C04AF3E703E78002EA4D189
:101DF000049E761C04AF3E703E78002E9DD1049E5A
:101E0000761C04AF3E703E78002E96D1049E761C60
:101E100004AF3E703E78002EE3D08EE790320A4049
:101E200063490C606049644E316004A90870087011
:101E3000097800291BD10499491C04AB1970197841
:101E4000002914D10499491C04AB19701978002990
:101E50000DD10499491C04AB19701978002906D1D9
:101E60000499491C04AB197019780029E3D0156056
:101E700004A908700870097800291BD10499491C2D
:101E800004AB19701978002914D10499491C04ABCA
:101E90001970197800290DD10499491C04AB1970E7
:101EA0001978002906D10499491C04AB19701978D6
:101EB0000029E3D03F4909683C490D6004A9087036
:101EC0000870097800291BD10499491C04AB1970CA
:101ED0001978002914D10499491C04AB1970197898
:101EE00000290DD10499491C04AB197019780029F7
:101EF00006D10499491C04AB197019780029E3D064
:101F0000039931602A490C640C61156004A90870BA
:101F10000870097800291BD10499491C04AA117082
:101F20001178002914D10499491C04AA1170117860
:101F300000290DD10499491C04AA117011780029B7
:101F400006D10499491C04AA117011780029E3D024
:101F500017490C6004A9087008700878002800D0A0
:101F60007CE40498401C04A908700878002800D07C
:101F700074E40498401C04A908700878002800D074
:101F80006CE40498401C04A908700878002800D06C
:101F900064E40498401C04A9087008780028E0D084
:101FA0005CE405B0F0BDC04681000600A0120A4006
:101FB00090320A4080330A4080804240F0B58BB0B6
:101FC00001921578002D00D1FAE30123DA0309927A
:101FD0005C0400220AE0039A521CD0B201990D5C05
:101FE0000298801D002D049900D1E9E3C6B27E2E2F
:101FF0000392089000D9491C049108465038C0B299
:1020000000F000FC00277E2E384600D808980646CF
:10201000C0B20009103000F0F5FB0E2002963040EF
:10202000401C00F0EFFB203DE8B205903D460697CE
:1020300003E06D1C062D069FCDD08121FB48089141
:1020400001600998FA4908640860FA4B103B1C606B
:102050000AA90F700F700620097800291BD10A9970
:10206000491C0AAA11701178002914D10A99491C37
:102070000AAA1170117800290DD10A99491C0AAADF
:1020800011701178002906D10A99491C0AAA117009
:1020900011780029E3D0059948430999E44A116170
:1020A0000AA900260E700E70097800291BD10A9922
:1020B000491C0AAA11701178002914D10A99491CE7
:1020C0000AAA1170117800290DD10A99491C0AAA8F
:1020D00011701178002906D10A99491C0AAA1170B9
:1020E00011780029E3D0D4490818D2490C600AA914
:1020F0000E700E70097800291BD10A99491C0AAA92
:1021000011701178002914D10A99491C0AAA11707A
:10211000117800290DD10A99491C0AAA1170117869
:10212000002906D10A99491C0AAA117011780029C0
:10213000E3D00795405DBD49089A0A600999BC4AF9
:102140001164BC490C60782103E049006E1C072D26
:1021500075D235464AB2002A03D4099AB44E326188
:1021600002E0099AB24E32600AAE0022327032703A
:102170003678002E1BD10A9E761C0AAF3E703E7840
:10218000002E14D10A9E761C0AAF3E703E78002EB7
:102190000DD10A9E761C0AAF3E703E78002E06D105
:1021A0000A9E761C0AAF3E703E78002EE3D01C607B
:1021B0000AAE327032703678002E1BD10A9E761C21
:1021C0000AAF3E703E78002E14D10A9E761C0AAFEC
:1021D0003E703E78002E0DD10A9E761C0AAF3E70EE
:1021E0003E78002E06D10A9E761C0AAF3E703E78DD
:1021F000002EE3D08F4E34600AAE327032703678E3
:10220000002EA2D10A9E761C0AAF3E703E78002EA8
:102210009BD10A9E761C0AAF3E703E78002E94D168
:102220000A9E761C0AAF3E703E78002E8DD10A9E23
:10223000761C0AAF3E703E78002EE3D085E7099900
:102240007B4D29607D49794D29600AA90A700A7081
:10225000097800291BD10A99491C0AAD29702978EF
:10226000002914D10A99491C0AAD2970297800293E
:102270000DD10A99491C0AAD29702978002906D187
:102280000A99491C0AAD297029780029E3D01C60FD
:102290000AA90A700A70097800291BD10A99491CF9
:1022A0000AAD29702978002914D10A99491C0AAD70
:1022B0002970297800290DD10A99491C0AAD297085
:1022C0002978002906D10A99491C0AAD2970297874
:1022D0000029E3D05A49096856490C600AA90A70D6
:1022E0000A70097800291BD10A99491C0AAD297086
:1022F0002978002914D10A99491C0AAD2970297836
:1023000000290DD10A99491C0AAD297029780029A4
:1023100006D10A99491C0AAD297029780029E3D011
:102320004249089D0D600999414D296441490C605D
:10233000402504E06D00721C072E00D382E0164693
:1023400069B2002903D40999394A116102E0099957
:10235000374A11600AAA0021117011701278002A00
:102360001BD10A9A521C0AAF3A703A78002A14D14B
:102370000A9A521C0AAF3A703A78002A0DD10A9A8A
:10238000521C0AAF3A703A78002A06D10A9A521CB7
:102390000AAF3A703A78002AE3D01C600AAA11709A
:1023A00011701278002A1BD10A9A521C0AAF3A7097
:1023B0003A78002A14D10A9A521C0AAF3A703A7835
:1023C000002A0DD10A9A521C0AAF3A703A78002AB4
:1023D00006D10A9A521C0AAF3A703A78002AE3D022
:1023E000F94A14600AAA117011701278002AA1D15A
:1023F0000A9A521C0AAF3A703A78002A9AD10A9A7D
:10240000521C0AAF3A703A78002A93D10A9A521CA9
:102410000AAF3A703A78002A8CD10A9A521C0AAF55
:102420003A703A78002AE3D084E7C0468080424080
:1024300090320A40A0120A40C653000081000600F4
:1024400080330A40099AE14D2A60DE4AE14D2A6054
:102450000AAA117011701278002A1BD10A9A521C14
:102460000AAD2A702A78002A14D10A9A521C0AADA1
:102470002A702A78002A0DD10A9A521C0AAD2A70B5
:102480002A78002A06D10A9A521C0AAD2A702A78A4
:10249000002AE3D01C600AAA117011701278002A79
:1024A0001BD10A9A521C0AAD2A702A78002A14D12C
:1024B0000A9A521C0AAD2A702A78002A0DD10A9A6B
:1024C000521C0AAD2A702A78002A06D10A9A521C98
:1024D0000AAD2A702A78002AE3D0BD4A1268BA4AA7
:1024E00014600AAA117011701278002A1BD10A9A7E
:1024F000521C0AAD2A702A78002A14D10A9A521C5A
:102500000AAD2A702A78002A0DD10A9A521C0AAD07
:102510002A702A78002A06D10A9A521C0AAD2A701B
:102520002A78002AE3D0AB4A089D1560099AA74D86
:102530002A64A54A146003E04000691C072D75D287
:102540000D4641B2002903D40999A04A116102E065
:1025500009999E4A11600AA900220A700A70097836
:1025600000291BD10A99491C0AAE31703178002923
:1025700014D10A99491C0AAE3170317800290DD165
:102580000A99491C0AAE31703178002906D10A999E
:10259000491C0AAE317031780029E3D01C600AA9C9
:1025A0000A700A70097800291BD10A99491C0AAEE1
:1025B00031703178002914D10A99491C0AAE317062
:1025C000317800290DD10A99491C0AAE3170317851
:1025D000002906D10A99491C0AAE317031780029C8
:1025E000E3D079490C600AA90A700A7009780029B9
:1025F000A2D10A99491C0AAE3170317800299BD1C9
:102600000A99491C0AAE31703178002994D10A998F
:10261000491C0AAE3170317800298DD10A99491CC4
:102620000AAE317031780029E3D085E70998DD4999
:1026300008606448DA4908600AA8027002700078ED
:1026400000281BD10A98401C0AA9087008780028A5
:1026500014D10A98401C0AA90870087800280DD1E6
:102660000A98401C0AA908700878002806D10A9820
:10267000401C0AA9087008780028E3D01C600AA84A
:102680000270027000780028079D79D050480068D9
:102690004D4804600AA802700270007800281BD11F
:1026A0000A98401C0AA908700878002814D10A98D2
:1026B000401C0AA90870087800280DD10A98401C0F
:1026C0000AA908700878002806D10A98401C0AA9AF
:1026D000087008780028E3D0B1480899016009988B
:1026E000B049086408611C600AA802700270007892
:1026F00000281BD10A98401C0AA9087008780028F5
:1027000014D10A98401C0AA90870087800280DD135
:102710000A98401C0AA908700878002806D10A986F
:10272000401C0AA9087008780028E3D009989D4940
:1027300008600AA8027002700078002800D078E4CF
:102740000A98401C0AA908700878002800D070E494
:102750000A98401C0AA908700878002800D068E48C
:102760000A98401C0AA908700878002800D060E484
:102770000A98401C0AA9087008780028E0D058E49C
:102780000A98401C0AA908700878002800D07DE744
:102790000A98401C0AA908700878002800D075E73C
:1027A0000A98401C0AA908700878002800D06DE734
:1027B0000A98401C0AA9087008780028E0D065E74C
:1027C0000BB0F0BD81000600A0120A4090320A4012
:1027D00080330A4080804240B0B501200105084C9A
:1027E000216005042560642001F0E0FE103C2560B6
:1027F000022002F085F8FEF783FBFFF713F8B0BD67
:10280000A0320A40F0B587B00190CE48812505601E
:102810000120C603CC4A166416604704CB4B1F60E8
:1028200002A8002404700470007800281BD10298CC
:10283000401C02A908700878002814D10298401C96
:1028400002A90870087800280DD10298401C02A93E
:1028500008700878002806D10298401C02A9087068
:1028600008780028E3D0166103A80470047000788B
:1028700000281BD10398401C03A908700878002881
:1028800014D10398401C03A90870087800280DD1C2
:102890000398401C03A908700878002806D1039803
:1028A000401C03A9087008780028E3D01F6104A821
:1028B00004700470007800281BD10498401C04A9FF
:1028C00008700878002814D10498401C04A90870E6
:1028D000087800280DD10498401C04A908700878D5
:1028E000002806D10498401C04A908700878002824
:1028F000E3D0782001F0B8FC204601F0B5FC019847
:1029000001F0B2FC8F4805608F4A166416618F484B
:10291000076005A804700470007800281BD1059892
:10292000401C05A908700878002814D10598401C9F
:1029300005A90870087800280DD10598401C05A944
:1029400008700878002806D10598401C05A9087071
:1029500008780028E3D0166006A804700470007898
:1029600000281BD10698401C06A90870087800288A
:1029700014D10698401C06A90870087800280DD1CB
:102980000698401C06A908700878002806D1069809
:10299000401C06A9087008780028E3D007B0F0BDF5
:1029A0008080424090320A40F0B587B0019065487F
:1029B000812404600120C503634A15641560460440
:1029C000624B1E6002A8002707700770007800287D
:1029D0001BD10298401C02A908700878002814D165
:1029E0000298401C02A90870087800280DD10298AE
:1029F000401C02A908700878002806D10298401CE3
:102A000002A9087008780028E3D0156103A80770B0
:102A10000770007800281BD10398401C03A9087098
:102A20000878002814D10398401C03A9087008787E
:102A300000280DD10398401C03A9087008780028CD
:102A400006D10398401C03A9087008780028E3D039
:102A50001E6104A807700770007800281BD1049835
:102A6000401C04A908700878002814D10498401C60
:102A700004A90870087800280DD10498401C04A906
:102A800008700878002806D10498401C04A9087032
:102A900008780028E3D0782001F0E6FB402001F020
:102AA000E3FB019801F0E0FB26480460264A156428
:102AB00015612648066005A8077007700078002891
:102AC0001BD10598401C05A908700878002814D16E
:102AD0000598401C05A90870087800280DD10598B4
:102AE000401C05A908700878002806D10598401CEC
:102AF00005A9087008780028E3D0156006A80770BB
:102B00000770007800281BD10698401C06A90870A1
:102B10000878002814D10698401C06A90870087887
:102B200000280DD10698401C06A9087008780028D6
:102B300006D10698401C06A9087008780028E3D042
:102B400007B0F0BD8080424090320A4090120A40A7
:102B5000F0B587B01446054602290AD306944E1EE6
:102B60000322304610408B1E032B04D200231A464A
:102B700010E000221CE0964300231A46EF5CBA18CE
:102B8000EF187C78A218BC78A218FC78A2181B1D3C
:102B90009E42F3D10028069C0AD0EE5CB2180128B0
:102BA00006D05B195E78B218022801D09878821896
:102BB0006818401E0078D1B2814202D12878FF28DF
:102BC00001D007B0F0BD6878FC28FAD12F46203735
:102BD00020462030034603902046783006906879DE
:102BE0002979090208182080E879A97909020818CA
:102BF0006080687A297A090208180590A080A87A6E
:102C0000A071E87AE071687B297B090208182081AD
:102C1000E87BA97B090208186081687C297C09028D
:102C20000818A081E87CA97C090208180490E081BA
:102C3000687D297D090208182082A97DA174E97D9B
:102C4000E174297E2175697E6175A97EA175297F50
:102C5000EA7E120251182183A97F6A7F120251185D
:102C600061833978EA7F12025118A183B9787A78A2
:102C700012025118E183F9781970397909067A79C5
:102C800012045118BA7912028918FA798918616206
:102C9000397A09067A7A12045118BA7A1202891816
:102CA000FA7A8918A162397B09067A7B12045118D5
:102CB000BA7B12028918FA7B8918E16281B2782006
:102CC000FDF7E5FBFDF793FB924E3146FDF785FAE4
:102CD000F97C0291B97C0191797C00913F7CA064E0
:102CE000049881B2A020FDF7D2FBFDF780FB3146AE
:102CF000FDF773FA064660643806039F00990904DD
:102D00000818019909024018029940182063059893
:102D100080B2FDF76CFBFEF7EFFC01463046069EE5
:102D2000FDF75BFA01467C48FDF794FA2065AA7826
:102D30003A7521883180608870803B78012B00D003
:102D40003FE723465933C42A0AD0C32A13D1A179B5
:102D50001970B88E002914D013281BD8401C11E01C
:102D60002546A4791C70BA8E002C0ED0132A2C464E
:102D700040D8521C0BE00020F8861870206007B085
:102D8000F0BD4008B886002005E052082C46BA86FF
:102D9000002230E001200021A166E166F8860820CB
:102DA0002746265E3046FDF717FB05463046B43809
:102DB000FDF712FB5A2E00DC2846584C6067E0896C
:102DC000FDF715FB05462088FDF711FB06463F2061
:102DD00001062846FDF701FA054630462946FDF76B
:102DE000F4F94F49FDF7F9F92946FDF733FAF8658B
:102DF00007B0F0BD0122FA86FF2900DD95E08029A9
:102E000000D9FEE04900C0467944898849008F44D2
:102E1000FD008900050108010B01FD000E01FD0008
:102E20001101FD00FD00FD001401FD00FD00FD008D
:102E30001701FD00FD00FD00FD00FD00FD00FD008F
:102E40001A01FD00FD00FD00FD00FD00FD00FD007C
:102E50001D01FD00FD00FD00FD00FD00FD00FD0069
:102E6000FD00FD00FD00FD00FD00FD00FD00FD007A
:102E70002001FD00FD00FD00FD00FD00FD00FD0046
:102E8000FD00FD00FD00FD00FD00FD00FD00FD005A
:102E90002301FD00FD00FD00FD00FD00FD00FD0023
:102EA000FD00FD00FD00FD00FD00FD00FD00FD003A
:102EB000FD00FD00FD00FD00FD00FD00FD00FD002A
:102EC000FD00FD00FD00FD00FD00FD00FD00FD001A
:102ED0002601FD00FD00FD00FD00FD00FD00FD00E0
:102EE000FD00FD00FD00FD00FD00FD00FD00FD00FA
:102EF000FD00FD00FD00FD00FD00FD00FD00FD00EA
:102F0000FD00FD00FD00FD00FD00FD00FD00FD00D9
:102F10002901C04652491D3BB4C8B64010072020C5
:102F2000000070C17E49974AB8E0754A914211DCB1
:102F3000774A91421FDC784A914237DC0122120223
:102F4000914200D191E00322D20191425ED17449B5
:102F50000022A3E06B4A91421ADC6C4A91422FDCBA
:102F600001221203914200D184E00322D202914255
:102F70004CD1412168E0674A91422CDC0122920247
:102F800091427AD00322520291423FD181216DE0D9
:102F90005D4A91422ADC01229203914270D00322C1
:102FA0005203914232D15E49624A77E001225302D4
:102FB000994268D003231B02994227D1910756E01A
:102FC00001225203914261D00322120391421DD18A
:102FD00053495A4A62E00122D202914259D0032257
:102FE0009202914212D14E49574A57E00122D20330
:102FF000914251D003229203914207D148494B4A52
:103000004CE0C02902D10321890730E04349096D12
:10301000434A516043490968491C43E04049574AC3
:103020003CE03F49564A39E03D49524A36E03C4986
:10303000514A33E03A494D4A30E039494C4A2DE093
:103040003749494A2AE0C121090610E03449444A77
:1030500024E03349434A21E031493F4A1EE03049E8
:103060003E4A1BE02E493B4A18E07F21C9052C4A05
:10307000516014E02A49324A10E02949334A0DE0F0
:1030800027492B4A0AE02649314A07E024492A4ABF
:1030900004E023492B4A01E02149234A4A6021499F
:1030A000096849081F4A1160001F0221C841411EDA
:1030B000032904D3002808D0052800D081E5324830
:1030C0000188491C018007B0F0BD2F4801880629FE
:1030D00000D276E5002101803079800020187179D6
:1030E00040187E2201238354481C70713F20000643
:1030F0002649C8224A6188618B700B8007B0F0BDF9
:10310000FF0F0000FF3F0000FF7F0000FF1F0000D7
:10311000FF030000FF070000FF010000DC0B202080
:103120001C03202014112020000070410000604189
:1031300000005041000040410000304100002041AB
:10314000000010410000E0400000C0400000A0402E
:1031500000004040000080BF000040C0000080C070
:103160000000A0C00000C0C00000E0C0000010C10E
:10317000000020C1000030C1000040C1000050C16B
:10318000000060C1000070C192042020C006202011
:1031900002480221016002480160704780E200E0BD
:1031A00000E100E0F0B581B01C4616460F4601462E
:1031B0000A4D00222846FDF701FE01222846394625
:1031C000FDF7FCFD022228463146FDF7F7FD0322FC
:1031D00028462146FDF7F2FD01B0F0BD0000864013
:1031E000F0B581B051480068002810D00026F543A2
:1031F0004F4F3C46103C2068C0060AD42068400669
:103200002ED42068800652D4206800066ED401B007
:10321000F0BD494F01203870464A1168C906C90FF0
:10322000797012685206D20FBA708918491CF97069
:103230000522114200D02846396940183861FDF74F
:10324000DDF83E4A3E4BFDF743F8FDF704F9B8615F
:10325000374F386810210143396020684006D0D5C7
:10326000354F3E7033480068C006C00F787035494E
:1032700009684906C90FB9700818F870C00701D06D
:10328000284600E00120396940183861FDF7B6F89A
:103290002A4A2B4BFDF71CF8FDF7DDF8B861244FE7
:1032A000386840210143396020688006ACD5224847
:1032B000012101711F4B1A689206D20F42711B68DF
:1032C000DBB2DB098371D218521CC27105231A428A
:1032D0002A4600D00A464169511841610181386887
:1032E0002021014339602068000690D512480671FC
:1032F000104909688906C90F4171124A1268D2B291
:10330000D20982715118C171C278022A2A4600D0AE
:103310000122002900D015464169691841610181E7
:10332000386880210143396001B0F0BD3011404060
:1033300048300A4080330A407C022020FCA9F1D2A8
:103340004D62503F80130A4080B50B468100012238
:10335000184600F0E5FD80BDF0B581B01C4617466B
:1033600086000125084631462A4600F0D9FD311D68
:1033700038462A4600F0D4FD0836204631462A4613
:1033800000F0CEFD01B0F0BD10B526490A78FF2847
:1033900007D1002A05D12448FF22027001200870BD
:1033A00010BDFC2807D1012A05D11F48FC2242701C
:1033B0000220087010BDFF2806D0022A04D11A4A44
:1033C00090700320087010BD312809D8032A07D156
:1033D000154AD07004220A7000220A71887010BD4C
:1033E000052A0FD0042A1AD18A78521E8A700B79C6
:1033F0005C1C0C710C4C1B191871100611D10520A6
:10340000087010BD00220A700979074BCA181071A4
:10341000481DC1B2054A1846FFF79AFB10BD0020AF
:10342000087010BD380320209404202010072020AD
:1034300010B50124A0071149FDF7B2F91F200104BE
:103440000F4882688A432104511881600D490C603D
:103450000D49416161020D4A136A0B4313621368FF
:103460000B4313600A490A68C02313433F22934366
:103470000B6001682143016010BDC046F059000097
:103480000011004084110040409C000028100040C2
:1034900004E400E080B503480021034AFDF7A6F9E3
:1034A00080BDC04600A04240F859000080B5FFF73B
:1034B000F1FF80BDF0B5424900208861C8618724D2
:1034C000CC660125AA033F48026088220A613E4A71
:1034D0000823136085268E62802313604E611023BB
:1034E00013603A4B1E61EE03166084264E6202277B
:1034F00007601C65EC051460CE6004241460344C35
:10350000661C4E600E606D064F682F434F600F685B
:103510002F430F6082254D648E64CD630E645D631E
:103520009E63CD620E6383255D60DD60A51C9D609A
:10353000DC61284E1E6481251D665D665D649D61AB
:103540008C600F1F3C600F46083F3C600F460C3FED
:103550003C609C655C655C61DD660D674E658E65F3
:10356000CE650E664E661C4EDE654C638C63CC6485
:103570000C651D609D62DD63DC649C641C63DC6221
:103580008C660D6211464039144B0B601360014686
:103590003039134A0A6001464039124A0A6012491A
:1035A00001600F20000211490A6802430A601048B6
:1035B000016A302211430162016811430160F0BDCC
:1035C00010804240D0320A40D0120A4084804240EB
:1035D0008100040081000600810002000000020852
:1035E0000100530C008000020180530E90330A400A
:1035F00028300A4080B511481149FDF765F90320CC
:103600004102104802680A43026001210A0203686D
:10361000134303600022426109224262826B072346
:103620009A4382631A02836B93438363826A0423FF
:1036300013438362826A0A43826280BD00200F4086
:10364000105A000000320F40F0B583B02C4C2D49C9
:103650002046FDF7BBFB2C492046FDF747FA002525
:10366000204629462A46FDF7A9FB00952046294613
:103670002A462B46FDF796FB204629462A46FDF7AB
:1036800083FB0126204629463246FDF797FB00962C
:103690000296204629462A462B46FDF783FB204604
:1036A00029463246FDF770FB02262046294632465F
:1036B000FDF784FB00961027204629463A462B4604
:1036C000FDF770FB204629463246FDF75DFB0326D9
:1036D000204629463246FDF771FB009620462946D2
:1036E0003A462B46FDF75EFB204629463246FDF75B
:1036F0004BFB0648029981600F21016003B0F0BDC9
:1037000000008640125A0000185A0000001186403E
:1037100070B582B0194C1A492046FDF757FB19497C
:103720002046FDF7E3F90025204629462A46FDF705
:1037300045FB0095204629462A462B46FDF732FBDD
:10374000204629462A46FDF71FFB0126204629462A
:103750003246FDF733FB0096204629462A462B4683
:10376000FDF720FB204629463246FDF70DFB0648B3
:1037700086600321016002B070BDC0460020864013
:10378000205A0000245A00000031864070B582B0F3
:10379000194C1A492046FDF719FB19492046FDF737
:1037A0001BFA0025204629462A46FDF707FB00950F
:1037B000204629462A462B46FDF7F4FA204629469C
:1037C0002A46FDF7E1FA0126204629463246FDF752
:1037D000F5FA0096204629462A462B46FDF7E2FADE
:1037E000204629463246FDF7CFFA06488660032177
:1037F000016002B070BDC04600A086402C5A000097
:10380000305A000000B1864010B50D4C0D492046DD
:10381000FDF790F80C492046FDF76AF80B4841681F
:103820000B4A0A40511C4160816812220A432D2133
:103830008A438260016801220A43026010BDC046CB
:1038400000804640385A00003A5A00000491464031
:1038500000FCFFFF09480A490A68024082420BD077
:103860000A680240824207D00A680240824203D0BE
:103870000A6802408242EFD17047C0460003200030
:1038800004020B40F0B581B0224800210091016094
:103890000F273802204E3168814301242002091885
:1038A00031600321CA43331F1D6815401D607268D3
:1038B000A243726072688243726008031421224638
:1038C000FDF7B8F81548FDF73FF8316810200143BF
:1038D0002022914331603903726B8A430921090325
:1038E00051187163210332680A433260B16B01439E
:1038F000B1636002716B014371630098FDF7CEF80C
:10390000FF2000025C490A688243A0031018086087
:1039100001B0F0BD08030B4004010B40445A000005
:103920000848C7214160FF210906074A13688B43F5
:103930000321890759181160002181600721016066
:103940007047C04610E000E020ED00E010B50C4CE0
:103950000C492046FDF73AFA0B492046FDF79CF941
:103960000A4801680122114301601C480168802354
:103970000B437F218B4303600548026010BDC046A6
:10398000004008406C5A0000705A0000285008405F
:103990000851084010B50D4C0D492046FDF716FAA8
:1039A0000C492046FDF778F90B48016801221143C4
:1039B0000160FF20000209490B6883430320800354
:1039C000181808600648026010BDC0460080864096
:1039D000845A0000885A00002890864010E400E0D5
:1039E0000891864010B50C4C0C492046FDF7EEF9C5
:1039F0000B492046FDF750F90A480168012211439E
:103A00000160FF20000208490B68834390031818E7
:103A100008600648026010BD000087409C5A000004
:103A2000A05A00002810874014E400E008118740E5
:103A300010B50D4C0D492046FDF7C8F90C4920463C
:103A4000FDF72AF90B480168012211430160FF20AC
:103A5000000409490B688343032080051818086097
:103A60000648026010BDC04600000940B45A00007C
:103A7000B85A00002810094000E400E0081109408D
:103A800010B5164C16492046FDF7D2F915492046C7
:103A9000FDF7AAF90321CA0313480368934303609F
:103AA00002696C4B1340412292009A1802614269EC
:103AB0001B231343242293434361426801231A408A
:103AC00044689C43A21842608902084A14680C4367
:103AD000146001681943016010BDC04600801040A9
:103AE000CC5A0000CE5A000000911040289010409F
:103AF00010B5154C15492046FDF79AF91449204692
:103B0000FDF772F90320C103124802688A4302607C
:103B10000169504A0A4009320261416931220A436F
:103B20000E218A4342614168012211404368934358
:103B3000591841609102084B1C680C431C600168D5
:103B40001143016010BDC04600001040D85A00006B
:103B5000DA5A0000001110402810104010B51D4C1A
:103B60001D492046FDF764F91C492046FDF73CF944
:103B70000320C1031A4802688A4302600169354B79
:103B80000B40412291005918016141691B230B43ED
:103B900024218B434361436801210B4044688C43DB
:103BA000E318436092020F4B1C6814431C60CA0266
:103BB0001A664A04036813430360C2687023134300
:103BC000C360C26807231343C36002680A430260EC
:103BD00010BDC04600201040E45A0000E65A000024
:103BE000003110402830104010B5164C16492046C0
:103BF000FDF71EF915492046FDF7F6F80321CA0323
:103C000013480368934303600269124B1340412237
:103C1000D2009A1802614269352313430A22934362
:103C20004361426801231A4044689C43A2184260E1
:103C30008902094A14680C43146001681943016041
:103C400010BDC04600005040F05A0000F25A00007B
:103C5000001150400000FFFF2810504080B500F0D8
:103C600041F8FFF727FCFFF70DFEFFF7EDFCFFF72C
:103C70004FFDFFF78BFDFFF769FEFFF78BFEFFF7A8
:103C8000D7FEFFF7AFFEFFF7B5FCFFF7F9FEFFF732
:103C90002FFFFFF763FFFFF7A7FFFFF7B5FDFFF764
:103CA000C7FBFFF703FCFFF73BFEFFF7D3FDB82090
:103CB000074900220A5407490A54742006490A5445
:103CC00006490A54542006490A5424200A5480BD47
:103CD0003009202074082020EC092020E40A20204C
:103CE000F8012020F0B581B02048214A42602148E7
:103CF0004260214842602148426021484260214898
:103D00004260214842602148426021484260214887
:103D10004260214E7260214D6A60214C6260214BED
:103D20005A6021494A6021484260214A0F4F3A6057
:103D3000104F3A60104F3A60104F3A60104F3A609F
:103D4000104F3A60104F3A60104F3A60104F3A608F
:103D5000104F3A6032602A6022601A600A60026086
:103D60001020FCF73DFD01B0F0BDC04600080A4040
:103D7000030000B100280A40000886400028864061
:103D800000A8864000480840008886400008094096
:103D90000008874000280F400088104000081040AD
:103DA00000281040000850400088464000080040AD
:103DB0000100002602480168491C01607047C046A6
:103DC000D010202010B50D480068C0B201280FD1D6
:103DD0000B4C201D00F08AFC00F052FD2068401CB6
:103DE0002060084941430120C141074A914200D95E
:103DF00010BDC0060549086010BDC04620500840EF
:103E000068022020295C8FC251B81E05B0320A40DA
:103E100080B505480068C0B2012804D1034800F00D
:103E200065FC00F01FFC80BD20108740E4102020BE
:103E300080B505480068C0B2012804D1034800F0ED
:103E400055FC00F011FC80BD20908640D41020204D
:103E500080B505480068C0B2012804D1034800F0CD
:103E600045FC00F00BFC80BD20100940F410202020
:103E700080B503480068C0B200F068FC80BDC04651
:103E800024911040B0B5064C2068400507D50120AC
:103E9000850204480068C0B2FFF776FA2561B0BD1C
:103EA0003810104024111040B0B50C4CA0694005EA
:103EB00004D42068C0B211280CD0B0BD0120850206
:103EC00007480068C0B200F0D1F8A5622068C0B20F
:103ED0001128F2D1034800F009FCB0BD2030104099
:103EE0002431104004112020B0B50948016849056B
:103EF0000DD501218902074A1388012B00D900231F
:103F0000054C2468054DEC545B1C13800161B0BD69
:103F100038105040A402202024115040A802202034
:103F2000F0B582B001910092002A00D198E00123FF
:103F30005A0600244B4F4C4D26460BE02B6A0F4689
:103F40000A601B06E31808C0761CB4B200998C42C4
:103F500000D385E039463A6103272F63A4002F6818
:103F6000FF0608D52F68FF0605D52F68FF0602D586
:103F70002F68FF06F3D42F6A019BE7183C0CE4B2CC
:103F80002C632C68E40608D52C68E40605D52C685B
:103F9000E40602D52C68E406F3D42C6A3C0AE4B2A9
:103FA0002C632C68E40608D52C68E40605D52C683B
:103FB000E40602D52C68E406F3D42C6AFCB22C6328
:103FC0002C68E40608D52C68E40605D52C68E406C0
:103FD00002D52C68E406F3D42C6AFF272F632C68E3
:103FE000E40608D52C68E40605D52C68E40602D55D
:103FF0002C68E406F3D42C6A2F63E4B22B68DB064A
:1040000008D52B68DB0605D52B68DB0602D52B68A7
:10401000DB06F3D42B6A2F631B029BB2E4182B68D8
:10402000DB0608D52B68DB0605D52B68DB0602D539
:104030002B68DB06F3D42B6A2F631B061B0AE418DC
:104040002B68DB0600D479E72B68DB0600D475E724
:104050002B68DB0600D471E72B68DB06F0D46DE734
:1040600002B0F0BD90320A4010914640F0B585B0E4
:104070007A4FB979A52808D1002906D17848A52119
:1040800001700120B87105B0F0BD312808D80129B0
:1040900006D13872724948700220F88005B0F0BD30
:1040A00002290ED13A7A002A0BD0511E3972FA79C0
:1040B000531CFB716A4BD2189070080627D005B0CC
:1040C000F0BD032909D10421B971F9794A1CFA71AB
:1040D000634A8918887005B0F0BD5A281BD104299D
:1040E00019D10023BB71F9795D480A185A249470DC
:1040F000491CF971C9B2022932D34C1E032322464E
:104100001A408D1E032D0AD2002301241AE0032039
:10411000B87105B0F0BD0020B87105B0F0BD0492D3
:104120009C4300231D46461972789A18B378D2181A
:10413000F378D2183379D218D3B22D1DAC42F2D114
:104140006C1C049A002A0BD0055D5B19012A06D06D
:10415000241865785B19022A01D0A2789B18DBB27B
:10416000415C8B42ABD181783973C1787973017925
:10417000B9734179F973FA68049281793973017AD4
:10418000B973417AF973C179797336490A60FA686B
:1041900003924A60827A3A73C27A7A73027BBA7364
:1041A000427BFA73FA6802928A60827B3A73C27B1E
:1041B0007A73027CBA73427CFA73FA680192CA601D
:1041C000827C3A73C27C7A73027DBA73427DFA7341
:1041D000FC680C61827D3A73C27D7A73027EBA7389
:1041E000427EFA73FD684D61827E3A73C27E7A73B5
:1041F000027FBA73427FFA73FE688E61827F3A73E0
:10420000C27F7A732022825CBA732122805CF873A9
:10421000F868C861FCF706F9F8873046FCF702F940
:10422000B8872846FCF7FEF878872046FCF7FAF8AE
:1042300038870198FCF7F6F8F8860298FCF7F2F850
:10424000B8860398FCF7EEF878860498FCF7EAF84D
:1042500038860120787105B0F0BDC046D803202013
:10426000DC06202040042020F0B586B07C4A812165
:1042700011600121CD037B4A156449047A4A11601B
:10428000002703E04000771C072E76D23E4642B25C
:10429000002A02D4734A156101E0724A15606A4629
:1042A0000023137013701278002A1BD1009A521C3D
:1042B0006F463A703A78002A14D1009A521C6F4621
:1042C0003A703A78002A0DD1009A521C6F463A7023
:1042D0003A78002A06D1009A521C6F463A703A7812
:1042E000002AE3D0604A103A116001AF3B703B7086
:1042F0003F78002F24D05C4C216002AC23702370E7
:104300002478002CBED1029C641C02AF3C703C7827
:10431000002CB7D1029C641C02AF3C703C78002C8E
:10432000B0D1029C641C02AF3C703C78002CA9D137
:10433000029C641C02AF3C703C78002CE3D0A1E7E7
:10434000019F7F1C01AC27702478002CD3D1019CE5
:10435000641C01AF3C703C78002CCCD1019C641CE7
:1043600001AF3C703C78002CC5D1019C641C01AFAE
:104370003C703C78002CE3D0BDE73A4805603B48F0
:10438000374C206003A803700370007800281BD10D
:104390000398401C03AC20702078002814D10398A7
:1043A000401C03AC2070207800280DD10398401CDD
:1043B00003AC20702078002806D10398401C03AC81
:1043C000207020780028E3D0116004A803700370E7
:1043D000007800281BD10498401C04AA10701078A3
:1043E000002814D10498401C04AA107010780028EA
:1043F0000DD10498401C04AA10701078002806D132
:104400000498401C04AA107010780028E3D01848C3
:1044100000681548016005A8037003700078002843
:104420001BD10598401C05A908700878002814D1F4
:104430000598401C05A90870087800280DD105983A
:10444000401C05A908700878002806D10598401C72
:1044500005A9087008780028E3D006B0F0BDC04672
:104460008080424090320A40A0120A40810006003B
:1044700080330A40F0B589B00620069000240594E8
:10448000049401260396374802900194884F0097C0
:10449000354D3649364B2846224600F0FDF9009747
:1044A0000194304802900396049405940696DC35F6
:1044B000304B2846394622461F4600F0EDF9069655
:1044C0000594049403962C4D02950194274800907E
:1044D0002A482B4922463B4600F0DEF90696059411
:1044E000049403960295274801901E4D00954120A3
:1044F00001063F2002060892FF20870522483B461E
:1045000000F0CAF906960594049401A870C01F48EB
:1045100000901F4817492246234600F0BDF9069631
:10452000059404940396029516480190194800904A
:1045300019481A4B3946224600F0AEF90696059402
:10454000049401A870C016480090164808992246A5
:10455000234600F0A1F91448DC220D49FBF7C4FD05
:1045600009B0F0BD0000FA43800C20200000F041AB
:10457000000016430000A04000C07944E400202061
:104580000000074300009643380E202000004842F8
:10459000180F202000004843F40F20200000404066
:1045A0000000964298072020E0052020F0B583B057
:1045B0007D21CF00784302905F48006801905F48FA
:1045C00000685F4D281A78432946FBF760FF0646CE
:1045D0005948046859480068281A78432946FBF767
:1045E00056FF0199611A7943891B0818029988427C
:1045F00032D25148046851480068281A7843294645
:10460000FBF745FF0199611A7943891B0818029944
:10461000884221D24848046848480068281A7843EC
:104620002946FBF734FF0199611A7943891B081861
:104630000299884210D24048046840480068281A0D
:1046400078432946FBF723FF0199611A7943891BB7
:10465000081802998842BBD303B0F0BD80B500F0C2
:10466000E5FC80BD7047000080B5002102480A4685
:104670000346FEF797FD80BDB80B000070470000B1
:1046800010B518494889401C488180B203280BD9CD
:10469000154C0748206200224A818A6108690A6134
:1046A000FBF79AFEA06110BD0F48806910BDC0469F
:1046B0000000A04180B50B490022CA618889401CD6
:1046C000888180B2032809D98A814A610820085E5E
:1046D0000A81FBF781FE0449C86180BD0248C069B8
:1046E00080BDC0467C022020A4002020B0B5044636
:1046F000406820607D20C2000F48056855430F4880
:1047000000680F49081A5043FBF7C1FE4019FBF738
:104710006EFE0C49FBF79EFD606060682168FBF748
:1047200054FDA0603F200106A068FBF7FDFCFBF7ED
:1047300079FEA081B0BDC046D010202018E000E076
:104740008038010000007A4470470000F0B583B063
:10475000354E317800290AD03178012911D15328FA
:104760005FD17078301853210174022706E0552874
:1047700057D1707830185521017401277770377040
:104780004FE0317802294CD1717872181074481CAE
:104790007070C0B20B2844D1707C317C0818B17C99
:1047A00002914018F17C01914018357D4019747DCB
:1047B0000119B07D0A18F17D5218337ED218737E2C
:1047C000D218D2B2B37E00279342D7D1090208187B
:1047D00000B2FBF701FE0721C9060091FBF7FDFCC3
:1047E0001249FBF7FAFCF0602002401900B2FBF717
:1047F000F3FD009C2146FBF7F0FC0C4D2946FBF72E
:10480000ECFCB060019800020299401800B2FBF77E
:10481000E3FD2146FBF7E1FC2946FBF7DEFC706077
:10482000ACE703B0F0BDC046F002202000003443E6
:1048300000F0D6FBFFF712FAFDF7CEFFFFF71AFEE6
:1048400000F010F900F056F800F03CF8FCF752FFC9
:10485000FBF764FF00F0CEF8FFF776FFFEF798FC59
:104860000120C00604490860044C2268012001466A
:10487000FFF7F4FEF9E7C046A0120A40FC02202030
:1048800010B5FFF717FF034C2060FFF7F9FE6060DB
:1048900010BDC046F0012020B0B57C240A9D05550E
:1048A0000EC070300699416105990161049941601B
:1048B0000999C16008990172079941700121017637
:1048C000B0BD000044210948002242542C2142542A
:1048D000028707490284027502813F2212060163A2
:1048E00042638161C26106C07047C046000020205B
:1048F000C800F4010148012101607047A0320A405C
:10490000F0B581B005463A4800260682C681457159
:1049100006728027478101218170402484810171C2
:104920000670F14381824182FF210231C180AE20B5
:10493000FDF768FFD520FDF765FF3846FDF762FFFC
:10494000A820FDF75FFF3F20FDF75CFFD320FDF7B8
:1049500059FF3046FDF756FF2046FDF753FF8D20E7
:10496000FDF750FF012D01D0142000E01020FDF7CD
:1049700049FF2020FDF746FF3046FDF743FFA12603
:104980003046FDF73FFFC8273846FDF73BFFDA20EA
:10499000FDF738FF1220FDF735FF8120FDF732FFCC
:1049A000012D01D0CF2000E09F20FDF72BFFD92063
:1049B000FDF728FF012D01D0F12000E02220FDF7B6
:1049C00021FFDB20FDF71EFF2046FDF71BFFA42083
:1049D000FDF718FFA620FDF715FF3046FDF712FF83
:1049E0003846FDF70FFFAF20FDF70CFF01B0F0BD1B
:1049F0005002202013490A68012002430A6012492C
:104A00000A6802430A6011490A6802430A60020404
:104A10000F490A600F4A13680343136042040A6097
:104A20000D4A13680343136004220A600B4A13689B
:104A30000343136042050A6009490A6802430A6099
:104A40007047C046041886400438864004B8864043
:104A500000E100E00458084004988640041809402A
:104A600004188740F0B5BFB026203EA9FEF76CFCC5
:104A700027203DA9FEF768FC28203CA9FEF764FC2E
:104A800029203BA9FEF760FC2A203AA9FEF75CFC2E
:104A90002B2039A9FEF758FC2C2038A9FEF754FC2E
:104AA0002D2037A9FEF750FC3E9C2046FBF7BAFCB0
:104AB0006100024C0027A14203D301E0020000FF85
:104AC0003846054E30703D9D2846FBF7ABFC69002B
:104AD000A14204D302E0C046C401202038467070D1
:104AE0003C9D2846FBF79EFC6900A14200D3384656
:104AF000B0703B9D2846FBF795FC6900A14200D3AE
:104B00003846F0703A984100A14203D3004801E0D2
:104B10009A99194002977060399D2846FBF782FCEC
:104B20006900A14204D3014802E0C0462404000009
:104B30003081389D2846FBF775FC6900014FA14282
:104B400003D301E0DC05000038467081379D28461C
:104B5000FBF768FC6900A14200D33846B081029E91
:104B60003696359636A93046FEF7EEFB012035A97C
:104B70000190FEF7E9FB36984100A14200D3F148CD
:104B8000F1490860359D2846FBF74CFC6900A142BD
:104B900000D33046ED490880082033AE31AF2FAD49
:104BA00031463A462B46FEF7D7FB0B202EA9FEF7DF
:104BB000CBFB311D3A1D2B1D1320FEF7CDFB0C2026
:104BC0002DA92CAA2BABFEF7C7FB0F202AA9FEF7B5
:104BD000BBFB34994800DE4AA04200D31146DC22D8
:104BE000DC48815033994A00DB4BA24200D319467E
:104BF000016031994A00A242029B00D319464160EC
:104C00002F994A00A24200D3D44981602E994A00CC
:104C1000A24200D3D249D34A116032994A00A2423B
:104C200000D31946DC30416030994A00CE4DA24293
:104C300000D329468160FF2086052D994800A042B7
:104C400000D33146C94801602C994A00A24200D3E2
:104C5000194641602B994A00C54BA24200D3194620
:104C600081603F2005062A984100A14200D32846D2
:104C7000C0490860102029A928AA27ABFEF76CFBC1
:104C80004120070629984100A14200D33846BA497D
:104C9000086028984100A14200D3B848B84908608C
:104CA00027984100A14200D30298B6490860162017
:104CB00026A925AA24ABFEF74FFB1F2023A9FEF748
:104CC00043FB1C2022A921AA20ABFEF745FB269915
:104CD0004800A04200D3AC49AC48016025994A0085
:104CE000A24200D30299416024994A00A24200D313
:104CF0009D49816023984100A14200D3A448A54961
:104D0000086022994800A04200D33946A2480160B9
:104D100021994A00A24200D32946416020994A00C5
:104D2000A242029F00D33146816020201FA91EAA03
:104D30001DABFEF711FB1F984100A14200D397481D
:104D4000974908601E984100A14200D388489549C0
:104D500008601D984100A14200D33846924908607E
:104D600023201CA9FEF7F0FA24201BA9FEF7ECFA79
:104D700025201AA9FEF7E8FA1C9D2846FBF752FBEE
:104D80006900A14200D30198884908701B9D2846FC
:104D9000FBF748FB6900A14200D3384684490870FC
:104DA0001A9D2846FBF73EFB6900A14200D30198FB
:104DB00080490870652006AD2946FEF7C5FA291D11
:104DC0006620FEF7C1FA294608316720FEF7BCFAD3
:104DD00029460C316820FEF7B7FA294610316920C0
:104DE000FEF7B2FA294614316A20FEF7ADFA2946D9
:104DF00018316B20FEF7A8FA29461C316C20FEF70B
:104E0000A3FA294620316D20FEF79EFA2946243167
:104E10006E20FEF799FA294628316F20FEF794FAA2
:104E200029462C317020FEF78FFA29463031712047
:104E3000FEF78AFA294634317220FEF785FA2946B0
:104E400038317320FEF780FA29463C317420FEF792
:104E50007BFA294640317520FEF776FA294644311F
:104E60007620FEF771FA294648317720FEF76CFA72
:104E70004C3578202946FEF767FA06994800A0428B
:104E8000334B00D319464C48016007994A00A242AF
:104E900001D303218907416008994A00A24200D347
:104EA0001946816009994A00A24200D34349C16072
:104EB0000A994A00A24200D3274901610B9A530084
:104EC0003F49A34200D30A4642610C9A5300A342D1
:104ED00000D33C4A82610D9A5300A34200D30A4694
:104EE000C2610E994A00A24200D3374901620F996C
:104EF0004A00A24200D33549416210994A00A242B9
:104F000000D3334981622F2005A904AA03ABFEF721
:104F100023FA059D2846FBF785FA6900A14200D3D4
:104F200038462C49087104984200A24200D32A480E
:104F3000886003984200A24200D32848C8603FB06E
:104F4000F0BDC0460000A042740320207C0C20204D
:104F50000000A041800C20200000F041000016431A
:104F60009A99193ED40120200000A040F40F20207F
:104F700000004040C0012020540020209A99193F91
:104F800058002020140F202000000743E4002020B8
:104F900000004E424C002020380E2020000020410E
:104FA0005C00202060002020BC062020480020203B
:104FB000E1002020E0002020780020200000D841DF
:104FC0000000C841000020420000B04100008C41B8
:104FD00000007041D80120206666E6400000B04025
:104FE000B0B50120C1030B4A116043031360840371
:104FF000146008251560084A11601360146015607C
:1050000080020649086006490860064908600649AA
:105010000860B0BD80E200E000E100E04890104090
:10502000481010404830104048105040F0B587B04C
:1050300016460D460446002110460091FBF7BEF9C6
:10504000002802952ED103A82D2101707E2C00D9B5
:105050006D1C503DE8B2FDF7D5FB00277E2C3D4688
:1050600000D8254628091030FDF7CCFB0E2028403B
:10507000401CFDF7C7FB3846FDF796FC082738466D
:10508000FDF792FC3846FDF78FFC3846FDF78CFCA7
:105090003846FDF789FC3846FDF786FC0120C0073D
:1050A0004640A41D01943046FBF7BCF90746FBF7C8
:1050B00093F901463046FBF788F806469A489F4C1C
:1050C0009F4DAF420FDD9F493846FBF7E0F9302195
:1050D00002460A4303AB1A706A1C4243BF1AA74236
:1050E00015D9012502E0A74220DD009D96493846EA
:1050F000FBF7CDF903A94919024630320A70611C49
:1051000041437F1A6C1C8C4DAF4206D912E003A8B4
:1051100041700224884DAF420CD803A800193021F9
:105120000170651C8348874214D920E0824DAF424C
:1051300018DD002485493846FBF7A9F903A90919A8
:10514000024630320A70691C41437F1A651C794857
:1051500087420CD803A830214155A41C74488742CB
:1051600015D825E073498F4200DCC7E00025784957
:105170003846FBF78CF90146303103AA51556D4989
:10518000491C41437F1A6C1C6948874210D97149F8
:105190003846FBF77CF90146303103AA11556449C2
:1051A000491C41437F1A641C6048874207D817E0B6
:1051B00003A830210155641C5C48874210D9664918
:1051C0003846FBF764F90146303103AA11555749B7
:1051D000491C41437F1A601C53498F4207D818E08D
:1051E00003A830210155601C4F498F4211D9B9B233
:1051F000C9085A4A4A43110D0A46303203AB1A54C1
:105200007D22D2004A43B91A8FB2401C632F06D8C0
:1052100016E003A930220A54401C632F10D9B9B2FA
:1052200089084F4A4A43510C0A46303203AB1A549C
:1052300064224A43B91A8FB2451C092F06D813E0DD
:1052400003A930220A54451C092F0DD9F8B2CD21EB
:105250004143C80A0146303103AA51550A2141434E
:10526000781AC7B26D1C03E003A930224A55851C89
:10527000ECB2303703A807553A493046FBF790F8AF
:10528000002802D02846019C2DE003A827182E20D4
:10529000787035493046FAF7A0FFFBF7C3F80446AB
:1052A00064263146FBF712F946433030B870A11B33
:1052B000E81C01290FDBCAB2CD235343DA0A134697
:1052C0003033C0B203AC23540A205043081A3021B3
:1052D0000143019C03E00029019C04D43021281DD6
:1052E000C2B203AB9954C0B203AA80180021417026
:1052F000E0B20299FCF762FE07B0F0BD0C498F42A4
:1053000001DD002443E709498F4201DD002456E70F
:10531000874201DD00206AE7642F01DB00207EE781
:1053200000250A2F92DAA3E7E70300000F27000009
:105330009F8601003F420F007F969800FFE0F50531
:10534000FFC99A3B00CA9A3B00E1F5058096980098
:1053500040420F00A086010010270000C520000079
:105360007B14000017B7D13800007A442021020CCA
:1053700001D010211046020A01D010460839020956
:1053800001D01046091F820801D01046891E42082C
:1053900001D0881E7047081A704700000000000006
:1053A00002E008C8121F08C1002AFAD170470000A5
:1053B0007047000000000000002001E001C1121F42
:1053C000002AFBD170470000000000000000002F01
:1053D000000000000700070000147F147F14002461
:1053E0002A7F2A120062640813230036495522508E
:1053F00000000503000000001C22410000004122C3
:105400001C000014083E08140008083E08080000AC
:1054100000A06000000808080808000060600000A4
:10542000002010080402003E5149453E0000427F22
:105430004000004261514946002141454B3100186E
:1054400014127F10002745454539003C4A49493030
:1054500000017109050300364949493600064949EA
:10546000291E0000363600000000563600000008F5
:1054700014224100001414141414000041221408D2
:1054800000020151090600324959513E007C1211B7
:10549000127C007F49494936003E41414122007F4C
:1054A0004141221C007F49494941007F0909090106
:1054B000003E4149497A007F0808087F0000417F8B
:1054C0004100002040413F01007F08142241007F3D
:1054D00040404040007F020C027F007F0408107FA4
:1054E000003E4141413E007F09090906003E41510D
:1054F000215E007F091929460046494949310001CA
:10550000017F0101003F4040403F001F2040201F1D
:10551000003F4038403F00631408146300070870E0
:10552000080700615149454300007F414100005593
:105530002A552A55000041417F000004020102045F
:10554000004040404040000001020400002054544C
:105550005478007F4844443800384444442000389C
:105560004444487F00385454541800087E0901020E
:105570000018A4A4A47C007F080404780000447DE3
:105580004000004080847D00007F1028440000001F
:10559000417F4000007C04180478007C08040478F3
:1055A00000384444443800FC2424241800182424DF
:1055B00018FC007C080404080048545454200004DB
:1055C0003F444020003C4040207C001C2040201CE8
:1055D000003C4030403C004428102844001CA0A05F
:1055E000A07C004464544C4414141414141400009B
:1055F00000000000000000000000000000000000AB
:10560000000000000000000000000000000000009A
:1056100000000000000000000000008080C0E0E00A
:10562000F0F0F0F878783C3C3C3C1C1C1C1C1C1C2A
:105630001C1C1C181818303030606040C0800000FE
:10564000000000000000000000000000000000005A
:10565000000000000000000000000000000000004A
:10566000000000000000000000000000000000003A
:10567000000000000000000000000000000000002A
:10568000000000000000000000000000000000001A
:1056900000000080C0E0F8FCFEFE3F1F0F0707037C
:1056A00001010000000000000000000000000000F8
:1056B0000000000000000000000000000000193C95
:1056C0007E7E3C180000000000000000000000008A
:1056D00000000000000000000000000000000000CA
:1056E00000000000000000000000000000000000BA
:1056F00000000000000000000000000000000000AA
:105700000000000000000000000000000000008019
:10571000E0FCFEFFFF3F0F03010000000103071F35
:105720003F7F7F7F7F7F7F7F7F7F7F3F7F7F7EFE8B
:10573000FCFCF8F0000000000000C0F8FFFFFFFFD5
:10574000FFFFFF1F07000000000000000000000036
:105750000000000000000000000000000000000049
:105760000000000000000000000000000000000039
:105770000000000000000000000000000000000029
:105780000000000000000000000000000000F0FF2A
:10579000FFFFFF1F010000000000000000000000EC
:1057A0000080E0F8FEFFFFFFFF7F1F0F7EFCF08010
:1057B00001070F1F000080E0F8FFFFFFFFFFFFFF62
:1057C0003F07000000000000F000000000000000A3
:1057D00000000000000000000000000000000000C9
:1057E00000000000000000000000000000000000B9
:1057F00000000000000000000000000000000000A9
:1058000000000000000000000000000000001FFF7A
:10581000FFFFFFC0FFF88000000000000000E0F87C
:10582000FEFFFFFFFFFF1F070100000000031FFF37
:10583000F8C000C0F0FCFFFFFFFFFFFFFF1F0700E5
:10584000000000000000E0FF3F000000000000003A
:105850000000000000000000000000000000000048
:105860000000000000000000000000000000000038
:105870000000000000000000000000000000000028
:105880000000000000000000000000000000000117
:105890000F3FFFFFFCEFBFFEF8F0C09034F7FFFFB3
:1058A000FFFFFFFFFF7C7C7C7C7C7C7C7C7C7C7CA9
:1058B0007D7F7F7FFFFFFFFFFFFFF3F1F0F0E0E070
:1058C000E0C0E0F0FC7F1F030000000000000000CB
:1058D00000000000000000000000000000000000C8
:1058E00000000000000000000000000000000000B8
:1058F00000000000000000000000000000000000A8
:10590000000000000000000020301018080C0E06F7
:1059100007070703070F1F3E7DF7EFDFBF7EFCF889
:10592000F0F0E0C0C08080800000000000000000B7
:10593000008080C0C0C0E0E0E0707078B9BDDFDFFB
:105940006F37170B0303070706040C081810000035
:105950000000000000000000000000000000000047
:105960000000000000000000000000000000000037
:105970000000000000000000000000000000000027
:105980000000000000000000000000000000000017
:105990000000000000000000000001010307060FE6
:1059A0000D1B1B17373F2F2F3F1F1F1E1E1E1E1EB6
:1059B0001E1E1E1E1E1E0E0E0F07070303010100F2
:1059C00000000000000000000000000000000000D7
:1059D00000000000000000000000000000000000C7
:1059E00000000000000000000000000000000000B7
:1059F000000600000000000016000000000000008B
:105A00000000000000000000000003000000000093
:105A10000800080000000000A00F000020010000A6
:105A200008070900204E00002000000008070900B8
:105A3000204E0000200000000400040000030000CD
:105A4000071000000300000000000000000000003C
:105A50000000000000000000100000000001000035
:105A600003000000000000003400C44108000900E9
:105A7000220000001F4E0000000000000000000097
:105A80000000000008030900020000001F4E000093
:105A900000000000000000000000000008070000F7
:105AA000220000000F27000000000000000000009E
:105AB0000000000008004F00220000004FC300005B
:105AC00000000000000000000000000008000000CE
:105AD000180000000030000008000000180000005E
