:020000040800F2
:10000000380700209D0100089327000841200008C0
:100010009127000887080008BD3000080000000094
:100020000000000000000000000000003D2B000860
:1000300089080008000000001F2B00083F2B000863
:10004000B7010008B7010008B7010008B7010008B0
:10005000B7010008B7010008B7010008B7010008A0
:10006000B7010008B7010008B7010008B701000890
:10007000B7010008B7010008B7010008B701000880
:10008000B7010008B7010008B7010008B701000870
:10009000B7010008B7010008B7010008B701000860
:1000A000B7010008B7010008B7010008B701000850
:1000B000B7010008B7010008E92B0008B7010008E4
:1000C000B7010008B7010008B7010008B701000830
:1000D000B7010008B7010008B7010008B701000820
:1000E000B7010008B7010008B7010008B701000810
:1000F000B7010008B7010008B7010008B701000800
:10010000B7010008B7010008B7010008B7010008EF
:10011000B7010008B7010008B7010008B7010008DF
:10012000B7010008B7010008B7010008B7010008CF
:10013000B7010008B7010008B7010008B7010008BF
:10014000B7010008B7010008B7010008B7010008AF
:10015000B7010008B7010008B7010008B70100089F
:10016000B7010008B7010008B7010008B70100088F
:10017000B7010008B7010008B7010008000000003F
:10018000B7010008B7010008DFF80CD000F006FB4B
:1001900000480047694900083807002006488047A2
:1001A00006480047FEE7FEE7FEE7FEE7FEE7FEE75C
:1001B000FEE7FEE7FEE7FEE7D92B0008890100080D
:1001C0002DE9F05F0546002092469B46884606468C
:1001D000814640241BE0284641464746224600F01F
:1001E000F3F853465A46C01A914110D311461846A7
:1001F000224600F0DAF82D1A67EB01084F46224636
:100200000120002100F0D1F817EB00094E41201E1B
:10021000A4F10104DFDC484631462A464346BDE8E6
:10022000F09FD2B201E000F8012B491EFBD27047CB
:100230000022F6E710B513460A4604461946FFF7B2
:10024000F0FF204610BD2DE9FE4F81EA030404F0C3
:10025000004421F0004100944FF0000B23F00043D4
:1002600050EA01045ED052EA03045BD0C3F30A549F
:10027000C1F30A552C44A4F2F3340194A0FB0254B8
:10028000C1F3130141F48011C3F3130343F480134A
:1002900001FB024400FB034E840A970A44EA81549E
:1002A00047EA8357A4FB076802958D0A05FB07857B
:1002B0004FEA932C04FB0C542705029D4FEA065885
:1002C00047EA1637B5EB08056EEB070C870E920E62
:1002D00047EA811742EA8312A7FB0201B6EB0B0142
:1002E00064EB00042B0D43EA0C335E1844EB1C5006
:1002F000DA465146E7FB0201C5F313044FEA0B331C
:1003000043EA14534FEA0432019C43EA0603A4F182
:100310000C040294009CCDE900B400F0ABF803B0EB
:10032000BDE8F08F00200146F9E70EB5C10F80EA65
:10033000E0700844CA07002140F233438DE80E0004
:100340000A460B4600F096F803B000BD00F00042EC
:1003500030F000400AD0C10D01F56071C0F3160005
:1003600042EA0151C208400711437047002001468C
:10037000704701F0004330B421F0004150EA01021F
:1003800006D00A0DA2F56072C1F31301002A02DC47
:1003900030BC00207047440F44EAC104C100E0189B
:1003A00030BC00EBC25000F01FB8202A04DB203A1A
:1003B00000FA02F1002070479140C2F1200320FAB8
:1003C00003F3194390407047202A04DB203A21FAB6
:1003D00002F00021704721FA02F3D040C2F120025E
:1003E00091400843194670470029A8BF7047401C38
:1003F000490008BF20F00100704710B4B0FA80FC3B
:1004000000FA0CF050EA010404BF10BC704749B177
:10041000CCF1200421FA04F411FA0CF118BF0121E7
:1004200021430843A3EB0C01CB1D4FEA00614FEAC7
:10043000102042BF002010BC704700EBC350104496
:100440000029A4BF10BC7047401C490008BF20F021
:10045000010010BC704710B5141E73F1000408DAD7
:10046000401C41F1000192185B411A4301D120F078
:10047000010010BD2DE9F04D92469B4611B1B1FA35
:1004800081F202E0B0FA80F220329046FFF78DFF51
:1004900004460F4640EA0A0041EA0B0153465A4619
:1004A000084313D0114653EA010019D0C8F14002A5
:1004B0005046FFF789FF05460E46504659464246CC
:1004C000FFF773FF084305D0012004E020463946BA
:1004D000BDE8F08D0020054346EAE0762C43374323
:1004E0000A986305E40AA0EB08000022FD0A44EA2A
:1004F00047540A3002D500200146E9E701051019EA
:100500006941DDE9084500196941BDE8F04DA2E700
:100510002DE9FE4F804681EA0300C00F0C46009093
:1005200021F0004123F00045B8EB0200A94105D2BB
:100530004046214690461C460B46024623F00040AA
:10054000104347D0270DC7F30A00C3F30A510290A6
:10055000401A019040286BDAC3F3130040F4801B6B
:100560000098924620B10023D2EB030A63EB0B0BF9
:1005700001985946C0F140025046FFF716FF064663
:100580000D4650465946019A00F01AF910EB080042
:100590006141002487EA115284EAE7731A4340D08C
:1005A000009A62B3019A012A4FEA075215DC001B38
:1005B00061EB02014FF0004202EA0752CDE900422E
:1005C000001C41F5801132462B46FFF753FF03B064
:1005D000BDE8F08F40462146F9E7001B61EB0201C0
:1005E000001C41F5801300185B412018A2F500178C
:1005F00047EB030140EAD570B6196D4111E06D0873
:100600004FEA360645EAC0754FEA0752001B61EB18
:100610000201001C41F5801149084FEA3000001921
:10062000514132462B4603B0BDE8F04FFFF713BFF0
:100630000098012240000023D0EB020263EBE0733C
:10064000009821464FEAE074B8EB000061EB04012A
:10065000E9E783F000435BE781F0004158E72DE9CB
:10066000F04D81EA030404F0004B21F000451446EC
:100670004FF0000A23F0004150EA050220D054EA6E
:1006800001021DD0C5F30A570246C5F31303C1F397
:100690001300C1F30A5640F4801543F48013A7EB0E
:1006A0000608101BD64608F2FD3873EB050002D38E
:1006B00008F1010801E092185B41B8F1000F03DA7C
:1006C00000200146BDE8F08D00204FF48011064661
:1006D00084460EE0171B73EB050705D3121B63EB73
:1006E000050306434CEA010C49084FEA3000921812
:1006F0005B4150EA0107EDD152EA030012D082EAD1
:10070000040083EA0501084305D0101BAB4106D263
:100710000122002306E000224FF0004302E06FF0C8
:10072000010253101AEB06004CEB085110EB0A00C3
:1007300041EB0B01BDE8F04DFFF78DBE70B521F028
:10074000004303430CD0C1F30A550024D5EB040544
:1007500064EB0403D617AD1AB34102DB0020014657
:1007600070BD201841EB025170BD000030B5041E71
:1007700071F1000404DB4FF00044404264EB0101DE
:10078000141E73F1000405DB1C464FF00043524277
:1007900063EB0403994208BF904230BD064C074DFD
:1007A00006E0E06840F0010394E807009847103441
:1007B000AC42F6D3FFF7ECFCF054000810550008EB
:1007C000202A06DBCB17203A41FA02F043EAE07315
:1007D00006E041FA02F3D040C2F120029140084302
:1007E000194670472DE9F04D00231A461B1A8A411D
:1007F00003DB00200146BDE8F08DC1F30A52C1F3CE
:10080000130141F480154FF0000BD10702D10018FD
:100810006D41521E0027044640F2FF11384601EB9D
:10082000620A3E468046024600204FF48011FFF7E0
:10083000CBFDC2197141BB1846EB0100B4EB030CB0
:1008400075EB000C04D3E41A65EB000517460E4661
:10085000241908F101006D4180463428E3DDF919BF
:1008600046EB0600091BA84103D24FF0FF321346A6
:1008700001E0002213461BEB070046EB0A51BDE8DE
:10088000F04DFFF7E8BDFEE7704772B6FEE70000E7
:1008900070B5044600F00CF90546601C02D004480F
:1008A0000078044400F004F9401BA042FAD370BD64
:1008B0001C0000202DE9F84FDFF8BCA10022012523
:1008C00003264FF00F090AF1040BAAF1040E00BF32
:1008D0000B6805FA02F42340A34270D10F7907F0A8
:1008E0000307012F01D0022F16D187684FEA420873
:1008F00006FA08FC27EA0C07D1F80CC00CFA08FC31
:100900004CEA070CC0F808C04768A7430C79C4F349
:10091000001494403C4344600C79E443A4070AD09B
:10092000C4684FEA420C06FA0CF7BC438F6807FA1A
:100930000CF72743C7600C7904F00304022C12D192
:10094000D40800EB840CDCF820405707FF0E09FAAE
:1009500007F824EA0804D1F8108008FA07F848EAF2
:100960000408CCF8208004684FEA420C06FA0CF721
:10097000BC430F7907F0030707FA0CF7274307601A
:100980004C6814F4403F70D03C4C276847F48047D3
:100990002760246822F0030704F480440094384C54
:1009A00007EB040CDCF8084897074FEA177809FAB8
:1009B00008F7BC43334FB84202D1002724E054E08B
:1009C000314FB84201D101271EE0304FB84201D16A
:1009D000022719E02E4FB84201D1032714E02D4F12
:1009E000B84201D104270FE02B4FB84201D10527AF
:1009F0000AE02A4FB84201D1062705E0284FB84245
:100A000001D1072700E0082707FA08F72743CCF8A9
:100A10000878DAF800405746D1F804C09C435FEAF2
:100A2000CC2C00D51C433C60DBF800405F46D1F87D
:100A300004C09C435FEA8C2C00D51C433C60DEF86C
:100A400000407746D1F804C09C435FEA8C3C00D557
:100A50001C433C60084F083F3C68D1F804C09C43ED
:100A60005FEACC3C00D51C433C60521C102AFFF4CA
:100A70002FAFBDE8F88F0000083C01404438024029
:100A80000030014000000240000402400008024023
:100A9000000C024000100240001402400018024006
:100AA000001C02400AB1816170470904FBE70000A5
:100AB00001488068704700001C00002070B50400E9
:100AC00025D094F83D00002520B984F83C502046FC
:100AD00000F046FA242084F83D002068016821F0E7
:100AE000010101602068016841F400410160206853
:100AF000016821F40041016000F09AFB4D4A6168F1
:100B0000914201D84C4900E04C49884201D2012071
:100B100070BD4B492368B0FBF1F15E6826F03F06DB
:100B20000E435E606368934206D94FF4967359434F
:100B30004FF47A73B1FBF3F12368491C1E6A26F067
:100B40003F06314319626168914210D84900401E46
:100B5000B0FBF1F2521CC2F30B02042A01D20420B2
:100B600022E0B0FBF1F0401CC0F30B001CE0A268D7
:100B7000F2B301EBC10303EB0116431EB3FBF6F323
:100B80005B1C43F480431B0549D092B301EBC102C7
:100B900002EB0111401EB0FBF1F0401CC0F30B0052
:100BA00040F4804040F400402168CA694CF6FF736D
:100BB0009A431043C861D4E90710014320680268D2
:100BC00022F0C00211430160D4E90301014320680F
:100BD000826848F2FF339A4311438160D4E90501EA
:100BE00008432168CA6822F0FF021043C86001E090
:100BF0000EE016E02068016841F001010160256403
:100C0000202084F83D00256384F83E50002070BD0C
:100C100001EB4106431EB3FBF6F35B1CB3E7012077
:100C2000C2E701EB4101401EB0FBF1F0401CC0F3F4
:100C30000B00B7E7A086010080841E0000093D007C
:100C400040420F002DE9F84F1F4690468A46044661
:100C5000DDF82890FFF72CFF054694F83D0020288A
:100C600071D11923012270492046009501F0F2FA52
:100C70000028F5D194F83C00012864D0012084F8C4
:100C80003C0020680168C90703D1016841F00101F7
:100C900001602068016821F400610160222084F86D
:100CA0003D00102084F83E0000262664C4F824800D
:100CB0006785608D20855D48E0622B464A46514637
:100CC000204601F0D7F9002876D1208D584F68B121
:100CD000012814D002282068016816D041F48061F0
:100CE000016020684169806900908EE02068416958
:100CF00081690091016841F40071016085E020681C
:100D0000016821F480610160F0E721F480610160F5
:100D10002068016841F40061E2E7032846D8012811
:100D20000AD0022810D04B460022394620460095B2
:100D300001F090FAC8BB25E02A464946204601F05A
:100D40002FFB90BB54E06CE04B4600223946204616
:100D5000009501F07FFA40BB2068016841F4007102
:100D6000016020680069616A0870606A401C606206
:100D7000218D491E2185618D491E61852168096982
:100D8000017039E02068016821F480610160206809
:100D90000069616A0870606A401C6062208D401EB4
:100DA0002085608D401E6085CEE705E02A464946D5
:100DB000204601F0F5FA10B10120BDE8F88F206857
:100DC0000069616A0870606A401C6062208D401E84
:100DD00081B22185608D401E608520684269D243C2
:100DE000520712D4032903D1016821F48061016004
:100DF00020680069616A0870606A401C6062208D2A
:100E0000401E2085608D401E6085208D002884D185
:100E1000202084F83D0084F83E6084F83C60002087
:100E2000CBE70220C9E70000020010000000FFFF2E
:100E3000040001002DE9F84F1F4690468A460446FB
:100E4000DDF82890FFF734FE054694F83D00202891
:100E50007FD11923012240492046009501F0FAF97B
:100E6000002876D194F83C00012872D0012084F843
:100E70003C0020680168C90703D1016841F0010105
:100E800001602068016821F400610160212084F87C
:100E90003D00102084F83E0000262664C4F824801B
:100EA0006785608D20852D48E0622B464A46514675
:100EB000204601F055F990B9206841698069009099
:100EC00036E02A464946204601F0A2FA50B1206C8D
:100ED000042804D12068016841F4007101600120F8
:100EE000BDE8F88F606A216800780861606A401C7C
:100EF0006062618D491E6185218D491E89B22185FF
:100F000022685369DB435B070BD451B10078106151
:100F1000606A401C6062608D401E6085208D401EAE
:100F200020852A464946204601F068F90028CED19E
:100F3000208D0028C5D154F83D0B016841F40071A3
:100F40000160202004F81E09E67766770020C7E7D5
:100F5000FFE70220C4E70000020010000000FFFFCE
:100F600010B586B0044614216846FFF761F91349AD
:100F70002068884220D112480021026842F0020213
:100F80000260006800F002000590C020009012206E
:100F9000CDE901010320039004200490694609482B
:100FA000FFF788FC06481030016841F40011016029
:100FB000006800F40010059006B010BD0054004019
:100FC000303802400004024002488168027811442F
:100FD000816070471C0000200B4810B5016841F487
:100FE00000710160016841F480610160016841F4B1
:100FF00080710160032000F06FF80F2000F006F808
:1010000000F024F8002010BD003C024070B50D4DEA
:1010100004464FF47A712878B1FBF0F00A49096868
:10102000B1FBF0F000F00AFB48B9102C07D2002207
:101030002146501E00F030F800206C6070BD012089
:1010400070BD00001C000020280000200A4808B5E0
:10105000016841F480410160006800F48040009024
:101060000548001F016841F080510160006800F0F0
:101070008050009008BD000044380240002809DB81
:1010800000F01F02012191404009800000F1E020A2
:10109000C0F8001170470000F0B40E4B1B680C46FE
:1010A000C3F30223C3F10705042D00D90425191D3C
:1010B000072901D2002300E0DB1E012606FA05F114
:1010C000491E214099409E40761E16403143F0BC97
:1010D00002F024B80CED00E0064900F007020868B1
:1010E0004FF6FF03184040EA0220034A104308600D
:1010F000704700000CED00E00000FA052DE9F04714
:101100000E46050065D0DFF81481D8F80000F7B26C
:1011100000F00700B04207D288F80070D8F800004D
:1011200000F00700B04254D128683D4C810712D529
:10113000400703D5206840F4E0502060287800077D
:1011400003D5206840F4604020602068A96820F042
:10115000F000084320602878C0072DD03049686827
:101160000839012812D0022813D0032811D00968A9
:10117000890700292DDA216821F00301014321604C
:10118000FFF796FC814641F2883A0EE00968890330
:10119000EFE709688901ECE7FFF78AFCA0EB09019A
:1011A000514502D90320BDE8F0872068696800F046
:1011B0000C00B0EB810FEFD1D8F80010404601F0E1
:1011C0000701B14207D90770006800F00700B0427C
:1011D00001D00120E7E72878400705D52068E968B5
:1011E00020F4E050084320602878000706D52068E6
:1011F000296920F4604040EAC100206000F038F81E
:101200002168084AC1F30311515CC84006490860CF
:1012100006480068FFF7FAFE0020C4E7003C0240E1
:10122000083802406E4D00082800002020000020F1
:101230000448054900680968044AC1F38221515CE9
:10124000C840704728000020083802407E4D000842
:101250000448054900680968044AC1F34231515CF9
:10126000C840704728000020083802407E4D000822
:10127000154810B5006810F00C02144813D0411046
:10128000042A0FD0082A0ED10F4C241F226823688D
:1012900002F03F025B0207D52068C0F38810A0FB74
:1012A000010106E0084610BD2168C1F38811A1FBC9
:1012B00000010023FEF784FF2168C1F30141491CAE
:1012C0004900B0FBF1F010BD083802400024F400E2
:1012D0002DE9F84F04006ED02078DFF84C93C0075A
:1012E000A9F104054AD009F104000168C1F38101A4
:1012F000012908D00068C0F3810002280AD1D9F87A
:101300000000400206D52868800337D560680028B1
:10131000E1D033E06068B0F5803F10D0B0F5A02F89
:10132000286810D020F480302860286820F48020BD
:1013300028606068A8B1FFF7BBFB06460DE028688F
:1013400040F48030F4E740F480202860F7E700BFE5
:10135000FFF7AEFB801B642873D828688003F7D59D
:101360000CE0FFF7A5FB064605E000BFFFF7A0FB7A
:10137000801B6428F0D828688003F7D42078DFF831
:10138000AC8280074FF0000A3ED5A748001D0168D7
:1013900011F00C0F08D00068C0F3810002280BD1B7
:1013A000D9F80000400207D42868800716D5E06805
:1013B000012800D112E033E1E068B8B10120C8F89B
:1013C0000000FFF775FB064605E000BFFFF770FB66
:1013D000801B0228C0D828688007F7D528682169B3
:1013E00020F0F80040EAC10028600DE0C8F800A035
:1013F000FFF75EFB064604E0FFF75AFB801B02285E
:101400001FD828688007F7D42078000722D5864F98
:1014100087486169703771B101210160FFF748FBAE
:10142000064604E0FFF744FB801B022809D8386811
:101430008007F7D50EE0C0F800A0FFF739FB06469D
:1014400005E082E0FFF734FB801B02287DD8386876
:101450008007F7D42078400768D5DFF8CCB10027A3
:101460000BF13C0BDBF80000C0000BD4DBF80010E4
:1014700041F08051CBF80010DBF80000012700F0AC
:10148000805000906B4E3068C00510D4306840F436
:1014900080703060FFF70CFB009005E0FFF708FB61
:1014A0000099401A022850D83068C005F6D55E4E23
:1014B000A0686C3601280FD00528306810D020F0C5
:1014C00001003060306820F004003060A068B8B1DE
:1014D000FFF7EEFA00900FE0306840F00100F4E70B
:1014E00040F004003060F7E7FFF7E2FA0099411A94
:1014F00041F28830814266D830688007F4D50EE02A
:10150000FFF7D6FA009007E0FFF7D2FA0099411AE8
:1015100041F28830814256D830688007F4D42FB128
:10152000DBF8001021F08051CBF80010A069C8B39F
:101530003D49091D0968C1F3810102294AD00228E9
:10154000504607D0C8F8600000E03CE0FFF7B0FA72
:1015500004463BE04746C8F86000FFF7A9FA064694
:1015600005E000BFFFF7A4FA801B02282BD82868EB
:101570008001F7D4D4E907010843A16A2E4A49083B
:1015800002EB0141626A41EA8211084394F82C108F
:1015900040EA0161C9F8001001203866FFF788FAB7
:1015A000044606E03EE000BFFFF782FA001B022877
:1015B00009D828688001F7D534E000BFFFF778FA32
:1015C000001B022802D90320BDE8F88F286880019B
:1015D000F4D427E00128F7D0D9F80000E26900F43C
:1015E000800191421CD1226A00F03F01914217D143
:1015F00047F6C071626A0140B1EB821F10D1A26A46
:101600004FF0FF3300F4403103EB5202B1EB024FD5
:1016100006D194F82C1000F07060B0EB016F01D08F
:101620000120D1E70020CFE7043802400000474204
:10163000800E4742007000400000FFFF10B5401EC2
:10164000B0F1807F01D3012010BD4FF0E024606134
:101650000F21601701F062FD0020A06107202061CA
:10166000002010BD7047704710B590F83C20012A4B
:1016700022D0012280F83C20CA688C6822F4407293
:1016800022434C6822F4806222430C6822F40062F8
:1016900022430C6922F4805222434C6922F4005206
:1016A0002243C969002322F480420A4301684A6444
:1016B00080F83C30002010BD022010BD70B590F8BD
:1016C0003C20012A32D0012480F83C40022280F8DC
:1016D0003D2003685A689D6822F070060A6832430C
:1016E0005A60134B02689A4214D0B2F1804F11D065
:1016F000104B9A420ED0104B9A420BD00F4B9A428D
:1017000008D00F4B9A4205D00E4B9A4202D00E4B96
:101710009A4204D1496825F080031943916080F80A
:101720003D40002180F83C10084670BD022070BD8D
:10173000000001400004004000080040000C004090
:1017400000040140004001400018004010B50400B2
:1017500003D094F83D0010B107E0012010BD002037
:1017600084F83C00204600F01FF8022084F83D0079
:10177000211D206801F03EFA012084F8460084F81B
:101780003E0084F83F0084F8400084F8410084F86B
:10179000420084F8430084F8440084F8450084F84B
:1017A0003D00002010BD000008B500680B498842CC
:1017B00012D10B48016841F0040101600068002269
:1017C00000F00400009011461E20FFF765FCBDE804
:1017D00008401E20FFF752BC08BD00000008004072
:1017E0004038024090F83D10012901D00120704797
:1017F000022180F83D100168CA6842F00102CA6007
:1018000000681149884214D0B0F1804F11D00F49BF
:1018100088420ED00E4988420BD00E49884208D02B
:101820000D49884205D00D49884202D00C498842B2
:1018300004D1816801F00701062903D0016841F055
:1018400001010160002070470000014000040040D9
:1018500000080040000C004000040140004001402E
:101860000018004070B5044690F83C00002501289F
:1018700017D0012684F83C60022084F83D002068DF
:10188000826822F0770222F47F4282600868502842
:1018900038D00DDC20284FD005DC90B3102811D1B2
:1018A0004AE0022070BD302846D040280AD13BE0F3
:1018B00060282FD070280DD0B0F5805F03D0B0F530
:1018C000005F12D0012584F83D60002084F83C00C0
:1018D000284670BDCB68D1E90121206801F0F6F9F6
:1018E0002068816841F0770109E0CB68D1E90121E6
:1018F000206801F0EBF92068816841F48041816043
:10190000E1E719E0CA684968206801F0B3FA50219C
:10191000206806E0CA684968206801F0BCFA6021C6
:10192000206801F0DDF9CEE7CA684968206801F057
:10193000A1FA40212068F4E7226801461046F0E74A
:101940002DE9F0410D46040003D094F83D0018B194
:1019500008E00120BDE8F081002084F83C0020462A
:1019600000F040F8022084F83D002068816844F2CD
:10197000070291438160211D206801F03BF9226834
:1019800090689169166A2B68AF69034340F203308F
:10199000814341EA0721A868EF6908434FF6FC41FB
:1019A0008843E96840EA0720014328692F6A00015B
:1019B00040EA0730084369686D6926F0AA0646EADE
:1019C0000515294393602268906154F8460B016223
:1019D000012004F81F09E0752076E0762077A075D5
:1019E0000020B7E770B586B0044614216846FEF7BC
:1019F0001FFC214A256800231F49103A02241F4872
:101A0000B5F1804F1ED01E4EB54219D10D6845F07C
:101A100002050D60096801F002010591116841F0AD
:101A200001011160116801F001010591C0210091CF
:101A3000CDE90143CDE90334694600BFFEF73AFF23
:101A400006B070BD0D6845F001050D60096801F034
:101A500001010591116841F001011160116801F067
:101A60000101059103210091CDE901430121CDE957
:101A700003316946E2E700004038024000000240BE
:101A80000004004070472DE9F04104460068C66834
:101A900005694FF00007A90713D5B10711D5F91E45
:101AA000016101202077206880698007204602D0EC
:101AB000FFF7E8FF04E000F0A9F8204600F04EF937
:101AC0002777680716D5700714D521686FF00400D2
:101AD0000861022020772068806910F4407F20464A
:101AE00002D0FFF7CFFF04E000F090F8204600F0AE
:101AF00035F92777280715D5300713D521686FF0FA
:101B000008000861042020772068C069800720460B
:101B100002D0FFF7B7FF04E000F078F8204600F0AD
:101B20001DF92777E80616D5F00614D521686FF061
:101B300010000861082020772068C06910F4407FF9
:101B4000204602D0FFF79EFF04E000F05FF8204639
:101B500000F004F92777E80708D0F00706D02168DD
:101B60006FF001000861204600F0FAF8280608D559
:101B7000300606D521686FF0800008612046FFF727
:101B800071FD680608D5700606D521686FF0400023
:101B90000861204600F08CF9A8060AD5B00608D5E1
:101BA00021686FF0200008612046BDE8F041FFF792
:101BB0005ABDBDE8F081000010B586B0044614217E
:101BC0006846FEF735FB0E492068884216D10D485D
:101BD0000021026842F010020260006800F010006C
:101BE00005904FF4206000900220CDE90101012012
:101BF000CDE9031069460448FEF75CFE06B010BD4F
:101C0000000001403038024000100240704770B5BB
:101C1000044690F83C0000260D4601280FD0012014
:101C200084F83C006AB1042A1DD0082A2FD00C2A5F
:101C30003FD00126002084F83C00304670BD0220D1
:101C400070BD206801F054F82068816941F00801F6
:101C500081612068816921F00401816120688169C6
:101C60002A69114311E0206801F072F82068816947
:101C700041F4006181612068816921F480618161A2
:101C8000206881692A6941EA02218161D2E72068DE
:101C900001F094F82068C16941F00801C161206831
:101CA000C16921F00401C1612068C1692A69114339
:101CB00011E0206801F0B6F82068C16941F40061C4
:101CC000C1612068C16921F48061C1612068C16976
:101CD0002A6941EA0221C161ACE710B5040003D0D2
:101CE00094F83D0010B107E0012010BD002084F8F9
:101CF0003C00204600F01EF8022084F83D00211D23
:101D0000206800F077FF012084F8460084F83E0048
:101D100084F83F0084F8400084F8410084F84200D1
:101D200084F8430084F8440084F8450084F83D00BA
:101D3000002010BD08B500680649884208D1064851
:101D4000016841F001010160006800F001000090AD
:101D500008BD000000000140443802407047000008
:101D600010B52DED088B02F031FD00287DD002F07A
:101D7000F1FD4C4C84ED000A02F0CEFD84ED010A29
:101D800002F0D4FD84ED020A02F0DAFD84ED030ACC
:101D9000D4ED01BAB0EE40BAD4ED029A2BEEAB0A04
:101DA000B7EE009AF0EE008AB0EE498A09EEA90A71
:101DB00000EE688A18EE100AFEF7C8FA94ED000AE1
:101DC00041EC1A0B20EE2B0A09EE8B0A20EE280AB2
:101DD00010EE100AFEF7BAFA41EC100BB0EE4A1AF8
:101DE000F0EE6A1A01F0C8FC9FED2FAB51EC100B1E
:101DF00053EC1A2BFEF727FAFEF7BBFA206194ED9D
:101E0000000AD4ED020A94ED011A20EE200AD4ED66
:101E1000030A00EEC10A20EE280A10EE100AFEF7AF
:101E200095FA41EC100B01F08BF953EC1A2B51ECA5
:101E3000100BFEF708FAFEF79CFA606194ED02BA07
:101E400094ED038A2BEE0B0A08EE080A00EE689A5E
:101E500019EE100AFEF77AFA94ED000A41EC190B1C
:101E6000D4ED010A20EE080A00E018E000EE8B0A2B
:101E700020EE280A10EE100AFEF768FA41EC100B6B
:101E8000B0EE491AF0EE691A01F076FC53EC1A2B09
:101E900051EC100BFEF7D7F9FEF76BFAA061BDEC21
:101EA000088B10BD000000206666666666A64C4082
:101EB000704770B5040004D094F84100002510B1BB
:101EC00006E0012070BD84F84050204600F024F860
:101ED000242084F841002068C16821F40051C160C9
:101EE000204601F011F82068016921F49041016158
:101EF0002068416921F02A0141612068C16841F4EC
:101F00000051C1606564202084F8410084F84200DB
:101F10006563002070BD000010B586B00446142132
:101F20006846FEF785F914492068884221D1134894
:101F30000021026842F010020260006800F0100008
:101F400005900E481438026842F0010202600068F1
:101F500000F0010005904FF4C06000900220CDE930
:101F60000101032003900720049069460448FEF70E
:101F7000A1FC06B010BD0000001001404438024032
:101F80000000024090F84230202B01D00220704720
:101F900021B11AB10023036301F03CB8012070475E
:101FA0002DE9F843044690F84100984616460D4640
:101FB000202802D00220BDE8F88385B17EB1002040
:101FC0006064212084F84100FEF772FDA6848146FA
:101FD000E684A0682027B0F5805F02D003E00120EE
:101FE000E9E7206910B12E4600250EE000260CE03E
:101FF0008021204601F029F8A8B9C6B116F8010BD6
:1020000021684860E08C401EE084E08C4B464FF035
:102010000002CDF800800028EAD14FF040012046B0
:1020200001F013F840B184F841700320C3E735F89C
:10203000020BC0F30800E3E784F841700020BAE720
:10204000FEE700F075BA01684A69D24352050FD421
:102050006FF480624A61002140F8301F20224273F1
:102060008173026942F0040202610173012070472A
:10207000002070472DE9F84F0446C06A1E4693467B
:102080000D4621680A6842F480620A60082807D079
:10209000012805D010F5803F02D0206B112804D113
:1020A0002068016841F4807101604FF001195B46BE
:1020B000002249462046009600F0CCF84FF4007804
:1020C00040B120680068C00501D5C4F840800320F5
:1020D000BDE8F88F2069DFF884A0B0F5804F0FD0FD
:1020E0000620216800EAD51747F0F0000861334662
:1020F0005A460AF10601204600F0F4F858BB03E006
:10210000E8B240F001001CE02168E8B20861334603
:102110005A465146204600F0E5F8E0B9206841698A
:1021200081690091016841F4807101605B46002281
:1021300049462046009600F08DF80028C1D147F0AE
:10214000F1002168086133465A465146204600F0A6
:10215000C9F80028BCD00120BAE700000200010045
:10216000F8B50446C06A1E460D461746082807D033
:10217000012805D010F5803F02D0206B122804D131
:102180002068016841F480710160134600224FF01D
:1021900001112046009600F05DF840B1206800680B
:1021A000C00502D54FF4007020640320F8BD2069FB
:1021B000B0F5804F0ED00620216800EAD51040F01F
:1021C000F000086133463A460B49204600F08AF891
:1021D00078B902E005F0FE0000E0E8B2216808618D
:1021E000054933463A46891F204600F07BF800280F
:1021F000DCD00120F8BD00000800010070B51646D3
:102200000D4604461EE02046FFF71DFF08B10120E1
:1022100070BD681C16D0FEF74BFC801BA84200D88E
:1022200085B920684069C04340070BD5002044F8B9
:10223000300F20216173A073216941F020012161D9
:102240002073E4E720684069C0434007DBD40020E6
:1022500070BD00002DE9F047984617460D4604462C
:10226000C1F30746DDF820902AE000BFB8F1FF3F38
:1022700026D0FEF71DFCA0EB0901414502D8B8F1BC
:10228000000F1DD12068012E16D0806925EA0000BC
:102290000004000C12D00020B84211D1002044F8F4
:1022A000300F20216173A073216941F02001216169
:1022B00020730120BDE8F0874069E7E70120EBE7E4
:1022C0002068012E0AD0806925EA00000004000C75
:1022D00006D00020B842C9D00020EBE74069F3E700
:1022E0000120F7E72DE9F047984616460D460446CB
:1022F0004FF000094FF0200AC1F3074723E02068A0
:102300004069C043400515D42068016841F400715C
:10231000016021686FF480604861C4F8309084F8EF
:102320003DA084F83E90216C41F00401216484F8C2
:102330003C9021E0701C06D0FEF7BAFBA0EB080031
:10234000B04203D816B1012F1FD021E02068012F21
:1023500015D0806925EA00000004000C18D000BFE9
:1023600044F8309F84F80DA084F80E90216941F064
:102370002001216184F80C900120BDE8F0874069BC
:1023800025EA00000004000CEAD12068406901E061
:102390002068806925EA00000004000CAFD1ECE75A
:1023A0002DE9F041002590460E460446202728E0FE
:1023B0004069C043C0060CD454F8301B6FF01000C5
:1023C000486144F810596777A577206A206225771D
:1023D00014E0FEF76DFBA0EB0800B04200D886B910
:1023E00020684069C04340060BD544F8305F6773EE
:1023F000A573206940F02000206125730120BDE80D
:10240000F08120684169C9434906D1D40020F6E72C
:1024100070B516460D4604461EE02046FFF713FE33
:1024200008B1012070BD681C16D0FEF741FB801B6F
:10243000A84200D885B920684069C04300060BD582
:10244000002044F8300F20216173A073216941F00E
:10245000200121612073E4E720684069C043000641
:10246000DBD4002070BD00002DE9F04186B01421BE
:102470006846FDF7DDFE2B480024016841F020018D
:102480000160016801F020010591016841F08001BF
:102490000160016801F080010591016841F00101CE
:1024A0000160016801F001010591016841F010012E
:1024B0000160016801F010010591016841F0080117
:1024C0000160016801F008010591016841F0020115
:1024D00001600068144F00F00200059000223C21CA
:1024E0003846FEF7DFFADFF844804FF440760022EA
:1024F00031464046FEF7D6FA3C2000900125CDE952
:102500000154694638460394FEF7D4F90096CDE9A4
:102510000154694640460394FEF7CCF906B0BDE885
:10252000F08100003038024000140240000C0240EC
:102530000D4810B50B4901600C49416000214FF472
:1025400080428160C0E9031241618161C161016221
:10255000FEF7B4FA002803D0BDE81040FEF795B9A5
:1025600010BD000000540040B8000020801A060092
:1025700010B592B000240F941C2168461094FDF70A
:1025800057FE202107A8FDF753FE24482249C0E941
:1025900000144FF6FF71C0E9024104614461846197
:1025A000FFF79BFB08B1FEF770F90F940FA91B48CA
:1025B0001094FFF783F808B1FEF767F96020CDE9C2
:1025C000000402940394049405940022694613487D
:1025D0000694FFF71CFB08B1FEF757F90422694681
:1025E0000E48FFF714FB08B1FEF74FF90794089463
:1025F00009944FF400500A94CDE90B4007A907480D
:102600000E94FFF731F808B1FEF73FF90348FFF7E2
:10261000D3FA12B010BD0000000001400C010020F0
:1026200010B58CB024216846FDF702FE0024154841
:1026300009944FF080410A94C0E900144FF6FF71ED
:10264000C0E90241046184610320CDE90004012056
:10265000CDE902040494CDE9054007946946094890
:102660000894FFF76DF908B1FEF70FF9099409A96D
:1026700004480A94FFF722F8002801D0FEF705F974
:102680000CB010BD5401002010B58CB02421684658
:10269000FDF7CEFD00241548099413490A94C0E9BA
:1026A00000144FF6FF71C0E902410461846101200A
:1026B000CDE90004CDE902040494CDE90540079476
:1026C00069460A480894FFF73BF908B1FEF7DDF8C0
:1026D000099409A905480A94FEF7F0FF002801D0E3
:1026E000FEF7D3F80CB010BD000400409C010020A0
:1026F00010B586B000241748009401940294039406
:10270000049413490594016042F2CF01C0E9011419
:102710006321C0E903148461FFF718F808B1FEF7DC
:10272000B4F84FF48050009069460A48FFF79AF8D1
:1027300008B1FEF7AAF8049404A906480594FEF728
:10274000BDFF002801D0FEF7A0F806B010BD0000C4
:1027500000080040E40100200C4810B50A4901605F
:102760004FF4E1314160002181600C22C160C0E979
:1027700004128161C161FFF79CFB002803D0BDE812
:102780001040FEF782B810BD001001402C0200205E
:10279000FEE7FEE770B500240021204600F019F99D
:1027A0000025002000F0AAF96D1CEDB2802DF8D3B1
:1027B000641CE4B2082CEFD370BD0000104810B5C3
:1027C000016886B041F00201016000680D4C00F024
:1027D0000200059011200190032003900002009058
:1027E00069462046FEF766F8012211022046FEF7F0
:1027F00059F9012251022046FEF754F906B010BDE6
:1028000030380240000C02402DE9F0471B4E0024F6
:1028100007464FF080084FF40079B51528FA04F206
:102820003A4049463046FEF73DF9012001F0E6FF07
:10283000012229463046FEF735F9012001F0DEFF7E
:10284000002229463046FEF72DF9012001F0D6FF7F
:10285000641CE4B2082CE1D3012229463046FEF77D
:1028600021F9012001F0CAFF002229463046FEF777
:1028700019F9BDE8F047012001F0C0BF000C02408B
:1028800070B50122114D540221462846FEF70AF97F
:10289000012001F0B3FF0122160231462846FEF75F
:1028A00001F9012001F0AAFF002221462846FEF787
:1028B000F9F8012001F0A2FF002231462846FEF778
:1028C000F1F8BDE87040012001F098BF000C024013
:1028D00070B50E4D4FF40074002221462846FEF7D5
:1028E000E1F8012001F08AFF012211022846FEF7DB
:1028F000D9F8012001F082FF012221462846FEF787
:10290000D1F8BDE87040012001F078BF000C024012
:1029100010B544F6206001F071FF00204FF47A7288
:102920000021491C9142FCD3401C9042F8D3FFF790
:1029300045FFAE2000F0D1F8D52000F0CEF8802081
:1029400000F0CBF8A82000F0C8F83F2000F0C5F850
:10295000D32000F0C2F8002000F0BFF8402000F0C3
:10296000BCF8A12000F0B9F8C82000F0B6F8DA20D1
:1029700000F0B3F8122000F0B0F8812000F0ADF8BC
:10298000CF2000F0AAF8D92000F0A7F8F12000F03D
:10299000A4F8DB2000F0A1F8302000F09EF8A4207D
:1029A00000F09BF8A62000F098F88D2000F095F834
:1029B000142000F092F8AF2000F08FF8BDE810402E
:1029C000FFF7E8BE0246012000E05043491EFCD25A
:1029D000704710B50C4640F0B00000F07EF81020B3
:1029E00040EA141000F079F804F00F00BDE8104040
:1029F00000F073B82DE9F0410746CE004000083ED4
:102A0000801E15464FF0FF38F1B2C0B2FFF7E1FF6C
:102A10001148002400EB05152819A0F5805090F806
:102A2000000E00F06BF8641CE4B2082CF4D308EB41
:102A30004700F1B2C0B2FFF7CCFF00242819A0F57F
:102A4000805090F8080E00F059F8641CE4B2082C8D
:102A5000F4D3BDE8F0810000864D00082DE9F04771
:102A60001E4614008846814604D42B22FFF7C2FF7D
:102A7000254603E02D22FFF7BDFF654200240A270B
:102A800014E0311B0A20491EFFF79CFFB5FBF0F054
:102A9000B0FBF7F107FB110208EB0400401CC1B2C8
:102AA00048463032FFF7A6FF641CE4B2B442E8D3D4
:102AB000BDE8F0872DE9F04115460E460746002493
:102AC00006E03019C1B23846FFF794FF641CE4B247
:102AD0002A5D002AF5D1BDE8F08110B50446FFF764
:102AE000CFFE7820FFF790FE0020FFF78DFE2046F6
:102AF000FFF78AFEBDE81040FFF7EABE10B50446B6
:102B0000FFF7BEFE7820FFF77FFE4020FFF77CFE38
:102B10002046FFF779FEBDE81040FFF7D9BE7047A9
:102B200008B54FF6FF7200920B4602469721024805
:102B3000FEF788F808BD0000B80000207047FEF7D7
:102B400043BA000030B593B030216846FDF770FB02
:102B500014210CA8FDF76CFB1D480025016841F00D
:102B600080510160006800F08050119019480168A0
:102B700041F4804101600068022400F4804011901B
:102B80000120039010200490009406940820CDE9C1
:102B90000750A820CDE9090404200B906846FEF7F1
:102BA00097FB08B172B6FEE70CA90F2081E831004F
:102BB0004FF4A0500F904FF48050109005210CA8B6
:102BC000FEF79CFA002801D072B6FEE713B030BDC4
:102BD00040380240007000400248016841F4700132
:102BE0000160704788ED00E00148FEF74CBF00002F
:102BF000E4010020F0B50268294C2A4D2A4E2B4FE3
:102C00002B4B4FF0804CA04209D0604507D0A84222
:102C100005D0B04203D0B84201D0984204D122F08E
:102C2000700E4A6842EA0E02A0421BD0604519D0DD
:102C3000A84217D0B04215D0B84213D0984211D054
:102C40001C4DA8420ED01C4DA8420BD01B4DA842D3
:102C500008D01B4DA84205D01A4DA84202D01A4DEB
:102C6000A84203D122F44075CA682A434D6922F074
:102C700080022A4302608A68C2620A688262A042B5
:102C800001D0984201D109690163012141610169C3
:102C9000C90703D0016921F001010161F0BD000005
:102CA000000001400004004000080040000C00400B
:102CB0000004014000400140004401400048014040
:102CC00000180040001C00400020004010B584683F
:102CD00042EA032224F47F440A432243826010BD67
:102CE000826822F070020A4342F007018160704757
:102CF000F0B5036A026A22F0010202624268846946
:102D0000124E24F073050C682C4323F002058B68E7
:102D10002B430D4DA84201D0B04205D123F0080746
:102D2000CB683B4323F00403A84201D0B04205D155
:102D30004D6922F4407215438A692A4342608461D6
:102D4000496841630362F0BD000001400004014096
:102D5000F0B5026A036A23F01003036243688469D2
:102D60000D6824F4E64444EA05248D6822F020022C
:102D700042EA05120F4D104EA84201D0B04206D1D2
:102D8000CF6822F0800242EA071222F04002A842F5
:102D900001D0B04207D14D6923F4406343EA850373
:102DA0008D6943EA850343608461496881630262F7
:102DB000F0BD00000000014000040140F0B5026ACF
:102DC000036A23F4807303624368C46922F40072C7
:102DD00024F073050C68124E2C438D6842EA0522DC
:102DE0000E4DA84201D0B04206D1CF6822F4006255
:102DF00042EA072222F48062A84201D0B04207D101
:102E00004D6923F4405343EA05138D6943EA0513E2
:102E10004360C4614968C1630262F0BD00000140C3
:102E20000004014030B5046A026A22F48052026252
:102E30004268C3690D6823F4E64343EA05238D68BD
:102E400024F4005444EA0534084DA84202D0084D49
:102E5000A84204D14D6922F4804242EA85124260C0
:102E6000C36149680164046230BD00000000014094
:102E70000004014010B5036A046A24F001040462EE
:102E8000846924F0F00444EA021423F00A020A439D
:102E90008461026210BD10B5036A046A24F0100454
:102EA0000462846923F0A00324F4704444EA0232EB
:102EB00043EA01118261016210BD01680C3151E8E1
:102EC000002F22F4907241E80023002BF5D1016815
:102ED000143151E8002F22F0010241E80023002BB9
:102EE000F5D1016B012909D101680C3151E8002F9E
:102EF00022F0100241E80023002BF5D1202180F8B8
:102F0000421000210163704770B5044600680169F2
:102F1000E26821F44051114301612169A068E2692E
:102F200008436169114308432168CA6849F20C6388
:102F30009A430243CA6020684169A26921F4407142
:102F40001143416131492068884202D030498842AA
:102F500002D1FEF77DF901E0FEF76AF9E26900238C
:102F6000192164253226B2F5004F626828D0A0FBF3
:102F70000101930F9200FDF723F90146B0FBF5F034
:102F80006FF01802504301EB800006EB0010B0FB1D
:102F9000F5F000F0F002B1FBF5F002EB0012B1FB2E
:102FA000F5F06FF01803584301EB800006EB0010BA
:102FB000B0FBF5F000F00F0021681044886070BD90
:102FC000A0FB010192185B41FDF7FAF80146B0FB46
:102FD000F5F00201B1FBF5F06FF01803584301EB77
:102FE000800006EBC000B0FBF5F000F0F80002EB4B
:102FF0004002B1FBF5F0584301EB800006EBC00046
:10300000B0FBF5F000F00700D6E70000001001402B
:103010000014014081628285C28500214164222121
:1030200080F84210016921B10168CA6842F48072D7
:10303000CA6001684A6942F001024A610068C168D9
:1030400041F02001C160002070472DE9F843984607
:1030500017460D460446089E24E0701C22D0FDF75A
:1030600027FDA0EB0800B0421AD8CEB12068C16895
:10307000490717D5802D15D0402D13D00168C943BD
:1030800009070FD401680025406800902046FFF72B
:1030900014FF0820606484F840500120BDE8F883E4
:1030A0000320FBE72068006835EA000004D0002018
:1030B000B842D2D00020F1E70120F9E7FEE7000096
:1030C00008B54FF6FF7200920B4602469621024861
:1030D000FDF7B0FE08BD0000B8000020014A02491B
:1030E00001F058BBB5480008B000002003B40198B7
:1030F0004100009850EAC12018BF04204A0D18BFB3
:1031000040F0010040F2FF72B2EB515F08BF40F0A7
:103110000200012808BF052002B070470907090E08
:10312000002804DB00F1E02080F80014704700F074
:103130000F0000F1E02080F8141D7047000000002F
:1031400070B5C1482DED020B2DED0E8B82B0119D97
:1031500025F000449FEDBEDB9FEDBFEB84423EDBDC
:10316000A4F140511098A1F17F6108430FD0BC48F1
:10317000844202DC28D1109830B39DED100B02B0D0
:10318000BDEC0E8B02B0BDE8704001F0A9BA9DED18
:10319000100B53EC1D2B51EC100BFDF754F89DED6B
:1031A000100B41EC180B53EC1E2B51EC100BFDF7E0
:1031B0004AF853EC182BFDF7ABF941EC100B02B0B9
:1031C000BDEC0E8B02B070BD012001F0DDFA02B043
:1031D000BDEC0E8B02B0BDE8704001F095BAA1487D
:1031E0009FEDA18B844256DA9DED100BB4F1795F0F
:1031F0000ADA51EC100BFFF779FF042808BF01F041
:10320000A3FA9DED100BDAE753EC102B51EC100BE9
:10321000FDF719F841EC190B95480621B0EE490A63
:10322000F0EE690A784401F0C7F953EC192B51EC20
:10323000100BFDF708F841EC1A0B8E48B0EE490A66
:10324000F0EE690A0421784401F0B6F953EC192B29
:1032500051EC100BFCF7F7FF53EC182BFDF758F966
:1032600041EC100B51EC1A0B53EC102BFDF7F7F956
:10327000CDE900019DED000B53EC102B9DED100BE3
:1032800051EC100BFCF7DFFF9DED101B53EC112BE5
:10329000FDF73EF9D2E09DED100B51EC100B01F063
:1032A000FDFA53EC182BFDF7D7F99FED730BCDE921
:1032B000000153EC102B9DED000B51EC100BFCF7B3
:1032C000C2FF41EC190B6E480621B0EE490AF0EE40
:1032D000690A784401F070F953EC192B51EC100B8A
:1032E000FCF7B1FF41EC1B0B6648B0EE490AF0EE6B
:1032F000690A0421784401F05FF953EC192B51EC71
:10330000100BFCF7A0FF53EC182BFDF701F941EC73
:103310001C0B51EC190B01F0F3FC41EC180B5A4853
:103320009FED5BABA04222DC53EC1C2B51EC1B0B42
:10333000FDF795F9CDE900019DED000B51EC180B5F
:1033400053EC102BFCF77FFF53EC182BFDF7E0F844
:1033500053EC1A2BFCF777FF53EC1D2BFDF779F993
:1033600053EC1E2BFDF778F941EC100B5FE08DED6F
:10337000008B002000909DED000B51EC180B53ECDE
:10338000102BFDF7C5F89DED000B41EC1E0B53EC27
:10339000102B51EC100BFCF756FF53EC192BFDF7DB
:1033A0005BF953EC1E2BFDF75AF941EC190B53EC6A
:1033B0001C2B51EC1B0BFDF752F941EC1B0B53EC92
:1033C0001A2B51EC190BFCF73EFF53EC1D2BFDF7AC
:1033D00043F941EC190B53EC1A2B51EC180BFCF789
:1033E00032FF53EC1B2BFCF72EFF53EC192BFDF790
:1033F00030F99DED000B41EC180B53EC1A2B51ECFE
:10340000100BFCF720FF9FED249B53EC192BFDF7CD
:1034100023F941EC100B51EC180B53EC102BFDF77A
:1034200018F953EC192BFDF717F941EC100B002D8F
:103430003FF7C5AE51EC100B81F0004141EC100B91
:10344000BDE60000000000000000F03F00000000AA
:10345000075C143326A6913C182D4454FB21F93FF8
:103460000000F07F0000E03F000000000000F03F9F
:10347000502100005E210000000000000000E03F3D
:10348000A2200000B02000003333EF3F0000000016
:103490000000000000000040182D4454FB21E93FCB
:1034A00070B59B482DED020B2DED068B079D25F089
:1034B0000044A04218DC9748844202DC0AD10698F6
:1034C00040B19DED060BBDEC068B02B0BDE870402F
:1034D00001F006B9002DCCBF9FED8F0B9FED900B37
:1034E000BDEC068B02B070BD8F48A04215DD8F4841
:1034F000A042D8BF4FF0FF3458DD9DED060B51ECD4
:10350000100BFFF7F3FD042808BF01F01DF99DED36
:10351000060BBDEC068B02B070BD9DED060B51ECA9
:10352000100B01F0BBF9CDE9060181489FED828BBC
:10353000A0423CDD8248A0421FDD00249FED82AB0B
:103540009DED060B53EC1A2B51EC100BFCF7E0FF32
:103550009DED060B41EC190B53EC1A2B51EC100BA3
:10356000FCF771FE53EC182BFDF773F853EC192B95
:10357000FDF775F8CDE9060149E09DED060B012444
:1035800053EC182B51EC100BFCF7C2FF9DED060B12
:1035900041EC190B53EC182B51EC100BFDF759F8BB
:1035A00053EC192BFDF75BF8CDE906012FE06848D5
:1035B000A0421FDD02249FED689B9DED060B53EC9E
:1035C000192B51EC100BFCF73EFE53EC182BFCF7BB
:1035D0009FFF9DED060B41EC180B53EC192B51ECA2
:1035E000100BFDF736F853EC182BFDF738F8CDE942
:1035F00006010CE09DED060B032453EC102B9FED10
:10360000580B51EC100BFDF72AF8CDE906019DEDA2
:10361000060B53EC102B51EC100BFCF714FE41EC95
:10362000180B53EC182BFCF70EFE41EC190B4E480F
:103630000621B0EE490AF0EE690A784400F0BCFFBA
:1036400053EC182B51EC100BFCF7FDFD41EC180B63
:103650004648B0EE490AF0EE690A0521784400F0C8
:10366000ABFF53EC192B51EC100BFCF7ECFD41ECCC
:10367000100B51EC180B53EC102B002C0EDAFCF74E
:1036800047FF9DED061B53EC112BFCF7DCFD9DED78
:10369000061B53EC112BFCF7DFFF35E0FCF738FF7E
:1036A0009DED061B53EC112BFCF7CDFD41EC100BEF
:1036B0002F48784400EBC40090ED001B51EC100B38
:1036C00053EC112BFCF7C5FF9DED061B53EC112BA2
:1036D000FCF7BFFF41EC100B2648784400EBC40018
:1036E00090ED001B51EC100B53EC112BFCF7B4FFC9
:1036F00041EC100B002DA2BFBDEC068B02B070BDDB
:1037000051EC100B81F0004141EC100B01E700007F
:10371000000010440000F07F182D4454FB21F93FB5
:10372000182D4454FB21F9BF0000DC3F0000203E6F
:103730000000F33F00000000000000000000F03F28
:103740000000E63F00000000000000000000004014
:103750000080034000000000000000000000F83F6F
:10376000000000000000F0BF7A1E0000301E0000C4
:10377000BA1D0000721D000070B56B4E2DED040BDC
:103780002DED028B82B0DDF81CC0DDE905235C4223
:103790002CF000411C4341EAD474049D22F0004007
:1037A000B44205D86C422C4340EAD474B4420BD9DD
:1037B0009DED061B9DED040B02B0BDEC028B04B029
:1037C000BDE8704000F096BFACF14054A4F17F64B6
:1037D0001C430BD0022404EAAC7444EAD2740543BF
:1037E0009FED538B9FED542B07D015E09DED040BFF
:1037F00051EC100B00F0DFFF42E0002C11BF012C58
:103800009DED040B02B0BDEC028B04BF04B070BD93
:10381000022C38D0032C3BD00B439FED491B9FED6E
:103820004A0B0AD0B14218D1B04209D121F08041EF
:1038300020F08040079105900FE0002A15DA10E093
:10384000434B7B44002C08BF93ED000B0DD0012CA3
:1038500010D0022C17D0032C1AD0B0421DD1002A50
:1038600003DAB0EE410AF0EE610A02B0BDEC028B61
:1038700004B070BD93ED000B51EC100B81F00041D2
:1038800041EC100BF1E7B0EE480AF0EE680AECE705
:10389000B0EE420AF0EE620AE7E7401A00153C2853
:1038A000C8BF8DED000B19DCBCF1000FBEBF10F1DD
:1038B0003C0F9FED290B8DED000B0FDB9DED060BF3
:1038C00053EC102B9DED040B51EC100BFCF7C7FED5
:1038D00000F0E4FF00F06FFFCDE90001002C08BF0D
:1038E0009DED000BC1D0012C10D0022C9FED1C0BC4
:1038F00053EC102B9DED000B51EC100B0DD0FCF791
:10390000A8FE53EC182BFCF7A4FEB9E7019880F051
:10391000004001909DED000BA7E7FCF79AFE53ECE9
:10392000182BFCF799FEABE70000F07F00000000C9
:10393000182D4454FB210940182D4454FB2109C083
:10394000182D4454FB21F9BF182D4454FB21F93F95
:10395000A21C0000000000000000000000000000A9
:10396000075C143326A6A13C2DE9F04D2DED040B88
:103970002DED0E8B96B0DDE92550279CDDF890A04B
:1039800025F0004624F00048BAF1000F14BF0121D1
:10399000002101EB4502FC4953184A1093422AD3F7
:1039A000002814BF0123002303EB44030B44F74911
:1039B0008B4220D358EA00019FEDF59B76D0DFF8CB
:1039C000D8B35D4503D1BAF1000F05D188E0BAF153
:1039D000000F08BF002100D0012101EB450111F5C6
:1039E000001F08D8002814BF0121002101EB440169
:1039F00011F5001F0BD99DED261B9DED240B16B074
:103A0000BDEC0E8B04B0BDE8F04D00F073BE002796
:103A1000002DBCBFE149884521DAE1498845A8BFAE
:103A200002271CDAC3451ADCDE4901EB28511429B0
:103A300008DDC1F1340220FA02F101FA02F28242F9
:103A40000DD108E058B9C1F1140228FA02F101FAC7
:103A500002F2424503D101F00101C1F1020756EA29
:103A60000A0124D1002C22DA002D18BF022F01D028
:103A7000012F0AD0022000F087FE16B0BDEC0E8B9D
:103A800004B0BDE8F04D00F013BE022000F07CFE53
:103A900000F00EFE51EC100B81F0004141EC100BD8
:103AA00016B0BDEC0E8B04B0BDE8F08D18E09FEDB4
:103AB000BEAB9FEDBF8B002871D1B848804522D1A5
:103AC00005F1804010F5801008BFBAF1000F07D053
:103AD000B3450ADC002CA8BF9DED260BE0DA0DE013
:103AE000B0EE490AF0EE690ADAE7002C06DA9DED3D
:103AF000260B51EC100B81F000416FE0AE4878448A
:103B000090ED000BCCE7D8454DD1002C48DA2EB112
:103B100086423AD1BAF1000F42D126E0BAF1000F45
:103B200013D0022000F030FE00F0FEFD8DED020B00
:103B30009DED240B8DED000B10EE900A039961F3BF
:103B40001E0003909DED020BAAE78DED02AB9DEDEB
:103B5000240B1AEE901A10EE900A8DED000B61F313
:103B60001E0003909DED020B9AE78DED028B9DEDFB
:103B7000240B18EE901A10EE900A8DED000B61F3F5
:103B80001E0003909DED020B8AE709DA9DED240BE0
:103B900051EC190B53EC102BFCF761FD1EE020E0FB
:103BA0009DED240B7CE786421BDAB4F1804F0DD0EB
:103BB000A4F10050B0F1FF5013D1002D11DB9DEDA9
:103BC000240B51EC100B01F09BF807E09DED240B4A
:103BD00053EC102B51EC100B00F0C2BC41EC100B5D
:103BE0005EE79DED240B51EC100B00F057FEBAF18F
:103BF000000FCDE90E0142D19FED710B46B3A6F146
:103C0000E040B0F17F600CD05E4538D1002D00DA85
:103C1000A7B3022F0CBF01204FF0FF30FCF785FB4C
:103C2000DCE7002D01DD002C0DDA002D01DD002C7C
:103C30001FDB002D16DA002C14DB012F08BF9FEDCF
:103C4000620B3FF42DAFB0EE4A0AF0EE6A0A27E7A6
:103C5000022F18BF002D0CD0012F0AD1002DFFF626
:103C60001FAF06E0002DB8BF002C08DA012F3FF48B
:103C700017AFB0EE480AF0EE680A11E71BE001202A
:103C800000EBE57050EA070115D0791EB0EE498AC5
:103C9000F0EE698A084308BF9FED4D8B4E48002522
:103CA000804570DD4D494E48884514DDB0420DDB3E
:103CB000002C19DB2FE0012000F066FD16B0BDECF2
:103CC0000E8B04B0BDE8F04D00F01EBDB34502DC24
:103CD000002C09DC1FE0864202DA002C1BDA03E02C
:103CE0005E452BDD002C16DD022000F04DFD00F0BE
:103CF0001BFD8DED020B53EC1A2B51EC180BFCF74E
:103D0000A2FACDE900010399019861F31E00039026
:103D10009DED020BC4E6022000F036FD00F014FD1C
:103D200010EE901A18EE900A8DED020B8DED008BBF
:103D300061F31E0003909DED020BB1E69DED0E0BAD
:103D400053EC192B51EC100BFCF783FC9FED260B69
:103D5000CDE9080153EC102B9DED080B51EC100B35
:103D6000FCF771FA9FED221B53EC112BFCF774FC4E
:103D70009DED081B53EC112BFCF765FA9FED1E1B04
:103D800053EC112B3CE08CE0FFFF1F00FFFF0F0006
:103D9000000000000000F03F0000F03F0000F07F56
:103DA0000000404301FCFFFF000000000000F07F26
:103DB0000000000000000000E61900000000000004
:103DC0000000000000000080000000000000F0FF84
:103DD000000000000000F0BF0000E0410000F043E0
:103DE000FFFFEF3F00000000000000000000D03F98
:103DF000555555555555D53F000000000000E03F92
:103E0000FCF72AFC9DED080B41EC1A0B53EC102B30
:103E100051EC100BFCF717FA53EC1A2BFCF713FAC2
:103E200041EC1A0B9FEDFE0B53EC102B9DED080B94
:103E300051EC100BFCF707FA41EC1B0B9FEDFA0B52
:103E400051EC1A0B53EC102BFCF7FDF941EC1A0B5B
:103E50009FEDF70B53EC102B9DED080B51EC100B65
:103E6000FCF7F1F953EC1A2BFCF7F3FB41EC1A0BBE
:103E700051EC1B0B53EC1A2BFCF74AFB0690CDE9D7
:103E800006519DED060B53EC1B2B51EC100BFCF770
:103E9000E0FB53EC1A2BFCF7DFFB41EC100B00F0BE
:103EA000A1B90020B6F5801F0EDA9FEDE30B53ECAD
:103EB000102B9DED0E0B51EC100BFCF7C4F9CDE966
:103EC0000E016FF034000E4600EB2650A0F2FF37D3
:103ED000C6F31300DA4940F07F6646F04056884248
:103EE000D8BF002408DDD7498142C8BF012403DCC4
:103EF0000024A6F580167F1CD348784400EBC4004C
:103F00000F9690ED00CB9DED0E0B53EC1C2B51EC5E
:103F1000100BFCF79EFB9DED0E0B41EC1B0B53ECC5
:103F20001C2B51EC100BFCF7F3FA41EC100B51EC8D
:103F3000190B53EC102BFCF792FB41EC1D0B51ECD1
:103F40001B0B53EC1D2BFCF77EF941EC1A0BBF4801
:103F50008DED10AB7844109590ED000B4FF00050B4
:103F600040EA660000EB84408DED080B00F5002070
:103F700009909DED080B53EC1C2B51EC100BFCF73A
:103F800068FB9DED0E1B53EC112BFCF765FB41EC20
:103F9000100B53EC102B9DED100B51EC100BFCF79C
:103FA00052F99DED080B41EC1C0B53EC102B9DEDD1
:103FB000100B51EC100BFCF746F953EC1B2BFCF7E4
:103FC0004BFB53EC1C2BFCF744FB53EC1D2BFCF779
:103FD0003AF941EC1C0B53EC1A2B51EC1A0BFCF781
:103FE00032F941EC1B0B9A480621B0EE4B0AF0EE79
:103FF0006B0A784400F0E0FAB0EE401AF0EE601A76
:10400000B0EE41DAF0EE61DA53EC1B2B51EC1B0BF6
:10401000FCF719F953EC1D2BFCF715F99DED100B6E
:1040200041EC1B0B53EC1A2B51EC100BFCF770FA04
:1040300053EC1C2BFCF707F953EC1B2BFCF768FA2D
:104040009DED100B41EC1B0B53EC102B51EC100BA6
:10405000FCF7F9F841EC1D0B9FED7FEB53EC1E2BA9
:10406000FCF756FA53EC1B2BFCF752FA0890CDE9FB
:1040700008519DED080B53EC1E2B51EC100BFCF777
:10408000E8FA53EC1D2BFCF7E4FA53EC1B2BFCF77E
:10409000E3FA9DED080B41EC1D0B53EC102B9DED4D
:1040A000100B51EC100BFCF7CEF841EC1B0B53EC52
:1040B0001A2B51EC1D0BFCF7C6F89DED080B41ECDB
:1040C0001A0B53EC102B51EC1C0BFCF7BCF853EC07
:1040D0001A2BFCF71DFA41EC1A0B51EC1B0B53EC9D
:1040E0001A2BFCF715FA0C90CDE90C519DED0C0B39
:1040F00053EC1B2B51EC100BFCF7ABFA53EC1A2BC7
:10410000FCF7AAFA41EC1B0B9FED550B53EC102B5F
:104110009DED0C0B51EC100BFCF795F841EC1A0BD4
:104120009FED510B51EC1B0B53EC102BFCF78BF854
:1041300041EC1B0B9FED4E0B53EC102B9DED0C0B2C
:1041400051EC100BFCF77FF853EC1B2BFCF7E0F95C
:1041500041EC100B4848784400EBC40090ED001B84
:1041600051EC100B53EC112BFCF7D2F941EC1B0B6B
:104170003846FCF7DAF8CDE9080153EC1B2B51EC7B
:104180001A0BFCF7C5F941EC100B3C48784400EBE6
:10419000C40090ED00CB51EC100B53EC1C2BFCF742
:1041A000B7F99DED081B53EC112BFCF7B1F9069004
:1041B000CDE906519DED080B53EC102B9DED060B40
:1041C00051EC100BFCF745FA53EC1C2BFCF741FAB1
:1041D00053EC1A2BFCF73DFA53EC1B2BFCF73CFA83
:1041E00041EC100B9DED261B53EC102B8DED001BAD
:1041F00000959DED260B51EC100BFCF724F89DED7E
:10420000000B41EC1A0B53EC102B9DED260B51ECDF
:10421000100BFCF71EFA9DED061B53EC112B2FE043
:10422000000000604715F73FFE822B654715F73FFA
:1042300044DF5DF80BAE543E000000000000404338
:104240008E9803007AB60B00CA1400009015000087
:104250000214000000000000000000000000084000
:10426000000000E009C7EE3FFD033ADC09C7EE3F5E
:10427000F5015B14E02F3EBE8E12000048120000D4
:10428000FBF7E1FF53EC1A2BFCF742F99DED060B0F
:1042900041EC1A0B53EC102B9DED000B51EC100B65
:1042A000FBF7D1FFCDE90C019DED0C0B51EC1A0B86
:1042B00053EC102BFCF72CF9CDE902010C46AA496E
:1042C0008C422FDB611A084318D19DED0C0B53EC87
:1042D000102B9DED020B51EC100BFCF7BAF941ECE1
:1042E0001B0B9FEDA30B51EC1A0B53EC102BFCF79F
:1042F0000FF953EC1B2BFCF739FA2DD2022000F0FA
:1043000043FA00F011FA10EE901A18EE900A8DEDB3
:10431000020B8DED008B61F31E0003909DED020BEF
:10432000FFF7BEBB944A24F00041914214D3934955
:10433000214408437FF4EFAC9DED0C0B53EC102BA4
:104340009DED020B51EC100BFCF783F953EC1A2B8B
:10435000FCF70CFA7FF6DFAC24F000408849894A6C
:10436000002601EB205182422BDA481C4FF48011C9
:1043700021FA00F02044844AC0F30A517A44A1F2A1
:10438000FF3192ED000B814A8DED080BCA4020EA07
:104390000202C0F3130040F48010C1F1140120FAAE
:1043A00001F60992002CB8BF76429DED080B53EC44
:1043B000102B9DED0C0B51EC100BFCF74AF9CDE9DD
:1043C0000C019DED0C0B51EC1A0B53EC102BFCF770
:1043D0009FF89FED6F0B0890CDE9085153EC102B1F
:1043E0009DED080B51EC100BFBF72DFF41EC1B0B67
:1043F0009FED690B53EC102B9DED080B51EC100B4E
:10440000FBF721FF9DED0C0B41EC1C0B53EC102B2B
:104410009DED080B51EC100BFCF71BF953EC1A2B1C
:10442000FCF71AF99FED5E1B53EC112BFBF70BFF0A
:1044300053EC1C2BFCF76CF841EC1A0B51EC1B0BEA
:1044400053EC1A2BFCF764F8CDE902019DED020B49
:1044500053EC1B2B51EC100BFCF7FBF853EC1A2B15
:10446000FCF7FAF89DED020B41EC1A0B53EC102B04
:1044700051EC100BFBF7E7FECDE908014A489DED32
:10448000080B0521784400F097F89DED081B51ECCE
:10449000100B53EC112BFBF7D6FE9DED021B53ECDA
:1044A000112BFCF7D9F8CDE906019DED020B53EC79
:1044B0001A2B51EC100BFBF7C6FE53EC1A2BFCF732
:1044C00027F89FED3B0B41EC1A0B53EC102B9DEDA5
:1044D000060B51EC100BFCF7BCF89DED060B41EC04
:1044E0001B0B53EC102B9DED020B51EC100BFBF74B
:1044F000AAFE53EC1B2BFCF7B2F853EC1A2BFCF77B
:10450000A8F89DED021B53EC112BFCF7A2F853EC1D
:10451000192BFCF7A1F8CDE9020101EB06500115BA
:104520000029C8BF039015DC9DED020B324651EC0B
:10453000100BFCF703F9FEF7D9FD042808BF00F0C3
:1045400003F932469DED020B51EC100BFCF7F6F827
:10455000CDE902019DED020B51EC180B53EC102B31
:10456000FBF771FEFFF73ABB00009040000000002F
:10457000FE822B654715973C00CC904000346F3F7E
:1045800001FCFFFF0000E03F68110000FFFF0F008B
:1045900000000000432EE63F396CA80C615C20BE91
:1045A000EF39FAFE422EE63FA00F000000000000A7
:1045B000000000000000004070B504462DED028BA5
:1045C0004D1E00EBC500B0EE408AF0EE608A90ED23
:1045D000000B35F0060017D053EC182B51EC100BE4
:1045E000FBF731FE41EC100B6D1E04EBC50090EDA6
:1045F000001B51EC100B53EC112BFBF789FF41EC26
:10460000100B35F00600E7D1022D36D0042D1CD05A
:10461000062D1CBFBDEC028B70BD53EC182B51EC6A
:10462000100BFBF710FE94ED0A1B53EC112BFBF75C
:104630006FFF53EC182BFBF706FE94ED081B53ECB1
:10464000112BFBF765FF41EC100B53EC182B51ECD1
:10465000100BFBF7F8FD94ED061B53EC112BFBF749
:1046600057FF53EC182BFBF7EEFD94ED040B53ECC6
:10467000102BFBF74DFF41EC100B53EC182B51ECBA
:10468000100BFBF7E0FD94ED021B53EC112BFBF735
:104690003FFF53EC182BFBF7D6FD94ED001B53ECBA
:1046A000112BFBF735FFBDEC028B41EC100B70BDFD
:1046B0009FED070B10B553EC102B9FED070B51EC42
:1046C000100BFBF7CCFF41EC100B10BD00000000FD
:1046D0000000000000000000000000000000F03FAB
:1046E00010B553EC102B51EC100BFBF711FF41EC04
:1046F000100B10BD10B553EC112B51EC100BFBF748
:1047000007FF41EC100B10BD9FED050B10B553ECEE
:10471000102B51EC100BFBF7A2FF41EC100B10BD5E
:1047200000000000000000009FED050B10B553ECE9
:10473000102B51EC100BFBF786FD41EC100B10BD5C
:1047400000000000000000709FED050B10B553EC59
:10475000102B51EC100BFBF776FD41EC100B10BD4C
:10476000000000000000001002E008C8121F08C18D
:10477000002AFAD170477047002001E001C1121FE2
:10478000002AFBD170470000014908607047000013
:10479000B40000202DE9F04116460F4604460025DE
:1047A00003E03946B047641C6D1C20780028F8D11E
:1047B0002846BDE8F08110B541EC100BFEF770FE05
:1047C00051EC100B10BD042000F006BA10B500F03B
:1047D000E5F9012807D107488078032803D1064866
:1047E0000078FB2801D0002010BD00F04DF9012019
:1047F00010BD0000440000209402002071B54FF469
:1048000061754FF0E023104E00981AE02C46A0424C
:1048100000D804469869A4EBC40101EB410110EBF8
:10482000C10105D49A69824208DA8A42FADA05E0BF
:104830008A1999698142FCDD9142FADC0098001BDB
:1048400000900028E2D178BD40900200002201468D
:10485000012000F015BA00220146082000F010BA2D
:1048600000220146022000F00BBA0022014604207B
:1048700000F006BA00220146032000F001BA00222F
:104880000146052000F0FCB900220146132000F08B
:10489000F7B900220146112000F0F2B982B0CDE94B
:1048A000000121F0004001909DED000B02B051ECA1
:1048B000100B704713B54FF0FF33012269460248D1
:1048C000FDF76EFB00981CBD2C0200202DE9F04185
:1048D000104F0546002607F1200816E02C461C2D37
:1048E00000D91C24201DC1B20A48FEF719F9002086
:1048F000414607E03A18802E127901D28A55761C7B
:10490000401CC0B2A042F5D32D1B002DE6D10120E2
:10491000BDE8F0817402002003480179B0F85C0022
:1049200000B200F013B900002C0000200348017908
:10493000B0F8600000B200F009B900002C000020BF
:1049400003480179B0F8640000B200F0FFB800003D
:104950002C00002003480179B0F8680000B200F094
:10496000F5B800002C00002008B5FCF735FBFEF779
:10497000E9F8FDF779FDFDF7DBFDFDF7F9FDFDF742
:104980004FFEFDF781FEFDF7B3FEFDF7E5FEFDF7F7
:10499000BFFFFDF7FFFE012130A20846FEF78AF8AF
:1049A00040F6B8342046FBF773FFFDF7F3FEFDF742
:1049B00048FB012269462B48FDF7E4FA2AA0FEF7DE
:1049C0008DFB00F083F93220FFF759FF6420FFF7D9
:1049D00042FF6420FFF73AFF6420FFF746FFC8203C
:1049E000FFF73EFF3220FFF745FF0A20FFF751FF98
:1049F0003220FFF749FFFFF7E6FE01211EA208461D
:104A0000FEF758F82046FBF743FFFDF7C3FE1C48AE
:104A1000FCF7E8FE1B4C0121032394ED040A084631
:104A2000BDEEC00A10EE102AFEF718F894ED050A44
:104A300003230121BDEEC00A022010EE102AFEF76A
:104A40000DF894ED060A03230121BDEEC00A1846B5
:104A500010EE102AFEF702F8DDE700006F6C6564C7
:104A60005F4F4B002C020020496E6974204F4B2190
:104A700021210D0A00000000496E69745F4F4B0050
:104A8000E401002000000020F0B52E482E4B4FF02E
:104A9000000E0088D97920F40040B3F80960B3F81B
:104AA0000B50B3F80D40093801F00307F446724685
:104AB000092801DDB3F80FE00B2801DDB3F811C0C0
:104AC00020485979183801291AD004291DD0022903
:104AD00020D0032923D0052926D0082924D0112944
:104AE0002AD013292AD01E2909D1997A8170806F82
:104AF0009918C97A8154521CD2B2092AF8D3F0BD50
:104B00008762C661C0E90854F0BD8763C662C0E928
:104B10000C54F0BD8764C663C0E91054F0BD8765CE
:104B2000C664C0E91454F0BDC0F868E0C665C0E9C9
:104B30001854C0E91BC7F0BD4467F0BD597A4170F5
:104B4000F0BD0000440000209402002010B500EEEB
:104B5000100A2DED048B4842B8EEC08AFBF7E5FB46
:104B600041EC110B9FED0B0BFEF7FEFEB0EE409AF1
:104B7000F0EE609A18EE100AFBF7E8FB53EC192BE5
:104B8000FBF761FBFBF7F5FBBDEC048B00EE100AB5
:104B900010BD0000000000000000004010B504211E
:104BA0000B48FDF7BDFF0A48027843788478C17846
:104BB0000848027043708470C17042EA032030F4E8
:104BC000004003D0001FFFF781FE012010BD000050
:104BD000740200204400002003220F4900238B545C
:104BE000521CD2B20C2AFAD3012240B1012808D0BB
:104BF000022808D0032808D004280AD006E0CA708A
:104C000004E00A7102E04A7100E0CA71072000F076
:104C100005B8CA700A71F6E794020020064A074BED
:104C2000F221117019785170491C197090700C2183
:104C3000022000F005B80000940200202C000020A3
:104C400070B50D4B0C1D00221C700C4E5A709870E4
:104C5000355CDD706D1C355403F1200004E0855C8B
:104C60009E18521C3571D2B28A42F8D3E1B2024882
:104C7000FEF726FA012070BD74020020A800002073
:104C80004FF47A73594330B40F4BFD241C705870A5
:104C900000209870D870187159710C0A9C710C0C16
:104CA000DC71090E197258729872D87218735A739F
:104CB000100A9873100CD873100E1874112130BCA0
:104CC0000220FFF7BDBF0000940200200B4910B581
:104CD000012008700146FFF7B3FF3220FBF7D8FD33
:104CE000FFF75CFF0128FBD03220FBF7D1FD00BFAE
:104CF000FFF754FF0128FBD010BD000094020020F4
:104D000000B52DED048B83B041EC190BFBF76AFD68
:104D100041EC180B18EE100A18EE901A8DED008B6E
:104D2000002818BF0120084320F00040C0F17F6038
:104D300000F1E040C00F14D019EE101A19EE900ADD
:104D40008DED009B002918BF0121084320F0004091
:104D5000C0F17F6000F1E040C00F04BF0120FFF709
:104D600013FD51EC180B03B0BDEC048B00BD00002B
:104D7000000000000000010203040607080900000B
:104D80000000010203040000000000000000000019
:104D9000000000000000000000F80000000000001B
:104DA00000333000000000100C06100C060000005C
:104DB00000000000000040C07840C0784000043F80
:104DC00004043F040400007088FC08300000001850
:104DD00020FF211E0000F008F000E0180000002174
:104DE0001C031E211E0000F00888700000001E2118
:104DF00023241927211010160E00000000000000C7
:104E0000000000000000000000E0180402000000A4
:104E100000071820400000020418E00000000040D5
:104E2000201807000000404080F08040400002024F
:104E3000010F01020200000000F00000000001016B
:104E4000011F01010100000000000000000080B00F
:104E500070000000000000000000000000000001E1
:104E6000010101010101000000000000000000300C
:104E700030000000000000000000806018040060A6
:104E800018060100000000E010080810E000000F04
:104E9000102020100F00001010F80000000000206B
:104EA000203F2020000000700808088870000030B3
:104EB000282422213000003008888848300000185B
:104EC000202020110E000000C02010F80000000774
:104ED0000424243F240000F80888880808000019EA
:104EE000212020110E0000E0108888180000000F1B
:104EF000112020110E0000380808C83808000000F2
:104F0000003F000000000070880808887000001C46
:104F1000222121221C0000E010080810E0000000FF
:104F2000312222110F00000000C0C000000000006C
:104F30000030300000000000008000000000000091
:104F40008060000000000000804020100800000188
:104F5000020408102000404040404040400004044B
:104F60000404040404000008102040800000002015
:104F7000100804020100007048080808F000000052
:104F8000003036010000C030C828E810E0000718E3
:104F9000272423140B000000C038E0000000203C50
:104FA00023020227382008F8888888700000203FF4
:104FB000202020110E00C03008080808380007180B
:104FC00020202010080008F808080810E000203F02
:104FD000202020100F0008F88888E8081000203FE3
:104FE00020202320180008F88888E8081000203FB7
:104FF000200003000000C03008080838000007182F
:105000002020221E020008F808000008F808203FAF
:10501000210101213F20000808F8080800000020B5
:10502000203F2020000000000808F8080800C08089
:1050300080807F00000008F888C028180800203F02
:1050400020012638200008F8080000000000203F5A
:1050500020202020300008F8F800F8F80800203F51
:10506000003F003F200008F830C00008F808203F4B
:10507000200007183F00E01008080810E0000F109B
:10508000202020100F0008F808080808F000203F32
:10509000210101010000E01008080810E0000F18CD
:1050A000242438504F0008F8888888887000203FF2
:1050B0002000030C302000708808080838000038F1
:1050C000202121221C00180808F8080818000000F8
:1050D000203F2000000008F808000008F808001F22
:1050E000202020201F000878880000C83808000011
:1050F00007380E010000F80800F80008F800033C2B
:105100000700073C030008186880806818082030F2
:105110002C03032C30200838C800C83808000000D1
:10512000203F2000000010080808C8380800203878
:10513000262120201800000000FE020202000000CC
:10514000007F40404000000C30C000000000000024
:1051500000010638C00000020202FE00000000400C
:1051600040407F0000000000040202020400000032
:10517000000000000000000000000000000080802F
:105180008080808080800002020400000000000017
:1051900000000000000000008080808000000019F6
:1051A000242222223F2008F8008080000000003FD7
:1051B000112020110E000000008080800000000EF1
:1051C000112020201100000000808088F800000ECF
:1051D000112020103F200000808080800000001FF0
:1051E000222222221300008080F088888818002064
:1051F000203F202000000000808080808000006B25
:1052000094949493600008F8008080800000203F10
:10521000210000203F20008098980000000000201E
:10522000203F20200000000000809898000000C06F
:105230008080807F000008F8000080808000203F90
:1052400024022D302000000808F800000000002093
:10525000203F202000008080808080808000203FD0
:1052600020003F20003F8080008080800000203FA1
:10527000210000203F200000808080800000001F6F
:10528000202020201F00808000808000000080FF00
:10529000A12020110E000000008080808000000E00
:1052A000112020A0FF80808080008080800020204E
:1052B0003F212000010000008080808080000033BA
:1052C000242424241900008080E080800000000055
:1052D000001F202000008080000000808000001F50
:1052E000202020103F2080808000008080800001EE
:1052F0000E300806010080800080008080800F3022
:105300000C030C300F0000808000808080000020A3
:10531000312E0E31200080808000008080808081CE
:105320008E7018060100008080808080800000213F
:10533000302C2221300000000000807C020200009E
:105340000000003F404000000000FF00000000009F
:105350000000FF0000000002027C8000000000400E
:10536000403F0000000000060101020204040000AA
:105370000000000000000000555555555555C53F2B
:105380007D6FEB0312D6D4BF5544880E55C1C93F7B
:105390003B8F68B52882A4BF88B20175E0EF493F12
:1053A00009F7FD0DE13D023F4B2D8A1C273A03C052
:1053B000C88A599CE52A004059018D1B6C06E6BF3E
:1053C00082922EB1C5B8B33F000000000000F03F4C
:1053D000000000000000F83F000000000000000096
:1053E0000000004003B8E23F0000000000000000A1
:1053F00006D0CF43EBFD4C3E033333333333E33F2F
:10540000FFAB6FDBB66DDB3F4D268F515555D53F5A
:1054100001411DA96074D13F65DBC9934A86CD3F28
:10542000EF4E454A287ECA3F3E5555555555C53F16
:1054300093BDBE166CC166BF2CDE25AF6A56113F08
:10544000F16BD2C541BDBBBED0A4BE726937663E0A
:105450004FBB610567ACDD3F182D4454FB21E93F8C
:105460009BF681D20B73EF3F182D4454FB21F93F7B
:10547000E2652F227F2B7A3C075C143326A6813C01
:10548000BDCBF07A8807703C075C143326A6913CAC
:10549000C4EB98999999C9BF711623FEC671BCBF18
:1054A0006D9A74AFF2B0B3BF9AFDDE522DDEADBF80
:1054B0002F6C6A2C44B4A2BF0D5555555555D53F98
:1054C000FF8300922449C23F6E204CC5CD45B73FB3
:1054D000513DD0A0660DB13FEB0D76244B7BA93F2B
:1054E00011DA22E33AAD903F000000000000000016
:1054F0001055000800000020B800000068470008B0
:10550000C8550008B8000020800600007847000851
:10551000000000000000000000000000000000008B
:10552000000000000000000000000000010000007A
:1055300010000000000000000024F4000000000043
:105540000E00000008000000080000000900000034
:105550000400000000000000000000000000000047
:10556000000000000000000000000000000000003B
:10557000000000000000000000000000000000002B
:10558000000000000000000000000000000000001B
:10559000000000000000000000000000000000000B
:1055A00000000000000000000000000000000000FB
:1055B00000000000000000000000000000000000EB
:0855C0000000000000000000E3
:040000050800018965
:00000001FF
